{
	"contracts/crowdFunding.sol": {
		"CrowdFunding": {
			"abi": [
				{
					"inputs": [
						{
							"internalType": "uint256",
							"name": "_target",
							"type": "uint256"
						},
						{
							"internalType": "uint256",
							"name": "_deadline",
							"type": "uint256"
						}
					],
					"stateMutability": "nonpayable",
					"type": "constructor"
				},
				{
					"inputs": [
						{
							"internalType": "uint256",
							"name": "",
							"type": "uint256"
						}
					],
					"name": "allRequests",
					"outputs": [
						{
							"internalType": "string",
							"name": "description",
							"type": "string"
						},
						{
							"internalType": "address payable",
							"name": "recipient",
							"type": "address"
						},
						{
							"internalType": "uint256",
							"name": "value",
							"type": "uint256"
						},
						{
							"internalType": "bool",
							"name": "completed",
							"type": "bool"
						},
						{
							"internalType": "uint256",
							"name": "noOfVoters",
							"type": "uint256"
						}
					],
					"stateMutability": "view",
					"type": "function"
				},
				{
					"inputs": [
						{
							"internalType": "address",
							"name": "",
							"type": "address"
						}
					],
					"name": "contributors",
					"outputs": [
						{
							"internalType": "uint256",
							"name": "",
							"type": "uint256"
						}
					],
					"stateMutability": "view",
					"type": "function"
				},
				{
					"inputs": [],
					"name": "deadline",
					"outputs": [
						{
							"internalType": "uint256",
							"name": "",
							"type": "uint256"
						}
					],
					"stateMutability": "view",
					"type": "function"
				},
				{
					"inputs": [],
					"name": "getBal",
					"outputs": [
						{
							"internalType": "uint256",
							"name": "",
							"type": "uint256"
						}
					],
					"stateMutability": "view",
					"type": "function"
				},
				{
					"inputs": [
						{
							"internalType": "string",
							"name": "_description",
							"type": "string"
						},
						{
							"internalType": "address payable",
							"name": "_recipient",
							"type": "address"
						},
						{
							"internalType": "uint256",
							"name": "_value",
							"type": "uint256"
						}
					],
					"name": "makeRequest",
					"outputs": [],
					"stateMutability": "nonpayable",
					"type": "function"
				},
				{
					"inputs": [],
					"name": "minCont",
					"outputs": [
						{
							"internalType": "uint256",
							"name": "",
							"type": "uint256"
						}
					],
					"stateMutability": "view",
					"type": "function"
				},
				{
					"inputs": [],
					"name": "numOfRequests",
					"outputs": [
						{
							"internalType": "uint256",
							"name": "",
							"type": "uint256"
						}
					],
					"stateMutability": "view",
					"type": "function"
				},
				{
					"inputs": [],
					"name": "raisedAmount",
					"outputs": [
						{
							"internalType": "uint256",
							"name": "",
							"type": "uint256"
						}
					],
					"stateMutability": "view",
					"type": "function"
				},
				{
					"inputs": [],
					"name": "refund",
					"outputs": [],
					"stateMutability": "nonpayable",
					"type": "function"
				},
				{
					"inputs": [],
					"name": "sendEth",
					"outputs": [],
					"stateMutability": "payable",
					"type": "function"
				},
				{
					"inputs": [],
					"name": "target",
					"outputs": [
						{
							"internalType": "uint256",
							"name": "",
							"type": "uint256"
						}
					],
					"stateMutability": "view",
					"type": "function"
				},
				{
					"inputs": [
						{
							"internalType": "uint256",
							"name": "_ReqNo",
							"type": "uint256"
						}
					],
					"name": "voteRequest",
					"outputs": [],
					"stateMutability": "nonpayable",
					"type": "function"
				}
			],
			"devdoc": {
				"kind": "dev",
				"methods": {},
				"version": 1
			},
			"evm": {
				"assembly": "    /* \"contracts/crowdFunding.sol\":74:2033  contract CrowdFunding{... */\n  mstore(0x40, 0x80)\n    /* \"contracts/crowdFunding.sol\":599:782  constructor(uint _target, uint _deadline){... */\n  callvalue\n  dup1\n  iszero\n  tag_1\n  jumpi\n  0x00\n  dup1\n  revert\ntag_1:\n  pop\n  mload(0x40)\n  sub(codesize, bytecodeSize)\n  dup1\n  bytecodeSize\n  dup4\n  codecopy\n  dup2\n  dup2\n  add\n  0x40\n  mstore\n  dup2\n  add\n  swap1\n  tag_2\n  swap2\n  swap1\n  tag_3\n  jump\t// in\ntag_2:\n    /* \"contracts/crowdFunding.sol\":660:667  _target */\n  dup2\n    /* \"contracts/crowdFunding.sol\":651:657  target */\n  0x03\n    /* \"contracts/crowdFunding.sol\":651:667  target = _target */\n  dup2\n  swap1\n  sstore\n  pop\n    /* \"contracts/crowdFunding.sol\":707:716  _deadline */\n  dup1\n    /* \"contracts/crowdFunding.sol\":689:704  block.timestamp */\n  timestamp\n    /* \"contracts/crowdFunding.sol\":689:716  block.timestamp + _deadline */\n  tag_6\n  swap2\n  swap1\n  tag_7\n  jump\t// in\ntag_6:\n    /* \"contracts/crowdFunding.sol\":678:686  deadline */\n  0x04\n    /* \"contracts/crowdFunding.sol\":678:716  deadline = block.timestamp + _deadline */\n  dup2\n  swap1\n  sstore\n  pop\n    /* \"contracts/crowdFunding.sol\":737:743  10 wei */\n  0x0a\n    /* \"contracts/crowdFunding.sol\":727:734  minCont */\n  0x02\n    /* \"contracts/crowdFunding.sol\":727:743  minCont = 10 wei */\n  dup2\n  swap1\n  sstore\n  pop\n    /* \"contracts/crowdFunding.sol\":764:774  msg.sender */\n  caller\n    /* \"contracts/crowdFunding.sol\":754:761  maneger */\n  0x01\n  0x00\n    /* \"contracts/crowdFunding.sol\":754:774  maneger = msg.sender */\n  0x0100\n  exp\n  dup2\n  sload\n  dup2\n  0xffffffffffffffffffffffffffffffffffffffff\n  mul\n  not\n  and\n  swap1\n  dup4\n  0xffffffffffffffffffffffffffffffffffffffff\n  and\n  mul\n  or\n  swap1\n  sstore\n  pop\n    /* \"contracts/crowdFunding.sol\":599:782  constructor(uint _target, uint _deadline){... */\n  pop\n  pop\n    /* \"contracts/crowdFunding.sol\":74:2033  contract CrowdFunding{... */\n  jump(tag_8)\n    /* \"#utility.yul\":88:205   */\ntag_10:\n    /* \"#utility.yul\":197:198   */\n  0x00\n    /* \"#utility.yul\":194:195   */\n  dup1\n    /* \"#utility.yul\":187:199   */\n  revert\n    /* \"#utility.yul\":334:411   */\ntag_12:\n    /* \"#utility.yul\":371:378   */\n  0x00\n    /* \"#utility.yul\":400:405   */\n  dup2\n    /* \"#utility.yul\":389:405   */\n  swap1\n  pop\n    /* \"#utility.yul\":334:411   */\n  swap2\n  swap1\n  pop\n  jump\t// out\n    /* \"#utility.yul\":417:539   */\ntag_13:\n    /* \"#utility.yul\":490:514   */\n  tag_22\n    /* \"#utility.yul\":508:513   */\n  dup2\n    /* \"#utility.yul\":490:514   */\n  tag_12\n  jump\t// in\ntag_22:\n    /* \"#utility.yul\":483:488   */\n  dup2\n    /* \"#utility.yul\":480:515   */\n  eq\n    /* \"#utility.yul\":470:533   */\n  tag_23\n  jumpi\n    /* \"#utility.yul\":529:530   */\n  0x00\n    /* \"#utility.yul\":526:527   */\n  dup1\n    /* \"#utility.yul\":519:531   */\n  revert\n    /* \"#utility.yul\":470:533   */\ntag_23:\n    /* \"#utility.yul\":417:539   */\n  pop\n  jump\t// out\n    /* \"#utility.yul\":545:688   */\ntag_14:\n    /* \"#utility.yul\":602:607   */\n  0x00\n    /* \"#utility.yul\":633:639   */\n  dup2\n    /* \"#utility.yul\":627:640   */\n  mload\n    /* \"#utility.yul\":618:640   */\n  swap1\n  pop\n    /* \"#utility.yul\":649:682   */\n  tag_25\n    /* \"#utility.yul\":676:681   */\n  dup2\n    /* \"#utility.yul\":649:682   */\n  tag_13\n  jump\t// in\ntag_25:\n    /* \"#utility.yul\":545:688   */\n  swap3\n  swap2\n  pop\n  pop\n  jump\t// out\n    /* \"#utility.yul\":694:1201   */\ntag_3:\n    /* \"#utility.yul\":773:779   */\n  0x00\n    /* \"#utility.yul\":781:787   */\n  dup1\n    /* \"#utility.yul\":830:832   */\n  0x40\n    /* \"#utility.yul\":818:827   */\n  dup4\n    /* \"#utility.yul\":809:816   */\n  dup6\n    /* \"#utility.yul\":805:828   */\n  sub\n    /* \"#utility.yul\":801:833   */\n  slt\n    /* \"#utility.yul\":798:917   */\n  iszero\n  tag_27\n  jumpi\n    /* \"#utility.yul\":836:915   */\n  tag_28\n  tag_10\n  jump\t// in\ntag_28:\n    /* \"#utility.yul\":798:917   */\ntag_27:\n    /* \"#utility.yul\":956:957   */\n  0x00\n    /* \"#utility.yul\":981:1045   */\n  tag_29\n    /* \"#utility.yul\":1037:1044   */\n  dup6\n    /* \"#utility.yul\":1028:1034   */\n  dup3\n    /* \"#utility.yul\":1017:1026   */\n  dup7\n    /* \"#utility.yul\":1013:1035   */\n  add\n    /* \"#utility.yul\":981:1045   */\n  tag_14\n  jump\t// in\ntag_29:\n    /* \"#utility.yul\":971:1045   */\n  swap3\n  pop\n    /* \"#utility.yul\":927:1055   */\n  pop\n    /* \"#utility.yul\":1094:1096   */\n  0x20\n    /* \"#utility.yul\":1120:1184   */\n  tag_30\n    /* \"#utility.yul\":1176:1183   */\n  dup6\n    /* \"#utility.yul\":1167:1173   */\n  dup3\n    /* \"#utility.yul\":1156:1165   */\n  dup7\n    /* \"#utility.yul\":1152:1174   */\n  add\n    /* \"#utility.yul\":1120:1184   */\n  tag_14\n  jump\t// in\ntag_30:\n    /* \"#utility.yul\":1110:1184   */\n  swap2\n  pop\n    /* \"#utility.yul\":1065:1194   */\n  pop\n    /* \"#utility.yul\":694:1201   */\n  swap3\n  pop\n  swap3\n  swap1\n  pop\n  jump\t// out\n    /* \"#utility.yul\":1207:1387   */\ntag_15:\n    /* \"#utility.yul\":1255:1332   */\n  0x4e487b7100000000000000000000000000000000000000000000000000000000\n    /* \"#utility.yul\":1252:1253   */\n  0x00\n    /* \"#utility.yul\":1245:1333   */\n  mstore\n    /* \"#utility.yul\":1352:1356   */\n  0x11\n    /* \"#utility.yul\":1349:1350   */\n  0x04\n    /* \"#utility.yul\":1342:1357   */\n  mstore\n    /* \"#utility.yul\":1376:1380   */\n  0x24\n    /* \"#utility.yul\":1373:1374   */\n  0x00\n    /* \"#utility.yul\":1366:1381   */\n  revert\n    /* \"#utility.yul\":1393:1698   */\ntag_7:\n    /* \"#utility.yul\":1433:1436   */\n  0x00\n    /* \"#utility.yul\":1452:1472   */\n  tag_33\n    /* \"#utility.yul\":1470:1471   */\n  dup3\n    /* \"#utility.yul\":1452:1472   */\n  tag_12\n  jump\t// in\ntag_33:\n    /* \"#utility.yul\":1447:1472   */\n  swap2\n  pop\n    /* \"#utility.yul\":1486:1506   */\n  tag_34\n    /* \"#utility.yul\":1504:1505   */\n  dup4\n    /* \"#utility.yul\":1486:1506   */\n  tag_12\n  jump\t// in\ntag_34:\n    /* \"#utility.yul\":1481:1506   */\n  swap3\n  pop\n    /* \"#utility.yul\":1640:1641   */\n  dup3\n    /* \"#utility.yul\":1572:1638   */\n  0xffffffffffffffffffffffffffffffffffffffffffffffffffffffffffffffff\n    /* \"#utility.yul\":1568:1642   */\n  sub\n    /* \"#utility.yul\":1565:1566   */\n  dup3\n    /* \"#utility.yul\":1562:1643   */\n  gt\n    /* \"#utility.yul\":1559:1666   */\n  iszero\n  tag_35\n  jumpi\n    /* \"#utility.yul\":1646:1664   */\n  tag_36\n  tag_15\n  jump\t// in\ntag_36:\n    /* \"#utility.yul\":1559:1666   */\ntag_35:\n    /* \"#utility.yul\":1690:1691   */\n  dup3\n    /* \"#utility.yul\":1687:1688   */\n  dup3\n    /* \"#utility.yul\":1683:1692   */\n  add\n    /* \"#utility.yul\":1676:1692   */\n  swap1\n  pop\n    /* \"#utility.yul\":1393:1698   */\n  swap3\n  swap2\n  pop\n  pop\n  jump\t// out\n    /* \"contracts/crowdFunding.sol\":74:2033  contract CrowdFunding{... */\ntag_8:\n  dataSize(sub_0)\n  dup1\n  dataOffset(sub_0)\n  0x00\n  codecopy\n  0x00\n  return\nstop\n\nsub_0: assembly {\n        /* \"contracts/crowdFunding.sol\":74:2033  contract CrowdFunding{... */\n      mstore(0x40, 0x80)\n      jumpi(tag_1, lt(calldatasize, 0x04))\n      shr(0xe0, calldataload(0x00))\n      dup1\n      0x728d545f\n      gt\n      tag_14\n      jumpi\n      dup1\n      0x728d545f\n      eq\n      tag_8\n      jumpi\n      dup1\n      0x9bf4ec2f\n      eq\n      tag_9\n      jumpi\n      dup1\n      0xb5fdcfa3\n      eq\n      tag_10\n      jumpi\n      dup1\n      0xb6290e76\n      eq\n      tag_11\n      jumpi\n      dup1\n      0xc59ee1dc\n      eq\n      tag_12\n      jumpi\n      dup1\n      0xd4b83992\n      eq\n      tag_13\n      jumpi\n      jump(tag_1)\n    tag_14:\n      dup1\n      0x06e99fef\n      eq\n      tag_2\n      jumpi\n      dup1\n      0x1f6d4942\n      eq\n      tag_3\n      jumpi\n      dup1\n      0x25caa262\n      eq\n      tag_4\n      jumpi\n      dup1\n      0x29dcb0cf\n      eq\n      tag_5\n      jumpi\n      dup1\n      0x4cb6f4a5\n      eq\n      tag_6\n      jumpi\n      dup1\n      0x590e1ae3\n      eq\n      tag_7\n      jumpi\n    tag_1:\n      0x00\n      dup1\n      revert\n        /* \"contracts/crowdFunding.sol\":790:1081  function sendEth() public payable{... */\n    tag_2:\n      tag_15\n      tag_16\n      jump\t// in\n    tag_15:\n      stop\n        /* \"contracts/crowdFunding.sol\":102:146  mapping(address => uint) public contributors */\n    tag_3:\n      callvalue\n      dup1\n      iszero\n      tag_17\n      jumpi\n      0x00\n      dup1\n      revert\n    tag_17:\n      pop\n      tag_18\n      0x04\n      dup1\n      calldatasize\n      sub\n      dup2\n      add\n      swap1\n      tag_19\n      swap2\n      swap1\n      tag_20\n      jump\t// in\n    tag_19:\n      tag_21\n      jump\t// in\n    tag_18:\n      mload(0x40)\n      tag_22\n      swap2\n      swap1\n      tag_23\n      jump\t// in\n    tag_22:\n      mload(0x40)\n      dup1\n      swap2\n      sub\n      swap1\n      return\n        /* \"contracts/crowdFunding.sol\":1087:1177  function getBal() public view returns(uint){... */\n    tag_4:\n      callvalue\n      dup1\n      iszero\n      tag_24\n      jumpi\n      0x00\n      dup1\n      revert\n    tag_24:\n      pop\n      tag_25\n      tag_26\n      jump\t// in\n    tag_25:\n      mload(0x40)\n      tag_27\n      swap2\n      swap1\n      tag_23\n      jump\t// in\n    tag_27:\n      mload(0x40)\n      dup1\n      swap2\n      sub\n      swap1\n      return\n        /* \"contracts/crowdFunding.sol\":227:247  uint public deadline */\n    tag_5:\n      callvalue\n      dup1\n      iszero\n      tag_28\n      jumpi\n      0x00\n      dup1\n      revert\n    tag_28:\n      pop\n      tag_29\n      tag_30\n      jump\t// in\n    tag_29:\n      mload(0x40)\n      tag_31\n      swap2\n      swap1\n      tag_23\n      jump\t// in\n    tag_31:\n      mload(0x40)\n      dup1\n      swap2\n      sub\n      swap1\n      return\n        /* \"contracts/crowdFunding.sol\":1971:2030  function voteRequest(uint _ReqNo) public {... */\n    tag_6:\n      callvalue\n      dup1\n      iszero\n      tag_32\n      jumpi\n      0x00\n      dup1\n      revert\n    tag_32:\n      pop\n      tag_33\n      0x04\n      dup1\n      calldatasize\n      sub\n      dup2\n      add\n      swap1\n      tag_34\n      swap2\n      swap1\n      tag_35\n      jump\t// in\n    tag_34:\n      tag_36\n      jump\t// in\n    tag_33:\n      stop\n        /* \"contracts/crowdFunding.sol\":1183:1478  function refund() public{... */\n    tag_7:\n      callvalue\n      dup1\n      iszero\n      tag_37\n      jumpi\n      0x00\n      dup1\n      revert\n    tag_37:\n      pop\n      tag_38\n      tag_39\n      jump\t// in\n    tag_38:\n      stop\n        /* \"contracts/crowdFunding.sol\":176:195  uint public minCont */\n    tag_8:\n      callvalue\n      dup1\n      iszero\n      tag_40\n      jumpi\n      0x00\n      dup1\n      revert\n    tag_40:\n      pop\n      tag_41\n      tag_42\n      jump\t// in\n    tag_41:\n      mload(0x40)\n      tag_43\n      swap2\n      swap1\n      tag_23\n      jump\t// in\n    tag_43:\n      mload(0x40)\n      dup1\n      swap2\n      sub\n      swap1\n      return\n        /* \"contracts/crowdFunding.sol\":517:558  mapping(uint=>Request) public allRequests */\n    tag_9:\n      callvalue\n      dup1\n      iszero\n      tag_44\n      jumpi\n      0x00\n      dup1\n      revert\n    tag_44:\n      pop\n      tag_45\n      0x04\n      dup1\n      calldatasize\n      sub\n      dup2\n      add\n      swap1\n      tag_46\n      swap2\n      swap1\n      tag_35\n      jump\t// in\n    tag_46:\n      tag_47\n      jump\t// in\n    tag_45:\n      mload(0x40)\n      tag_48\n      swap6\n      swap5\n      swap4\n      swap3\n      swap2\n      swap1\n      tag_49\n      jump\t// in\n    tag_48:\n      mload(0x40)\n      dup1\n      swap2\n      sub\n      swap1\n      return\n        /* \"contracts/crowdFunding.sol\":1590:1965  function makeRequest(string memory _description, address payable _recipient, uint _value) public onlyManeger{... */\n    tag_10:\n      callvalue\n      dup1\n      iszero\n      tag_50\n      jumpi\n      0x00\n      dup1\n      revert\n    tag_50:\n      pop\n      tag_51\n      0x04\n      dup1\n      calldatasize\n      sub\n      dup2\n      add\n      swap1\n      tag_52\n      swap2\n      swap1\n      tag_53\n      jump\t// in\n    tag_52:\n      tag_54\n      jump\t// in\n    tag_51:\n      stop\n        /* \"contracts/crowdFunding.sol\":565:590  uint public numOfRequests */\n    tag_11:\n      callvalue\n      dup1\n      iszero\n      tag_55\n      jumpi\n      0x00\n      dup1\n      revert\n    tag_55:\n      pop\n      tag_56\n      tag_57\n      jump\t// in\n    tag_56:\n      mload(0x40)\n      tag_58\n      swap2\n      swap1\n      tag_23\n      jump\t// in\n    tag_58:\n      mload(0x40)\n      dup1\n      swap2\n      sub\n      swap1\n      return\n        /* \"contracts/crowdFunding.sol\":275:299  uint public raisedAmount */\n    tag_12:\n      callvalue\n      dup1\n      iszero\n      tag_59\n      jumpi\n      0x00\n      dup1\n      revert\n    tag_59:\n      pop\n      tag_60\n      tag_61\n      jump\t// in\n    tag_60:\n      mload(0x40)\n      tag_62\n      swap2\n      swap1\n      tag_23\n      jump\t// in\n    tag_62:\n      mload(0x40)\n      dup1\n      swap2\n      sub\n      swap1\n      return\n        /* \"contracts/crowdFunding.sol\":202:220  uint public target */\n    tag_13:\n      callvalue\n      dup1\n      iszero\n      tag_63\n      jumpi\n      0x00\n      dup1\n      revert\n    tag_63:\n      pop\n      tag_64\n      tag_65\n      jump\t// in\n    tag_64:\n      mload(0x40)\n      tag_66\n      swap2\n      swap1\n      tag_23\n      jump\t// in\n    tag_66:\n      mload(0x40)\n      dup1\n      swap2\n      sub\n      swap1\n      return\n        /* \"contracts/crowdFunding.sol\":790:1081  function sendEth() public payable{... */\n    tag_16:\n        /* \"contracts/crowdFunding.sol\":860:868  deadline */\n      sload(0x04)\n        /* \"contracts/crowdFunding.sol\":842:857  block.timestamp */\n      timestamp\n        /* \"contracts/crowdFunding.sol\":842:868  block.timestamp < deadline */\n      lt\n        /* \"contracts/crowdFunding.sol\":834:869  require(block.timestamp < deadline) */\n      tag_68\n      jumpi\n      0x00\n      dup1\n      revert\n    tag_68:\n        /* \"contracts/crowdFunding.sol\":901:908  minCont */\n      sload(0x02)\n        /* \"contracts/crowdFunding.sol\":888:897  msg.value */\n      callvalue\n        /* \"contracts/crowdFunding.sol\":888:908  msg.value >= minCont */\n      lt\n      iszero\n        /* \"contracts/crowdFunding.sol\":880:909  require(msg.value >= minCont) */\n      tag_69\n      jumpi\n      0x00\n      dup1\n      revert\n    tag_69:\n        /* \"contracts/crowdFunding.sol\":951:952  0 */\n      0x00\n        /* \"contracts/crowdFunding.sol\":923:935  contributors */\n      dup1\n        /* \"contracts/crowdFunding.sol\":923:947  contributors[msg.sender] */\n      0x00\n        /* \"contracts/crowdFunding.sol\":936:946  msg.sender */\n      caller\n        /* \"contracts/crowdFunding.sol\":923:947  contributors[msg.sender] */\n      0xffffffffffffffffffffffffffffffffffffffff\n      and\n      0xffffffffffffffffffffffffffffffffffffffff\n      and\n      dup2\n      mstore\n      0x20\n      add\n      swap1\n      dup2\n      mstore\n      0x20\n      add\n      0x00\n      keccak256\n      sload\n        /* \"contracts/crowdFunding.sol\":923:952  contributors[msg.sender] == 0 */\n      sub\n        /* \"contracts/crowdFunding.sol\":920:990  if(contributors[msg.sender] == 0){... */\n      tag_70\n      jumpi\n        /* \"contracts/crowdFunding.sol\":968:976  noOfCont */\n      0x05\n      0x00\n        /* \"contracts/crowdFunding.sol\":968:978  noOfCont++ */\n      dup2\n      sload\n      dup1\n      swap3\n      swap2\n      swap1\n      tag_71\n      swap1\n      tag_72\n      jump\t// in\n    tag_71:\n      swap2\n      swap1\n      pop\n      sstore\n      pop\n        /* \"contracts/crowdFunding.sol\":920:990  if(contributors[msg.sender] == 0){... */\n    tag_70:\n        /* \"contracts/crowdFunding.sol\":1028:1037  msg.value */\n      callvalue\n        /* \"contracts/crowdFunding.sol\":1000:1012  contributors */\n      0x00\n        /* \"contracts/crowdFunding.sol\":1000:1024  contributors[msg.sender] */\n      dup1\n        /* \"contracts/crowdFunding.sol\":1013:1023  msg.sender */\n      caller\n        /* \"contracts/crowdFunding.sol\":1000:1024  contributors[msg.sender] */\n      0xffffffffffffffffffffffffffffffffffffffff\n      and\n      0xffffffffffffffffffffffffffffffffffffffff\n      and\n      dup2\n      mstore\n      0x20\n      add\n      swap1\n      dup2\n      mstore\n      0x20\n      add\n      0x00\n      keccak256\n      0x00\n        /* \"contracts/crowdFunding.sol\":1000:1037  contributors[msg.sender] += msg.value */\n      dup3\n      dup3\n      sload\n      tag_73\n      swap2\n      swap1\n      tag_74\n      jump\t// in\n    tag_73:\n      swap3\n      pop\n      pop\n      dup2\n      swap1\n      sstore\n      pop\n        /* \"contracts/crowdFunding.sol\":1064:1073  msg.value */\n      callvalue\n        /* \"contracts/crowdFunding.sol\":1048:1060  raisedAmount */\n      0x06\n      0x00\n        /* \"contracts/crowdFunding.sol\":1048:1073  raisedAmount += msg.value */\n      dup3\n      dup3\n      sload\n      tag_75\n      swap2\n      swap1\n      tag_74\n      jump\t// in\n    tag_75:\n      swap3\n      pop\n      pop\n      dup2\n      swap1\n      sstore\n      pop\n        /* \"contracts/crowdFunding.sol\":790:1081  function sendEth() public payable{... */\n      jump\t// out\n        /* \"contracts/crowdFunding.sol\":102:146  mapping(address => uint) public contributors */\n    tag_21:\n      mstore(0x20, 0x00)\n      dup1\n      0x00\n      mstore\n      keccak256(0x00, 0x40)\n      0x00\n      swap2\n      pop\n      swap1\n      pop\n      sload\n      dup2\n      jump\t// out\n        /* \"contracts/crowdFunding.sol\":1087:1177  function getBal() public view returns(uint){... */\n    tag_26:\n        /* \"contracts/crowdFunding.sol\":1125:1129  uint */\n      0x00\n        /* \"contracts/crowdFunding.sol\":1148:1169  address(this).balance */\n      selfbalance\n        /* \"contracts/crowdFunding.sol\":1141:1169  return address(this).balance */\n      swap1\n      pop\n        /* \"contracts/crowdFunding.sol\":1087:1177  function getBal() public view returns(uint){... */\n      swap1\n      jump\t// out\n        /* \"contracts/crowdFunding.sol\":227:247  uint public deadline */\n    tag_30:\n      sload(0x04)\n      dup2\n      jump\t// out\n        /* \"contracts/crowdFunding.sol\":1971:2030  function voteRequest(uint _ReqNo) public {... */\n    tag_36:\n      pop\n      jump\t// out\n        /* \"contracts/crowdFunding.sol\":1183:1478  function refund() public{... */\n    tag_39:\n        /* \"contracts/crowdFunding.sol\":1244:1252  deadline */\n      sload(0x04)\n        /* \"contracts/crowdFunding.sol\":1226:1241  block.timestamp */\n      timestamp\n        /* \"contracts/crowdFunding.sol\":1226:1252  block.timestamp < deadline */\n      lt\n        /* \"contracts/crowdFunding.sol\":1226:1277  block.timestamp < deadline && raisedAmount < target */\n      dup1\n      iszero\n      tag_79\n      jumpi\n      pop\n        /* \"contracts/crowdFunding.sol\":1271:1277  target */\n      sload(0x03)\n        /* \"contracts/crowdFunding.sol\":1256:1268  raisedAmount */\n      sload(0x06)\n        /* \"contracts/crowdFunding.sol\":1256:1277  raisedAmount < target */\n      lt\n        /* \"contracts/crowdFunding.sol\":1226:1277  block.timestamp < deadline && raisedAmount < target */\n    tag_79:\n        /* \"contracts/crowdFunding.sol\":1218:1278  require(block.timestamp < deadline && raisedAmount < target) */\n      tag_80\n      jumpi\n      0x00\n      dup1\n      revert\n    tag_80:\n        /* \"contracts/crowdFunding.sol\":1324:1325  0 */\n      0x00\n        /* \"contracts/crowdFunding.sol\":1297:1309  contributors */\n      dup1\n        /* \"contracts/crowdFunding.sol\":1297:1321  contributors[msg.sender] */\n      0x00\n        /* \"contracts/crowdFunding.sol\":1310:1320  msg.sender */\n      caller\n        /* \"contracts/crowdFunding.sol\":1297:1321  contributors[msg.sender] */\n      0xffffffffffffffffffffffffffffffffffffffff\n      and\n      0xffffffffffffffffffffffffffffffffffffffff\n      and\n      dup2\n      mstore\n      0x20\n      add\n      swap1\n      dup2\n      mstore\n      0x20\n      add\n      0x00\n      keccak256\n      sload\n        /* \"contracts/crowdFunding.sol\":1297:1325  contributors[msg.sender] > 0 */\n      gt\n        /* \"contracts/crowdFunding.sol\":1289:1326  require(contributors[msg.sender] > 0) */\n      tag_81\n      jumpi\n      0x00\n      dup1\n      revert\n    tag_81:\n        /* \"contracts/crowdFunding.sol\":1339:1359  address payable user */\n      0x00\n        /* \"contracts/crowdFunding.sol\":1370:1380  msg.sender */\n      caller\n        /* \"contracts/crowdFunding.sol\":1339:1381  address payable user = payable(msg.sender) */\n      swap1\n      pop\n        /* \"contracts/crowdFunding.sol\":1392:1396  user */\n      dup1\n        /* \"contracts/crowdFunding.sol\":1392:1405  user.transfer */\n      0xffffffffffffffffffffffffffffffffffffffff\n      and\n        /* \"contracts/crowdFunding.sol\":1392:1431  user.transfer(contributors[msg.sender]) */\n      0x08fc\n        /* \"contracts/crowdFunding.sol\":1406:1418  contributors */\n      0x00\n        /* \"contracts/crowdFunding.sol\":1406:1430  contributors[msg.sender] */\n      dup1\n        /* \"contracts/crowdFunding.sol\":1419:1429  msg.sender */\n      caller\n        /* \"contracts/crowdFunding.sol\":1406:1430  contributors[msg.sender] */\n      0xffffffffffffffffffffffffffffffffffffffff\n      and\n      0xffffffffffffffffffffffffffffffffffffffff\n      and\n      dup2\n      mstore\n      0x20\n      add\n      swap1\n      dup2\n      mstore\n      0x20\n      add\n      0x00\n      keccak256\n      sload\n        /* \"contracts/crowdFunding.sol\":1392:1431  user.transfer(contributors[msg.sender]) */\n      swap1\n      dup2\n      iszero\n      mul\n      swap1\n      mload(0x40)\n      0x00\n      mload(0x40)\n      dup1\n      dup4\n      sub\n      dup2\n      dup6\n      dup9\n      dup9\n      call\n      swap4\n      pop\n      pop\n      pop\n      pop\n      iszero\n      dup1\n      iszero\n      tag_83\n      jumpi\n      returndatasize\n      0x00\n      dup1\n      returndatacopy\n      revert(0x00, returndatasize)\n    tag_83:\n      pop\n        /* \"contracts/crowdFunding.sol\":1469:1470  0 */\n      0x00\n        /* \"contracts/crowdFunding.sol\":1442:1454  contributors */\n      dup1\n        /* \"contracts/crowdFunding.sol\":1442:1466  contributors[msg.sender] */\n      0x00\n        /* \"contracts/crowdFunding.sol\":1455:1465  msg.sender */\n      caller\n        /* \"contracts/crowdFunding.sol\":1442:1466  contributors[msg.sender] */\n      0xffffffffffffffffffffffffffffffffffffffff\n      and\n      0xffffffffffffffffffffffffffffffffffffffff\n      and\n      dup2\n      mstore\n      0x20\n      add\n      swap1\n      dup2\n      mstore\n      0x20\n      add\n      0x00\n      keccak256\n        /* \"contracts/crowdFunding.sol\":1442:1470  contributors[msg.sender] = 0 */\n      dup2\n      swap1\n      sstore\n      pop\n        /* \"contracts/crowdFunding.sol\":1207:1478  {... */\n      pop\n        /* \"contracts/crowdFunding.sol\":1183:1478  function refund() public{... */\n      jump\t// out\n        /* \"contracts/crowdFunding.sol\":176:195  uint public minCont */\n    tag_42:\n      sload(0x02)\n      dup2\n      jump\t// out\n        /* \"contracts/crowdFunding.sol\":517:558  mapping(uint=>Request) public allRequests */\n    tag_47:\n      mstore(0x20, 0x07)\n      dup1\n      0x00\n      mstore\n      keccak256(0x00, 0x40)\n      0x00\n      swap2\n      pop\n      swap1\n      pop\n      dup1\n      0x00\n      add\n      dup1\n      sload\n      tag_84\n      swap1\n      tag_85\n      jump\t// in\n    tag_84:\n      dup1\n      0x1f\n      add\n      0x20\n      dup1\n      swap2\n      div\n      mul\n      0x20\n      add\n      mload(0x40)\n      swap1\n      dup2\n      add\n      0x40\n      mstore\n      dup1\n      swap3\n      swap2\n      swap1\n      dup2\n      dup2\n      mstore\n      0x20\n      add\n      dup3\n      dup1\n      sload\n      tag_86\n      swap1\n      tag_85\n      jump\t// in\n    tag_86:\n      dup1\n      iszero\n      tag_87\n      jumpi\n      dup1\n      0x1f\n      lt\n      tag_88\n      jumpi\n      0x0100\n      dup1\n      dup4\n      sload\n      div\n      mul\n      dup4\n      mstore\n      swap2\n      0x20\n      add\n      swap2\n      jump(tag_87)\n    tag_88:\n      dup3\n      add\n      swap2\n      swap1\n      0x00\n      mstore\n      keccak256(0x00, 0x20)\n      swap1\n    tag_89:\n      dup2\n      sload\n      dup2\n      mstore\n      swap1\n      0x01\n      add\n      swap1\n      0x20\n      add\n      dup1\n      dup4\n      gt\n      tag_89\n      jumpi\n      dup3\n      swap1\n      sub\n      0x1f\n      and\n      dup3\n      add\n      swap2\n    tag_87:\n      pop\n      pop\n      pop\n      pop\n      pop\n      swap1\n      dup1\n      0x01\n      add\n      0x00\n      swap1\n      sload\n      swap1\n      0x0100\n      exp\n      swap1\n      div\n      0xffffffffffffffffffffffffffffffffffffffff\n      and\n      swap1\n      dup1\n      0x02\n      add\n      sload\n      swap1\n      dup1\n      0x03\n      add\n      0x00\n      swap1\n      sload\n      swap1\n      0x0100\n      exp\n      swap1\n      div\n      0xff\n      and\n      swap1\n      dup1\n      0x04\n      add\n      sload\n      swap1\n      pop\n      dup6\n      jump\t// out\n        /* \"contracts/crowdFunding.sol\":1590:1965  function makeRequest(string memory _description, address payable _recipient, uint _value) public onlyManeger{... */\n    tag_54:\n        /* \"contracts/crowdFunding.sol\":1537:1544  maneger */\n      0x01\n      0x00\n      swap1\n      sload\n      swap1\n      0x0100\n      exp\n      swap1\n      div\n      0xffffffffffffffffffffffffffffffffffffffff\n      and\n        /* \"contracts/crowdFunding.sol\":1525:1544  msg.sender==maneger */\n      0xffffffffffffffffffffffffffffffffffffffff\n      and\n        /* \"contracts/crowdFunding.sol\":1525:1535  msg.sender */\n      caller\n        /* \"contracts/crowdFunding.sol\":1525:1544  msg.sender==maneger */\n      0xffffffffffffffffffffffffffffffffffffffff\n      and\n      eq\n        /* \"contracts/crowdFunding.sol\":1517:1564  require(msg.sender==maneger, \"not the maneger\") */\n      tag_91\n      jumpi\n      mload(0x40)\n      0x08c379a000000000000000000000000000000000000000000000000000000000\n      dup2\n      mstore\n      0x04\n      add\n      tag_92\n      swap1\n      tag_93\n      jump\t// in\n    tag_92:\n      mload(0x40)\n      dup1\n      swap2\n      sub\n      swap1\n      revert\n    tag_91:\n        /* \"contracts/crowdFunding.sol\":1709:1729  Request storage newR */\n      0x00\n        /* \"contracts/crowdFunding.sol\":1732:1743  allRequests */\n      0x07\n        /* \"contracts/crowdFunding.sol\":1732:1758  allRequests[numOfRequests] */\n      0x00\n        /* \"contracts/crowdFunding.sol\":1744:1757  numOfRequests */\n      sload(0x08)\n        /* \"contracts/crowdFunding.sol\":1732:1758  allRequests[numOfRequests] */\n      dup2\n      mstore\n      0x20\n      add\n      swap1\n      dup2\n      mstore\n      0x20\n      add\n      0x00\n      keccak256\n        /* \"contracts/crowdFunding.sol\":1709:1758  Request storage newR = allRequests[numOfRequests] */\n      swap1\n      pop\n        /* \"contracts/crowdFunding.sol\":1769:1782  numOfRequests */\n      0x08\n      0x00\n        /* \"contracts/crowdFunding.sol\":1769:1784  numOfRequests++ */\n      dup2\n      sload\n      dup1\n      swap3\n      swap2\n      swap1\n      tag_95\n      swap1\n      tag_72\n      jump\t// in\n    tag_95:\n      swap2\n      swap1\n      pop\n      sstore\n      pop\n        /* \"contracts/crowdFunding.sol\":1814:1826  _description */\n      dup4\n        /* \"contracts/crowdFunding.sol\":1795:1799  newR */\n      dup2\n        /* \"contracts/crowdFunding.sol\":1795:1811  newR.description */\n      0x00\n      add\n        /* \"contracts/crowdFunding.sol\":1795:1826  newR.description = _description */\n      swap1\n      dup2\n      tag_96\n      swap2\n      swap1\n      tag_97\n      jump\t// in\n    tag_96:\n      pop\n        /* \"contracts/crowdFunding.sol\":1854:1864  _recipient */\n      dup3\n        /* \"contracts/crowdFunding.sol\":1837:1841  newR */\n      dup2\n        /* \"contracts/crowdFunding.sol\":1837:1851  newR.recipient */\n      0x01\n      add\n      0x00\n        /* \"contracts/crowdFunding.sol\":1837:1864  newR.recipient = _recipient */\n      0x0100\n      exp\n      dup2\n      sload\n      dup2\n      0xffffffffffffffffffffffffffffffffffffffff\n      mul\n      not\n      and\n      swap1\n      dup4\n      0xffffffffffffffffffffffffffffffffffffffff\n      and\n      mul\n      or\n      swap1\n      sstore\n      pop\n        /* \"contracts/crowdFunding.sol\":1888:1894  _value */\n      dup2\n        /* \"contracts/crowdFunding.sol\":1875:1879  newR */\n      dup2\n        /* \"contracts/crowdFunding.sol\":1875:1885  newR.value */\n      0x02\n      add\n        /* \"contracts/crowdFunding.sol\":1875:1894  newR.value = _value */\n      dup2\n      swap1\n      sstore\n      pop\n        /* \"contracts/crowdFunding.sol\":1922:1927  false */\n      0x00\n        /* \"contracts/crowdFunding.sol\":1905:1909  newR */\n      dup2\n        /* \"contracts/crowdFunding.sol\":1905:1919  newR.completed */\n      0x03\n      add\n      0x00\n        /* \"contracts/crowdFunding.sol\":1905:1927  newR.completed = false */\n      0x0100\n      exp\n      dup2\n      sload\n      dup2\n      0xff\n      mul\n      not\n      and\n      swap1\n      dup4\n      iszero\n      iszero\n      mul\n      or\n      swap1\n      sstore\n      pop\n        /* \"contracts/crowdFunding.sol\":1956:1957  0 */\n      0x00\n        /* \"contracts/crowdFunding.sol\":1938:1942  newR */\n      dup2\n        /* \"contracts/crowdFunding.sol\":1938:1953  newR.noOfVoters */\n      0x04\n      add\n        /* \"contracts/crowdFunding.sol\":1938:1957  newR.noOfVoters = 0 */\n      dup2\n      swap1\n      sstore\n      pop\n        /* \"contracts/crowdFunding.sol\":1698:1965  {... */\n      pop\n        /* \"contracts/crowdFunding.sol\":1590:1965  function makeRequest(string memory _description, address payable _recipient, uint _value) public onlyManeger{... */\n      pop\n      pop\n      pop\n      jump\t// out\n        /* \"contracts/crowdFunding.sol\":565:590  uint public numOfRequests */\n    tag_57:\n      sload(0x08)\n      dup2\n      jump\t// out\n        /* \"contracts/crowdFunding.sol\":275:299  uint public raisedAmount */\n    tag_61:\n      sload(0x06)\n      dup2\n      jump\t// out\n        /* \"contracts/crowdFunding.sol\":202:220  uint public target */\n    tag_65:\n      sload(0x03)\n      dup2\n      jump\t// out\n        /* \"#utility.yul\":7:82   */\n    tag_98:\n        /* \"#utility.yul\":40:46   */\n      0x00\n        /* \"#utility.yul\":73:75   */\n      0x40\n        /* \"#utility.yul\":67:76   */\n      mload\n        /* \"#utility.yul\":57:76   */\n      swap1\n      pop\n        /* \"#utility.yul\":7:82   */\n      swap1\n      jump\t// out\n        /* \"#utility.yul\":88:205   */\n    tag_99:\n        /* \"#utility.yul\":197:198   */\n      0x00\n        /* \"#utility.yul\":194:195   */\n      dup1\n        /* \"#utility.yul\":187:199   */\n      revert\n        /* \"#utility.yul\":211:328   */\n    tag_100:\n        /* \"#utility.yul\":320:321   */\n      0x00\n        /* \"#utility.yul\":317:318   */\n      dup1\n        /* \"#utility.yul\":310:322   */\n      revert\n        /* \"#utility.yul\":334:460   */\n    tag_101:\n        /* \"#utility.yul\":371:378   */\n      0x00\n        /* \"#utility.yul\":411:453   */\n      0xffffffffffffffffffffffffffffffffffffffff\n        /* \"#utility.yul\":404:409   */\n      dup3\n        /* \"#utility.yul\":400:454   */\n      and\n        /* \"#utility.yul\":389:454   */\n      swap1\n      pop\n        /* \"#utility.yul\":334:460   */\n      swap2\n      swap1\n      pop\n      jump\t// out\n        /* \"#utility.yul\":466:562   */\n    tag_102:\n        /* \"#utility.yul\":503:510   */\n      0x00\n        /* \"#utility.yul\":532:556   */\n      tag_154\n        /* \"#utility.yul\":550:555   */\n      dup3\n        /* \"#utility.yul\":532:556   */\n      tag_101\n      jump\t// in\n    tag_154:\n        /* \"#utility.yul\":521:556   */\n      swap1\n      pop\n        /* \"#utility.yul\":466:562   */\n      swap2\n      swap1\n      pop\n      jump\t// out\n        /* \"#utility.yul\":568:690   */\n    tag_103:\n        /* \"#utility.yul\":641:665   */\n      tag_156\n        /* \"#utility.yul\":659:664   */\n      dup2\n        /* \"#utility.yul\":641:665   */\n      tag_102\n      jump\t// in\n    tag_156:\n        /* \"#utility.yul\":634:639   */\n      dup2\n        /* \"#utility.yul\":631:666   */\n      eq\n        /* \"#utility.yul\":621:684   */\n      tag_157\n      jumpi\n        /* \"#utility.yul\":680:681   */\n      0x00\n        /* \"#utility.yul\":677:678   */\n      dup1\n        /* \"#utility.yul\":670:682   */\n      revert\n        /* \"#utility.yul\":621:684   */\n    tag_157:\n        /* \"#utility.yul\":568:690   */\n      pop\n      jump\t// out\n        /* \"#utility.yul\":696:835   */\n    tag_104:\n        /* \"#utility.yul\":742:747   */\n      0x00\n        /* \"#utility.yul\":780:786   */\n      dup2\n        /* \"#utility.yul\":767:787   */\n      calldataload\n        /* \"#utility.yul\":758:787   */\n      swap1\n      pop\n        /* \"#utility.yul\":796:829   */\n      tag_159\n        /* \"#utility.yul\":823:828   */\n      dup2\n        /* \"#utility.yul\":796:829   */\n      tag_103\n      jump\t// in\n    tag_159:\n        /* \"#utility.yul\":696:835   */\n      swap3\n      swap2\n      pop\n      pop\n      jump\t// out\n        /* \"#utility.yul\":841:1170   */\n    tag_20:\n        /* \"#utility.yul\":900:906   */\n      0x00\n        /* \"#utility.yul\":949:951   */\n      0x20\n        /* \"#utility.yul\":937:946   */\n      dup3\n        /* \"#utility.yul\":928:935   */\n      dup5\n        /* \"#utility.yul\":924:947   */\n      sub\n        /* \"#utility.yul\":920:952   */\n      slt\n        /* \"#utility.yul\":917:1036   */\n      iszero\n      tag_161\n      jumpi\n        /* \"#utility.yul\":955:1034   */\n      tag_162\n      tag_99\n      jump\t// in\n    tag_162:\n        /* \"#utility.yul\":917:1036   */\n    tag_161:\n        /* \"#utility.yul\":1075:1076   */\n      0x00\n        /* \"#utility.yul\":1100:1153   */\n      tag_163\n        /* \"#utility.yul\":1145:1152   */\n      dup5\n        /* \"#utility.yul\":1136:1142   */\n      dup3\n        /* \"#utility.yul\":1125:1134   */\n      dup6\n        /* \"#utility.yul\":1121:1143   */\n      add\n        /* \"#utility.yul\":1100:1153   */\n      tag_104\n      jump\t// in\n    tag_163:\n        /* \"#utility.yul\":1090:1153   */\n      swap2\n      pop\n        /* \"#utility.yul\":1046:1163   */\n      pop\n        /* \"#utility.yul\":841:1170   */\n      swap3\n      swap2\n      pop\n      pop\n      jump\t// out\n        /* \"#utility.yul\":1176:1253   */\n    tag_105:\n        /* \"#utility.yul\":1213:1220   */\n      0x00\n        /* \"#utility.yul\":1242:1247   */\n      dup2\n        /* \"#utility.yul\":1231:1247   */\n      swap1\n      pop\n        /* \"#utility.yul\":1176:1253   */\n      swap2\n      swap1\n      pop\n      jump\t// out\n        /* \"#utility.yul\":1259:1377   */\n    tag_106:\n        /* \"#utility.yul\":1346:1370   */\n      tag_166\n        /* \"#utility.yul\":1364:1369   */\n      dup2\n        /* \"#utility.yul\":1346:1370   */\n      tag_105\n      jump\t// in\n    tag_166:\n        /* \"#utility.yul\":1341:1344   */\n      dup3\n        /* \"#utility.yul\":1334:1371   */\n      mstore\n        /* \"#utility.yul\":1259:1377   */\n      pop\n      pop\n      jump\t// out\n        /* \"#utility.yul\":1383:1605   */\n    tag_23:\n        /* \"#utility.yul\":1476:1480   */\n      0x00\n        /* \"#utility.yul\":1514:1516   */\n      0x20\n        /* \"#utility.yul\":1503:1512   */\n      dup3\n        /* \"#utility.yul\":1499:1517   */\n      add\n        /* \"#utility.yul\":1491:1517   */\n      swap1\n      pop\n        /* \"#utility.yul\":1527:1598   */\n      tag_168\n        /* \"#utility.yul\":1595:1596   */\n      0x00\n        /* \"#utility.yul\":1584:1593   */\n      dup4\n        /* \"#utility.yul\":1580:1597   */\n      add\n        /* \"#utility.yul\":1571:1577   */\n      dup5\n        /* \"#utility.yul\":1527:1598   */\n      tag_106\n      jump\t// in\n    tag_168:\n        /* \"#utility.yul\":1383:1605   */\n      swap3\n      swap2\n      pop\n      pop\n      jump\t// out\n        /* \"#utility.yul\":1611:1733   */\n    tag_107:\n        /* \"#utility.yul\":1684:1708   */\n      tag_170\n        /* \"#utility.yul\":1702:1707   */\n      dup2\n        /* \"#utility.yul\":1684:1708   */\n      tag_105\n      jump\t// in\n    tag_170:\n        /* \"#utility.yul\":1677:1682   */\n      dup2\n        /* \"#utility.yul\":1674:1709   */\n      eq\n        /* \"#utility.yul\":1664:1727   */\n      tag_171\n      jumpi\n        /* \"#utility.yul\":1723:1724   */\n      0x00\n        /* \"#utility.yul\":1720:1721   */\n      dup1\n        /* \"#utility.yul\":1713:1725   */\n      revert\n        /* \"#utility.yul\":1664:1727   */\n    tag_171:\n        /* \"#utility.yul\":1611:1733   */\n      pop\n      jump\t// out\n        /* \"#utility.yul\":1739:1878   */\n    tag_108:\n        /* \"#utility.yul\":1785:1790   */\n      0x00\n        /* \"#utility.yul\":1823:1829   */\n      dup2\n        /* \"#utility.yul\":1810:1830   */\n      calldataload\n        /* \"#utility.yul\":1801:1830   */\n      swap1\n      pop\n        /* \"#utility.yul\":1839:1872   */\n      tag_173\n        /* \"#utility.yul\":1866:1871   */\n      dup2\n        /* \"#utility.yul\":1839:1872   */\n      tag_107\n      jump\t// in\n    tag_173:\n        /* \"#utility.yul\":1739:1878   */\n      swap3\n      swap2\n      pop\n      pop\n      jump\t// out\n        /* \"#utility.yul\":1884:2213   */\n    tag_35:\n        /* \"#utility.yul\":1943:1949   */\n      0x00\n        /* \"#utility.yul\":1992:1994   */\n      0x20\n        /* \"#utility.yul\":1980:1989   */\n      dup3\n        /* \"#utility.yul\":1971:1978   */\n      dup5\n        /* \"#utility.yul\":1967:1990   */\n      sub\n        /* \"#utility.yul\":1963:1995   */\n      slt\n        /* \"#utility.yul\":1960:2079   */\n      iszero\n      tag_175\n      jumpi\n        /* \"#utility.yul\":1998:2077   */\n      tag_176\n      tag_99\n      jump\t// in\n    tag_176:\n        /* \"#utility.yul\":1960:2079   */\n    tag_175:\n        /* \"#utility.yul\":2118:2119   */\n      0x00\n        /* \"#utility.yul\":2143:2196   */\n      tag_177\n        /* \"#utility.yul\":2188:2195   */\n      dup5\n        /* \"#utility.yul\":2179:2185   */\n      dup3\n        /* \"#utility.yul\":2168:2177   */\n      dup6\n        /* \"#utility.yul\":2164:2186   */\n      add\n        /* \"#utility.yul\":2143:2196   */\n      tag_108\n      jump\t// in\n    tag_177:\n        /* \"#utility.yul\":2133:2196   */\n      swap2\n      pop\n        /* \"#utility.yul\":2089:2206   */\n      pop\n        /* \"#utility.yul\":1884:2213   */\n      swap3\n      swap2\n      pop\n      pop\n      jump\t// out\n        /* \"#utility.yul\":2219:2318   */\n    tag_109:\n        /* \"#utility.yul\":2271:2277   */\n      0x00\n        /* \"#utility.yul\":2305:2310   */\n      dup2\n        /* \"#utility.yul\":2299:2311   */\n      mload\n        /* \"#utility.yul\":2289:2311   */\n      swap1\n      pop\n        /* \"#utility.yul\":2219:2318   */\n      swap2\n      swap1\n      pop\n      jump\t// out\n        /* \"#utility.yul\":2324:2493   */\n    tag_110:\n        /* \"#utility.yul\":2408:2419   */\n      0x00\n        /* \"#utility.yul\":2442:2448   */\n      dup3\n        /* \"#utility.yul\":2437:2440   */\n      dup3\n        /* \"#utility.yul\":2430:2449   */\n      mstore\n        /* \"#utility.yul\":2482:2486   */\n      0x20\n        /* \"#utility.yul\":2477:2480   */\n      dup3\n        /* \"#utility.yul\":2473:2487   */\n      add\n        /* \"#utility.yul\":2458:2487   */\n      swap1\n      pop\n        /* \"#utility.yul\":2324:2493   */\n      swap3\n      swap2\n      pop\n      pop\n      jump\t// out\n        /* \"#utility.yul\":2499:2806   */\n    tag_111:\n        /* \"#utility.yul\":2567:2568   */\n      0x00\n        /* \"#utility.yul\":2577:2690   */\n    tag_181:\n        /* \"#utility.yul\":2591:2597   */\n      dup4\n        /* \"#utility.yul\":2588:2589   */\n      dup2\n        /* \"#utility.yul\":2585:2598   */\n      lt\n        /* \"#utility.yul\":2577:2690   */\n      iszero\n      tag_183\n      jumpi\n        /* \"#utility.yul\":2676:2677   */\n      dup1\n        /* \"#utility.yul\":2671:2674   */\n      dup3\n        /* \"#utility.yul\":2667:2678   */\n      add\n        /* \"#utility.yul\":2661:2679   */\n      mload\n        /* \"#utility.yul\":2657:2658   */\n      dup2\n        /* \"#utility.yul\":2652:2655   */\n      dup5\n        /* \"#utility.yul\":2648:2659   */\n      add\n        /* \"#utility.yul\":2641:2680   */\n      mstore\n        /* \"#utility.yul\":2613:2615   */\n      0x20\n        /* \"#utility.yul\":2610:2611   */\n      dup2\n        /* \"#utility.yul\":2606:2616   */\n      add\n        /* \"#utility.yul\":2601:2616   */\n      swap1\n      pop\n        /* \"#utility.yul\":2577:2690   */\n      jump(tag_181)\n    tag_183:\n        /* \"#utility.yul\":2708:2714   */\n      dup4\n        /* \"#utility.yul\":2705:2706   */\n      dup2\n        /* \"#utility.yul\":2702:2715   */\n      gt\n        /* \"#utility.yul\":2699:2800   */\n      iszero\n      tag_184\n      jumpi\n        /* \"#utility.yul\":2788:2789   */\n      0x00\n        /* \"#utility.yul\":2779:2785   */\n      dup5\n        /* \"#utility.yul\":2774:2777   */\n      dup5\n        /* \"#utility.yul\":2770:2786   */\n      add\n        /* \"#utility.yul\":2763:2790   */\n      mstore\n        /* \"#utility.yul\":2699:2800   */\n    tag_184:\n        /* \"#utility.yul\":2548:2806   */\n      pop\n        /* \"#utility.yul\":2499:2806   */\n      pop\n      pop\n      pop\n      jump\t// out\n        /* \"#utility.yul\":2812:2914   */\n    tag_112:\n        /* \"#utility.yul\":2853:2859   */\n      0x00\n        /* \"#utility.yul\":2904:2906   */\n      0x1f\n        /* \"#utility.yul\":2900:2907   */\n      not\n        /* \"#utility.yul\":2895:2897   */\n      0x1f\n        /* \"#utility.yul\":2888:2893   */\n      dup4\n        /* \"#utility.yul\":2884:2898   */\n      add\n        /* \"#utility.yul\":2880:2908   */\n      and\n        /* \"#utility.yul\":2870:2908   */\n      swap1\n      pop\n        /* \"#utility.yul\":2812:2914   */\n      swap2\n      swap1\n      pop\n      jump\t// out\n        /* \"#utility.yul\":2920:3284   */\n    tag_113:\n        /* \"#utility.yul\":3008:3011   */\n      0x00\n        /* \"#utility.yul\":3036:3075   */\n      tag_187\n        /* \"#utility.yul\":3069:3074   */\n      dup3\n        /* \"#utility.yul\":3036:3075   */\n      tag_109\n      jump\t// in\n    tag_187:\n        /* \"#utility.yul\":3091:3162   */\n      tag_188\n        /* \"#utility.yul\":3155:3161   */\n      dup2\n        /* \"#utility.yul\":3150:3153   */\n      dup6\n        /* \"#utility.yul\":3091:3162   */\n      tag_110\n      jump\t// in\n    tag_188:\n        /* \"#utility.yul\":3084:3162   */\n      swap4\n      pop\n        /* \"#utility.yul\":3171:3223   */\n      tag_189\n        /* \"#utility.yul\":3216:3222   */\n      dup2\n        /* \"#utility.yul\":3211:3214   */\n      dup6\n        /* \"#utility.yul\":3204:3208   */\n      0x20\n        /* \"#utility.yul\":3197:3202   */\n      dup7\n        /* \"#utility.yul\":3193:3209   */\n      add\n        /* \"#utility.yul\":3171:3223   */\n      tag_111\n      jump\t// in\n    tag_189:\n        /* \"#utility.yul\":3248:3277   */\n      tag_190\n        /* \"#utility.yul\":3270:3276   */\n      dup2\n        /* \"#utility.yul\":3248:3277   */\n      tag_112\n      jump\t// in\n    tag_190:\n        /* \"#utility.yul\":3243:3246   */\n      dup5\n        /* \"#utility.yul\":3239:3278   */\n      add\n        /* \"#utility.yul\":3232:3278   */\n      swap2\n      pop\n        /* \"#utility.yul\":3012:3284   */\n      pop\n        /* \"#utility.yul\":2920:3284   */\n      swap3\n      swap2\n      pop\n      pop\n      jump\t// out\n        /* \"#utility.yul\":3290:3394   */\n    tag_114:\n        /* \"#utility.yul\":3335:3342   */\n      0x00\n        /* \"#utility.yul\":3364:3388   */\n      tag_192\n        /* \"#utility.yul\":3382:3387   */\n      dup3\n        /* \"#utility.yul\":3364:3388   */\n      tag_101\n      jump\t// in\n    tag_192:\n        /* \"#utility.yul\":3353:3388   */\n      swap1\n      pop\n        /* \"#utility.yul\":3290:3394   */\n      swap2\n      swap1\n      pop\n      jump\t// out\n        /* \"#utility.yul\":3400:3542   */\n    tag_115:\n        /* \"#utility.yul\":3503:3535   */\n      tag_194\n        /* \"#utility.yul\":3529:3534   */\n      dup2\n        /* \"#utility.yul\":3503:3535   */\n      tag_114\n      jump\t// in\n    tag_194:\n        /* \"#utility.yul\":3498:3501   */\n      dup3\n        /* \"#utility.yul\":3491:3536   */\n      mstore\n        /* \"#utility.yul\":3400:3542   */\n      pop\n      pop\n      jump\t// out\n        /* \"#utility.yul\":3548:3638   */\n    tag_116:\n        /* \"#utility.yul\":3582:3589   */\n      0x00\n        /* \"#utility.yul\":3625:3630   */\n      dup2\n        /* \"#utility.yul\":3618:3631   */\n      iszero\n        /* \"#utility.yul\":3611:3632   */\n      iszero\n        /* \"#utility.yul\":3600:3632   */\n      swap1\n      pop\n        /* \"#utility.yul\":3548:3638   */\n      swap2\n      swap1\n      pop\n      jump\t// out\n        /* \"#utility.yul\":3644:3753   */\n    tag_117:\n        /* \"#utility.yul\":3725:3746   */\n      tag_197\n        /* \"#utility.yul\":3740:3745   */\n      dup2\n        /* \"#utility.yul\":3725:3746   */\n      tag_116\n      jump\t// in\n    tag_197:\n        /* \"#utility.yul\":3720:3723   */\n      dup3\n        /* \"#utility.yul\":3713:3747   */\n      mstore\n        /* \"#utility.yul\":3644:3753   */\n      pop\n      pop\n      jump\t// out\n        /* \"#utility.yul\":3759:4534   */\n    tag_49:\n        /* \"#utility.yul\":3994:3998   */\n      0x00\n        /* \"#utility.yul\":4032:4035   */\n      0xa0\n        /* \"#utility.yul\":4021:4030   */\n      dup3\n        /* \"#utility.yul\":4017:4036   */\n      add\n        /* \"#utility.yul\":4009:4036   */\n      swap1\n      pop\n        /* \"#utility.yul\":4082:4091   */\n      dup2\n        /* \"#utility.yul\":4076:4080   */\n      dup2\n        /* \"#utility.yul\":4072:4092   */\n      sub\n        /* \"#utility.yul\":4068:4069   */\n      0x00\n        /* \"#utility.yul\":4057:4066   */\n      dup4\n        /* \"#utility.yul\":4053:4070   */\n      add\n        /* \"#utility.yul\":4046:4093   */\n      mstore\n        /* \"#utility.yul\":4110:4188   */\n      tag_199\n        /* \"#utility.yul\":4183:4187   */\n      dup2\n        /* \"#utility.yul\":4174:4180   */\n      dup9\n        /* \"#utility.yul\":4110:4188   */\n      tag_113\n      jump\t// in\n    tag_199:\n        /* \"#utility.yul\":4102:4188   */\n      swap1\n      pop\n        /* \"#utility.yul\":4198:4286   */\n      tag_200\n        /* \"#utility.yul\":4282:4284   */\n      0x20\n        /* \"#utility.yul\":4271:4280   */\n      dup4\n        /* \"#utility.yul\":4267:4285   */\n      add\n        /* \"#utility.yul\":4258:4264   */\n      dup8\n        /* \"#utility.yul\":4198:4286   */\n      tag_115\n      jump\t// in\n    tag_200:\n        /* \"#utility.yul\":4296:4368   */\n      tag_201\n        /* \"#utility.yul\":4364:4366   */\n      0x40\n        /* \"#utility.yul\":4353:4362   */\n      dup4\n        /* \"#utility.yul\":4349:4367   */\n      add\n        /* \"#utility.yul\":4340:4346   */\n      dup7\n        /* \"#utility.yul\":4296:4368   */\n      tag_106\n      jump\t// in\n    tag_201:\n        /* \"#utility.yul\":4378:4444   */\n      tag_202\n        /* \"#utility.yul\":4440:4442   */\n      0x60\n        /* \"#utility.yul\":4429:4438   */\n      dup4\n        /* \"#utility.yul\":4425:4443   */\n      add\n        /* \"#utility.yul\":4416:4422   */\n      dup6\n        /* \"#utility.yul\":4378:4444   */\n      tag_117\n      jump\t// in\n    tag_202:\n        /* \"#utility.yul\":4454:4527   */\n      tag_203\n        /* \"#utility.yul\":4522:4525   */\n      0x80\n        /* \"#utility.yul\":4511:4520   */\n      dup4\n        /* \"#utility.yul\":4507:4526   */\n      add\n        /* \"#utility.yul\":4498:4504   */\n      dup5\n        /* \"#utility.yul\":4454:4527   */\n      tag_106\n      jump\t// in\n    tag_203:\n        /* \"#utility.yul\":3759:4534   */\n      swap7\n      swap6\n      pop\n      pop\n      pop\n      pop\n      pop\n      pop\n      jump\t// out\n        /* \"#utility.yul\":4540:4657   */\n    tag_118:\n        /* \"#utility.yul\":4649:4650   */\n      0x00\n        /* \"#utility.yul\":4646:4647   */\n      dup1\n        /* \"#utility.yul\":4639:4651   */\n      revert\n        /* \"#utility.yul\":4663:4780   */\n    tag_119:\n        /* \"#utility.yul\":4772:4773   */\n      0x00\n        /* \"#utility.yul\":4769:4770   */\n      dup1\n        /* \"#utility.yul\":4762:4774   */\n      revert\n        /* \"#utility.yul\":4786:4966   */\n    tag_120:\n        /* \"#utility.yul\":4834:4911   */\n      0x4e487b7100000000000000000000000000000000000000000000000000000000\n        /* \"#utility.yul\":4831:4832   */\n      0x00\n        /* \"#utility.yul\":4824:4912   */\n      mstore\n        /* \"#utility.yul\":4931:4935   */\n      0x41\n        /* \"#utility.yul\":4928:4929   */\n      0x04\n        /* \"#utility.yul\":4921:4936   */\n      mstore\n        /* \"#utility.yul\":4955:4959   */\n      0x24\n        /* \"#utility.yul\":4952:4953   */\n      0x00\n        /* \"#utility.yul\":4945:4960   */\n      revert\n        /* \"#utility.yul\":4972:5253   */\n    tag_121:\n        /* \"#utility.yul\":5055:5082   */\n      tag_208\n        /* \"#utility.yul\":5077:5081   */\n      dup3\n        /* \"#utility.yul\":5055:5082   */\n      tag_112\n      jump\t// in\n    tag_208:\n        /* \"#utility.yul\":5047:5053   */\n      dup2\n        /* \"#utility.yul\":5043:5083   */\n      add\n        /* \"#utility.yul\":5185:5191   */\n      dup2\n        /* \"#utility.yul\":5173:5183   */\n      dup2\n        /* \"#utility.yul\":5170:5192   */\n      lt\n        /* \"#utility.yul\":5149:5167   */\n      0xffffffffffffffff\n        /* \"#utility.yul\":5137:5147   */\n      dup3\n        /* \"#utility.yul\":5134:5168   */\n      gt\n        /* \"#utility.yul\":5131:5193   */\n      or\n        /* \"#utility.yul\":5128:5216   */\n      iszero\n      tag_209\n      jumpi\n        /* \"#utility.yul\":5196:5214   */\n      tag_210\n      tag_120\n      jump\t// in\n    tag_210:\n        /* \"#utility.yul\":5128:5216   */\n    tag_209:\n        /* \"#utility.yul\":5236:5246   */\n      dup1\n        /* \"#utility.yul\":5232:5234   */\n      0x40\n        /* \"#utility.yul\":5225:5247   */\n      mstore\n        /* \"#utility.yul\":5015:5253   */\n      pop\n        /* \"#utility.yul\":4972:5253   */\n      pop\n      pop\n      jump\t// out\n        /* \"#utility.yul\":5259:5388   */\n    tag_122:\n        /* \"#utility.yul\":5293:5299   */\n      0x00\n        /* \"#utility.yul\":5320:5340   */\n      tag_212\n      tag_98\n      jump\t// in\n    tag_212:\n        /* \"#utility.yul\":5310:5340   */\n      swap1\n      pop\n        /* \"#utility.yul\":5349:5382   */\n      tag_213\n        /* \"#utility.yul\":5377:5381   */\n      dup3\n        /* \"#utility.yul\":5369:5375   */\n      dup3\n        /* \"#utility.yul\":5349:5382   */\n      tag_121\n      jump\t// in\n    tag_213:\n        /* \"#utility.yul\":5259:5388   */\n      swap2\n      swap1\n      pop\n      jump\t// out\n        /* \"#utility.yul\":5394:5702   */\n    tag_123:\n        /* \"#utility.yul\":5456:5460   */\n      0x00\n        /* \"#utility.yul\":5546:5564   */\n      0xffffffffffffffff\n        /* \"#utility.yul\":5538:5544   */\n      dup3\n        /* \"#utility.yul\":5535:5565   */\n      gt\n        /* \"#utility.yul\":5532:5588   */\n      iszero\n      tag_215\n      jumpi\n        /* \"#utility.yul\":5568:5586   */\n      tag_216\n      tag_120\n      jump\t// in\n    tag_216:\n        /* \"#utility.yul\":5532:5588   */\n    tag_215:\n        /* \"#utility.yul\":5606:5635   */\n      tag_217\n        /* \"#utility.yul\":5628:5634   */\n      dup3\n        /* \"#utility.yul\":5606:5635   */\n      tag_112\n      jump\t// in\n    tag_217:\n        /* \"#utility.yul\":5598:5635   */\n      swap1\n      pop\n        /* \"#utility.yul\":5690:5694   */\n      0x20\n        /* \"#utility.yul\":5684:5688   */\n      dup2\n        /* \"#utility.yul\":5680:5695   */\n      add\n        /* \"#utility.yul\":5672:5695   */\n      swap1\n      pop\n        /* \"#utility.yul\":5394:5702   */\n      swap2\n      swap1\n      pop\n      jump\t// out\n        /* \"#utility.yul\":5708:5862   */\n    tag_124:\n        /* \"#utility.yul\":5792:5798   */\n      dup3\n        /* \"#utility.yul\":5787:5790   */\n      dup2\n        /* \"#utility.yul\":5782:5785   */\n      dup4\n        /* \"#utility.yul\":5769:5799   */\n      calldatacopy\n        /* \"#utility.yul\":5854:5855   */\n      0x00\n        /* \"#utility.yul\":5845:5851   */\n      dup4\n        /* \"#utility.yul\":5840:5843   */\n      dup4\n        /* \"#utility.yul\":5836:5852   */\n      add\n        /* \"#utility.yul\":5829:5856   */\n      mstore\n        /* \"#utility.yul\":5708:5862   */\n      pop\n      pop\n      pop\n      jump\t// out\n        /* \"#utility.yul\":5868:6280   */\n    tag_125:\n        /* \"#utility.yul\":5946:5951   */\n      0x00\n        /* \"#utility.yul\":5971:6037   */\n      tag_220\n        /* \"#utility.yul\":5987:6036   */\n      tag_221\n        /* \"#utility.yul\":6029:6035   */\n      dup5\n        /* \"#utility.yul\":5987:6036   */\n      tag_123\n      jump\t// in\n    tag_221:\n        /* \"#utility.yul\":5971:6037   */\n      tag_122\n      jump\t// in\n    tag_220:\n        /* \"#utility.yul\":5962:6037   */\n      swap1\n      pop\n        /* \"#utility.yul\":6060:6066   */\n      dup3\n        /* \"#utility.yul\":6053:6058   */\n      dup2\n        /* \"#utility.yul\":6046:6067   */\n      mstore\n        /* \"#utility.yul\":6098:6102   */\n      0x20\n        /* \"#utility.yul\":6091:6096   */\n      dup2\n        /* \"#utility.yul\":6087:6103   */\n      add\n        /* \"#utility.yul\":6136:6139   */\n      dup5\n        /* \"#utility.yul\":6127:6133   */\n      dup5\n        /* \"#utility.yul\":6122:6125   */\n      dup5\n        /* \"#utility.yul\":6118:6134   */\n      add\n        /* \"#utility.yul\":6115:6140   */\n      gt\n        /* \"#utility.yul\":6112:6224   */\n      iszero\n      tag_222\n      jumpi\n        /* \"#utility.yul\":6143:6222   */\n      tag_223\n      tag_119\n      jump\t// in\n    tag_223:\n        /* \"#utility.yul\":6112:6224   */\n    tag_222:\n        /* \"#utility.yul\":6233:6274   */\n      tag_224\n        /* \"#utility.yul\":6267:6273   */\n      dup5\n        /* \"#utility.yul\":6262:6265   */\n      dup3\n        /* \"#utility.yul\":6257:6260   */\n      dup6\n        /* \"#utility.yul\":6233:6274   */\n      tag_124\n      jump\t// in\n    tag_224:\n        /* \"#utility.yul\":5952:6280   */\n      pop\n        /* \"#utility.yul\":5868:6280   */\n      swap4\n      swap3\n      pop\n      pop\n      pop\n      jump\t// out\n        /* \"#utility.yul\":6300:6640   */\n    tag_126:\n        /* \"#utility.yul\":6356:6361   */\n      0x00\n        /* \"#utility.yul\":6405:6408   */\n      dup3\n        /* \"#utility.yul\":6398:6402   */\n      0x1f\n        /* \"#utility.yul\":6390:6396   */\n      dup4\n        /* \"#utility.yul\":6386:6403   */\n      add\n        /* \"#utility.yul\":6382:6409   */\n      slt\n        /* \"#utility.yul\":6372:6494   */\n      tag_226\n      jumpi\n        /* \"#utility.yul\":6413:6492   */\n      tag_227\n      tag_118\n      jump\t// in\n    tag_227:\n        /* \"#utility.yul\":6372:6494   */\n    tag_226:\n        /* \"#utility.yul\":6530:6536   */\n      dup2\n        /* \"#utility.yul\":6517:6537   */\n      calldataload\n        /* \"#utility.yul\":6555:6634   */\n      tag_228\n        /* \"#utility.yul\":6630:6633   */\n      dup5\n        /* \"#utility.yul\":6622:6628   */\n      dup3\n        /* \"#utility.yul\":6615:6619   */\n      0x20\n        /* \"#utility.yul\":6607:6613   */\n      dup7\n        /* \"#utility.yul\":6603:6620   */\n      add\n        /* \"#utility.yul\":6555:6634   */\n      tag_125\n      jump\t// in\n    tag_228:\n        /* \"#utility.yul\":6546:6634   */\n      swap2\n      pop\n        /* \"#utility.yul\":6362:6640   */\n      pop\n        /* \"#utility.yul\":6300:6640   */\n      swap3\n      swap2\n      pop\n      pop\n      jump\t// out\n        /* \"#utility.yul\":6646:6784   */\n    tag_127:\n        /* \"#utility.yul\":6727:6759   */\n      tag_230\n        /* \"#utility.yul\":6753:6758   */\n      dup2\n        /* \"#utility.yul\":6727:6759   */\n      tag_114\n      jump\t// in\n    tag_230:\n        /* \"#utility.yul\":6720:6725   */\n      dup2\n        /* \"#utility.yul\":6717:6760   */\n      eq\n        /* \"#utility.yul\":6707:6778   */\n      tag_231\n      jumpi\n        /* \"#utility.yul\":6774:6775   */\n      0x00\n        /* \"#utility.yul\":6771:6772   */\n      dup1\n        /* \"#utility.yul\":6764:6776   */\n      revert\n        /* \"#utility.yul\":6707:6778   */\n    tag_231:\n        /* \"#utility.yul\":6646:6784   */\n      pop\n      jump\t// out\n        /* \"#utility.yul\":6790:6945   */\n    tag_128:\n        /* \"#utility.yul\":6844:6849   */\n      0x00\n        /* \"#utility.yul\":6882:6888   */\n      dup2\n        /* \"#utility.yul\":6869:6889   */\n      calldataload\n        /* \"#utility.yul\":6860:6889   */\n      swap1\n      pop\n        /* \"#utility.yul\":6898:6939   */\n      tag_233\n        /* \"#utility.yul\":6933:6938   */\n      dup2\n        /* \"#utility.yul\":6898:6939   */\n      tag_127\n      jump\t// in\n    tag_233:\n        /* \"#utility.yul\":6790:6945   */\n      swap3\n      swap2\n      pop\n      pop\n      jump\t// out\n        /* \"#utility.yul\":6951:7766   */\n    tag_53:\n        /* \"#utility.yul\":7046:7052   */\n      0x00\n        /* \"#utility.yul\":7054:7060   */\n      dup1\n        /* \"#utility.yul\":7062:7068   */\n      0x00\n        /* \"#utility.yul\":7111:7113   */\n      0x60\n        /* \"#utility.yul\":7099:7108   */\n      dup5\n        /* \"#utility.yul\":7090:7097   */\n      dup7\n        /* \"#utility.yul\":7086:7109   */\n      sub\n        /* \"#utility.yul\":7082:7114   */\n      slt\n        /* \"#utility.yul\":7079:7198   */\n      iszero\n      tag_235\n      jumpi\n        /* \"#utility.yul\":7117:7196   */\n      tag_236\n      tag_99\n      jump\t// in\n    tag_236:\n        /* \"#utility.yul\":7079:7198   */\n    tag_235:\n        /* \"#utility.yul\":7265:7266   */\n      0x00\n        /* \"#utility.yul\":7254:7263   */\n      dup5\n        /* \"#utility.yul\":7250:7267   */\n      add\n        /* \"#utility.yul\":7237:7268   */\n      calldataload\n        /* \"#utility.yul\":7295:7313   */\n      0xffffffffffffffff\n        /* \"#utility.yul\":7287:7293   */\n      dup2\n        /* \"#utility.yul\":7284:7314   */\n      gt\n        /* \"#utility.yul\":7281:7398   */\n      iszero\n      tag_237\n      jumpi\n        /* \"#utility.yul\":7317:7396   */\n      tag_238\n      tag_100\n      jump\t// in\n    tag_238:\n        /* \"#utility.yul\":7281:7398   */\n    tag_237:\n        /* \"#utility.yul\":7422:7485   */\n      tag_239\n        /* \"#utility.yul\":7477:7484   */\n      dup7\n        /* \"#utility.yul\":7468:7474   */\n      dup3\n        /* \"#utility.yul\":7457:7466   */\n      dup8\n        /* \"#utility.yul\":7453:7475   */\n      add\n        /* \"#utility.yul\":7422:7485   */\n      tag_126\n      jump\t// in\n    tag_239:\n        /* \"#utility.yul\":7412:7485   */\n      swap4\n      pop\n        /* \"#utility.yul\":7208:7495   */\n      pop\n        /* \"#utility.yul\":7534:7536   */\n      0x20\n        /* \"#utility.yul\":7560:7621   */\n      tag_240\n        /* \"#utility.yul\":7613:7620   */\n      dup7\n        /* \"#utility.yul\":7604:7610   */\n      dup3\n        /* \"#utility.yul\":7593:7602   */\n      dup8\n        /* \"#utility.yul\":7589:7611   */\n      add\n        /* \"#utility.yul\":7560:7621   */\n      tag_128\n      jump\t// in\n    tag_240:\n        /* \"#utility.yul\":7550:7621   */\n      swap3\n      pop\n        /* \"#utility.yul\":7505:7631   */\n      pop\n        /* \"#utility.yul\":7670:7672   */\n      0x40\n        /* \"#utility.yul\":7696:7749   */\n      tag_241\n        /* \"#utility.yul\":7741:7748   */\n      dup7\n        /* \"#utility.yul\":7732:7738   */\n      dup3\n        /* \"#utility.yul\":7721:7730   */\n      dup8\n        /* \"#utility.yul\":7717:7739   */\n      add\n        /* \"#utility.yul\":7696:7749   */\n      tag_108\n      jump\t// in\n    tag_241:\n        /* \"#utility.yul\":7686:7749   */\n      swap2\n      pop\n        /* \"#utility.yul\":7641:7759   */\n      pop\n        /* \"#utility.yul\":6951:7766   */\n      swap3\n      pop\n      swap3\n      pop\n      swap3\n      jump\t// out\n        /* \"#utility.yul\":7772:7952   */\n    tag_129:\n        /* \"#utility.yul\":7820:7897   */\n      0x4e487b7100000000000000000000000000000000000000000000000000000000\n        /* \"#utility.yul\":7817:7818   */\n      0x00\n        /* \"#utility.yul\":7810:7898   */\n      mstore\n        /* \"#utility.yul\":7917:7921   */\n      0x11\n        /* \"#utility.yul\":7914:7915   */\n      0x04\n        /* \"#utility.yul\":7907:7922   */\n      mstore\n        /* \"#utility.yul\":7941:7945   */\n      0x24\n        /* \"#utility.yul\":7938:7939   */\n      0x00\n        /* \"#utility.yul\":7931:7946   */\n      revert\n        /* \"#utility.yul\":7958:8191   */\n    tag_72:\n        /* \"#utility.yul\":7997:8000   */\n      0x00\n        /* \"#utility.yul\":8020:8044   */\n      tag_244\n        /* \"#utility.yul\":8038:8043   */\n      dup3\n        /* \"#utility.yul\":8020:8044   */\n      tag_105\n      jump\t// in\n    tag_244:\n        /* \"#utility.yul\":8011:8044   */\n      swap2\n      pop\n        /* \"#utility.yul\":8066:8132   */\n      0xffffffffffffffffffffffffffffffffffffffffffffffffffffffffffffffff\n        /* \"#utility.yul\":8059:8064   */\n      dup3\n        /* \"#utility.yul\":8056:8133   */\n      sub\n        /* \"#utility.yul\":8053:8156   */\n      tag_245\n      jumpi\n        /* \"#utility.yul\":8136:8154   */\n      tag_246\n      tag_129\n      jump\t// in\n    tag_246:\n        /* \"#utility.yul\":8053:8156   */\n    tag_245:\n        /* \"#utility.yul\":8183:8184   */\n      0x01\n        /* \"#utility.yul\":8176:8181   */\n      dup3\n        /* \"#utility.yul\":8172:8185   */\n      add\n        /* \"#utility.yul\":8165:8185   */\n      swap1\n      pop\n        /* \"#utility.yul\":7958:8191   */\n      swap2\n      swap1\n      pop\n      jump\t// out\n        /* \"#utility.yul\":8197:8502   */\n    tag_74:\n        /* \"#utility.yul\":8237:8240   */\n      0x00\n        /* \"#utility.yul\":8256:8276   */\n      tag_248\n        /* \"#utility.yul\":8274:8275   */\n      dup3\n        /* \"#utility.yul\":8256:8276   */\n      tag_105\n      jump\t// in\n    tag_248:\n        /* \"#utility.yul\":8251:8276   */\n      swap2\n      pop\n        /* \"#utility.yul\":8290:8310   */\n      tag_249\n        /* \"#utility.yul\":8308:8309   */\n      dup4\n        /* \"#utility.yul\":8290:8310   */\n      tag_105\n      jump\t// in\n    tag_249:\n        /* \"#utility.yul\":8285:8310   */\n      swap3\n      pop\n        /* \"#utility.yul\":8444:8445   */\n      dup3\n        /* \"#utility.yul\":8376:8442   */\n      0xffffffffffffffffffffffffffffffffffffffffffffffffffffffffffffffff\n        /* \"#utility.yul\":8372:8446   */\n      sub\n        /* \"#utility.yul\":8369:8370   */\n      dup3\n        /* \"#utility.yul\":8366:8447   */\n      gt\n        /* \"#utility.yul\":8363:8470   */\n      iszero\n      tag_250\n      jumpi\n        /* \"#utility.yul\":8450:8468   */\n      tag_251\n      tag_129\n      jump\t// in\n    tag_251:\n        /* \"#utility.yul\":8363:8470   */\n    tag_250:\n        /* \"#utility.yul\":8494:8495   */\n      dup3\n        /* \"#utility.yul\":8491:8492   */\n      dup3\n        /* \"#utility.yul\":8487:8496   */\n      add\n        /* \"#utility.yul\":8480:8496   */\n      swap1\n      pop\n        /* \"#utility.yul\":8197:8502   */\n      swap3\n      swap2\n      pop\n      pop\n      jump\t// out\n        /* \"#utility.yul\":8508:8688   */\n    tag_130:\n        /* \"#utility.yul\":8556:8633   */\n      0x4e487b7100000000000000000000000000000000000000000000000000000000\n        /* \"#utility.yul\":8553:8554   */\n      0x00\n        /* \"#utility.yul\":8546:8634   */\n      mstore\n        /* \"#utility.yul\":8653:8657   */\n      0x22\n        /* \"#utility.yul\":8650:8651   */\n      0x04\n        /* \"#utility.yul\":8643:8658   */\n      mstore\n        /* \"#utility.yul\":8677:8681   */\n      0x24\n        /* \"#utility.yul\":8674:8675   */\n      0x00\n        /* \"#utility.yul\":8667:8682   */\n      revert\n        /* \"#utility.yul\":8694:9014   */\n    tag_85:\n        /* \"#utility.yul\":8738:8744   */\n      0x00\n        /* \"#utility.yul\":8775:8776   */\n      0x02\n        /* \"#utility.yul\":8769:8773   */\n      dup3\n        /* \"#utility.yul\":8765:8777   */\n      div\n        /* \"#utility.yul\":8755:8777   */\n      swap1\n      pop\n        /* \"#utility.yul\":8822:8823   */\n      0x01\n        /* \"#utility.yul\":8816:8820   */\n      dup3\n        /* \"#utility.yul\":8812:8824   */\n      and\n        /* \"#utility.yul\":8843:8861   */\n      dup1\n        /* \"#utility.yul\":8833:8914   */\n      tag_254\n      jumpi\n        /* \"#utility.yul\":8899:8903   */\n      0x7f\n        /* \"#utility.yul\":8891:8897   */\n      dup3\n        /* \"#utility.yul\":8887:8904   */\n      and\n        /* \"#utility.yul\":8877:8904   */\n      swap2\n      pop\n        /* \"#utility.yul\":8833:8914   */\n    tag_254:\n        /* \"#utility.yul\":8961:8963   */\n      0x20\n        /* \"#utility.yul\":8953:8959   */\n      dup3\n        /* \"#utility.yul\":8950:8964   */\n      lt\n        /* \"#utility.yul\":8930:8948   */\n      dup2\n        /* \"#utility.yul\":8927:8965   */\n      sub\n        /* \"#utility.yul\":8924:9008   */\n      tag_255\n      jumpi\n        /* \"#utility.yul\":8980:8998   */\n      tag_256\n      tag_130\n      jump\t// in\n    tag_256:\n        /* \"#utility.yul\":8924:9008   */\n    tag_255:\n        /* \"#utility.yul\":8745:9014   */\n      pop\n        /* \"#utility.yul\":8694:9014   */\n      swap2\n      swap1\n      pop\n      jump\t// out\n        /* \"#utility.yul\":9020:9185   */\n    tag_131:\n        /* \"#utility.yul\":9160:9177   */\n      0x6e6f7420746865206d616e656765720000000000000000000000000000000000\n        /* \"#utility.yul\":9156:9157   */\n      0x00\n        /* \"#utility.yul\":9148:9154   */\n      dup3\n        /* \"#utility.yul\":9144:9158   */\n      add\n        /* \"#utility.yul\":9137:9178   */\n      mstore\n        /* \"#utility.yul\":9020:9185   */\n      pop\n      jump\t// out\n        /* \"#utility.yul\":9191:9557   */\n    tag_132:\n        /* \"#utility.yul\":9333:9336   */\n      0x00\n        /* \"#utility.yul\":9354:9421   */\n      tag_259\n        /* \"#utility.yul\":9418:9420   */\n      0x0f\n        /* \"#utility.yul\":9413:9416   */\n      dup4\n        /* \"#utility.yul\":9354:9421   */\n      tag_110\n      jump\t// in\n    tag_259:\n        /* \"#utility.yul\":9347:9421   */\n      swap2\n      pop\n        /* \"#utility.yul\":9430:9523   */\n      tag_260\n        /* \"#utility.yul\":9519:9522   */\n      dup3\n        /* \"#utility.yul\":9430:9523   */\n      tag_131\n      jump\t// in\n    tag_260:\n        /* \"#utility.yul\":9548:9550   */\n      0x20\n        /* \"#utility.yul\":9543:9546   */\n      dup3\n        /* \"#utility.yul\":9539:9551   */\n      add\n        /* \"#utility.yul\":9532:9551   */\n      swap1\n      pop\n        /* \"#utility.yul\":9191:9557   */\n      swap2\n      swap1\n      pop\n      jump\t// out\n        /* \"#utility.yul\":9563:9982   */\n    tag_93:\n        /* \"#utility.yul\":9729:9733   */\n      0x00\n        /* \"#utility.yul\":9767:9769   */\n      0x20\n        /* \"#utility.yul\":9756:9765   */\n      dup3\n        /* \"#utility.yul\":9752:9770   */\n      add\n        /* \"#utility.yul\":9744:9770   */\n      swap1\n      pop\n        /* \"#utility.yul\":9816:9825   */\n      dup2\n        /* \"#utility.yul\":9810:9814   */\n      dup2\n        /* \"#utility.yul\":9806:9826   */\n      sub\n        /* \"#utility.yul\":9802:9803   */\n      0x00\n        /* \"#utility.yul\":9791:9800   */\n      dup4\n        /* \"#utility.yul\":9787:9804   */\n      add\n        /* \"#utility.yul\":9780:9827   */\n      mstore\n        /* \"#utility.yul\":9844:9975   */\n      tag_262\n        /* \"#utility.yul\":9970:9974   */\n      dup2\n        /* \"#utility.yul\":9844:9975   */\n      tag_132\n      jump\t// in\n    tag_262:\n        /* \"#utility.yul\":9836:9975   */\n      swap1\n      pop\n        /* \"#utility.yul\":9563:9982   */\n      swap2\n      swap1\n      pop\n      jump\t// out\n        /* \"#utility.yul\":9988:10129   */\n    tag_133:\n        /* \"#utility.yul\":10037:10041   */\n      0x00\n        /* \"#utility.yul\":10060:10063   */\n      dup2\n        /* \"#utility.yul\":10052:10063   */\n      swap1\n      pop\n        /* \"#utility.yul\":10083:10086   */\n      dup2\n        /* \"#utility.yul\":10080:10081   */\n      0x00\n        /* \"#utility.yul\":10073:10087   */\n      mstore\n        /* \"#utility.yul\":10117:10121   */\n      0x20\n        /* \"#utility.yul\":10114:10115   */\n      0x00\n        /* \"#utility.yul\":10104:10122   */\n      keccak256\n        /* \"#utility.yul\":10096:10122   */\n      swap1\n      pop\n        /* \"#utility.yul\":9988:10129   */\n      swap2\n      swap1\n      pop\n      jump\t// out\n        /* \"#utility.yul\":10135:10228   */\n    tag_134:\n        /* \"#utility.yul\":10172:10178   */\n      0x00\n        /* \"#utility.yul\":10219:10221   */\n      0x20\n        /* \"#utility.yul\":10214:10216   */\n      0x1f\n        /* \"#utility.yul\":10207:10212   */\n      dup4\n        /* \"#utility.yul\":10203:10217   */\n      add\n        /* \"#utility.yul\":10199:10222   */\n      div\n        /* \"#utility.yul\":10189:10222   */\n      swap1\n      pop\n        /* \"#utility.yul\":10135:10228   */\n      swap2\n      swap1\n      pop\n      jump\t// out\n        /* \"#utility.yul\":10234:10341   */\n    tag_135:\n        /* \"#utility.yul\":10278:10286   */\n      0x00\n        /* \"#utility.yul\":10328:10333   */\n      dup3\n        /* \"#utility.yul\":10322:10326   */\n      dup3\n        /* \"#utility.yul\":10318:10334   */\n      shl\n        /* \"#utility.yul\":10297:10334   */\n      swap1\n      pop\n        /* \"#utility.yul\":10234:10341   */\n      swap3\n      swap2\n      pop\n      pop\n      jump\t// out\n        /* \"#utility.yul\":10347:10740   */\n    tag_136:\n        /* \"#utility.yul\":10416:10422   */\n      0x00\n        /* \"#utility.yul\":10466:10467   */\n      0x08\n        /* \"#utility.yul\":10454:10464   */\n      dup4\n        /* \"#utility.yul\":10450:10468   */\n      mul\n        /* \"#utility.yul\":10489:10586   */\n      tag_267\n        /* \"#utility.yul\":10519:10585   */\n      0xffffffffffffffffffffffffffffffffffffffffffffffffffffffffffffffff\n        /* \"#utility.yul\":10508:10517   */\n      dup3\n        /* \"#utility.yul\":10489:10586   */\n      tag_135\n      jump\t// in\n    tag_267:\n        /* \"#utility.yul\":10607:10646   */\n      tag_268\n        /* \"#utility.yul\":10637:10645   */\n      dup7\n        /* \"#utility.yul\":10626:10635   */\n      dup4\n        /* \"#utility.yul\":10607:10646   */\n      tag_135\n      jump\t// in\n    tag_268:\n        /* \"#utility.yul\":10595:10646   */\n      swap6\n      pop\n        /* \"#utility.yul\":10679:10683   */\n      dup1\n        /* \"#utility.yul\":10675:10684   */\n      not\n        /* \"#utility.yul\":10668:10673   */\n      dup5\n        /* \"#utility.yul\":10664:10685   */\n      and\n        /* \"#utility.yul\":10655:10685   */\n      swap4\n      pop\n        /* \"#utility.yul\":10728:10732   */\n      dup1\n        /* \"#utility.yul\":10718:10726   */\n      dup7\n        /* \"#utility.yul\":10714:10733   */\n      and\n        /* \"#utility.yul\":10707:10712   */\n      dup5\n        /* \"#utility.yul\":10704:10734   */\n      or\n        /* \"#utility.yul\":10694:10734   */\n      swap3\n      pop\n        /* \"#utility.yul\":10423:10740   */\n      pop\n      pop\n        /* \"#utility.yul\":10347:10740   */\n      swap4\n      swap3\n      pop\n      pop\n      pop\n      jump\t// out\n        /* \"#utility.yul\":10746:10806   */\n    tag_137:\n        /* \"#utility.yul\":10774:10777   */\n      0x00\n        /* \"#utility.yul\":10795:10800   */\n      dup2\n        /* \"#utility.yul\":10788:10800   */\n      swap1\n      pop\n        /* \"#utility.yul\":10746:10806   */\n      swap2\n      swap1\n      pop\n      jump\t// out\n        /* \"#utility.yul\":10812:10954   */\n    tag_138:\n        /* \"#utility.yul\":10862:10871   */\n      0x00\n        /* \"#utility.yul\":10895:10948   */\n      tag_271\n        /* \"#utility.yul\":10913:10947   */\n      tag_272\n        /* \"#utility.yul\":10922:10946   */\n      tag_273\n        /* \"#utility.yul\":10940:10945   */\n      dup5\n        /* \"#utility.yul\":10922:10946   */\n      tag_105\n      jump\t// in\n    tag_273:\n        /* \"#utility.yul\":10913:10947   */\n      tag_137\n      jump\t// in\n    tag_272:\n        /* \"#utility.yul\":10895:10948   */\n      tag_105\n      jump\t// in\n    tag_271:\n        /* \"#utility.yul\":10882:10948   */\n      swap1\n      pop\n        /* \"#utility.yul\":10812:10954   */\n      swap2\n      swap1\n      pop\n      jump\t// out\n        /* \"#utility.yul\":10960:11035   */\n    tag_139:\n        /* \"#utility.yul\":11003:11006   */\n      0x00\n        /* \"#utility.yul\":11024:11029   */\n      dup2\n        /* \"#utility.yul\":11017:11029   */\n      swap1\n      pop\n        /* \"#utility.yul\":10960:11035   */\n      swap2\n      swap1\n      pop\n      jump\t// out\n        /* \"#utility.yul\":11041:11310   */\n    tag_140:\n        /* \"#utility.yul\":11151:11190   */\n      tag_276\n        /* \"#utility.yul\":11182:11189   */\n      dup4\n        /* \"#utility.yul\":11151:11190   */\n      tag_138\n      jump\t// in\n    tag_276:\n        /* \"#utility.yul\":11212:11303   */\n      tag_277\n        /* \"#utility.yul\":11261:11302   */\n      tag_278\n        /* \"#utility.yul\":11285:11301   */\n      dup3\n        /* \"#utility.yul\":11261:11302   */\n      tag_139\n      jump\t// in\n    tag_278:\n        /* \"#utility.yul\":11253:11259   */\n      dup5\n        /* \"#utility.yul\":11246:11250   */\n      dup5\n        /* \"#utility.yul\":11240:11251   */\n      sload\n        /* \"#utility.yul\":11212:11303   */\n      tag_136\n      jump\t// in\n    tag_277:\n        /* \"#utility.yul\":11206:11210   */\n      dup3\n        /* \"#utility.yul\":11199:11304   */\n      sstore\n        /* \"#utility.yul\":11117:11310   */\n      pop\n        /* \"#utility.yul\":11041:11310   */\n      pop\n      pop\n      pop\n      jump\t// out\n        /* \"#utility.yul\":11316:11389   */\n    tag_141:\n        /* \"#utility.yul\":11361:11364   */\n      0x00\n        /* \"#utility.yul\":11316:11389   */\n      swap1\n      jump\t// out\n        /* \"#utility.yul\":11395:11584   */\n    tag_142:\n        /* \"#utility.yul\":11472:11504   */\n      tag_281\n      tag_141\n      jump\t// in\n    tag_281:\n        /* \"#utility.yul\":11513:11578   */\n      tag_282\n        /* \"#utility.yul\":11571:11577   */\n      dup2\n        /* \"#utility.yul\":11563:11569   */\n      dup5\n        /* \"#utility.yul\":11557:11561   */\n      dup5\n        /* \"#utility.yul\":11513:11578   */\n      tag_140\n      jump\t// in\n    tag_282:\n        /* \"#utility.yul\":11448:11584   */\n      pop\n        /* \"#utility.yul\":11395:11584   */\n      pop\n      pop\n      jump\t// out\n        /* \"#utility.yul\":11590:11776   */\n    tag_143:\n        /* \"#utility.yul\":11650:11770   */\n    tag_284:\n        /* \"#utility.yul\":11667:11670   */\n      dup2\n        /* \"#utility.yul\":11660:11665   */\n      dup2\n        /* \"#utility.yul\":11657:11671   */\n      lt\n        /* \"#utility.yul\":11650:11770   */\n      iszero\n      tag_286\n      jumpi\n        /* \"#utility.yul\":11721:11760   */\n      tag_287\n        /* \"#utility.yul\":11758:11759   */\n      0x00\n        /* \"#utility.yul\":11751:11756   */\n      dup3\n        /* \"#utility.yul\":11721:11760   */\n      tag_142\n      jump\t// in\n    tag_287:\n        /* \"#utility.yul\":11694:11695   */\n      0x01\n        /* \"#utility.yul\":11687:11692   */\n      dup2\n        /* \"#utility.yul\":11683:11696   */\n      add\n        /* \"#utility.yul\":11674:11696   */\n      swap1\n      pop\n        /* \"#utility.yul\":11650:11770   */\n      jump(tag_284)\n    tag_286:\n        /* \"#utility.yul\":11590:11776   */\n      pop\n      pop\n      jump\t// out\n        /* \"#utility.yul\":11782:12325   */\n    tag_144:\n        /* \"#utility.yul\":11883:11885   */\n      0x1f\n        /* \"#utility.yul\":11878:11881   */\n      dup3\n        /* \"#utility.yul\":11875:11886   */\n      gt\n        /* \"#utility.yul\":11872:12318   */\n      iszero\n      tag_289\n      jumpi\n        /* \"#utility.yul\":11917:11955   */\n      tag_290\n        /* \"#utility.yul\":11949:11954   */\n      dup2\n        /* \"#utility.yul\":11917:11955   */\n      tag_133\n      jump\t// in\n    tag_290:\n        /* \"#utility.yul\":12001:12030   */\n      tag_291\n        /* \"#utility.yul\":12019:12029   */\n      dup5\n        /* \"#utility.yul\":12001:12030   */\n      tag_134\n      jump\t// in\n    tag_291:\n        /* \"#utility.yul\":11991:11999   */\n      dup2\n        /* \"#utility.yul\":11987:12031   */\n      add\n        /* \"#utility.yul\":12184:12186   */\n      0x20\n        /* \"#utility.yul\":12172:12182   */\n      dup6\n        /* \"#utility.yul\":12169:12187   */\n      lt\n        /* \"#utility.yul\":12166:12215   */\n      iszero\n      tag_292\n      jumpi\n        /* \"#utility.yul\":12205:12213   */\n      dup2\n        /* \"#utility.yul\":12190:12213   */\n      swap1\n      pop\n        /* \"#utility.yul\":12166:12215   */\n    tag_292:\n        /* \"#utility.yul\":12228:12308   */\n      tag_293\n        /* \"#utility.yul\":12284:12306   */\n      tag_294\n        /* \"#utility.yul\":12302:12305   */\n      dup6\n        /* \"#utility.yul\":12284:12306   */\n      tag_134\n      jump\t// in\n    tag_294:\n        /* \"#utility.yul\":12274:12282   */\n      dup4\n        /* \"#utility.yul\":12270:12307   */\n      add\n        /* \"#utility.yul\":12257:12268   */\n      dup3\n        /* \"#utility.yul\":12228:12308   */\n      tag_143\n      jump\t// in\n    tag_293:\n        /* \"#utility.yul\":11887:12318   */\n      pop\n      pop\n        /* \"#utility.yul\":11872:12318   */\n    tag_289:\n        /* \"#utility.yul\":11782:12325   */\n      pop\n      pop\n      pop\n      jump\t// out\n        /* \"#utility.yul\":12331:12448   */\n    tag_145:\n        /* \"#utility.yul\":12385:12393   */\n      0x00\n        /* \"#utility.yul\":12435:12440   */\n      dup3\n        /* \"#utility.yul\":12429:12433   */\n      dup3\n        /* \"#utility.yul\":12425:12441   */\n      shr\n        /* \"#utility.yul\":12404:12441   */\n      swap1\n      pop\n        /* \"#utility.yul\":12331:12448   */\n      swap3\n      swap2\n      pop\n      pop\n      jump\t// out\n        /* \"#utility.yul\":12454:12623   */\n    tag_146:\n        /* \"#utility.yul\":12498:12504   */\n      0x00\n        /* \"#utility.yul\":12531:12582   */\n      tag_297\n        /* \"#utility.yul\":12579:12580   */\n      0x00\n        /* \"#utility.yul\":12575:12581   */\n      not\n        /* \"#utility.yul\":12567:12572   */\n      dup5\n        /* \"#utility.yul\":12564:12565   */\n      0x08\n        /* \"#utility.yul\":12560:12573   */\n      mul\n        /* \"#utility.yul\":12531:12582   */\n      tag_145\n      jump\t// in\n    tag_297:\n        /* \"#utility.yul\":12527:12583   */\n      not\n        /* \"#utility.yul\":12612:12616   */\n      dup1\n        /* \"#utility.yul\":12606:12610   */\n      dup4\n        /* \"#utility.yul\":12602:12617   */\n      and\n        /* \"#utility.yul\":12592:12617   */\n      swap2\n      pop\n        /* \"#utility.yul\":12505:12623   */\n      pop\n        /* \"#utility.yul\":12454:12623   */\n      swap3\n      swap2\n      pop\n      pop\n      jump\t// out\n        /* \"#utility.yul\":12628:12923   */\n    tag_147:\n        /* \"#utility.yul\":12704:12708   */\n      0x00\n        /* \"#utility.yul\":12850:12879   */\n      tag_299\n        /* \"#utility.yul\":12875:12878   */\n      dup4\n        /* \"#utility.yul\":12869:12873   */\n      dup4\n        /* \"#utility.yul\":12850:12879   */\n      tag_146\n      jump\t// in\n    tag_299:\n        /* \"#utility.yul\":12842:12879   */\n      swap2\n      pop\n        /* \"#utility.yul\":12912:12915   */\n      dup3\n        /* \"#utility.yul\":12909:12910   */\n      0x02\n        /* \"#utility.yul\":12905:12916   */\n      mul\n        /* \"#utility.yul\":12899:12903   */\n      dup3\n        /* \"#utility.yul\":12896:12917   */\n      or\n        /* \"#utility.yul\":12888:12917   */\n      swap1\n      pop\n        /* \"#utility.yul\":12628:12923   */\n      swap3\n      swap2\n      pop\n      pop\n      jump\t// out\n        /* \"#utility.yul\":12928:14323   */\n    tag_97:\n        /* \"#utility.yul\":13045:13082   */\n      tag_301\n        /* \"#utility.yul\":13078:13081   */\n      dup3\n        /* \"#utility.yul\":13045:13082   */\n      tag_109\n      jump\t// in\n    tag_301:\n        /* \"#utility.yul\":13147:13165   */\n      0xffffffffffffffff\n        /* \"#utility.yul\":13139:13145   */\n      dup2\n        /* \"#utility.yul\":13136:13166   */\n      gt\n        /* \"#utility.yul\":13133:13189   */\n      iszero\n      tag_302\n      jumpi\n        /* \"#utility.yul\":13169:13187   */\n      tag_303\n      tag_120\n      jump\t// in\n    tag_303:\n        /* \"#utility.yul\":13133:13189   */\n    tag_302:\n        /* \"#utility.yul\":13213:13251   */\n      tag_304\n        /* \"#utility.yul\":13245:13249   */\n      dup3\n        /* \"#utility.yul\":13239:13250   */\n      sload\n        /* \"#utility.yul\":13213:13251   */\n      tag_85\n      jump\t// in\n    tag_304:\n        /* \"#utility.yul\":13298:13365   */\n      tag_305\n        /* \"#utility.yul\":13358:13364   */\n      dup3\n        /* \"#utility.yul\":13350:13356   */\n      dup3\n        /* \"#utility.yul\":13344:13348   */\n      dup6\n        /* \"#utility.yul\":13298:13365   */\n      tag_144\n      jump\t// in\n    tag_305:\n        /* \"#utility.yul\":13392:13393   */\n      0x00\n        /* \"#utility.yul\":13416:13420   */\n      0x20\n        /* \"#utility.yul\":13403:13420   */\n      swap1\n      pop\n        /* \"#utility.yul\":13448:13450   */\n      0x1f\n        /* \"#utility.yul\":13440:13446   */\n      dup4\n        /* \"#utility.yul\":13437:13451   */\n      gt\n        /* \"#utility.yul\":13465:13466   */\n      0x01\n        /* \"#utility.yul\":13460:14078   */\n      dup2\n      eq\n      tag_307\n      jumpi\n        /* \"#utility.yul\":14122:14123   */\n      0x00\n        /* \"#utility.yul\":14139:14145   */\n      dup5\n        /* \"#utility.yul\":14136:14213   */\n      iszero\n      tag_308\n      jumpi\n        /* \"#utility.yul\":14188:14197   */\n      dup3\n        /* \"#utility.yul\":14183:14186   */\n      dup8\n        /* \"#utility.yul\":14179:14198   */\n      add\n        /* \"#utility.yul\":14173:14199   */\n      mload\n        /* \"#utility.yul\":14164:14199   */\n      swap1\n      pop\n        /* \"#utility.yul\":14136:14213   */\n    tag_308:\n        /* \"#utility.yul\":14239:14306   */\n      tag_309\n        /* \"#utility.yul\":14299:14305   */\n      dup6\n        /* \"#utility.yul\":14292:14297   */\n      dup3\n        /* \"#utility.yul\":14239:14306   */\n      tag_147\n      jump\t// in\n    tag_309:\n        /* \"#utility.yul\":14233:14237   */\n      dup7\n        /* \"#utility.yul\":14226:14307   */\n      sstore\n        /* \"#utility.yul\":14095:14317   */\n      pop\n        /* \"#utility.yul\":13430:14317   */\n      jump(tag_306)\n        /* \"#utility.yul\":13460:14078   */\n    tag_307:\n        /* \"#utility.yul\":13512:13516   */\n      0x1f\n        /* \"#utility.yul\":13508:13517   */\n      not\n        /* \"#utility.yul\":13500:13506   */\n      dup5\n        /* \"#utility.yul\":13496:13518   */\n      and\n        /* \"#utility.yul\":13546:13583   */\n      tag_310\n        /* \"#utility.yul\":13578:13582   */\n      dup7\n        /* \"#utility.yul\":13546:13583   */\n      tag_133\n      jump\t// in\n    tag_310:\n        /* \"#utility.yul\":13605:13606   */\n      0x00\n        /* \"#utility.yul\":13619:13827   */\n    tag_311:\n        /* \"#utility.yul\":13633:13640   */\n      dup3\n        /* \"#utility.yul\":13630:13631   */\n      dup2\n        /* \"#utility.yul\":13627:13641   */\n      lt\n        /* \"#utility.yul\":13619:13827   */\n      iszero\n      tag_313\n      jumpi\n        /* \"#utility.yul\":13712:13721   */\n      dup5\n        /* \"#utility.yul\":13707:13710   */\n      dup10\n        /* \"#utility.yul\":13703:13722   */\n      add\n        /* \"#utility.yul\":13697:13723   */\n      mload\n        /* \"#utility.yul\":13689:13695   */\n      dup3\n        /* \"#utility.yul\":13682:13724   */\n      sstore\n        /* \"#utility.yul\":13763:13764   */\n      0x01\n        /* \"#utility.yul\":13755:13761   */\n      dup3\n        /* \"#utility.yul\":13751:13765   */\n      add\n        /* \"#utility.yul\":13741:13765   */\n      swap2\n      pop\n        /* \"#utility.yul\":13810:13812   */\n      0x20\n        /* \"#utility.yul\":13799:13808   */\n      dup6\n        /* \"#utility.yul\":13795:13813   */\n      add\n        /* \"#utility.yul\":13782:13813   */\n      swap5\n      pop\n        /* \"#utility.yul\":13656:13660   */\n      0x20\n        /* \"#utility.yul\":13653:13654   */\n      dup2\n        /* \"#utility.yul\":13649:13661   */\n      add\n        /* \"#utility.yul\":13644:13661   */\n      swap1\n      pop\n        /* \"#utility.yul\":13619:13827   */\n      jump(tag_311)\n    tag_313:\n        /* \"#utility.yul\":13855:13861   */\n      dup7\n        /* \"#utility.yul\":13846:13853   */\n      dup4\n        /* \"#utility.yul\":13843:13862   */\n      lt\n        /* \"#utility.yul\":13840:14019   */\n      iszero\n      tag_314\n      jumpi\n        /* \"#utility.yul\":13913:13922   */\n      dup5\n        /* \"#utility.yul\":13908:13911   */\n      dup10\n        /* \"#utility.yul\":13904:13923   */\n      add\n        /* \"#utility.yul\":13898:13924   */\n      mload\n        /* \"#utility.yul\":13956:14004   */\n      tag_315\n        /* \"#utility.yul\":13998:14002   */\n      0x1f\n        /* \"#utility.yul\":13990:13996   */\n      dup10\n        /* \"#utility.yul\":13986:14003   */\n      and\n        /* \"#utility.yul\":13975:13984   */\n      dup3\n        /* \"#utility.yul\":13956:14004   */\n      tag_146\n      jump\t// in\n    tag_315:\n        /* \"#utility.yul\":13948:13954   */\n      dup4\n        /* \"#utility.yul\":13941:14005   */\n      sstore\n        /* \"#utility.yul\":13863:14019   */\n      pop\n        /* \"#utility.yul\":13840:14019   */\n    tag_314:\n        /* \"#utility.yul\":14065:14066   */\n      0x01\n        /* \"#utility.yul\":14061:14062   */\n      0x02\n        /* \"#utility.yul\":14053:14059   */\n      dup9\n        /* \"#utility.yul\":14049:14063   */\n      mul\n        /* \"#utility.yul\":14045:14067   */\n      add\n        /* \"#utility.yul\":14039:14043   */\n      dup9\n        /* \"#utility.yul\":14032:14068   */\n      sstore\n        /* \"#utility.yul\":13467:14078   */\n      pop\n      pop\n      pop\n        /* \"#utility.yul\":13430:14317   */\n    tag_306:\n      pop\n        /* \"#utility.yul\":13020:14323   */\n      pop\n      pop\n      pop\n        /* \"#utility.yul\":12928:14323   */\n      pop\n      pop\n      jump\t// out\n\n    auxdata: 0xa2646970667358221220c990348ca086d62550d4abc45708589f5755aa050c3ee46cbe027789c50c5fad64736f6c634300080f0033\n}\n",
				"bytecode": {
					"linkReferences": {},
					"object": "60806040523480156200001157600080fd5b506040516200117a3803806200117a8339818101604052810190620000379190620000e3565b8160038190555080426200004c919062000159565b600481905550600a60028190555033600160006101000a81548173ffffffffffffffffffffffffffffffffffffffff021916908373ffffffffffffffffffffffffffffffffffffffff1602179055505050620001b6565b600080fd5b6000819050919050565b620000bd81620000a8565b8114620000c957600080fd5b50565b600081519050620000dd81620000b2565b92915050565b60008060408385031215620000fd57620000fc620000a3565b5b60006200010d85828601620000cc565b92505060206200012085828601620000cc565b9150509250929050565b7f4e487b7100000000000000000000000000000000000000000000000000000000600052601160045260246000fd5b60006200016682620000a8565b91506200017383620000a8565b9250827fffffffffffffffffffffffffffffffffffffffffffffffffffffffffffffffff03821115620001ab57620001aa6200012a565b5b828201905092915050565b610fb480620001c66000396000f3fe6080604052600436106100a75760003560e01c8063728d545f11610064578063728d545f146101895780639bf4ec2f146101b4578063b5fdcfa3146101f5578063b6290e761461021e578063c59ee1dc14610249578063d4b8399214610274576100a7565b806306e99fef146100ac5780631f6d4942146100b657806325caa262146100f357806329dcb0cf1461011e5780634cb6f4a514610149578063590e1ae314610172575b600080fd5b6100b461029f565b005b3480156100c257600080fd5b506100dd60048036038101906100d891906107ae565b61038b565b6040516100ea91906107f4565b60405180910390f35b3480156100ff57600080fd5b506101086103a3565b60405161011591906107f4565b60405180910390f35b34801561012a57600080fd5b506101336103ab565b60405161014091906107f4565b60405180910390f35b34801561015557600080fd5b50610170600480360381019061016b919061083b565b6103b1565b005b34801561017e57600080fd5b506101876103b4565b005b34801561019557600080fd5b5061019e6104ed565b6040516101ab91906107f4565b60405180910390f35b3480156101c057600080fd5b506101db60048036038101906101d6919061083b565b6104f3565b6040516101ec95949392919061093d565b60405180910390f35b34801561020157600080fd5b5061021c60048036038101906102179190610af8565b6105de565b005b34801561022a57600080fd5b5061023361072a565b60405161024091906107f4565b60405180910390f35b34801561025557600080fd5b5061025e610730565b60405161026b91906107f4565b60405180910390f35b34801561028057600080fd5b50610289610736565b60405161029691906107f4565b60405180910390f35b60045442106102ad57600080fd5b6002543410156102bc57600080fd5b60008060003373ffffffffffffffffffffffffffffffffffffffff1673ffffffffffffffffffffffffffffffffffffffff168152602001908152602001600020540361031b576005600081548092919061031590610b96565b91905055505b346000803373ffffffffffffffffffffffffffffffffffffffff1673ffffffffffffffffffffffffffffffffffffffff16815260200190815260200160002060008282546103699190610bde565b9250508190555034600660008282546103829190610bde565b92505081905550565b60006020528060005260406000206000915090505481565b600047905090565b60045481565b50565b600454421080156103c85750600354600654105b6103d157600080fd5b60008060003373ffffffffffffffffffffffffffffffffffffffff1673ffffffffffffffffffffffffffffffffffffffff168152602001908152602001600020541161041c57600080fd5b60003390508073ffffffffffffffffffffffffffffffffffffffff166108fc6000803373ffffffffffffffffffffffffffffffffffffffff1673ffffffffffffffffffffffffffffffffffffffff168152602001908152602001600020549081150290604051600060405180830381858888f193505050501580156104a5573d6000803e3d6000fd5b5060008060003373ffffffffffffffffffffffffffffffffffffffff1673ffffffffffffffffffffffffffffffffffffffff1681526020019081526020016000208190555050565b60025481565b600760205280600052604060002060009150905080600001805461051690610c63565b80601f016020809104026020016040519081016040528092919081815260200182805461054290610c63565b801561058f5780601f106105645761010080835404028352916020019161058f565b820191906000526020600020905b81548152906001019060200180831161057257829003601f168201915b5050505050908060010160009054906101000a900473ffffffffffffffffffffffffffffffffffffffff16908060020154908060030160009054906101000a900460ff16908060040154905085565b600160009054906101000a900473ffffffffffffffffffffffffffffffffffffffff1673ffffffffffffffffffffffffffffffffffffffff163373ffffffffffffffffffffffffffffffffffffffff161461066e576040517f08c379a000000000000000000000000000000000000000000000000000000000815260040161066590610ce0565b60405180910390fd5b600060076000600854815260200190815260200160002090506008600081548092919061069a90610b96565b9190505550838160000190816106b09190610eac565b50828160010160006101000a81548173ffffffffffffffffffffffffffffffffffffffff021916908373ffffffffffffffffffffffffffffffffffffffff16021790555081816002018190555060008160030160006101000a81548160ff0219169083151502179055506000816004018190555050505050565b60085481565b60065481565b60035481565b6000604051905090565b600080fd5b600080fd5b600073ffffffffffffffffffffffffffffffffffffffff82169050919050565b600061077b82610750565b9050919050565b61078b81610770565b811461079657600080fd5b50565b6000813590506107a881610782565b92915050565b6000602082840312156107c4576107c3610746565b5b60006107d284828501610799565b91505092915050565b6000819050919050565b6107ee816107db565b82525050565b600060208201905061080960008301846107e5565b92915050565b610818816107db565b811461082357600080fd5b50565b6000813590506108358161080f565b92915050565b60006020828403121561085157610850610746565b5b600061085f84828501610826565b91505092915050565b600081519050919050565b600082825260208201905092915050565b60005b838110156108a2578082015181840152602081019050610887565b838111156108b1576000848401525b50505050565b6000601f19601f8301169050919050565b60006108d382610868565b6108dd8185610873565b93506108ed818560208601610884565b6108f6816108b7565b840191505092915050565b600061090c82610750565b9050919050565b61091c81610901565b82525050565b60008115159050919050565b61093781610922565b82525050565b600060a082019050818103600083015261095781886108c8565b90506109666020830187610913565b61097360408301866107e5565b610980606083018561092e565b61098d60808301846107e5565b9695505050505050565b600080fd5b600080fd5b7f4e487b7100000000000000000000000000000000000000000000000000000000600052604160045260246000fd5b6109d9826108b7565b810181811067ffffffffffffffff821117156109f8576109f76109a1565b5b80604052505050565b6000610a0b61073c565b9050610a1782826109d0565b919050565b600067ffffffffffffffff821115610a3757610a366109a1565b5b610a40826108b7565b9050602081019050919050565b82818337600083830152505050565b6000610a6f610a6a84610a1c565b610a01565b905082815260208101848484011115610a8b57610a8a61099c565b5b610a96848285610a4d565b509392505050565b600082601f830112610ab357610ab2610997565b5b8135610ac3848260208601610a5c565b91505092915050565b610ad581610901565b8114610ae057600080fd5b50565b600081359050610af281610acc565b92915050565b600080600060608486031215610b1157610b10610746565b5b600084013567ffffffffffffffff811115610b2f57610b2e61074b565b5b610b3b86828701610a9e565b9350506020610b4c86828701610ae3565b9250506040610b5d86828701610826565b9150509250925092565b7f4e487b7100000000000000000000000000000000000000000000000000000000600052601160045260246000fd5b6000610ba1826107db565b91507fffffffffffffffffffffffffffffffffffffffffffffffffffffffffffffffff8203610bd357610bd2610b67565b5b600182019050919050565b6000610be9826107db565b9150610bf4836107db565b9250827fffffffffffffffffffffffffffffffffffffffffffffffffffffffffffffffff03821115610c2957610c28610b67565b5b828201905092915050565b7f4e487b7100000000000000000000000000000000000000000000000000000000600052602260045260246000fd5b60006002820490506001821680610c7b57607f821691505b602082108103610c8e57610c8d610c34565b5b50919050565b7f6e6f7420746865206d616e656765720000000000000000000000000000000000600082015250565b6000610cca600f83610873565b9150610cd582610c94565b602082019050919050565b60006020820190508181036000830152610cf981610cbd565b9050919050565b60008190508160005260206000209050919050565b60006020601f8301049050919050565b600082821b905092915050565b600060088302610d627fffffffffffffffffffffffffffffffffffffffffffffffffffffffffffffffff82610d25565b610d6c8683610d25565b95508019841693508086168417925050509392505050565b6000819050919050565b6000610da9610da4610d9f846107db565b610d84565b6107db565b9050919050565b6000819050919050565b610dc383610d8e565b610dd7610dcf82610db0565b848454610d32565b825550505050565b600090565b610dec610ddf565b610df7818484610dba565b505050565b5b81811015610e1b57610e10600082610de4565b600181019050610dfd565b5050565b601f821115610e6057610e3181610d00565b610e3a84610d15565b81016020851015610e49578190505b610e5d610e5585610d15565b830182610dfc565b50505b505050565b600082821c905092915050565b6000610e8360001984600802610e65565b1980831691505092915050565b6000610e9c8383610e72565b9150826002028217905092915050565b610eb582610868565b67ffffffffffffffff811115610ece57610ecd6109a1565b5b610ed88254610c63565b610ee3828285610e1f565b600060209050601f831160018114610f165760008415610f04578287015190505b610f0e8582610e90565b865550610f76565b601f198416610f2486610d00565b60005b82811015610f4c57848901518255600182019150602085019450602081019050610f27565b86831015610f695784890151610f65601f891682610e72565b8355505b6001600288020188555050505b50505050505056fea2646970667358221220c990348ca086d62550d4abc45708589f5755aa050c3ee46cbe027789c50c5fad64736f6c634300080f0033",
					"opcodes": "PUSH1 0x80 PUSH1 0x40 MSTORE CALLVALUE DUP1 ISZERO PUSH3 0x11 JUMPI PUSH1 0x0 DUP1 REVERT JUMPDEST POP PUSH1 0x40 MLOAD PUSH3 0x117A CODESIZE SUB DUP1 PUSH3 0x117A DUP4 CODECOPY DUP2 DUP2 ADD PUSH1 0x40 MSTORE DUP2 ADD SWAP1 PUSH3 0x37 SWAP2 SWAP1 PUSH3 0xE3 JUMP JUMPDEST DUP2 PUSH1 0x3 DUP2 SWAP1 SSTORE POP DUP1 TIMESTAMP PUSH3 0x4C SWAP2 SWAP1 PUSH3 0x159 JUMP JUMPDEST PUSH1 0x4 DUP2 SWAP1 SSTORE POP PUSH1 0xA PUSH1 0x2 DUP2 SWAP1 SSTORE POP CALLER PUSH1 0x1 PUSH1 0x0 PUSH2 0x100 EXP DUP2 SLOAD DUP2 PUSH20 0xFFFFFFFFFFFFFFFFFFFFFFFFFFFFFFFFFFFFFFFF MUL NOT AND SWAP1 DUP4 PUSH20 0xFFFFFFFFFFFFFFFFFFFFFFFFFFFFFFFFFFFFFFFF AND MUL OR SWAP1 SSTORE POP POP POP PUSH3 0x1B6 JUMP JUMPDEST PUSH1 0x0 DUP1 REVERT JUMPDEST PUSH1 0x0 DUP2 SWAP1 POP SWAP2 SWAP1 POP JUMP JUMPDEST PUSH3 0xBD DUP2 PUSH3 0xA8 JUMP JUMPDEST DUP2 EQ PUSH3 0xC9 JUMPI PUSH1 0x0 DUP1 REVERT JUMPDEST POP JUMP JUMPDEST PUSH1 0x0 DUP2 MLOAD SWAP1 POP PUSH3 0xDD DUP2 PUSH3 0xB2 JUMP JUMPDEST SWAP3 SWAP2 POP POP JUMP JUMPDEST PUSH1 0x0 DUP1 PUSH1 0x40 DUP4 DUP6 SUB SLT ISZERO PUSH3 0xFD JUMPI PUSH3 0xFC PUSH3 0xA3 JUMP JUMPDEST JUMPDEST PUSH1 0x0 PUSH3 0x10D DUP6 DUP3 DUP7 ADD PUSH3 0xCC JUMP JUMPDEST SWAP3 POP POP PUSH1 0x20 PUSH3 0x120 DUP6 DUP3 DUP7 ADD PUSH3 0xCC JUMP JUMPDEST SWAP2 POP POP SWAP3 POP SWAP3 SWAP1 POP JUMP JUMPDEST PUSH32 0x4E487B7100000000000000000000000000000000000000000000000000000000 PUSH1 0x0 MSTORE PUSH1 0x11 PUSH1 0x4 MSTORE PUSH1 0x24 PUSH1 0x0 REVERT JUMPDEST PUSH1 0x0 PUSH3 0x166 DUP3 PUSH3 0xA8 JUMP JUMPDEST SWAP2 POP PUSH3 0x173 DUP4 PUSH3 0xA8 JUMP JUMPDEST SWAP3 POP DUP3 PUSH32 0xFFFFFFFFFFFFFFFFFFFFFFFFFFFFFFFFFFFFFFFFFFFFFFFFFFFFFFFFFFFFFFFF SUB DUP3 GT ISZERO PUSH3 0x1AB JUMPI PUSH3 0x1AA PUSH3 0x12A JUMP JUMPDEST JUMPDEST DUP3 DUP3 ADD SWAP1 POP SWAP3 SWAP2 POP POP JUMP JUMPDEST PUSH2 0xFB4 DUP1 PUSH3 0x1C6 PUSH1 0x0 CODECOPY PUSH1 0x0 RETURN INVALID PUSH1 0x80 PUSH1 0x40 MSTORE PUSH1 0x4 CALLDATASIZE LT PUSH2 0xA7 JUMPI PUSH1 0x0 CALLDATALOAD PUSH1 0xE0 SHR DUP1 PUSH4 0x728D545F GT PUSH2 0x64 JUMPI DUP1 PUSH4 0x728D545F EQ PUSH2 0x189 JUMPI DUP1 PUSH4 0x9BF4EC2F EQ PUSH2 0x1B4 JUMPI DUP1 PUSH4 0xB5FDCFA3 EQ PUSH2 0x1F5 JUMPI DUP1 PUSH4 0xB6290E76 EQ PUSH2 0x21E JUMPI DUP1 PUSH4 0xC59EE1DC EQ PUSH2 0x249 JUMPI DUP1 PUSH4 0xD4B83992 EQ PUSH2 0x274 JUMPI PUSH2 0xA7 JUMP JUMPDEST DUP1 PUSH4 0x6E99FEF EQ PUSH2 0xAC JUMPI DUP1 PUSH4 0x1F6D4942 EQ PUSH2 0xB6 JUMPI DUP1 PUSH4 0x25CAA262 EQ PUSH2 0xF3 JUMPI DUP1 PUSH4 0x29DCB0CF EQ PUSH2 0x11E JUMPI DUP1 PUSH4 0x4CB6F4A5 EQ PUSH2 0x149 JUMPI DUP1 PUSH4 0x590E1AE3 EQ PUSH2 0x172 JUMPI JUMPDEST PUSH1 0x0 DUP1 REVERT JUMPDEST PUSH2 0xB4 PUSH2 0x29F JUMP JUMPDEST STOP JUMPDEST CALLVALUE DUP1 ISZERO PUSH2 0xC2 JUMPI PUSH1 0x0 DUP1 REVERT JUMPDEST POP PUSH2 0xDD PUSH1 0x4 DUP1 CALLDATASIZE SUB DUP2 ADD SWAP1 PUSH2 0xD8 SWAP2 SWAP1 PUSH2 0x7AE JUMP JUMPDEST PUSH2 0x38B JUMP JUMPDEST PUSH1 0x40 MLOAD PUSH2 0xEA SWAP2 SWAP1 PUSH2 0x7F4 JUMP JUMPDEST PUSH1 0x40 MLOAD DUP1 SWAP2 SUB SWAP1 RETURN JUMPDEST CALLVALUE DUP1 ISZERO PUSH2 0xFF JUMPI PUSH1 0x0 DUP1 REVERT JUMPDEST POP PUSH2 0x108 PUSH2 0x3A3 JUMP JUMPDEST PUSH1 0x40 MLOAD PUSH2 0x115 SWAP2 SWAP1 PUSH2 0x7F4 JUMP JUMPDEST PUSH1 0x40 MLOAD DUP1 SWAP2 SUB SWAP1 RETURN JUMPDEST CALLVALUE DUP1 ISZERO PUSH2 0x12A JUMPI PUSH1 0x0 DUP1 REVERT JUMPDEST POP PUSH2 0x133 PUSH2 0x3AB JUMP JUMPDEST PUSH1 0x40 MLOAD PUSH2 0x140 SWAP2 SWAP1 PUSH2 0x7F4 JUMP JUMPDEST PUSH1 0x40 MLOAD DUP1 SWAP2 SUB SWAP1 RETURN JUMPDEST CALLVALUE DUP1 ISZERO PUSH2 0x155 JUMPI PUSH1 0x0 DUP1 REVERT JUMPDEST POP PUSH2 0x170 PUSH1 0x4 DUP1 CALLDATASIZE SUB DUP2 ADD SWAP1 PUSH2 0x16B SWAP2 SWAP1 PUSH2 0x83B JUMP JUMPDEST PUSH2 0x3B1 JUMP JUMPDEST STOP JUMPDEST CALLVALUE DUP1 ISZERO PUSH2 0x17E JUMPI PUSH1 0x0 DUP1 REVERT JUMPDEST POP PUSH2 0x187 PUSH2 0x3B4 JUMP JUMPDEST STOP JUMPDEST CALLVALUE DUP1 ISZERO PUSH2 0x195 JUMPI PUSH1 0x0 DUP1 REVERT JUMPDEST POP PUSH2 0x19E PUSH2 0x4ED JUMP JUMPDEST PUSH1 0x40 MLOAD PUSH2 0x1AB SWAP2 SWAP1 PUSH2 0x7F4 JUMP JUMPDEST PUSH1 0x40 MLOAD DUP1 SWAP2 SUB SWAP1 RETURN JUMPDEST CALLVALUE DUP1 ISZERO PUSH2 0x1C0 JUMPI PUSH1 0x0 DUP1 REVERT JUMPDEST POP PUSH2 0x1DB PUSH1 0x4 DUP1 CALLDATASIZE SUB DUP2 ADD SWAP1 PUSH2 0x1D6 SWAP2 SWAP1 PUSH2 0x83B JUMP JUMPDEST PUSH2 0x4F3 JUMP JUMPDEST PUSH1 0x40 MLOAD PUSH2 0x1EC SWAP6 SWAP5 SWAP4 SWAP3 SWAP2 SWAP1 PUSH2 0x93D JUMP JUMPDEST PUSH1 0x40 MLOAD DUP1 SWAP2 SUB SWAP1 RETURN JUMPDEST CALLVALUE DUP1 ISZERO PUSH2 0x201 JUMPI PUSH1 0x0 DUP1 REVERT JUMPDEST POP PUSH2 0x21C PUSH1 0x4 DUP1 CALLDATASIZE SUB DUP2 ADD SWAP1 PUSH2 0x217 SWAP2 SWAP1 PUSH2 0xAF8 JUMP JUMPDEST PUSH2 0x5DE JUMP JUMPDEST STOP JUMPDEST CALLVALUE DUP1 ISZERO PUSH2 0x22A JUMPI PUSH1 0x0 DUP1 REVERT JUMPDEST POP PUSH2 0x233 PUSH2 0x72A JUMP JUMPDEST PUSH1 0x40 MLOAD PUSH2 0x240 SWAP2 SWAP1 PUSH2 0x7F4 JUMP JUMPDEST PUSH1 0x40 MLOAD DUP1 SWAP2 SUB SWAP1 RETURN JUMPDEST CALLVALUE DUP1 ISZERO PUSH2 0x255 JUMPI PUSH1 0x0 DUP1 REVERT JUMPDEST POP PUSH2 0x25E PUSH2 0x730 JUMP JUMPDEST PUSH1 0x40 MLOAD PUSH2 0x26B SWAP2 SWAP1 PUSH2 0x7F4 JUMP JUMPDEST PUSH1 0x40 MLOAD DUP1 SWAP2 SUB SWAP1 RETURN JUMPDEST CALLVALUE DUP1 ISZERO PUSH2 0x280 JUMPI PUSH1 0x0 DUP1 REVERT JUMPDEST POP PUSH2 0x289 PUSH2 0x736 JUMP JUMPDEST PUSH1 0x40 MLOAD PUSH2 0x296 SWAP2 SWAP1 PUSH2 0x7F4 JUMP JUMPDEST PUSH1 0x40 MLOAD DUP1 SWAP2 SUB SWAP1 RETURN JUMPDEST PUSH1 0x4 SLOAD TIMESTAMP LT PUSH2 0x2AD JUMPI PUSH1 0x0 DUP1 REVERT JUMPDEST PUSH1 0x2 SLOAD CALLVALUE LT ISZERO PUSH2 0x2BC JUMPI PUSH1 0x0 DUP1 REVERT JUMPDEST PUSH1 0x0 DUP1 PUSH1 0x0 CALLER PUSH20 0xFFFFFFFFFFFFFFFFFFFFFFFFFFFFFFFFFFFFFFFF AND PUSH20 0xFFFFFFFFFFFFFFFFFFFFFFFFFFFFFFFFFFFFFFFF AND DUP2 MSTORE PUSH1 0x20 ADD SWAP1 DUP2 MSTORE PUSH1 0x20 ADD PUSH1 0x0 KECCAK256 SLOAD SUB PUSH2 0x31B JUMPI PUSH1 0x5 PUSH1 0x0 DUP2 SLOAD DUP1 SWAP3 SWAP2 SWAP1 PUSH2 0x315 SWAP1 PUSH2 0xB96 JUMP JUMPDEST SWAP2 SWAP1 POP SSTORE POP JUMPDEST CALLVALUE PUSH1 0x0 DUP1 CALLER PUSH20 0xFFFFFFFFFFFFFFFFFFFFFFFFFFFFFFFFFFFFFFFF AND PUSH20 0xFFFFFFFFFFFFFFFFFFFFFFFFFFFFFFFFFFFFFFFF AND DUP2 MSTORE PUSH1 0x20 ADD SWAP1 DUP2 MSTORE PUSH1 0x20 ADD PUSH1 0x0 KECCAK256 PUSH1 0x0 DUP3 DUP3 SLOAD PUSH2 0x369 SWAP2 SWAP1 PUSH2 0xBDE JUMP JUMPDEST SWAP3 POP POP DUP2 SWAP1 SSTORE POP CALLVALUE PUSH1 0x6 PUSH1 0x0 DUP3 DUP3 SLOAD PUSH2 0x382 SWAP2 SWAP1 PUSH2 0xBDE JUMP JUMPDEST SWAP3 POP POP DUP2 SWAP1 SSTORE POP JUMP JUMPDEST PUSH1 0x0 PUSH1 0x20 MSTORE DUP1 PUSH1 0x0 MSTORE PUSH1 0x40 PUSH1 0x0 KECCAK256 PUSH1 0x0 SWAP2 POP SWAP1 POP SLOAD DUP2 JUMP JUMPDEST PUSH1 0x0 SELFBALANCE SWAP1 POP SWAP1 JUMP JUMPDEST PUSH1 0x4 SLOAD DUP2 JUMP JUMPDEST POP JUMP JUMPDEST PUSH1 0x4 SLOAD TIMESTAMP LT DUP1 ISZERO PUSH2 0x3C8 JUMPI POP PUSH1 0x3 SLOAD PUSH1 0x6 SLOAD LT JUMPDEST PUSH2 0x3D1 JUMPI PUSH1 0x0 DUP1 REVERT JUMPDEST PUSH1 0x0 DUP1 PUSH1 0x0 CALLER PUSH20 0xFFFFFFFFFFFFFFFFFFFFFFFFFFFFFFFFFFFFFFFF AND PUSH20 0xFFFFFFFFFFFFFFFFFFFFFFFFFFFFFFFFFFFFFFFF AND DUP2 MSTORE PUSH1 0x20 ADD SWAP1 DUP2 MSTORE PUSH1 0x20 ADD PUSH1 0x0 KECCAK256 SLOAD GT PUSH2 0x41C JUMPI PUSH1 0x0 DUP1 REVERT JUMPDEST PUSH1 0x0 CALLER SWAP1 POP DUP1 PUSH20 0xFFFFFFFFFFFFFFFFFFFFFFFFFFFFFFFFFFFFFFFF AND PUSH2 0x8FC PUSH1 0x0 DUP1 CALLER PUSH20 0xFFFFFFFFFFFFFFFFFFFFFFFFFFFFFFFFFFFFFFFF AND PUSH20 0xFFFFFFFFFFFFFFFFFFFFFFFFFFFFFFFFFFFFFFFF AND DUP2 MSTORE PUSH1 0x20 ADD SWAP1 DUP2 MSTORE PUSH1 0x20 ADD PUSH1 0x0 KECCAK256 SLOAD SWAP1 DUP2 ISZERO MUL SWAP1 PUSH1 0x40 MLOAD PUSH1 0x0 PUSH1 0x40 MLOAD DUP1 DUP4 SUB DUP2 DUP6 DUP9 DUP9 CALL SWAP4 POP POP POP POP ISZERO DUP1 ISZERO PUSH2 0x4A5 JUMPI RETURNDATASIZE PUSH1 0x0 DUP1 RETURNDATACOPY RETURNDATASIZE PUSH1 0x0 REVERT JUMPDEST POP PUSH1 0x0 DUP1 PUSH1 0x0 CALLER PUSH20 0xFFFFFFFFFFFFFFFFFFFFFFFFFFFFFFFFFFFFFFFF AND PUSH20 0xFFFFFFFFFFFFFFFFFFFFFFFFFFFFFFFFFFFFFFFF AND DUP2 MSTORE PUSH1 0x20 ADD SWAP1 DUP2 MSTORE PUSH1 0x20 ADD PUSH1 0x0 KECCAK256 DUP2 SWAP1 SSTORE POP POP JUMP JUMPDEST PUSH1 0x2 SLOAD DUP2 JUMP JUMPDEST PUSH1 0x7 PUSH1 0x20 MSTORE DUP1 PUSH1 0x0 MSTORE PUSH1 0x40 PUSH1 0x0 KECCAK256 PUSH1 0x0 SWAP2 POP SWAP1 POP DUP1 PUSH1 0x0 ADD DUP1 SLOAD PUSH2 0x516 SWAP1 PUSH2 0xC63 JUMP JUMPDEST DUP1 PUSH1 0x1F ADD PUSH1 0x20 DUP1 SWAP2 DIV MUL PUSH1 0x20 ADD PUSH1 0x40 MLOAD SWAP1 DUP2 ADD PUSH1 0x40 MSTORE DUP1 SWAP3 SWAP2 SWAP1 DUP2 DUP2 MSTORE PUSH1 0x20 ADD DUP3 DUP1 SLOAD PUSH2 0x542 SWAP1 PUSH2 0xC63 JUMP JUMPDEST DUP1 ISZERO PUSH2 0x58F JUMPI DUP1 PUSH1 0x1F LT PUSH2 0x564 JUMPI PUSH2 0x100 DUP1 DUP4 SLOAD DIV MUL DUP4 MSTORE SWAP2 PUSH1 0x20 ADD SWAP2 PUSH2 0x58F JUMP JUMPDEST DUP3 ADD SWAP2 SWAP1 PUSH1 0x0 MSTORE PUSH1 0x20 PUSH1 0x0 KECCAK256 SWAP1 JUMPDEST DUP2 SLOAD DUP2 MSTORE SWAP1 PUSH1 0x1 ADD SWAP1 PUSH1 0x20 ADD DUP1 DUP4 GT PUSH2 0x572 JUMPI DUP3 SWAP1 SUB PUSH1 0x1F AND DUP3 ADD SWAP2 JUMPDEST POP POP POP POP POP SWAP1 DUP1 PUSH1 0x1 ADD PUSH1 0x0 SWAP1 SLOAD SWAP1 PUSH2 0x100 EXP SWAP1 DIV PUSH20 0xFFFFFFFFFFFFFFFFFFFFFFFFFFFFFFFFFFFFFFFF AND SWAP1 DUP1 PUSH1 0x2 ADD SLOAD SWAP1 DUP1 PUSH1 0x3 ADD PUSH1 0x0 SWAP1 SLOAD SWAP1 PUSH2 0x100 EXP SWAP1 DIV PUSH1 0xFF AND SWAP1 DUP1 PUSH1 0x4 ADD SLOAD SWAP1 POP DUP6 JUMP JUMPDEST PUSH1 0x1 PUSH1 0x0 SWAP1 SLOAD SWAP1 PUSH2 0x100 EXP SWAP1 DIV PUSH20 0xFFFFFFFFFFFFFFFFFFFFFFFFFFFFFFFFFFFFFFFF AND PUSH20 0xFFFFFFFFFFFFFFFFFFFFFFFFFFFFFFFFFFFFFFFF AND CALLER PUSH20 0xFFFFFFFFFFFFFFFFFFFFFFFFFFFFFFFFFFFFFFFF AND EQ PUSH2 0x66E JUMPI PUSH1 0x40 MLOAD PUSH32 0x8C379A000000000000000000000000000000000000000000000000000000000 DUP2 MSTORE PUSH1 0x4 ADD PUSH2 0x665 SWAP1 PUSH2 0xCE0 JUMP JUMPDEST PUSH1 0x40 MLOAD DUP1 SWAP2 SUB SWAP1 REVERT JUMPDEST PUSH1 0x0 PUSH1 0x7 PUSH1 0x0 PUSH1 0x8 SLOAD DUP2 MSTORE PUSH1 0x20 ADD SWAP1 DUP2 MSTORE PUSH1 0x20 ADD PUSH1 0x0 KECCAK256 SWAP1 POP PUSH1 0x8 PUSH1 0x0 DUP2 SLOAD DUP1 SWAP3 SWAP2 SWAP1 PUSH2 0x69A SWAP1 PUSH2 0xB96 JUMP JUMPDEST SWAP2 SWAP1 POP SSTORE POP DUP4 DUP2 PUSH1 0x0 ADD SWAP1 DUP2 PUSH2 0x6B0 SWAP2 SWAP1 PUSH2 0xEAC JUMP JUMPDEST POP DUP3 DUP2 PUSH1 0x1 ADD PUSH1 0x0 PUSH2 0x100 EXP DUP2 SLOAD DUP2 PUSH20 0xFFFFFFFFFFFFFFFFFFFFFFFFFFFFFFFFFFFFFFFF MUL NOT AND SWAP1 DUP4 PUSH20 0xFFFFFFFFFFFFFFFFFFFFFFFFFFFFFFFFFFFFFFFF AND MUL OR SWAP1 SSTORE POP DUP2 DUP2 PUSH1 0x2 ADD DUP2 SWAP1 SSTORE POP PUSH1 0x0 DUP2 PUSH1 0x3 ADD PUSH1 0x0 PUSH2 0x100 EXP DUP2 SLOAD DUP2 PUSH1 0xFF MUL NOT AND SWAP1 DUP4 ISZERO ISZERO MUL OR SWAP1 SSTORE POP PUSH1 0x0 DUP2 PUSH1 0x4 ADD DUP2 SWAP1 SSTORE POP POP POP POP POP JUMP JUMPDEST PUSH1 0x8 SLOAD DUP2 JUMP JUMPDEST PUSH1 0x6 SLOAD DUP2 JUMP JUMPDEST PUSH1 0x3 SLOAD DUP2 JUMP JUMPDEST PUSH1 0x0 PUSH1 0x40 MLOAD SWAP1 POP SWAP1 JUMP JUMPDEST PUSH1 0x0 DUP1 REVERT JUMPDEST PUSH1 0x0 DUP1 REVERT JUMPDEST PUSH1 0x0 PUSH20 0xFFFFFFFFFFFFFFFFFFFFFFFFFFFFFFFFFFFFFFFF DUP3 AND SWAP1 POP SWAP2 SWAP1 POP JUMP JUMPDEST PUSH1 0x0 PUSH2 0x77B DUP3 PUSH2 0x750 JUMP JUMPDEST SWAP1 POP SWAP2 SWAP1 POP JUMP JUMPDEST PUSH2 0x78B DUP2 PUSH2 0x770 JUMP JUMPDEST DUP2 EQ PUSH2 0x796 JUMPI PUSH1 0x0 DUP1 REVERT JUMPDEST POP JUMP JUMPDEST PUSH1 0x0 DUP2 CALLDATALOAD SWAP1 POP PUSH2 0x7A8 DUP2 PUSH2 0x782 JUMP JUMPDEST SWAP3 SWAP2 POP POP JUMP JUMPDEST PUSH1 0x0 PUSH1 0x20 DUP3 DUP5 SUB SLT ISZERO PUSH2 0x7C4 JUMPI PUSH2 0x7C3 PUSH2 0x746 JUMP JUMPDEST JUMPDEST PUSH1 0x0 PUSH2 0x7D2 DUP5 DUP3 DUP6 ADD PUSH2 0x799 JUMP JUMPDEST SWAP2 POP POP SWAP3 SWAP2 POP POP JUMP JUMPDEST PUSH1 0x0 DUP2 SWAP1 POP SWAP2 SWAP1 POP JUMP JUMPDEST PUSH2 0x7EE DUP2 PUSH2 0x7DB JUMP JUMPDEST DUP3 MSTORE POP POP JUMP JUMPDEST PUSH1 0x0 PUSH1 0x20 DUP3 ADD SWAP1 POP PUSH2 0x809 PUSH1 0x0 DUP4 ADD DUP5 PUSH2 0x7E5 JUMP JUMPDEST SWAP3 SWAP2 POP POP JUMP JUMPDEST PUSH2 0x818 DUP2 PUSH2 0x7DB JUMP JUMPDEST DUP2 EQ PUSH2 0x823 JUMPI PUSH1 0x0 DUP1 REVERT JUMPDEST POP JUMP JUMPDEST PUSH1 0x0 DUP2 CALLDATALOAD SWAP1 POP PUSH2 0x835 DUP2 PUSH2 0x80F JUMP JUMPDEST SWAP3 SWAP2 POP POP JUMP JUMPDEST PUSH1 0x0 PUSH1 0x20 DUP3 DUP5 SUB SLT ISZERO PUSH2 0x851 JUMPI PUSH2 0x850 PUSH2 0x746 JUMP JUMPDEST JUMPDEST PUSH1 0x0 PUSH2 0x85F DUP5 DUP3 DUP6 ADD PUSH2 0x826 JUMP JUMPDEST SWAP2 POP POP SWAP3 SWAP2 POP POP JUMP JUMPDEST PUSH1 0x0 DUP2 MLOAD SWAP1 POP SWAP2 SWAP1 POP JUMP JUMPDEST PUSH1 0x0 DUP3 DUP3 MSTORE PUSH1 0x20 DUP3 ADD SWAP1 POP SWAP3 SWAP2 POP POP JUMP JUMPDEST PUSH1 0x0 JUMPDEST DUP4 DUP2 LT ISZERO PUSH2 0x8A2 JUMPI DUP1 DUP3 ADD MLOAD DUP2 DUP5 ADD MSTORE PUSH1 0x20 DUP2 ADD SWAP1 POP PUSH2 0x887 JUMP JUMPDEST DUP4 DUP2 GT ISZERO PUSH2 0x8B1 JUMPI PUSH1 0x0 DUP5 DUP5 ADD MSTORE JUMPDEST POP POP POP POP JUMP JUMPDEST PUSH1 0x0 PUSH1 0x1F NOT PUSH1 0x1F DUP4 ADD AND SWAP1 POP SWAP2 SWAP1 POP JUMP JUMPDEST PUSH1 0x0 PUSH2 0x8D3 DUP3 PUSH2 0x868 JUMP JUMPDEST PUSH2 0x8DD DUP2 DUP6 PUSH2 0x873 JUMP JUMPDEST SWAP4 POP PUSH2 0x8ED DUP2 DUP6 PUSH1 0x20 DUP7 ADD PUSH2 0x884 JUMP JUMPDEST PUSH2 0x8F6 DUP2 PUSH2 0x8B7 JUMP JUMPDEST DUP5 ADD SWAP2 POP POP SWAP3 SWAP2 POP POP JUMP JUMPDEST PUSH1 0x0 PUSH2 0x90C DUP3 PUSH2 0x750 JUMP JUMPDEST SWAP1 POP SWAP2 SWAP1 POP JUMP JUMPDEST PUSH2 0x91C DUP2 PUSH2 0x901 JUMP JUMPDEST DUP3 MSTORE POP POP JUMP JUMPDEST PUSH1 0x0 DUP2 ISZERO ISZERO SWAP1 POP SWAP2 SWAP1 POP JUMP JUMPDEST PUSH2 0x937 DUP2 PUSH2 0x922 JUMP JUMPDEST DUP3 MSTORE POP POP JUMP JUMPDEST PUSH1 0x0 PUSH1 0xA0 DUP3 ADD SWAP1 POP DUP2 DUP2 SUB PUSH1 0x0 DUP4 ADD MSTORE PUSH2 0x957 DUP2 DUP9 PUSH2 0x8C8 JUMP JUMPDEST SWAP1 POP PUSH2 0x966 PUSH1 0x20 DUP4 ADD DUP8 PUSH2 0x913 JUMP JUMPDEST PUSH2 0x973 PUSH1 0x40 DUP4 ADD DUP7 PUSH2 0x7E5 JUMP JUMPDEST PUSH2 0x980 PUSH1 0x60 DUP4 ADD DUP6 PUSH2 0x92E JUMP JUMPDEST PUSH2 0x98D PUSH1 0x80 DUP4 ADD DUP5 PUSH2 0x7E5 JUMP JUMPDEST SWAP7 SWAP6 POP POP POP POP POP POP JUMP JUMPDEST PUSH1 0x0 DUP1 REVERT JUMPDEST PUSH1 0x0 DUP1 REVERT JUMPDEST PUSH32 0x4E487B7100000000000000000000000000000000000000000000000000000000 PUSH1 0x0 MSTORE PUSH1 0x41 PUSH1 0x4 MSTORE PUSH1 0x24 PUSH1 0x0 REVERT JUMPDEST PUSH2 0x9D9 DUP3 PUSH2 0x8B7 JUMP JUMPDEST DUP2 ADD DUP2 DUP2 LT PUSH8 0xFFFFFFFFFFFFFFFF DUP3 GT OR ISZERO PUSH2 0x9F8 JUMPI PUSH2 0x9F7 PUSH2 0x9A1 JUMP JUMPDEST JUMPDEST DUP1 PUSH1 0x40 MSTORE POP POP POP JUMP JUMPDEST PUSH1 0x0 PUSH2 0xA0B PUSH2 0x73C JUMP JUMPDEST SWAP1 POP PUSH2 0xA17 DUP3 DUP3 PUSH2 0x9D0 JUMP JUMPDEST SWAP2 SWAP1 POP JUMP JUMPDEST PUSH1 0x0 PUSH8 0xFFFFFFFFFFFFFFFF DUP3 GT ISZERO PUSH2 0xA37 JUMPI PUSH2 0xA36 PUSH2 0x9A1 JUMP JUMPDEST JUMPDEST PUSH2 0xA40 DUP3 PUSH2 0x8B7 JUMP JUMPDEST SWAP1 POP PUSH1 0x20 DUP2 ADD SWAP1 POP SWAP2 SWAP1 POP JUMP JUMPDEST DUP3 DUP2 DUP4 CALLDATACOPY PUSH1 0x0 DUP4 DUP4 ADD MSTORE POP POP POP JUMP JUMPDEST PUSH1 0x0 PUSH2 0xA6F PUSH2 0xA6A DUP5 PUSH2 0xA1C JUMP JUMPDEST PUSH2 0xA01 JUMP JUMPDEST SWAP1 POP DUP3 DUP2 MSTORE PUSH1 0x20 DUP2 ADD DUP5 DUP5 DUP5 ADD GT ISZERO PUSH2 0xA8B JUMPI PUSH2 0xA8A PUSH2 0x99C JUMP JUMPDEST JUMPDEST PUSH2 0xA96 DUP5 DUP3 DUP6 PUSH2 0xA4D JUMP JUMPDEST POP SWAP4 SWAP3 POP POP POP JUMP JUMPDEST PUSH1 0x0 DUP3 PUSH1 0x1F DUP4 ADD SLT PUSH2 0xAB3 JUMPI PUSH2 0xAB2 PUSH2 0x997 JUMP JUMPDEST JUMPDEST DUP2 CALLDATALOAD PUSH2 0xAC3 DUP5 DUP3 PUSH1 0x20 DUP7 ADD PUSH2 0xA5C JUMP JUMPDEST SWAP2 POP POP SWAP3 SWAP2 POP POP JUMP JUMPDEST PUSH2 0xAD5 DUP2 PUSH2 0x901 JUMP JUMPDEST DUP2 EQ PUSH2 0xAE0 JUMPI PUSH1 0x0 DUP1 REVERT JUMPDEST POP JUMP JUMPDEST PUSH1 0x0 DUP2 CALLDATALOAD SWAP1 POP PUSH2 0xAF2 DUP2 PUSH2 0xACC JUMP JUMPDEST SWAP3 SWAP2 POP POP JUMP JUMPDEST PUSH1 0x0 DUP1 PUSH1 0x0 PUSH1 0x60 DUP5 DUP7 SUB SLT ISZERO PUSH2 0xB11 JUMPI PUSH2 0xB10 PUSH2 0x746 JUMP JUMPDEST JUMPDEST PUSH1 0x0 DUP5 ADD CALLDATALOAD PUSH8 0xFFFFFFFFFFFFFFFF DUP2 GT ISZERO PUSH2 0xB2F JUMPI PUSH2 0xB2E PUSH2 0x74B JUMP JUMPDEST JUMPDEST PUSH2 0xB3B DUP7 DUP3 DUP8 ADD PUSH2 0xA9E JUMP JUMPDEST SWAP4 POP POP PUSH1 0x20 PUSH2 0xB4C DUP7 DUP3 DUP8 ADD PUSH2 0xAE3 JUMP JUMPDEST SWAP3 POP POP PUSH1 0x40 PUSH2 0xB5D DUP7 DUP3 DUP8 ADD PUSH2 0x826 JUMP JUMPDEST SWAP2 POP POP SWAP3 POP SWAP3 POP SWAP3 JUMP JUMPDEST PUSH32 0x4E487B7100000000000000000000000000000000000000000000000000000000 PUSH1 0x0 MSTORE PUSH1 0x11 PUSH1 0x4 MSTORE PUSH1 0x24 PUSH1 0x0 REVERT JUMPDEST PUSH1 0x0 PUSH2 0xBA1 DUP3 PUSH2 0x7DB JUMP JUMPDEST SWAP2 POP PUSH32 0xFFFFFFFFFFFFFFFFFFFFFFFFFFFFFFFFFFFFFFFFFFFFFFFFFFFFFFFFFFFFFFFF DUP3 SUB PUSH2 0xBD3 JUMPI PUSH2 0xBD2 PUSH2 0xB67 JUMP JUMPDEST JUMPDEST PUSH1 0x1 DUP3 ADD SWAP1 POP SWAP2 SWAP1 POP JUMP JUMPDEST PUSH1 0x0 PUSH2 0xBE9 DUP3 PUSH2 0x7DB JUMP JUMPDEST SWAP2 POP PUSH2 0xBF4 DUP4 PUSH2 0x7DB JUMP JUMPDEST SWAP3 POP DUP3 PUSH32 0xFFFFFFFFFFFFFFFFFFFFFFFFFFFFFFFFFFFFFFFFFFFFFFFFFFFFFFFFFFFFFFFF SUB DUP3 GT ISZERO PUSH2 0xC29 JUMPI PUSH2 0xC28 PUSH2 0xB67 JUMP JUMPDEST JUMPDEST DUP3 DUP3 ADD SWAP1 POP SWAP3 SWAP2 POP POP JUMP JUMPDEST PUSH32 0x4E487B7100000000000000000000000000000000000000000000000000000000 PUSH1 0x0 MSTORE PUSH1 0x22 PUSH1 0x4 MSTORE PUSH1 0x24 PUSH1 0x0 REVERT JUMPDEST PUSH1 0x0 PUSH1 0x2 DUP3 DIV SWAP1 POP PUSH1 0x1 DUP3 AND DUP1 PUSH2 0xC7B JUMPI PUSH1 0x7F DUP3 AND SWAP2 POP JUMPDEST PUSH1 0x20 DUP3 LT DUP2 SUB PUSH2 0xC8E JUMPI PUSH2 0xC8D PUSH2 0xC34 JUMP JUMPDEST JUMPDEST POP SWAP2 SWAP1 POP JUMP JUMPDEST PUSH32 0x6E6F7420746865206D616E656765720000000000000000000000000000000000 PUSH1 0x0 DUP3 ADD MSTORE POP JUMP JUMPDEST PUSH1 0x0 PUSH2 0xCCA PUSH1 0xF DUP4 PUSH2 0x873 JUMP JUMPDEST SWAP2 POP PUSH2 0xCD5 DUP3 PUSH2 0xC94 JUMP JUMPDEST PUSH1 0x20 DUP3 ADD SWAP1 POP SWAP2 SWAP1 POP JUMP JUMPDEST PUSH1 0x0 PUSH1 0x20 DUP3 ADD SWAP1 POP DUP2 DUP2 SUB PUSH1 0x0 DUP4 ADD MSTORE PUSH2 0xCF9 DUP2 PUSH2 0xCBD JUMP JUMPDEST SWAP1 POP SWAP2 SWAP1 POP JUMP JUMPDEST PUSH1 0x0 DUP2 SWAP1 POP DUP2 PUSH1 0x0 MSTORE PUSH1 0x20 PUSH1 0x0 KECCAK256 SWAP1 POP SWAP2 SWAP1 POP JUMP JUMPDEST PUSH1 0x0 PUSH1 0x20 PUSH1 0x1F DUP4 ADD DIV SWAP1 POP SWAP2 SWAP1 POP JUMP JUMPDEST PUSH1 0x0 DUP3 DUP3 SHL SWAP1 POP SWAP3 SWAP2 POP POP JUMP JUMPDEST PUSH1 0x0 PUSH1 0x8 DUP4 MUL PUSH2 0xD62 PUSH32 0xFFFFFFFFFFFFFFFFFFFFFFFFFFFFFFFFFFFFFFFFFFFFFFFFFFFFFFFFFFFFFFFF DUP3 PUSH2 0xD25 JUMP JUMPDEST PUSH2 0xD6C DUP7 DUP4 PUSH2 0xD25 JUMP JUMPDEST SWAP6 POP DUP1 NOT DUP5 AND SWAP4 POP DUP1 DUP7 AND DUP5 OR SWAP3 POP POP POP SWAP4 SWAP3 POP POP POP JUMP JUMPDEST PUSH1 0x0 DUP2 SWAP1 POP SWAP2 SWAP1 POP JUMP JUMPDEST PUSH1 0x0 PUSH2 0xDA9 PUSH2 0xDA4 PUSH2 0xD9F DUP5 PUSH2 0x7DB JUMP JUMPDEST PUSH2 0xD84 JUMP JUMPDEST PUSH2 0x7DB JUMP JUMPDEST SWAP1 POP SWAP2 SWAP1 POP JUMP JUMPDEST PUSH1 0x0 DUP2 SWAP1 POP SWAP2 SWAP1 POP JUMP JUMPDEST PUSH2 0xDC3 DUP4 PUSH2 0xD8E JUMP JUMPDEST PUSH2 0xDD7 PUSH2 0xDCF DUP3 PUSH2 0xDB0 JUMP JUMPDEST DUP5 DUP5 SLOAD PUSH2 0xD32 JUMP JUMPDEST DUP3 SSTORE POP POP POP POP JUMP JUMPDEST PUSH1 0x0 SWAP1 JUMP JUMPDEST PUSH2 0xDEC PUSH2 0xDDF JUMP JUMPDEST PUSH2 0xDF7 DUP2 DUP5 DUP5 PUSH2 0xDBA JUMP JUMPDEST POP POP POP JUMP JUMPDEST JUMPDEST DUP2 DUP2 LT ISZERO PUSH2 0xE1B JUMPI PUSH2 0xE10 PUSH1 0x0 DUP3 PUSH2 0xDE4 JUMP JUMPDEST PUSH1 0x1 DUP2 ADD SWAP1 POP PUSH2 0xDFD JUMP JUMPDEST POP POP JUMP JUMPDEST PUSH1 0x1F DUP3 GT ISZERO PUSH2 0xE60 JUMPI PUSH2 0xE31 DUP2 PUSH2 0xD00 JUMP JUMPDEST PUSH2 0xE3A DUP5 PUSH2 0xD15 JUMP JUMPDEST DUP2 ADD PUSH1 0x20 DUP6 LT ISZERO PUSH2 0xE49 JUMPI DUP2 SWAP1 POP JUMPDEST PUSH2 0xE5D PUSH2 0xE55 DUP6 PUSH2 0xD15 JUMP JUMPDEST DUP4 ADD DUP3 PUSH2 0xDFC JUMP JUMPDEST POP POP JUMPDEST POP POP POP JUMP JUMPDEST PUSH1 0x0 DUP3 DUP3 SHR SWAP1 POP SWAP3 SWAP2 POP POP JUMP JUMPDEST PUSH1 0x0 PUSH2 0xE83 PUSH1 0x0 NOT DUP5 PUSH1 0x8 MUL PUSH2 0xE65 JUMP JUMPDEST NOT DUP1 DUP4 AND SWAP2 POP POP SWAP3 SWAP2 POP POP JUMP JUMPDEST PUSH1 0x0 PUSH2 0xE9C DUP4 DUP4 PUSH2 0xE72 JUMP JUMPDEST SWAP2 POP DUP3 PUSH1 0x2 MUL DUP3 OR SWAP1 POP SWAP3 SWAP2 POP POP JUMP JUMPDEST PUSH2 0xEB5 DUP3 PUSH2 0x868 JUMP JUMPDEST PUSH8 0xFFFFFFFFFFFFFFFF DUP2 GT ISZERO PUSH2 0xECE JUMPI PUSH2 0xECD PUSH2 0x9A1 JUMP JUMPDEST JUMPDEST PUSH2 0xED8 DUP3 SLOAD PUSH2 0xC63 JUMP JUMPDEST PUSH2 0xEE3 DUP3 DUP3 DUP6 PUSH2 0xE1F JUMP JUMPDEST PUSH1 0x0 PUSH1 0x20 SWAP1 POP PUSH1 0x1F DUP4 GT PUSH1 0x1 DUP2 EQ PUSH2 0xF16 JUMPI PUSH1 0x0 DUP5 ISZERO PUSH2 0xF04 JUMPI DUP3 DUP8 ADD MLOAD SWAP1 POP JUMPDEST PUSH2 0xF0E DUP6 DUP3 PUSH2 0xE90 JUMP JUMPDEST DUP7 SSTORE POP PUSH2 0xF76 JUMP JUMPDEST PUSH1 0x1F NOT DUP5 AND PUSH2 0xF24 DUP7 PUSH2 0xD00 JUMP JUMPDEST PUSH1 0x0 JUMPDEST DUP3 DUP2 LT ISZERO PUSH2 0xF4C JUMPI DUP5 DUP10 ADD MLOAD DUP3 SSTORE PUSH1 0x1 DUP3 ADD SWAP2 POP PUSH1 0x20 DUP6 ADD SWAP5 POP PUSH1 0x20 DUP2 ADD SWAP1 POP PUSH2 0xF27 JUMP JUMPDEST DUP7 DUP4 LT ISZERO PUSH2 0xF69 JUMPI DUP5 DUP10 ADD MLOAD PUSH2 0xF65 PUSH1 0x1F DUP10 AND DUP3 PUSH2 0xE72 JUMP JUMPDEST DUP4 SSTORE POP JUMPDEST PUSH1 0x1 PUSH1 0x2 DUP9 MUL ADD DUP9 SSTORE POP POP POP JUMPDEST POP POP POP POP POP POP JUMP INVALID LOG2 PUSH5 0x6970667358 0x22 SLT KECCAK256 0xC9 SWAP1 CALLVALUE DUP13 LOG0 DUP7 0xD6 0x25 POP 0xD4 0xAB 0xC4 JUMPI ADDMOD PC SWAP16 JUMPI SSTORE 0xAA SDIV 0xC RETURNDATACOPY 0xE4 PUSH13 0xBE027789C50C5FAD64736F6C63 NUMBER STOP ADDMOD 0xF STOP CALLER "
				},
				"gasEstimates": {
					"creation": {
						"codeDepositCost": "804000",
						"executionCost": "infinite",
						"totalCost": "infinite"
					},
					"external": {
						"allRequests(uint256)": "infinite",
						"contributors(address)": "2837",
						"deadline()": "2496",
						"getBal()": "384",
						"makeRequest(string,address,uint256)": "infinite",
						"minCont()": "2429",
						"numOfRequests()": "2495",
						"raisedAmount()": "2517",
						"refund()": "infinite",
						"sendEth()": "infinite",
						"target()": "2539",
						"voteRequest(uint256)": "495"
					}
				},
				"methodIdentifiers": {
					"allRequests(uint256)": "9bf4ec2f",
					"contributors(address)": "1f6d4942",
					"deadline()": "29dcb0cf",
					"getBal()": "25caa262",
					"makeRequest(string,address,uint256)": "b5fdcfa3",
					"minCont()": "728d545f",
					"numOfRequests()": "b6290e76",
					"raisedAmount()": "c59ee1dc",
					"refund()": "590e1ae3",
					"sendEth()": "06e99fef",
					"target()": "d4b83992",
					"voteRequest(uint256)": "4cb6f4a5"
				}
			},
			"storageLayout": {
				"storage": [
					{
						"astId": 5,
						"contract": "contracts/crowdFunding.sol:CrowdFunding",
						"label": "contributors",
						"offset": 0,
						"slot": "0",
						"type": "t_mapping(t_address,t_uint256)"
					},
					{
						"astId": 7,
						"contract": "contracts/crowdFunding.sol:CrowdFunding",
						"label": "maneger",
						"offset": 0,
						"slot": "1",
						"type": "t_address"
					},
					{
						"astId": 9,
						"contract": "contracts/crowdFunding.sol:CrowdFunding",
						"label": "minCont",
						"offset": 0,
						"slot": "2",
						"type": "t_uint256"
					},
					{
						"astId": 11,
						"contract": "contracts/crowdFunding.sol:CrowdFunding",
						"label": "target",
						"offset": 0,
						"slot": "3",
						"type": "t_uint256"
					},
					{
						"astId": 13,
						"contract": "contracts/crowdFunding.sol:CrowdFunding",
						"label": "deadline",
						"offset": 0,
						"slot": "4",
						"type": "t_uint256"
					},
					{
						"astId": 15,
						"contract": "contracts/crowdFunding.sol:CrowdFunding",
						"label": "noOfCont",
						"offset": 0,
						"slot": "5",
						"type": "t_uint256"
					},
					{
						"astId": 17,
						"contract": "contracts/crowdFunding.sol:CrowdFunding",
						"label": "raisedAmount",
						"offset": 0,
						"slot": "6",
						"type": "t_uint256"
					},
					{
						"astId": 37,
						"contract": "contracts/crowdFunding.sol:CrowdFunding",
						"label": "allRequests",
						"offset": 0,
						"slot": "7",
						"type": "t_mapping(t_uint256,t_struct(Request)32_storage)"
					},
					{
						"astId": 39,
						"contract": "contracts/crowdFunding.sol:CrowdFunding",
						"label": "numOfRequests",
						"offset": 0,
						"slot": "8",
						"type": "t_uint256"
					}
				],
				"types": {
					"t_address": {
						"encoding": "inplace",
						"label": "address",
						"numberOfBytes": "20"
					},
					"t_address_payable": {
						"encoding": "inplace",
						"label": "address payable",
						"numberOfBytes": "20"
					},
					"t_bool": {
						"encoding": "inplace",
						"label": "bool",
						"numberOfBytes": "1"
					},
					"t_mapping(t_address,t_bool)": {
						"encoding": "mapping",
						"key": "t_address",
						"label": "mapping(address => bool)",
						"numberOfBytes": "32",
						"value": "t_bool"
					},
					"t_mapping(t_address,t_uint256)": {
						"encoding": "mapping",
						"key": "t_address",
						"label": "mapping(address => uint256)",
						"numberOfBytes": "32",
						"value": "t_uint256"
					},
					"t_mapping(t_uint256,t_struct(Request)32_storage)": {
						"encoding": "mapping",
						"key": "t_uint256",
						"label": "mapping(uint256 => struct CrowdFunding.Request)",
						"numberOfBytes": "32",
						"value": "t_struct(Request)32_storage"
					},
					"t_string_storage": {
						"encoding": "bytes",
						"label": "string",
						"numberOfBytes": "32"
					},
					"t_struct(Request)32_storage": {
						"encoding": "inplace",
						"label": "struct CrowdFunding.Request",
						"members": [
							{
								"astId": 19,
								"contract": "contracts/crowdFunding.sol:CrowdFunding",
								"label": "description",
								"offset": 0,
								"slot": "0",
								"type": "t_string_storage"
							},
							{
								"astId": 21,
								"contract": "contracts/crowdFunding.sol:CrowdFunding",
								"label": "recipient",
								"offset": 0,
								"slot": "1",
								"type": "t_address_payable"
							},
							{
								"astId": 23,
								"contract": "contracts/crowdFunding.sol:CrowdFunding",
								"label": "value",
								"offset": 0,
								"slot": "2",
								"type": "t_uint256"
							},
							{
								"astId": 25,
								"contract": "contracts/crowdFunding.sol:CrowdFunding",
								"label": "completed",
								"offset": 0,
								"slot": "3",
								"type": "t_bool"
							},
							{
								"astId": 27,
								"contract": "contracts/crowdFunding.sol:CrowdFunding",
								"label": "noOfVoters",
								"offset": 0,
								"slot": "4",
								"type": "t_uint256"
							},
							{
								"astId": 31,
								"contract": "contracts/crowdFunding.sol:CrowdFunding",
								"label": "voters",
								"offset": 0,
								"slot": "5",
								"type": "t_mapping(t_address,t_bool)"
							}
						],
						"numberOfBytes": "192"
					},
					"t_uint256": {
						"encoding": "inplace",
						"label": "uint256",
						"numberOfBytes": "32"
					}
				}
			},
			"userdoc": {
				"kind": "user",
				"methods": {},
				"version": 1
			}
		}
	}
}