{
	"contracts/crowdFunding.sol": {
		"CrowdFunding": {
			"abi": [
				{
					"inputs": [
						{
							"internalType": "uint256",
							"name": "_target",
							"type": "uint256"
						},
						{
							"internalType": "uint256",
							"name": "_deadline",
							"type": "uint256"
						}
					],
					"stateMutability": "nonpayable",
					"type": "constructor"
				},
				{
					"inputs": [
						{
							"internalType": "uint256",
							"name": "",
							"type": "uint256"
						}
					],
					"name": "allRequests",
					"outputs": [
						{
							"internalType": "string",
							"name": "description",
							"type": "string"
						},
						{
							"internalType": "address payable",
							"name": "recipient",
							"type": "address"
						},
						{
							"internalType": "uint256",
							"name": "value",
							"type": "uint256"
						},
						{
							"internalType": "bool",
							"name": "completed",
							"type": "bool"
						},
						{
							"internalType": "uint256",
							"name": "noOfVoters",
							"type": "uint256"
						}
					],
					"stateMutability": "view",
					"type": "function"
				},
				{
					"inputs": [
						{
							"internalType": "address",
							"name": "",
							"type": "address"
						}
					],
					"name": "contributors",
					"outputs": [
						{
							"internalType": "uint256",
							"name": "",
							"type": "uint256"
						}
					],
					"stateMutability": "view",
					"type": "function"
				},
				{
					"inputs": [],
					"name": "deadline",
					"outputs": [
						{
							"internalType": "uint256",
							"name": "",
							"type": "uint256"
						}
					],
					"stateMutability": "view",
					"type": "function"
				},
				{
					"inputs": [],
					"name": "getBal",
					"outputs": [
						{
							"internalType": "uint256",
							"name": "",
							"type": "uint256"
						}
					],
					"stateMutability": "view",
					"type": "function"
				},
				{
					"inputs": [
						{
							"internalType": "uint256",
							"name": "_ReqNo",
							"type": "uint256"
						}
					],
					"name": "makePayment",
					"outputs": [],
					"stateMutability": "nonpayable",
					"type": "function"
				},
				{
					"inputs": [
						{
							"internalType": "string",
							"name": "_description",
							"type": "string"
						},
						{
							"internalType": "address payable",
							"name": "_recipient",
							"type": "address"
						},
						{
							"internalType": "uint256",
							"name": "_value",
							"type": "uint256"
						}
					],
					"name": "makeRequest",
					"outputs": [],
					"stateMutability": "nonpayable",
					"type": "function"
				},
				{
					"inputs": [],
					"name": "minCont",
					"outputs": [
						{
							"internalType": "uint256",
							"name": "",
							"type": "uint256"
						}
					],
					"stateMutability": "view",
					"type": "function"
				},
				{
					"inputs": [],
					"name": "numOfRequests",
					"outputs": [
						{
							"internalType": "uint256",
							"name": "",
							"type": "uint256"
						}
					],
					"stateMutability": "view",
					"type": "function"
				},
				{
					"inputs": [],
					"name": "raisedAmount",
					"outputs": [
						{
							"internalType": "uint256",
							"name": "",
							"type": "uint256"
						}
					],
					"stateMutability": "view",
					"type": "function"
				},
				{
					"inputs": [],
					"name": "refund",
					"outputs": [],
					"stateMutability": "nonpayable",
					"type": "function"
				},
				{
					"inputs": [],
					"name": "sendEth",
					"outputs": [],
					"stateMutability": "payable",
					"type": "function"
				},
				{
					"inputs": [],
					"name": "target",
					"outputs": [
						{
							"internalType": "uint256",
							"name": "",
							"type": "uint256"
						}
					],
					"stateMutability": "view",
					"type": "function"
				},
				{
					"inputs": [
						{
							"internalType": "uint256",
							"name": "_ReqNo",
							"type": "uint256"
						}
					],
					"name": "voteRequest",
					"outputs": [],
					"stateMutability": "nonpayable",
					"type": "function"
				}
			],
			"devdoc": {
				"kind": "dev",
				"methods": {},
				"version": 1
			},
			"evm": {
				"assembly": "    /* \"contracts/crowdFunding.sol\":74:2454  contract CrowdFunding{... */\n  mstore(0x40, 0x80)\n    /* \"contracts/crowdFunding.sol\":599:782  constructor(uint _target, uint _deadline){... */\n  callvalue\n  dup1\n  iszero\n  tag_1\n  jumpi\n  0x00\n  dup1\n  revert\ntag_1:\n  pop\n  mload(0x40)\n  sub(codesize, bytecodeSize)\n  dup1\n  bytecodeSize\n  dup4\n  codecopy\n  dup2\n  dup2\n  add\n  0x40\n  mstore\n  dup2\n  add\n  swap1\n  tag_2\n  swap2\n  swap1\n  tag_3\n  jump\t// in\ntag_2:\n    /* \"contracts/crowdFunding.sol\":660:667  _target */\n  dup2\n    /* \"contracts/crowdFunding.sol\":651:657  target */\n  0x03\n    /* \"contracts/crowdFunding.sol\":651:667  target = _target */\n  dup2\n  swap1\n  sstore\n  pop\n    /* \"contracts/crowdFunding.sol\":707:716  _deadline */\n  dup1\n    /* \"contracts/crowdFunding.sol\":689:704  block.timestamp */\n  timestamp\n    /* \"contracts/crowdFunding.sol\":689:716  block.timestamp + _deadline */\n  tag_6\n  swap2\n  swap1\n  tag_7\n  jump\t// in\ntag_6:\n    /* \"contracts/crowdFunding.sol\":678:686  deadline */\n  0x04\n    /* \"contracts/crowdFunding.sol\":678:716  deadline = block.timestamp + _deadline */\n  dup2\n  swap1\n  sstore\n  pop\n    /* \"contracts/crowdFunding.sol\":737:743  10 wei */\n  0x0a\n    /* \"contracts/crowdFunding.sol\":727:734  minCont */\n  0x02\n    /* \"contracts/crowdFunding.sol\":727:743  minCont = 10 wei */\n  dup2\n  swap1\n  sstore\n  pop\n    /* \"contracts/crowdFunding.sol\":764:774  msg.sender */\n  caller\n    /* \"contracts/crowdFunding.sol\":754:761  maneger */\n  0x01\n  0x00\n    /* \"contracts/crowdFunding.sol\":754:774  maneger = msg.sender */\n  0x0100\n  exp\n  dup2\n  sload\n  dup2\n  0xffffffffffffffffffffffffffffffffffffffff\n  mul\n  not\n  and\n  swap1\n  dup4\n  0xffffffffffffffffffffffffffffffffffffffff\n  and\n  mul\n  or\n  swap1\n  sstore\n  pop\n    /* \"contracts/crowdFunding.sol\":599:782  constructor(uint _target, uint _deadline){... */\n  pop\n  pop\n    /* \"contracts/crowdFunding.sol\":74:2454  contract CrowdFunding{... */\n  jump(tag_8)\n    /* \"#utility.yul\":88:205   */\ntag_10:\n    /* \"#utility.yul\":197:198   */\n  0x00\n    /* \"#utility.yul\":194:195   */\n  dup1\n    /* \"#utility.yul\":187:199   */\n  revert\n    /* \"#utility.yul\":334:411   */\ntag_12:\n    /* \"#utility.yul\":371:378   */\n  0x00\n    /* \"#utility.yul\":400:405   */\n  dup2\n    /* \"#utility.yul\":389:405   */\n  swap1\n  pop\n    /* \"#utility.yul\":334:411   */\n  swap2\n  swap1\n  pop\n  jump\t// out\n    /* \"#utility.yul\":417:539   */\ntag_13:\n    /* \"#utility.yul\":490:514   */\n  tag_22\n    /* \"#utility.yul\":508:513   */\n  dup2\n    /* \"#utility.yul\":490:514   */\n  tag_12\n  jump\t// in\ntag_22:\n    /* \"#utility.yul\":483:488   */\n  dup2\n    /* \"#utility.yul\":480:515   */\n  eq\n    /* \"#utility.yul\":470:533   */\n  tag_23\n  jumpi\n    /* \"#utility.yul\":529:530   */\n  0x00\n    /* \"#utility.yul\":526:527   */\n  dup1\n    /* \"#utility.yul\":519:531   */\n  revert\n    /* \"#utility.yul\":470:533   */\ntag_23:\n    /* \"#utility.yul\":417:539   */\n  pop\n  jump\t// out\n    /* \"#utility.yul\":545:688   */\ntag_14:\n    /* \"#utility.yul\":602:607   */\n  0x00\n    /* \"#utility.yul\":633:639   */\n  dup2\n    /* \"#utility.yul\":627:640   */\n  mload\n    /* \"#utility.yul\":618:640   */\n  swap1\n  pop\n    /* \"#utility.yul\":649:682   */\n  tag_25\n    /* \"#utility.yul\":676:681   */\n  dup2\n    /* \"#utility.yul\":649:682   */\n  tag_13\n  jump\t// in\ntag_25:\n    /* \"#utility.yul\":545:688   */\n  swap3\n  swap2\n  pop\n  pop\n  jump\t// out\n    /* \"#utility.yul\":694:1201   */\ntag_3:\n    /* \"#utility.yul\":773:779   */\n  0x00\n    /* \"#utility.yul\":781:787   */\n  dup1\n    /* \"#utility.yul\":830:832   */\n  0x40\n    /* \"#utility.yul\":818:827   */\n  dup4\n    /* \"#utility.yul\":809:816   */\n  dup6\n    /* \"#utility.yul\":805:828   */\n  sub\n    /* \"#utility.yul\":801:833   */\n  slt\n    /* \"#utility.yul\":798:917   */\n  iszero\n  tag_27\n  jumpi\n    /* \"#utility.yul\":836:915   */\n  tag_28\n  tag_10\n  jump\t// in\ntag_28:\n    /* \"#utility.yul\":798:917   */\ntag_27:\n    /* \"#utility.yul\":956:957   */\n  0x00\n    /* \"#utility.yul\":981:1045   */\n  tag_29\n    /* \"#utility.yul\":1037:1044   */\n  dup6\n    /* \"#utility.yul\":1028:1034   */\n  dup3\n    /* \"#utility.yul\":1017:1026   */\n  dup7\n    /* \"#utility.yul\":1013:1035   */\n  add\n    /* \"#utility.yul\":981:1045   */\n  tag_14\n  jump\t// in\ntag_29:\n    /* \"#utility.yul\":971:1045   */\n  swap3\n  pop\n    /* \"#utility.yul\":927:1055   */\n  pop\n    /* \"#utility.yul\":1094:1096   */\n  0x20\n    /* \"#utility.yul\":1120:1184   */\n  tag_30\n    /* \"#utility.yul\":1176:1183   */\n  dup6\n    /* \"#utility.yul\":1167:1173   */\n  dup3\n    /* \"#utility.yul\":1156:1165   */\n  dup7\n    /* \"#utility.yul\":1152:1174   */\n  add\n    /* \"#utility.yul\":1120:1184   */\n  tag_14\n  jump\t// in\ntag_30:\n    /* \"#utility.yul\":1110:1184   */\n  swap2\n  pop\n    /* \"#utility.yul\":1065:1194   */\n  pop\n    /* \"#utility.yul\":694:1201   */\n  swap3\n  pop\n  swap3\n  swap1\n  pop\n  jump\t// out\n    /* \"#utility.yul\":1207:1387   */\ntag_15:\n    /* \"#utility.yul\":1255:1332   */\n  0x4e487b7100000000000000000000000000000000000000000000000000000000\n    /* \"#utility.yul\":1252:1253   */\n  0x00\n    /* \"#utility.yul\":1245:1333   */\n  mstore\n    /* \"#utility.yul\":1352:1356   */\n  0x11\n    /* \"#utility.yul\":1349:1350   */\n  0x04\n    /* \"#utility.yul\":1342:1357   */\n  mstore\n    /* \"#utility.yul\":1376:1380   */\n  0x24\n    /* \"#utility.yul\":1373:1374   */\n  0x00\n    /* \"#utility.yul\":1366:1381   */\n  revert\n    /* \"#utility.yul\":1393:1698   */\ntag_7:\n    /* \"#utility.yul\":1433:1436   */\n  0x00\n    /* \"#utility.yul\":1452:1472   */\n  tag_33\n    /* \"#utility.yul\":1470:1471   */\n  dup3\n    /* \"#utility.yul\":1452:1472   */\n  tag_12\n  jump\t// in\ntag_33:\n    /* \"#utility.yul\":1447:1472   */\n  swap2\n  pop\n    /* \"#utility.yul\":1486:1506   */\n  tag_34\n    /* \"#utility.yul\":1504:1505   */\n  dup4\n    /* \"#utility.yul\":1486:1506   */\n  tag_12\n  jump\t// in\ntag_34:\n    /* \"#utility.yul\":1481:1506   */\n  swap3\n  pop\n    /* \"#utility.yul\":1640:1641   */\n  dup3\n    /* \"#utility.yul\":1572:1638   */\n  0xffffffffffffffffffffffffffffffffffffffffffffffffffffffffffffffff\n    /* \"#utility.yul\":1568:1642   */\n  sub\n    /* \"#utility.yul\":1565:1566   */\n  dup3\n    /* \"#utility.yul\":1562:1643   */\n  gt\n    /* \"#utility.yul\":1559:1666   */\n  iszero\n  tag_35\n  jumpi\n    /* \"#utility.yul\":1646:1664   */\n  tag_36\n  tag_15\n  jump\t// in\ntag_36:\n    /* \"#utility.yul\":1559:1666   */\ntag_35:\n    /* \"#utility.yul\":1690:1691   */\n  dup3\n    /* \"#utility.yul\":1687:1688   */\n  dup3\n    /* \"#utility.yul\":1683:1692   */\n  add\n    /* \"#utility.yul\":1676:1692   */\n  swap1\n  pop\n    /* \"#utility.yul\":1393:1698   */\n  swap3\n  swap2\n  pop\n  pop\n  jump\t// out\n    /* \"contracts/crowdFunding.sol\":74:2454  contract CrowdFunding{... */\ntag_8:\n  dataSize(sub_0)\n  dup1\n  dataOffset(sub_0)\n  0x00\n  codecopy\n  0x00\n  return\nstop\n\nsub_0: assembly {\n        /* \"contracts/crowdFunding.sol\":74:2454  contract CrowdFunding{... */\n      mstore(0x40, 0x80)\n      jumpi(tag_1, lt(calldatasize, 0x04))\n      shr(0xe0, calldataload(0x00))\n      dup1\n      0x590e1ae3\n      gt\n      tag_15\n      jumpi\n      dup1\n      0xb5fdcfa3\n      gt\n      tag_16\n      jumpi\n      dup1\n      0xb5fdcfa3\n      eq\n      tag_11\n      jumpi\n      dup1\n      0xb6290e76\n      eq\n      tag_12\n      jumpi\n      dup1\n      0xc59ee1dc\n      eq\n      tag_13\n      jumpi\n      dup1\n      0xd4b83992\n      eq\n      tag_14\n      jumpi\n      jump(tag_1)\n    tag_16:\n      dup1\n      0x590e1ae3\n      eq\n      tag_8\n      jumpi\n      dup1\n      0x728d545f\n      eq\n      tag_9\n      jumpi\n      dup1\n      0x9bf4ec2f\n      eq\n      tag_10\n      jumpi\n      jump(tag_1)\n    tag_15:\n      dup1\n      0x06e99fef\n      eq\n      tag_2\n      jumpi\n      dup1\n      0x1f6d4942\n      eq\n      tag_3\n      jumpi\n      dup1\n      0x25caa262\n      eq\n      tag_4\n      jumpi\n      dup1\n      0x29dcb0cf\n      eq\n      tag_5\n      jumpi\n      dup1\n      0x4cb6f4a5\n      eq\n      tag_6\n      jumpi\n      dup1\n      0x5114cb52\n      eq\n      tag_7\n      jumpi\n    tag_1:\n      0x00\n      dup1\n      revert\n        /* \"contracts/crowdFunding.sol\":790:1081  function sendEth() public payable{... */\n    tag_2:\n      tag_17\n      tag_18\n      jump\t// in\n    tag_17:\n      stop\n        /* \"contracts/crowdFunding.sol\":102:146  mapping(address => uint) public contributors */\n    tag_3:\n      callvalue\n      dup1\n      iszero\n      tag_19\n      jumpi\n      0x00\n      dup1\n      revert\n    tag_19:\n      pop\n      tag_20\n      0x04\n      dup1\n      calldatasize\n      sub\n      dup2\n      add\n      swap1\n      tag_21\n      swap2\n      swap1\n      tag_22\n      jump\t// in\n    tag_21:\n      tag_23\n      jump\t// in\n    tag_20:\n      mload(0x40)\n      tag_24\n      swap2\n      swap1\n      tag_25\n      jump\t// in\n    tag_24:\n      mload(0x40)\n      dup1\n      swap2\n      sub\n      swap1\n      return\n        /* \"contracts/crowdFunding.sol\":1087:1177  function getBal() public view returns(uint){... */\n    tag_4:\n      callvalue\n      dup1\n      iszero\n      tag_26\n      jumpi\n      0x00\n      dup1\n      revert\n    tag_26:\n      pop\n      tag_27\n      tag_28\n      jump\t// in\n    tag_27:\n      mload(0x40)\n      tag_29\n      swap2\n      swap1\n      tag_25\n      jump\t// in\n    tag_29:\n      mload(0x40)\n      dup1\n      swap2\n      sub\n      swap1\n      return\n        /* \"contracts/crowdFunding.sol\":227:247  uint public deadline */\n    tag_5:\n      callvalue\n      dup1\n      iszero\n      tag_30\n      jumpi\n      0x00\n      dup1\n      revert\n    tag_30:\n      pop\n      tag_31\n      tag_32\n      jump\t// in\n    tag_31:\n      mload(0x40)\n      tag_33\n      swap2\n      swap1\n      tag_25\n      jump\t// in\n    tag_33:\n      mload(0x40)\n      dup1\n      swap2\n      sub\n      swap1\n      return\n        /* \"contracts/crowdFunding.sol\":1983:2292  function voteRequest(uint _ReqNo) public {... */\n    tag_6:\n      callvalue\n      dup1\n      iszero\n      tag_34\n      jumpi\n      0x00\n      dup1\n      revert\n    tag_34:\n      pop\n      tag_35\n      0x04\n      dup1\n      calldatasize\n      sub\n      dup2\n      add\n      swap1\n      tag_36\n      swap2\n      swap1\n      tag_37\n      jump\t// in\n    tag_36:\n      tag_38\n      jump\t// in\n    tag_35:\n      stop\n        /* \"contracts/crowdFunding.sol\":2298:2451  function makePayment(uint _ReqNo) public {... */\n    tag_7:\n      callvalue\n      dup1\n      iszero\n      tag_39\n      jumpi\n      0x00\n      dup1\n      revert\n    tag_39:\n      pop\n      tag_40\n      0x04\n      dup1\n      calldatasize\n      sub\n      dup2\n      add\n      swap1\n      tag_41\n      swap2\n      swap1\n      tag_37\n      jump\t// in\n    tag_41:\n      tag_42\n      jump\t// in\n    tag_40:\n      stop\n        /* \"contracts/crowdFunding.sol\":1183:1478  function refund() public{... */\n    tag_8:\n      callvalue\n      dup1\n      iszero\n      tag_43\n      jumpi\n      0x00\n      dup1\n      revert\n    tag_43:\n      pop\n      tag_44\n      tag_45\n      jump\t// in\n    tag_44:\n      stop\n        /* \"contracts/crowdFunding.sol\":176:195  uint public minCont */\n    tag_9:\n      callvalue\n      dup1\n      iszero\n      tag_46\n      jumpi\n      0x00\n      dup1\n      revert\n    tag_46:\n      pop\n      tag_47\n      tag_48\n      jump\t// in\n    tag_47:\n      mload(0x40)\n      tag_49\n      swap2\n      swap1\n      tag_25\n      jump\t// in\n    tag_49:\n      mload(0x40)\n      dup1\n      swap2\n      sub\n      swap1\n      return\n        /* \"contracts/crowdFunding.sol\":517:558  mapping(uint=>Request) public allRequests */\n    tag_10:\n      callvalue\n      dup1\n      iszero\n      tag_50\n      jumpi\n      0x00\n      dup1\n      revert\n    tag_50:\n      pop\n      tag_51\n      0x04\n      dup1\n      calldatasize\n      sub\n      dup2\n      add\n      swap1\n      tag_52\n      swap2\n      swap1\n      tag_37\n      jump\t// in\n    tag_52:\n      tag_53\n      jump\t// in\n    tag_51:\n      mload(0x40)\n      tag_54\n      swap6\n      swap5\n      swap4\n      swap3\n      swap2\n      swap1\n      tag_55\n      jump\t// in\n    tag_54:\n      mload(0x40)\n      dup1\n      swap2\n      sub\n      swap1\n      return\n        /* \"contracts/crowdFunding.sol\":1590:1977  function makeRequest(string memory _description, address payable _recipient, uint _value) public onlyManeger{... */\n    tag_11:\n      callvalue\n      dup1\n      iszero\n      tag_56\n      jumpi\n      0x00\n      dup1\n      revert\n    tag_56:\n      pop\n      tag_57\n      0x04\n      dup1\n      calldatasize\n      sub\n      dup2\n      add\n      swap1\n      tag_58\n      swap2\n      swap1\n      tag_59\n      jump\t// in\n    tag_58:\n      tag_60\n      jump\t// in\n    tag_57:\n      stop\n        /* \"contracts/crowdFunding.sol\":565:590  uint public numOfRequests */\n    tag_12:\n      callvalue\n      dup1\n      iszero\n      tag_61\n      jumpi\n      0x00\n      dup1\n      revert\n    tag_61:\n      pop\n      tag_62\n      tag_63\n      jump\t// in\n    tag_62:\n      mload(0x40)\n      tag_64\n      swap2\n      swap1\n      tag_25\n      jump\t// in\n    tag_64:\n      mload(0x40)\n      dup1\n      swap2\n      sub\n      swap1\n      return\n        /* \"contracts/crowdFunding.sol\":275:299  uint public raisedAmount */\n    tag_13:\n      callvalue\n      dup1\n      iszero\n      tag_65\n      jumpi\n      0x00\n      dup1\n      revert\n    tag_65:\n      pop\n      tag_66\n      tag_67\n      jump\t// in\n    tag_66:\n      mload(0x40)\n      tag_68\n      swap2\n      swap1\n      tag_25\n      jump\t// in\n    tag_68:\n      mload(0x40)\n      dup1\n      swap2\n      sub\n      swap1\n      return\n        /* \"contracts/crowdFunding.sol\":202:220  uint public target */\n    tag_14:\n      callvalue\n      dup1\n      iszero\n      tag_69\n      jumpi\n      0x00\n      dup1\n      revert\n    tag_69:\n      pop\n      tag_70\n      tag_71\n      jump\t// in\n    tag_70:\n      mload(0x40)\n      tag_72\n      swap2\n      swap1\n      tag_25\n      jump\t// in\n    tag_72:\n      mload(0x40)\n      dup1\n      swap2\n      sub\n      swap1\n      return\n        /* \"contracts/crowdFunding.sol\":790:1081  function sendEth() public payable{... */\n    tag_18:\n        /* \"contracts/crowdFunding.sol\":860:868  deadline */\n      sload(0x04)\n        /* \"contracts/crowdFunding.sol\":842:857  block.timestamp */\n      timestamp\n        /* \"contracts/crowdFunding.sol\":842:868  block.timestamp < deadline */\n      lt\n        /* \"contracts/crowdFunding.sol\":834:869  require(block.timestamp < deadline) */\n      tag_74\n      jumpi\n      0x00\n      dup1\n      revert\n    tag_74:\n        /* \"contracts/crowdFunding.sol\":901:908  minCont */\n      sload(0x02)\n        /* \"contracts/crowdFunding.sol\":888:897  msg.value */\n      callvalue\n        /* \"contracts/crowdFunding.sol\":888:908  msg.value >= minCont */\n      lt\n      iszero\n        /* \"contracts/crowdFunding.sol\":880:909  require(msg.value >= minCont) */\n      tag_75\n      jumpi\n      0x00\n      dup1\n      revert\n    tag_75:\n        /* \"contracts/crowdFunding.sol\":951:952  0 */\n      0x00\n        /* \"contracts/crowdFunding.sol\":923:935  contributors */\n      dup1\n        /* \"contracts/crowdFunding.sol\":923:947  contributors[msg.sender] */\n      0x00\n        /* \"contracts/crowdFunding.sol\":936:946  msg.sender */\n      caller\n        /* \"contracts/crowdFunding.sol\":923:947  contributors[msg.sender] */\n      0xffffffffffffffffffffffffffffffffffffffff\n      and\n      0xffffffffffffffffffffffffffffffffffffffff\n      and\n      dup2\n      mstore\n      0x20\n      add\n      swap1\n      dup2\n      mstore\n      0x20\n      add\n      0x00\n      keccak256\n      sload\n        /* \"contracts/crowdFunding.sol\":923:952  contributors[msg.sender] == 0 */\n      sub\n        /* \"contracts/crowdFunding.sol\":920:990  if(contributors[msg.sender] == 0){... */\n      tag_76\n      jumpi\n        /* \"contracts/crowdFunding.sol\":968:976  noOfCont */\n      0x05\n      0x00\n        /* \"contracts/crowdFunding.sol\":968:978  noOfCont++ */\n      dup2\n      sload\n      dup1\n      swap3\n      swap2\n      swap1\n      tag_77\n      swap1\n      tag_78\n      jump\t// in\n    tag_77:\n      swap2\n      swap1\n      pop\n      sstore\n      pop\n        /* \"contracts/crowdFunding.sol\":920:990  if(contributors[msg.sender] == 0){... */\n    tag_76:\n        /* \"contracts/crowdFunding.sol\":1028:1037  msg.value */\n      callvalue\n        /* \"contracts/crowdFunding.sol\":1000:1012  contributors */\n      0x00\n        /* \"contracts/crowdFunding.sol\":1000:1024  contributors[msg.sender] */\n      dup1\n        /* \"contracts/crowdFunding.sol\":1013:1023  msg.sender */\n      caller\n        /* \"contracts/crowdFunding.sol\":1000:1024  contributors[msg.sender] */\n      0xffffffffffffffffffffffffffffffffffffffff\n      and\n      0xffffffffffffffffffffffffffffffffffffffff\n      and\n      dup2\n      mstore\n      0x20\n      add\n      swap1\n      dup2\n      mstore\n      0x20\n      add\n      0x00\n      keccak256\n      0x00\n        /* \"contracts/crowdFunding.sol\":1000:1037  contributors[msg.sender] += msg.value */\n      dup3\n      dup3\n      sload\n      tag_79\n      swap2\n      swap1\n      tag_80\n      jump\t// in\n    tag_79:\n      swap3\n      pop\n      pop\n      dup2\n      swap1\n      sstore\n      pop\n        /* \"contracts/crowdFunding.sol\":1064:1073  msg.value */\n      callvalue\n        /* \"contracts/crowdFunding.sol\":1048:1060  raisedAmount */\n      0x06\n      0x00\n        /* \"contracts/crowdFunding.sol\":1048:1073  raisedAmount += msg.value */\n      dup3\n      dup3\n      sload\n      tag_81\n      swap2\n      swap1\n      tag_80\n      jump\t// in\n    tag_81:\n      swap3\n      pop\n      pop\n      dup2\n      swap1\n      sstore\n      pop\n        /* \"contracts/crowdFunding.sol\":790:1081  function sendEth() public payable{... */\n      jump\t// out\n        /* \"contracts/crowdFunding.sol\":102:146  mapping(address => uint) public contributors */\n    tag_23:\n      mstore(0x20, 0x00)\n      dup1\n      0x00\n      mstore\n      keccak256(0x00, 0x40)\n      0x00\n      swap2\n      pop\n      swap1\n      pop\n      sload\n      dup2\n      jump\t// out\n        /* \"contracts/crowdFunding.sol\":1087:1177  function getBal() public view returns(uint){... */\n    tag_28:\n        /* \"contracts/crowdFunding.sol\":1125:1129  uint */\n      0x00\n        /* \"contracts/crowdFunding.sol\":1148:1169  address(this).balance */\n      selfbalance\n        /* \"contracts/crowdFunding.sol\":1141:1169  return address(this).balance */\n      swap1\n      pop\n        /* \"contracts/crowdFunding.sol\":1087:1177  function getBal() public view returns(uint){... */\n      swap1\n      jump\t// out\n        /* \"contracts/crowdFunding.sol\":227:247  uint public deadline */\n    tag_32:\n      sload(0x04)\n      dup2\n      jump\t// out\n        /* \"contracts/crowdFunding.sol\":1983:2292  function voteRequest(uint _ReqNo) public {... */\n    tag_38:\n        /* \"contracts/crowdFunding.sol\":2070:2071  0 */\n      0x00\n        /* \"contracts/crowdFunding.sol\":2043:2055  contributors */\n      dup1\n        /* \"contracts/crowdFunding.sol\":2043:2067  contributors[msg.sender] */\n      0x00\n        /* \"contracts/crowdFunding.sol\":2056:2066  msg.sender */\n      caller\n        /* \"contracts/crowdFunding.sol\":2043:2067  contributors[msg.sender] */\n      0xffffffffffffffffffffffffffffffffffffffff\n      and\n      0xffffffffffffffffffffffffffffffffffffffff\n      and\n      dup2\n      mstore\n      0x20\n      add\n      swap1\n      dup2\n      mstore\n      0x20\n      add\n      0x00\n      keccak256\n      sload\n        /* \"contracts/crowdFunding.sol\":2043:2071  contributors[msg.sender] > 0 */\n      gt\n        /* \"contracts/crowdFunding.sol\":2035:2072  require(contributors[msg.sender] > 0) */\n      tag_84\n      jumpi\n      0x00\n      dup1\n      revert\n    tag_84:\n        /* \"contracts/crowdFunding.sol\":2083:2106  Request storage newVote */\n      0x00\n        /* \"contracts/crowdFunding.sol\":2109:2120  allRequests */\n      0x07\n        /* \"contracts/crowdFunding.sol\":2109:2128  allRequests[_ReqNo] */\n      0x00\n        /* \"contracts/crowdFunding.sol\":2121:2127  _ReqNo */\n      dup4\n        /* \"contracts/crowdFunding.sol\":2109:2128  allRequests[_ReqNo] */\n      dup2\n      mstore\n      0x20\n      add\n      swap1\n      dup2\n      mstore\n      0x20\n      add\n      0x00\n      keccak256\n        /* \"contracts/crowdFunding.sol\":2083:2128  Request storage newVote = allRequests[_ReqNo] */\n      swap1\n      pop\n        /* \"contracts/crowdFunding.sol\":2177:2182  false */\n      0x00\n        /* \"contracts/crowdFunding.sol\":2147:2182  newVote.voters[msg.sender] == false */\n      iszero\n      iszero\n        /* \"contracts/crowdFunding.sol\":2147:2154  newVote */\n      dup2\n        /* \"contracts/crowdFunding.sol\":2147:2161  newVote.voters */\n      0x05\n      add\n        /* \"contracts/crowdFunding.sol\":2147:2173  newVote.voters[msg.sender] */\n      0x00\n        /* \"contracts/crowdFunding.sol\":2162:2172  msg.sender */\n      caller\n        /* \"contracts/crowdFunding.sol\":2147:2173  newVote.voters[msg.sender] */\n      0xffffffffffffffffffffffffffffffffffffffff\n      and\n      0xffffffffffffffffffffffffffffffffffffffff\n      and\n      dup2\n      mstore\n      0x20\n      add\n      swap1\n      dup2\n      mstore\n      0x20\n      add\n      0x00\n      keccak256\n      0x00\n      swap1\n      sload\n      swap1\n      0x0100\n      exp\n      swap1\n      div\n      0xff\n      and\n        /* \"contracts/crowdFunding.sol\":2147:2182  newVote.voters[msg.sender] == false */\n      iszero\n      iszero\n      eq\n        /* \"contracts/crowdFunding.sol\":2139:2209  require(newVote.voters[msg.sender] == false, \"you have already voted\") */\n      tag_85\n      jumpi\n      mload(0x40)\n      0x08c379a000000000000000000000000000000000000000000000000000000000\n      dup2\n      mstore\n      0x04\n      add\n      tag_86\n      swap1\n      tag_87\n      jump\t// in\n    tag_86:\n      mload(0x40)\n      dup1\n      swap2\n      sub\n      swap1\n      revert\n    tag_85:\n        /* \"contracts/crowdFunding.sol\":2220:2227  newVote */\n      dup1\n        /* \"contracts/crowdFunding.sol\":2220:2238  newVote.noOfVoters */\n      0x04\n      add\n      0x00\n        /* \"contracts/crowdFunding.sol\":2220:2240  newVote.noOfVoters++ */\n      dup2\n      sload\n      dup1\n      swap3\n      swap2\n      swap1\n      tag_88\n      swap1\n      tag_78\n      jump\t// in\n    tag_88:\n      swap2\n      swap1\n      pop\n      sstore\n      pop\n        /* \"contracts/crowdFunding.sol\":2280:2284  true */\n      0x01\n        /* \"contracts/crowdFunding.sol\":2251:2258  newVote */\n      dup2\n        /* \"contracts/crowdFunding.sol\":2251:2265  newVote.voters */\n      0x05\n      add\n        /* \"contracts/crowdFunding.sol\":2251:2277  newVote.voters[msg.sender] */\n      0x00\n        /* \"contracts/crowdFunding.sol\":2266:2276  msg.sender */\n      caller\n        /* \"contracts/crowdFunding.sol\":2251:2277  newVote.voters[msg.sender] */\n      0xffffffffffffffffffffffffffffffffffffffff\n      and\n      0xffffffffffffffffffffffffffffffffffffffff\n      and\n      dup2\n      mstore\n      0x20\n      add\n      swap1\n      dup2\n      mstore\n      0x20\n      add\n      0x00\n      keccak256\n      0x00\n        /* \"contracts/crowdFunding.sol\":2251:2284  newVote.voters[msg.sender] = true */\n      0x0100\n      exp\n      dup2\n      sload\n      dup2\n      0xff\n      mul\n      not\n      and\n      swap1\n      dup4\n      iszero\n      iszero\n      mul\n      or\n      swap1\n      sstore\n      pop\n        /* \"contracts/crowdFunding.sol\":2024:2292  {... */\n      pop\n        /* \"contracts/crowdFunding.sol\":1983:2292  function voteRequest(uint _ReqNo) public {... */\n      pop\n      jump\t// out\n        /* \"contracts/crowdFunding.sol\":2298:2451  function makePayment(uint _ReqNo) public {... */\n    tag_42:\n        /* \"contracts/crowdFunding.sol\":2372:2379  maneger */\n      0x01\n      0x00\n      swap1\n      sload\n      swap1\n      0x0100\n      exp\n      swap1\n      div\n      0xffffffffffffffffffffffffffffffffffffffff\n      and\n        /* \"contracts/crowdFunding.sol\":2358:2379  msg.sender == maneger */\n      0xffffffffffffffffffffffffffffffffffffffff\n      and\n        /* \"contracts/crowdFunding.sol\":2358:2368  msg.sender */\n      caller\n        /* \"contracts/crowdFunding.sol\":2358:2379  msg.sender == maneger */\n      0xffffffffffffffffffffffffffffffffffffffff\n      and\n      eq\n        /* \"contracts/crowdFunding.sol\":2350:2380  require(msg.sender == maneger) */\n      tag_90\n      jumpi\n      0x00\n      dup1\n      revert\n    tag_90:\n        /* \"contracts/crowdFunding.sol\":2391:2411  Request storage temp */\n      0x00\n        /* \"contracts/crowdFunding.sol\":2414:2425  allRequests */\n      0x07\n        /* \"contracts/crowdFunding.sol\":2414:2433  allRequests[_ReqNo] */\n      0x00\n        /* \"contracts/crowdFunding.sol\":2426:2432  _ReqNo */\n      dup4\n        /* \"contracts/crowdFunding.sol\":2414:2433  allRequests[_ReqNo] */\n      dup2\n      mstore\n      0x20\n      add\n      swap1\n      dup2\n      mstore\n      0x20\n      add\n      0x00\n      keccak256\n        /* \"contracts/crowdFunding.sol\":2391:2433  Request storage temp = allRequests[_ReqNo] */\n      swap1\n      pop\n        /* \"contracts/crowdFunding.sol\":2339:2451  {... */\n      pop\n        /* \"contracts/crowdFunding.sol\":2298:2451  function makePayment(uint _ReqNo) public {... */\n      pop\n      jump\t// out\n        /* \"contracts/crowdFunding.sol\":1183:1478  function refund() public{... */\n    tag_45:\n        /* \"contracts/crowdFunding.sol\":1244:1252  deadline */\n      sload(0x04)\n        /* \"contracts/crowdFunding.sol\":1226:1241  block.timestamp */\n      timestamp\n        /* \"contracts/crowdFunding.sol\":1226:1252  block.timestamp < deadline */\n      lt\n        /* \"contracts/crowdFunding.sol\":1226:1277  block.timestamp < deadline && raisedAmount < target */\n      dup1\n      iszero\n      tag_92\n      jumpi\n      pop\n        /* \"contracts/crowdFunding.sol\":1271:1277  target */\n      sload(0x03)\n        /* \"contracts/crowdFunding.sol\":1256:1268  raisedAmount */\n      sload(0x06)\n        /* \"contracts/crowdFunding.sol\":1256:1277  raisedAmount < target */\n      lt\n        /* \"contracts/crowdFunding.sol\":1226:1277  block.timestamp < deadline && raisedAmount < target */\n    tag_92:\n        /* \"contracts/crowdFunding.sol\":1218:1278  require(block.timestamp < deadline && raisedAmount < target) */\n      tag_93\n      jumpi\n      0x00\n      dup1\n      revert\n    tag_93:\n        /* \"contracts/crowdFunding.sol\":1324:1325  0 */\n      0x00\n        /* \"contracts/crowdFunding.sol\":1297:1309  contributors */\n      dup1\n        /* \"contracts/crowdFunding.sol\":1297:1321  contributors[msg.sender] */\n      0x00\n        /* \"contracts/crowdFunding.sol\":1310:1320  msg.sender */\n      caller\n        /* \"contracts/crowdFunding.sol\":1297:1321  contributors[msg.sender] */\n      0xffffffffffffffffffffffffffffffffffffffff\n      and\n      0xffffffffffffffffffffffffffffffffffffffff\n      and\n      dup2\n      mstore\n      0x20\n      add\n      swap1\n      dup2\n      mstore\n      0x20\n      add\n      0x00\n      keccak256\n      sload\n        /* \"contracts/crowdFunding.sol\":1297:1325  contributors[msg.sender] > 0 */\n      gt\n        /* \"contracts/crowdFunding.sol\":1289:1326  require(contributors[msg.sender] > 0) */\n      tag_94\n      jumpi\n      0x00\n      dup1\n      revert\n    tag_94:\n        /* \"contracts/crowdFunding.sol\":1339:1359  address payable user */\n      0x00\n        /* \"contracts/crowdFunding.sol\":1370:1380  msg.sender */\n      caller\n        /* \"contracts/crowdFunding.sol\":1339:1381  address payable user = payable(msg.sender) */\n      swap1\n      pop\n        /* \"contracts/crowdFunding.sol\":1392:1396  user */\n      dup1\n        /* \"contracts/crowdFunding.sol\":1392:1405  user.transfer */\n      0xffffffffffffffffffffffffffffffffffffffff\n      and\n        /* \"contracts/crowdFunding.sol\":1392:1431  user.transfer(contributors[msg.sender]) */\n      0x08fc\n        /* \"contracts/crowdFunding.sol\":1406:1418  contributors */\n      0x00\n        /* \"contracts/crowdFunding.sol\":1406:1430  contributors[msg.sender] */\n      dup1\n        /* \"contracts/crowdFunding.sol\":1419:1429  msg.sender */\n      caller\n        /* \"contracts/crowdFunding.sol\":1406:1430  contributors[msg.sender] */\n      0xffffffffffffffffffffffffffffffffffffffff\n      and\n      0xffffffffffffffffffffffffffffffffffffffff\n      and\n      dup2\n      mstore\n      0x20\n      add\n      swap1\n      dup2\n      mstore\n      0x20\n      add\n      0x00\n      keccak256\n      sload\n        /* \"contracts/crowdFunding.sol\":1392:1431  user.transfer(contributors[msg.sender]) */\n      swap1\n      dup2\n      iszero\n      mul\n      swap1\n      mload(0x40)\n      0x00\n      mload(0x40)\n      dup1\n      dup4\n      sub\n      dup2\n      dup6\n      dup9\n      dup9\n      call\n      swap4\n      pop\n      pop\n      pop\n      pop\n      iszero\n      dup1\n      iszero\n      tag_96\n      jumpi\n      returndatasize\n      0x00\n      dup1\n      returndatacopy\n      revert(0x00, returndatasize)\n    tag_96:\n      pop\n        /* \"contracts/crowdFunding.sol\":1469:1470  0 */\n      0x00\n        /* \"contracts/crowdFunding.sol\":1442:1454  contributors */\n      dup1\n        /* \"contracts/crowdFunding.sol\":1442:1466  contributors[msg.sender] */\n      0x00\n        /* \"contracts/crowdFunding.sol\":1455:1465  msg.sender */\n      caller\n        /* \"contracts/crowdFunding.sol\":1442:1466  contributors[msg.sender] */\n      0xffffffffffffffffffffffffffffffffffffffff\n      and\n      0xffffffffffffffffffffffffffffffffffffffff\n      and\n      dup2\n      mstore\n      0x20\n      add\n      swap1\n      dup2\n      mstore\n      0x20\n      add\n      0x00\n      keccak256\n        /* \"contracts/crowdFunding.sol\":1442:1470  contributors[msg.sender] = 0 */\n      dup2\n      swap1\n      sstore\n      pop\n        /* \"contracts/crowdFunding.sol\":1207:1478  {... */\n      pop\n        /* \"contracts/crowdFunding.sol\":1183:1478  function refund() public{... */\n      jump\t// out\n        /* \"contracts/crowdFunding.sol\":176:195  uint public minCont */\n    tag_48:\n      sload(0x02)\n      dup2\n      jump\t// out\n        /* \"contracts/crowdFunding.sol\":517:558  mapping(uint=>Request) public allRequests */\n    tag_53:\n      mstore(0x20, 0x07)\n      dup1\n      0x00\n      mstore\n      keccak256(0x00, 0x40)\n      0x00\n      swap2\n      pop\n      swap1\n      pop\n      dup1\n      0x00\n      add\n      dup1\n      sload\n      tag_97\n      swap1\n      tag_98\n      jump\t// in\n    tag_97:\n      dup1\n      0x1f\n      add\n      0x20\n      dup1\n      swap2\n      div\n      mul\n      0x20\n      add\n      mload(0x40)\n      swap1\n      dup2\n      add\n      0x40\n      mstore\n      dup1\n      swap3\n      swap2\n      swap1\n      dup2\n      dup2\n      mstore\n      0x20\n      add\n      dup3\n      dup1\n      sload\n      tag_99\n      swap1\n      tag_98\n      jump\t// in\n    tag_99:\n      dup1\n      iszero\n      tag_100\n      jumpi\n      dup1\n      0x1f\n      lt\n      tag_101\n      jumpi\n      0x0100\n      dup1\n      dup4\n      sload\n      div\n      mul\n      dup4\n      mstore\n      swap2\n      0x20\n      add\n      swap2\n      jump(tag_100)\n    tag_101:\n      dup3\n      add\n      swap2\n      swap1\n      0x00\n      mstore\n      keccak256(0x00, 0x20)\n      swap1\n    tag_102:\n      dup2\n      sload\n      dup2\n      mstore\n      swap1\n      0x01\n      add\n      swap1\n      0x20\n      add\n      dup1\n      dup4\n      gt\n      tag_102\n      jumpi\n      dup3\n      swap1\n      sub\n      0x1f\n      and\n      dup3\n      add\n      swap2\n    tag_100:\n      pop\n      pop\n      pop\n      pop\n      pop\n      swap1\n      dup1\n      0x01\n      add\n      0x00\n      swap1\n      sload\n      swap1\n      0x0100\n      exp\n      swap1\n      div\n      0xffffffffffffffffffffffffffffffffffffffff\n      and\n      swap1\n      dup1\n      0x02\n      add\n      sload\n      swap1\n      dup1\n      0x03\n      add\n      0x00\n      swap1\n      sload\n      swap1\n      0x0100\n      exp\n      swap1\n      div\n      0xff\n      and\n      swap1\n      dup1\n      0x04\n      add\n      sload\n      swap1\n      pop\n      dup6\n      jump\t// out\n        /* \"contracts/crowdFunding.sol\":1590:1977  function makeRequest(string memory _description, address payable _recipient, uint _value) public onlyManeger{... */\n    tag_60:\n        /* \"contracts/crowdFunding.sol\":1537:1544  maneger */\n      0x01\n      0x00\n      swap1\n      sload\n      swap1\n      0x0100\n      exp\n      swap1\n      div\n      0xffffffffffffffffffffffffffffffffffffffff\n      and\n        /* \"contracts/crowdFunding.sol\":1525:1544  msg.sender==maneger */\n      0xffffffffffffffffffffffffffffffffffffffff\n      and\n        /* \"contracts/crowdFunding.sol\":1525:1535  msg.sender */\n      caller\n        /* \"contracts/crowdFunding.sol\":1525:1544  msg.sender==maneger */\n      0xffffffffffffffffffffffffffffffffffffffff\n      and\n      eq\n        /* \"contracts/crowdFunding.sol\":1517:1564  require(msg.sender==maneger, \"not the maneger\") */\n      tag_104\n      jumpi\n      mload(0x40)\n      0x08c379a000000000000000000000000000000000000000000000000000000000\n      dup2\n      mstore\n      0x04\n      add\n      tag_105\n      swap1\n      tag_106\n      jump\t// in\n    tag_105:\n      mload(0x40)\n      dup1\n      swap2\n      sub\n      swap1\n      revert\n    tag_104:\n        /* \"contracts/crowdFunding.sol\":1709:1731  Request storage newReq */\n      0x00\n        /* \"contracts/crowdFunding.sol\":1734:1745  allRequests */\n      0x07\n        /* \"contracts/crowdFunding.sol\":1734:1760  allRequests[numOfRequests] */\n      0x00\n        /* \"contracts/crowdFunding.sol\":1746:1759  numOfRequests */\n      sload(0x08)\n        /* \"contracts/crowdFunding.sol\":1734:1760  allRequests[numOfRequests] */\n      dup2\n      mstore\n      0x20\n      add\n      swap1\n      dup2\n      mstore\n      0x20\n      add\n      0x00\n      keccak256\n        /* \"contracts/crowdFunding.sol\":1709:1760  Request storage newReq = allRequests[numOfRequests] */\n      swap1\n      pop\n        /* \"contracts/crowdFunding.sol\":1771:1784  numOfRequests */\n      0x08\n      0x00\n        /* \"contracts/crowdFunding.sol\":1771:1786  numOfRequests++ */\n      dup2\n      sload\n      dup1\n      swap3\n      swap2\n      swap1\n      tag_108\n      swap1\n      tag_78\n      jump\t// in\n    tag_108:\n      swap2\n      swap1\n      pop\n      sstore\n      pop\n        /* \"contracts/crowdFunding.sol\":1818:1830  _description */\n      dup4\n        /* \"contracts/crowdFunding.sol\":1797:1803  newReq */\n      dup2\n        /* \"contracts/crowdFunding.sol\":1797:1815  newReq.description */\n      0x00\n      add\n        /* \"contracts/crowdFunding.sol\":1797:1830  newReq.description = _description */\n      swap1\n      dup2\n      tag_109\n      swap2\n      swap1\n      tag_110\n      jump\t// in\n    tag_109:\n      pop\n        /* \"contracts/crowdFunding.sol\":1860:1870  _recipient */\n      dup3\n        /* \"contracts/crowdFunding.sol\":1841:1847  newReq */\n      dup2\n        /* \"contracts/crowdFunding.sol\":1841:1857  newReq.recipient */\n      0x01\n      add\n      0x00\n        /* \"contracts/crowdFunding.sol\":1841:1870  newReq.recipient = _recipient */\n      0x0100\n      exp\n      dup2\n      sload\n      dup2\n      0xffffffffffffffffffffffffffffffffffffffff\n      mul\n      not\n      and\n      swap1\n      dup4\n      0xffffffffffffffffffffffffffffffffffffffff\n      and\n      mul\n      or\n      swap1\n      sstore\n      pop\n        /* \"contracts/crowdFunding.sol\":1896:1902  _value */\n      dup2\n        /* \"contracts/crowdFunding.sol\":1881:1887  newReq */\n      dup2\n        /* \"contracts/crowdFunding.sol\":1881:1893  newReq.value */\n      0x02\n      add\n        /* \"contracts/crowdFunding.sol\":1881:1902  newReq.value = _value */\n      dup2\n      swap1\n      sstore\n      pop\n        /* \"contracts/crowdFunding.sol\":1932:1937  false */\n      0x00\n        /* \"contracts/crowdFunding.sol\":1913:1919  newReq */\n      dup2\n        /* \"contracts/crowdFunding.sol\":1913:1929  newReq.completed */\n      0x03\n      add\n      0x00\n        /* \"contracts/crowdFunding.sol\":1913:1937  newReq.completed = false */\n      0x0100\n      exp\n      dup2\n      sload\n      dup2\n      0xff\n      mul\n      not\n      and\n      swap1\n      dup4\n      iszero\n      iszero\n      mul\n      or\n      swap1\n      sstore\n      pop\n        /* \"contracts/crowdFunding.sol\":1968:1969  0 */\n      0x00\n        /* \"contracts/crowdFunding.sol\":1948:1954  newReq */\n      dup2\n        /* \"contracts/crowdFunding.sol\":1948:1965  newReq.noOfVoters */\n      0x04\n      add\n        /* \"contracts/crowdFunding.sol\":1948:1969  newReq.noOfVoters = 0 */\n      dup2\n      swap1\n      sstore\n      pop\n        /* \"contracts/crowdFunding.sol\":1698:1977  {... */\n      pop\n        /* \"contracts/crowdFunding.sol\":1590:1977  function makeRequest(string memory _description, address payable _recipient, uint _value) public onlyManeger{... */\n      pop\n      pop\n      pop\n      jump\t// out\n        /* \"contracts/crowdFunding.sol\":565:590  uint public numOfRequests */\n    tag_63:\n      sload(0x08)\n      dup2\n      jump\t// out\n        /* \"contracts/crowdFunding.sol\":275:299  uint public raisedAmount */\n    tag_67:\n      sload(0x06)\n      dup2\n      jump\t// out\n        /* \"contracts/crowdFunding.sol\":202:220  uint public target */\n    tag_71:\n      sload(0x03)\n      dup2\n      jump\t// out\n        /* \"#utility.yul\":7:82   */\n    tag_111:\n        /* \"#utility.yul\":40:46   */\n      0x00\n        /* \"#utility.yul\":73:75   */\n      0x40\n        /* \"#utility.yul\":67:76   */\n      mload\n        /* \"#utility.yul\":57:76   */\n      swap1\n      pop\n        /* \"#utility.yul\":7:82   */\n      swap1\n      jump\t// out\n        /* \"#utility.yul\":88:205   */\n    tag_112:\n        /* \"#utility.yul\":197:198   */\n      0x00\n        /* \"#utility.yul\":194:195   */\n      dup1\n        /* \"#utility.yul\":187:199   */\n      revert\n        /* \"#utility.yul\":211:328   */\n    tag_113:\n        /* \"#utility.yul\":320:321   */\n      0x00\n        /* \"#utility.yul\":317:318   */\n      dup1\n        /* \"#utility.yul\":310:322   */\n      revert\n        /* \"#utility.yul\":334:460   */\n    tag_114:\n        /* \"#utility.yul\":371:378   */\n      0x00\n        /* \"#utility.yul\":411:453   */\n      0xffffffffffffffffffffffffffffffffffffffff\n        /* \"#utility.yul\":404:409   */\n      dup3\n        /* \"#utility.yul\":400:454   */\n      and\n        /* \"#utility.yul\":389:454   */\n      swap1\n      pop\n        /* \"#utility.yul\":334:460   */\n      swap2\n      swap1\n      pop\n      jump\t// out\n        /* \"#utility.yul\":466:562   */\n    tag_115:\n        /* \"#utility.yul\":503:510   */\n      0x00\n        /* \"#utility.yul\":532:556   */\n      tag_169\n        /* \"#utility.yul\":550:555   */\n      dup3\n        /* \"#utility.yul\":532:556   */\n      tag_114\n      jump\t// in\n    tag_169:\n        /* \"#utility.yul\":521:556   */\n      swap1\n      pop\n        /* \"#utility.yul\":466:562   */\n      swap2\n      swap1\n      pop\n      jump\t// out\n        /* \"#utility.yul\":568:690   */\n    tag_116:\n        /* \"#utility.yul\":641:665   */\n      tag_171\n        /* \"#utility.yul\":659:664   */\n      dup2\n        /* \"#utility.yul\":641:665   */\n      tag_115\n      jump\t// in\n    tag_171:\n        /* \"#utility.yul\":634:639   */\n      dup2\n        /* \"#utility.yul\":631:666   */\n      eq\n        /* \"#utility.yul\":621:684   */\n      tag_172\n      jumpi\n        /* \"#utility.yul\":680:681   */\n      0x00\n        /* \"#utility.yul\":677:678   */\n      dup1\n        /* \"#utility.yul\":670:682   */\n      revert\n        /* \"#utility.yul\":621:684   */\n    tag_172:\n        /* \"#utility.yul\":568:690   */\n      pop\n      jump\t// out\n        /* \"#utility.yul\":696:835   */\n    tag_117:\n        /* \"#utility.yul\":742:747   */\n      0x00\n        /* \"#utility.yul\":780:786   */\n      dup2\n        /* \"#utility.yul\":767:787   */\n      calldataload\n        /* \"#utility.yul\":758:787   */\n      swap1\n      pop\n        /* \"#utility.yul\":796:829   */\n      tag_174\n        /* \"#utility.yul\":823:828   */\n      dup2\n        /* \"#utility.yul\":796:829   */\n      tag_116\n      jump\t// in\n    tag_174:\n        /* \"#utility.yul\":696:835   */\n      swap3\n      swap2\n      pop\n      pop\n      jump\t// out\n        /* \"#utility.yul\":841:1170   */\n    tag_22:\n        /* \"#utility.yul\":900:906   */\n      0x00\n        /* \"#utility.yul\":949:951   */\n      0x20\n        /* \"#utility.yul\":937:946   */\n      dup3\n        /* \"#utility.yul\":928:935   */\n      dup5\n        /* \"#utility.yul\":924:947   */\n      sub\n        /* \"#utility.yul\":920:952   */\n      slt\n        /* \"#utility.yul\":917:1036   */\n      iszero\n      tag_176\n      jumpi\n        /* \"#utility.yul\":955:1034   */\n      tag_177\n      tag_112\n      jump\t// in\n    tag_177:\n        /* \"#utility.yul\":917:1036   */\n    tag_176:\n        /* \"#utility.yul\":1075:1076   */\n      0x00\n        /* \"#utility.yul\":1100:1153   */\n      tag_178\n        /* \"#utility.yul\":1145:1152   */\n      dup5\n        /* \"#utility.yul\":1136:1142   */\n      dup3\n        /* \"#utility.yul\":1125:1134   */\n      dup6\n        /* \"#utility.yul\":1121:1143   */\n      add\n        /* \"#utility.yul\":1100:1153   */\n      tag_117\n      jump\t// in\n    tag_178:\n        /* \"#utility.yul\":1090:1153   */\n      swap2\n      pop\n        /* \"#utility.yul\":1046:1163   */\n      pop\n        /* \"#utility.yul\":841:1170   */\n      swap3\n      swap2\n      pop\n      pop\n      jump\t// out\n        /* \"#utility.yul\":1176:1253   */\n    tag_118:\n        /* \"#utility.yul\":1213:1220   */\n      0x00\n        /* \"#utility.yul\":1242:1247   */\n      dup2\n        /* \"#utility.yul\":1231:1247   */\n      swap1\n      pop\n        /* \"#utility.yul\":1176:1253   */\n      swap2\n      swap1\n      pop\n      jump\t// out\n        /* \"#utility.yul\":1259:1377   */\n    tag_119:\n        /* \"#utility.yul\":1346:1370   */\n      tag_181\n        /* \"#utility.yul\":1364:1369   */\n      dup2\n        /* \"#utility.yul\":1346:1370   */\n      tag_118\n      jump\t// in\n    tag_181:\n        /* \"#utility.yul\":1341:1344   */\n      dup3\n        /* \"#utility.yul\":1334:1371   */\n      mstore\n        /* \"#utility.yul\":1259:1377   */\n      pop\n      pop\n      jump\t// out\n        /* \"#utility.yul\":1383:1605   */\n    tag_25:\n        /* \"#utility.yul\":1476:1480   */\n      0x00\n        /* \"#utility.yul\":1514:1516   */\n      0x20\n        /* \"#utility.yul\":1503:1512   */\n      dup3\n        /* \"#utility.yul\":1499:1517   */\n      add\n        /* \"#utility.yul\":1491:1517   */\n      swap1\n      pop\n        /* \"#utility.yul\":1527:1598   */\n      tag_183\n        /* \"#utility.yul\":1595:1596   */\n      0x00\n        /* \"#utility.yul\":1584:1593   */\n      dup4\n        /* \"#utility.yul\":1580:1597   */\n      add\n        /* \"#utility.yul\":1571:1577   */\n      dup5\n        /* \"#utility.yul\":1527:1598   */\n      tag_119\n      jump\t// in\n    tag_183:\n        /* \"#utility.yul\":1383:1605   */\n      swap3\n      swap2\n      pop\n      pop\n      jump\t// out\n        /* \"#utility.yul\":1611:1733   */\n    tag_120:\n        /* \"#utility.yul\":1684:1708   */\n      tag_185\n        /* \"#utility.yul\":1702:1707   */\n      dup2\n        /* \"#utility.yul\":1684:1708   */\n      tag_118\n      jump\t// in\n    tag_185:\n        /* \"#utility.yul\":1677:1682   */\n      dup2\n        /* \"#utility.yul\":1674:1709   */\n      eq\n        /* \"#utility.yul\":1664:1727   */\n      tag_186\n      jumpi\n        /* \"#utility.yul\":1723:1724   */\n      0x00\n        /* \"#utility.yul\":1720:1721   */\n      dup1\n        /* \"#utility.yul\":1713:1725   */\n      revert\n        /* \"#utility.yul\":1664:1727   */\n    tag_186:\n        /* \"#utility.yul\":1611:1733   */\n      pop\n      jump\t// out\n        /* \"#utility.yul\":1739:1878   */\n    tag_121:\n        /* \"#utility.yul\":1785:1790   */\n      0x00\n        /* \"#utility.yul\":1823:1829   */\n      dup2\n        /* \"#utility.yul\":1810:1830   */\n      calldataload\n        /* \"#utility.yul\":1801:1830   */\n      swap1\n      pop\n        /* \"#utility.yul\":1839:1872   */\n      tag_188\n        /* \"#utility.yul\":1866:1871   */\n      dup2\n        /* \"#utility.yul\":1839:1872   */\n      tag_120\n      jump\t// in\n    tag_188:\n        /* \"#utility.yul\":1739:1878   */\n      swap3\n      swap2\n      pop\n      pop\n      jump\t// out\n        /* \"#utility.yul\":1884:2213   */\n    tag_37:\n        /* \"#utility.yul\":1943:1949   */\n      0x00\n        /* \"#utility.yul\":1992:1994   */\n      0x20\n        /* \"#utility.yul\":1980:1989   */\n      dup3\n        /* \"#utility.yul\":1971:1978   */\n      dup5\n        /* \"#utility.yul\":1967:1990   */\n      sub\n        /* \"#utility.yul\":1963:1995   */\n      slt\n        /* \"#utility.yul\":1960:2079   */\n      iszero\n      tag_190\n      jumpi\n        /* \"#utility.yul\":1998:2077   */\n      tag_191\n      tag_112\n      jump\t// in\n    tag_191:\n        /* \"#utility.yul\":1960:2079   */\n    tag_190:\n        /* \"#utility.yul\":2118:2119   */\n      0x00\n        /* \"#utility.yul\":2143:2196   */\n      tag_192\n        /* \"#utility.yul\":2188:2195   */\n      dup5\n        /* \"#utility.yul\":2179:2185   */\n      dup3\n        /* \"#utility.yul\":2168:2177   */\n      dup6\n        /* \"#utility.yul\":2164:2186   */\n      add\n        /* \"#utility.yul\":2143:2196   */\n      tag_121\n      jump\t// in\n    tag_192:\n        /* \"#utility.yul\":2133:2196   */\n      swap2\n      pop\n        /* \"#utility.yul\":2089:2206   */\n      pop\n        /* \"#utility.yul\":1884:2213   */\n      swap3\n      swap2\n      pop\n      pop\n      jump\t// out\n        /* \"#utility.yul\":2219:2318   */\n    tag_122:\n        /* \"#utility.yul\":2271:2277   */\n      0x00\n        /* \"#utility.yul\":2305:2310   */\n      dup2\n        /* \"#utility.yul\":2299:2311   */\n      mload\n        /* \"#utility.yul\":2289:2311   */\n      swap1\n      pop\n        /* \"#utility.yul\":2219:2318   */\n      swap2\n      swap1\n      pop\n      jump\t// out\n        /* \"#utility.yul\":2324:2493   */\n    tag_123:\n        /* \"#utility.yul\":2408:2419   */\n      0x00\n        /* \"#utility.yul\":2442:2448   */\n      dup3\n        /* \"#utility.yul\":2437:2440   */\n      dup3\n        /* \"#utility.yul\":2430:2449   */\n      mstore\n        /* \"#utility.yul\":2482:2486   */\n      0x20\n        /* \"#utility.yul\":2477:2480   */\n      dup3\n        /* \"#utility.yul\":2473:2487   */\n      add\n        /* \"#utility.yul\":2458:2487   */\n      swap1\n      pop\n        /* \"#utility.yul\":2324:2493   */\n      swap3\n      swap2\n      pop\n      pop\n      jump\t// out\n        /* \"#utility.yul\":2499:2806   */\n    tag_124:\n        /* \"#utility.yul\":2567:2568   */\n      0x00\n        /* \"#utility.yul\":2577:2690   */\n    tag_196:\n        /* \"#utility.yul\":2591:2597   */\n      dup4\n        /* \"#utility.yul\":2588:2589   */\n      dup2\n        /* \"#utility.yul\":2585:2598   */\n      lt\n        /* \"#utility.yul\":2577:2690   */\n      iszero\n      tag_198\n      jumpi\n        /* \"#utility.yul\":2676:2677   */\n      dup1\n        /* \"#utility.yul\":2671:2674   */\n      dup3\n        /* \"#utility.yul\":2667:2678   */\n      add\n        /* \"#utility.yul\":2661:2679   */\n      mload\n        /* \"#utility.yul\":2657:2658   */\n      dup2\n        /* \"#utility.yul\":2652:2655   */\n      dup5\n        /* \"#utility.yul\":2648:2659   */\n      add\n        /* \"#utility.yul\":2641:2680   */\n      mstore\n        /* \"#utility.yul\":2613:2615   */\n      0x20\n        /* \"#utility.yul\":2610:2611   */\n      dup2\n        /* \"#utility.yul\":2606:2616   */\n      add\n        /* \"#utility.yul\":2601:2616   */\n      swap1\n      pop\n        /* \"#utility.yul\":2577:2690   */\n      jump(tag_196)\n    tag_198:\n        /* \"#utility.yul\":2708:2714   */\n      dup4\n        /* \"#utility.yul\":2705:2706   */\n      dup2\n        /* \"#utility.yul\":2702:2715   */\n      gt\n        /* \"#utility.yul\":2699:2800   */\n      iszero\n      tag_199\n      jumpi\n        /* \"#utility.yul\":2788:2789   */\n      0x00\n        /* \"#utility.yul\":2779:2785   */\n      dup5\n        /* \"#utility.yul\":2774:2777   */\n      dup5\n        /* \"#utility.yul\":2770:2786   */\n      add\n        /* \"#utility.yul\":2763:2790   */\n      mstore\n        /* \"#utility.yul\":2699:2800   */\n    tag_199:\n        /* \"#utility.yul\":2548:2806   */\n      pop\n        /* \"#utility.yul\":2499:2806   */\n      pop\n      pop\n      pop\n      jump\t// out\n        /* \"#utility.yul\":2812:2914   */\n    tag_125:\n        /* \"#utility.yul\":2853:2859   */\n      0x00\n        /* \"#utility.yul\":2904:2906   */\n      0x1f\n        /* \"#utility.yul\":2900:2907   */\n      not\n        /* \"#utility.yul\":2895:2897   */\n      0x1f\n        /* \"#utility.yul\":2888:2893   */\n      dup4\n        /* \"#utility.yul\":2884:2898   */\n      add\n        /* \"#utility.yul\":2880:2908   */\n      and\n        /* \"#utility.yul\":2870:2908   */\n      swap1\n      pop\n        /* \"#utility.yul\":2812:2914   */\n      swap2\n      swap1\n      pop\n      jump\t// out\n        /* \"#utility.yul\":2920:3284   */\n    tag_126:\n        /* \"#utility.yul\":3008:3011   */\n      0x00\n        /* \"#utility.yul\":3036:3075   */\n      tag_202\n        /* \"#utility.yul\":3069:3074   */\n      dup3\n        /* \"#utility.yul\":3036:3075   */\n      tag_122\n      jump\t// in\n    tag_202:\n        /* \"#utility.yul\":3091:3162   */\n      tag_203\n        /* \"#utility.yul\":3155:3161   */\n      dup2\n        /* \"#utility.yul\":3150:3153   */\n      dup6\n        /* \"#utility.yul\":3091:3162   */\n      tag_123\n      jump\t// in\n    tag_203:\n        /* \"#utility.yul\":3084:3162   */\n      swap4\n      pop\n        /* \"#utility.yul\":3171:3223   */\n      tag_204\n        /* \"#utility.yul\":3216:3222   */\n      dup2\n        /* \"#utility.yul\":3211:3214   */\n      dup6\n        /* \"#utility.yul\":3204:3208   */\n      0x20\n        /* \"#utility.yul\":3197:3202   */\n      dup7\n        /* \"#utility.yul\":3193:3209   */\n      add\n        /* \"#utility.yul\":3171:3223   */\n      tag_124\n      jump\t// in\n    tag_204:\n        /* \"#utility.yul\":3248:3277   */\n      tag_205\n        /* \"#utility.yul\":3270:3276   */\n      dup2\n        /* \"#utility.yul\":3248:3277   */\n      tag_125\n      jump\t// in\n    tag_205:\n        /* \"#utility.yul\":3243:3246   */\n      dup5\n        /* \"#utility.yul\":3239:3278   */\n      add\n        /* \"#utility.yul\":3232:3278   */\n      swap2\n      pop\n        /* \"#utility.yul\":3012:3284   */\n      pop\n        /* \"#utility.yul\":2920:3284   */\n      swap3\n      swap2\n      pop\n      pop\n      jump\t// out\n        /* \"#utility.yul\":3290:3394   */\n    tag_127:\n        /* \"#utility.yul\":3335:3342   */\n      0x00\n        /* \"#utility.yul\":3364:3388   */\n      tag_207\n        /* \"#utility.yul\":3382:3387   */\n      dup3\n        /* \"#utility.yul\":3364:3388   */\n      tag_114\n      jump\t// in\n    tag_207:\n        /* \"#utility.yul\":3353:3388   */\n      swap1\n      pop\n        /* \"#utility.yul\":3290:3394   */\n      swap2\n      swap1\n      pop\n      jump\t// out\n        /* \"#utility.yul\":3400:3542   */\n    tag_128:\n        /* \"#utility.yul\":3503:3535   */\n      tag_209\n        /* \"#utility.yul\":3529:3534   */\n      dup2\n        /* \"#utility.yul\":3503:3535   */\n      tag_127\n      jump\t// in\n    tag_209:\n        /* \"#utility.yul\":3498:3501   */\n      dup3\n        /* \"#utility.yul\":3491:3536   */\n      mstore\n        /* \"#utility.yul\":3400:3542   */\n      pop\n      pop\n      jump\t// out\n        /* \"#utility.yul\":3548:3638   */\n    tag_129:\n        /* \"#utility.yul\":3582:3589   */\n      0x00\n        /* \"#utility.yul\":3625:3630   */\n      dup2\n        /* \"#utility.yul\":3618:3631   */\n      iszero\n        /* \"#utility.yul\":3611:3632   */\n      iszero\n        /* \"#utility.yul\":3600:3632   */\n      swap1\n      pop\n        /* \"#utility.yul\":3548:3638   */\n      swap2\n      swap1\n      pop\n      jump\t// out\n        /* \"#utility.yul\":3644:3753   */\n    tag_130:\n        /* \"#utility.yul\":3725:3746   */\n      tag_212\n        /* \"#utility.yul\":3740:3745   */\n      dup2\n        /* \"#utility.yul\":3725:3746   */\n      tag_129\n      jump\t// in\n    tag_212:\n        /* \"#utility.yul\":3720:3723   */\n      dup3\n        /* \"#utility.yul\":3713:3747   */\n      mstore\n        /* \"#utility.yul\":3644:3753   */\n      pop\n      pop\n      jump\t// out\n        /* \"#utility.yul\":3759:4534   */\n    tag_55:\n        /* \"#utility.yul\":3994:3998   */\n      0x00\n        /* \"#utility.yul\":4032:4035   */\n      0xa0\n        /* \"#utility.yul\":4021:4030   */\n      dup3\n        /* \"#utility.yul\":4017:4036   */\n      add\n        /* \"#utility.yul\":4009:4036   */\n      swap1\n      pop\n        /* \"#utility.yul\":4082:4091   */\n      dup2\n        /* \"#utility.yul\":4076:4080   */\n      dup2\n        /* \"#utility.yul\":4072:4092   */\n      sub\n        /* \"#utility.yul\":4068:4069   */\n      0x00\n        /* \"#utility.yul\":4057:4066   */\n      dup4\n        /* \"#utility.yul\":4053:4070   */\n      add\n        /* \"#utility.yul\":4046:4093   */\n      mstore\n        /* \"#utility.yul\":4110:4188   */\n      tag_214\n        /* \"#utility.yul\":4183:4187   */\n      dup2\n        /* \"#utility.yul\":4174:4180   */\n      dup9\n        /* \"#utility.yul\":4110:4188   */\n      tag_126\n      jump\t// in\n    tag_214:\n        /* \"#utility.yul\":4102:4188   */\n      swap1\n      pop\n        /* \"#utility.yul\":4198:4286   */\n      tag_215\n        /* \"#utility.yul\":4282:4284   */\n      0x20\n        /* \"#utility.yul\":4271:4280   */\n      dup4\n        /* \"#utility.yul\":4267:4285   */\n      add\n        /* \"#utility.yul\":4258:4264   */\n      dup8\n        /* \"#utility.yul\":4198:4286   */\n      tag_128\n      jump\t// in\n    tag_215:\n        /* \"#utility.yul\":4296:4368   */\n      tag_216\n        /* \"#utility.yul\":4364:4366   */\n      0x40\n        /* \"#utility.yul\":4353:4362   */\n      dup4\n        /* \"#utility.yul\":4349:4367   */\n      add\n        /* \"#utility.yul\":4340:4346   */\n      dup7\n        /* \"#utility.yul\":4296:4368   */\n      tag_119\n      jump\t// in\n    tag_216:\n        /* \"#utility.yul\":4378:4444   */\n      tag_217\n        /* \"#utility.yul\":4440:4442   */\n      0x60\n        /* \"#utility.yul\":4429:4438   */\n      dup4\n        /* \"#utility.yul\":4425:4443   */\n      add\n        /* \"#utility.yul\":4416:4422   */\n      dup6\n        /* \"#utility.yul\":4378:4444   */\n      tag_130\n      jump\t// in\n    tag_217:\n        /* \"#utility.yul\":4454:4527   */\n      tag_218\n        /* \"#utility.yul\":4522:4525   */\n      0x80\n        /* \"#utility.yul\":4511:4520   */\n      dup4\n        /* \"#utility.yul\":4507:4526   */\n      add\n        /* \"#utility.yul\":4498:4504   */\n      dup5\n        /* \"#utility.yul\":4454:4527   */\n      tag_119\n      jump\t// in\n    tag_218:\n        /* \"#utility.yul\":3759:4534   */\n      swap7\n      swap6\n      pop\n      pop\n      pop\n      pop\n      pop\n      pop\n      jump\t// out\n        /* \"#utility.yul\":4540:4657   */\n    tag_131:\n        /* \"#utility.yul\":4649:4650   */\n      0x00\n        /* \"#utility.yul\":4646:4647   */\n      dup1\n        /* \"#utility.yul\":4639:4651   */\n      revert\n        /* \"#utility.yul\":4663:4780   */\n    tag_132:\n        /* \"#utility.yul\":4772:4773   */\n      0x00\n        /* \"#utility.yul\":4769:4770   */\n      dup1\n        /* \"#utility.yul\":4762:4774   */\n      revert\n        /* \"#utility.yul\":4786:4966   */\n    tag_133:\n        /* \"#utility.yul\":4834:4911   */\n      0x4e487b7100000000000000000000000000000000000000000000000000000000\n        /* \"#utility.yul\":4831:4832   */\n      0x00\n        /* \"#utility.yul\":4824:4912   */\n      mstore\n        /* \"#utility.yul\":4931:4935   */\n      0x41\n        /* \"#utility.yul\":4928:4929   */\n      0x04\n        /* \"#utility.yul\":4921:4936   */\n      mstore\n        /* \"#utility.yul\":4955:4959   */\n      0x24\n        /* \"#utility.yul\":4952:4953   */\n      0x00\n        /* \"#utility.yul\":4945:4960   */\n      revert\n        /* \"#utility.yul\":4972:5253   */\n    tag_134:\n        /* \"#utility.yul\":5055:5082   */\n      tag_223\n        /* \"#utility.yul\":5077:5081   */\n      dup3\n        /* \"#utility.yul\":5055:5082   */\n      tag_125\n      jump\t// in\n    tag_223:\n        /* \"#utility.yul\":5047:5053   */\n      dup2\n        /* \"#utility.yul\":5043:5083   */\n      add\n        /* \"#utility.yul\":5185:5191   */\n      dup2\n        /* \"#utility.yul\":5173:5183   */\n      dup2\n        /* \"#utility.yul\":5170:5192   */\n      lt\n        /* \"#utility.yul\":5149:5167   */\n      0xffffffffffffffff\n        /* \"#utility.yul\":5137:5147   */\n      dup3\n        /* \"#utility.yul\":5134:5168   */\n      gt\n        /* \"#utility.yul\":5131:5193   */\n      or\n        /* \"#utility.yul\":5128:5216   */\n      iszero\n      tag_224\n      jumpi\n        /* \"#utility.yul\":5196:5214   */\n      tag_225\n      tag_133\n      jump\t// in\n    tag_225:\n        /* \"#utility.yul\":5128:5216   */\n    tag_224:\n        /* \"#utility.yul\":5236:5246   */\n      dup1\n        /* \"#utility.yul\":5232:5234   */\n      0x40\n        /* \"#utility.yul\":5225:5247   */\n      mstore\n        /* \"#utility.yul\":5015:5253   */\n      pop\n        /* \"#utility.yul\":4972:5253   */\n      pop\n      pop\n      jump\t// out\n        /* \"#utility.yul\":5259:5388   */\n    tag_135:\n        /* \"#utility.yul\":5293:5299   */\n      0x00\n        /* \"#utility.yul\":5320:5340   */\n      tag_227\n      tag_111\n      jump\t// in\n    tag_227:\n        /* \"#utility.yul\":5310:5340   */\n      swap1\n      pop\n        /* \"#utility.yul\":5349:5382   */\n      tag_228\n        /* \"#utility.yul\":5377:5381   */\n      dup3\n        /* \"#utility.yul\":5369:5375   */\n      dup3\n        /* \"#utility.yul\":5349:5382   */\n      tag_134\n      jump\t// in\n    tag_228:\n        /* \"#utility.yul\":5259:5388   */\n      swap2\n      swap1\n      pop\n      jump\t// out\n        /* \"#utility.yul\":5394:5702   */\n    tag_136:\n        /* \"#utility.yul\":5456:5460   */\n      0x00\n        /* \"#utility.yul\":5546:5564   */\n      0xffffffffffffffff\n        /* \"#utility.yul\":5538:5544   */\n      dup3\n        /* \"#utility.yul\":5535:5565   */\n      gt\n        /* \"#utility.yul\":5532:5588   */\n      iszero\n      tag_230\n      jumpi\n        /* \"#utility.yul\":5568:5586   */\n      tag_231\n      tag_133\n      jump\t// in\n    tag_231:\n        /* \"#utility.yul\":5532:5588   */\n    tag_230:\n        /* \"#utility.yul\":5606:5635   */\n      tag_232\n        /* \"#utility.yul\":5628:5634   */\n      dup3\n        /* \"#utility.yul\":5606:5635   */\n      tag_125\n      jump\t// in\n    tag_232:\n        /* \"#utility.yul\":5598:5635   */\n      swap1\n      pop\n        /* \"#utility.yul\":5690:5694   */\n      0x20\n        /* \"#utility.yul\":5684:5688   */\n      dup2\n        /* \"#utility.yul\":5680:5695   */\n      add\n        /* \"#utility.yul\":5672:5695   */\n      swap1\n      pop\n        /* \"#utility.yul\":5394:5702   */\n      swap2\n      swap1\n      pop\n      jump\t// out\n        /* \"#utility.yul\":5708:5862   */\n    tag_137:\n        /* \"#utility.yul\":5792:5798   */\n      dup3\n        /* \"#utility.yul\":5787:5790   */\n      dup2\n        /* \"#utility.yul\":5782:5785   */\n      dup4\n        /* \"#utility.yul\":5769:5799   */\n      calldatacopy\n        /* \"#utility.yul\":5854:5855   */\n      0x00\n        /* \"#utility.yul\":5845:5851   */\n      dup4\n        /* \"#utility.yul\":5840:5843   */\n      dup4\n        /* \"#utility.yul\":5836:5852   */\n      add\n        /* \"#utility.yul\":5829:5856   */\n      mstore\n        /* \"#utility.yul\":5708:5862   */\n      pop\n      pop\n      pop\n      jump\t// out\n        /* \"#utility.yul\":5868:6280   */\n    tag_138:\n        /* \"#utility.yul\":5946:5951   */\n      0x00\n        /* \"#utility.yul\":5971:6037   */\n      tag_235\n        /* \"#utility.yul\":5987:6036   */\n      tag_236\n        /* \"#utility.yul\":6029:6035   */\n      dup5\n        /* \"#utility.yul\":5987:6036   */\n      tag_136\n      jump\t// in\n    tag_236:\n        /* \"#utility.yul\":5971:6037   */\n      tag_135\n      jump\t// in\n    tag_235:\n        /* \"#utility.yul\":5962:6037   */\n      swap1\n      pop\n        /* \"#utility.yul\":6060:6066   */\n      dup3\n        /* \"#utility.yul\":6053:6058   */\n      dup2\n        /* \"#utility.yul\":6046:6067   */\n      mstore\n        /* \"#utility.yul\":6098:6102   */\n      0x20\n        /* \"#utility.yul\":6091:6096   */\n      dup2\n        /* \"#utility.yul\":6087:6103   */\n      add\n        /* \"#utility.yul\":6136:6139   */\n      dup5\n        /* \"#utility.yul\":6127:6133   */\n      dup5\n        /* \"#utility.yul\":6122:6125   */\n      dup5\n        /* \"#utility.yul\":6118:6134   */\n      add\n        /* \"#utility.yul\":6115:6140   */\n      gt\n        /* \"#utility.yul\":6112:6224   */\n      iszero\n      tag_237\n      jumpi\n        /* \"#utility.yul\":6143:6222   */\n      tag_238\n      tag_132\n      jump\t// in\n    tag_238:\n        /* \"#utility.yul\":6112:6224   */\n    tag_237:\n        /* \"#utility.yul\":6233:6274   */\n      tag_239\n        /* \"#utility.yul\":6267:6273   */\n      dup5\n        /* \"#utility.yul\":6262:6265   */\n      dup3\n        /* \"#utility.yul\":6257:6260   */\n      dup6\n        /* \"#utility.yul\":6233:6274   */\n      tag_137\n      jump\t// in\n    tag_239:\n        /* \"#utility.yul\":5952:6280   */\n      pop\n        /* \"#utility.yul\":5868:6280   */\n      swap4\n      swap3\n      pop\n      pop\n      pop\n      jump\t// out\n        /* \"#utility.yul\":6300:6640   */\n    tag_139:\n        /* \"#utility.yul\":6356:6361   */\n      0x00\n        /* \"#utility.yul\":6405:6408   */\n      dup3\n        /* \"#utility.yul\":6398:6402   */\n      0x1f\n        /* \"#utility.yul\":6390:6396   */\n      dup4\n        /* \"#utility.yul\":6386:6403   */\n      add\n        /* \"#utility.yul\":6382:6409   */\n      slt\n        /* \"#utility.yul\":6372:6494   */\n      tag_241\n      jumpi\n        /* \"#utility.yul\":6413:6492   */\n      tag_242\n      tag_131\n      jump\t// in\n    tag_242:\n        /* \"#utility.yul\":6372:6494   */\n    tag_241:\n        /* \"#utility.yul\":6530:6536   */\n      dup2\n        /* \"#utility.yul\":6517:6537   */\n      calldataload\n        /* \"#utility.yul\":6555:6634   */\n      tag_243\n        /* \"#utility.yul\":6630:6633   */\n      dup5\n        /* \"#utility.yul\":6622:6628   */\n      dup3\n        /* \"#utility.yul\":6615:6619   */\n      0x20\n        /* \"#utility.yul\":6607:6613   */\n      dup7\n        /* \"#utility.yul\":6603:6620   */\n      add\n        /* \"#utility.yul\":6555:6634   */\n      tag_138\n      jump\t// in\n    tag_243:\n        /* \"#utility.yul\":6546:6634   */\n      swap2\n      pop\n        /* \"#utility.yul\":6362:6640   */\n      pop\n        /* \"#utility.yul\":6300:6640   */\n      swap3\n      swap2\n      pop\n      pop\n      jump\t// out\n        /* \"#utility.yul\":6646:6784   */\n    tag_140:\n        /* \"#utility.yul\":6727:6759   */\n      tag_245\n        /* \"#utility.yul\":6753:6758   */\n      dup2\n        /* \"#utility.yul\":6727:6759   */\n      tag_127\n      jump\t// in\n    tag_245:\n        /* \"#utility.yul\":6720:6725   */\n      dup2\n        /* \"#utility.yul\":6717:6760   */\n      eq\n        /* \"#utility.yul\":6707:6778   */\n      tag_246\n      jumpi\n        /* \"#utility.yul\":6774:6775   */\n      0x00\n        /* \"#utility.yul\":6771:6772   */\n      dup1\n        /* \"#utility.yul\":6764:6776   */\n      revert\n        /* \"#utility.yul\":6707:6778   */\n    tag_246:\n        /* \"#utility.yul\":6646:6784   */\n      pop\n      jump\t// out\n        /* \"#utility.yul\":6790:6945   */\n    tag_141:\n        /* \"#utility.yul\":6844:6849   */\n      0x00\n        /* \"#utility.yul\":6882:6888   */\n      dup2\n        /* \"#utility.yul\":6869:6889   */\n      calldataload\n        /* \"#utility.yul\":6860:6889   */\n      swap1\n      pop\n        /* \"#utility.yul\":6898:6939   */\n      tag_248\n        /* \"#utility.yul\":6933:6938   */\n      dup2\n        /* \"#utility.yul\":6898:6939   */\n      tag_140\n      jump\t// in\n    tag_248:\n        /* \"#utility.yul\":6790:6945   */\n      swap3\n      swap2\n      pop\n      pop\n      jump\t// out\n        /* \"#utility.yul\":6951:7766   */\n    tag_59:\n        /* \"#utility.yul\":7046:7052   */\n      0x00\n        /* \"#utility.yul\":7054:7060   */\n      dup1\n        /* \"#utility.yul\":7062:7068   */\n      0x00\n        /* \"#utility.yul\":7111:7113   */\n      0x60\n        /* \"#utility.yul\":7099:7108   */\n      dup5\n        /* \"#utility.yul\":7090:7097   */\n      dup7\n        /* \"#utility.yul\":7086:7109   */\n      sub\n        /* \"#utility.yul\":7082:7114   */\n      slt\n        /* \"#utility.yul\":7079:7198   */\n      iszero\n      tag_250\n      jumpi\n        /* \"#utility.yul\":7117:7196   */\n      tag_251\n      tag_112\n      jump\t// in\n    tag_251:\n        /* \"#utility.yul\":7079:7198   */\n    tag_250:\n        /* \"#utility.yul\":7265:7266   */\n      0x00\n        /* \"#utility.yul\":7254:7263   */\n      dup5\n        /* \"#utility.yul\":7250:7267   */\n      add\n        /* \"#utility.yul\":7237:7268   */\n      calldataload\n        /* \"#utility.yul\":7295:7313   */\n      0xffffffffffffffff\n        /* \"#utility.yul\":7287:7293   */\n      dup2\n        /* \"#utility.yul\":7284:7314   */\n      gt\n        /* \"#utility.yul\":7281:7398   */\n      iszero\n      tag_252\n      jumpi\n        /* \"#utility.yul\":7317:7396   */\n      tag_253\n      tag_113\n      jump\t// in\n    tag_253:\n        /* \"#utility.yul\":7281:7398   */\n    tag_252:\n        /* \"#utility.yul\":7422:7485   */\n      tag_254\n        /* \"#utility.yul\":7477:7484   */\n      dup7\n        /* \"#utility.yul\":7468:7474   */\n      dup3\n        /* \"#utility.yul\":7457:7466   */\n      dup8\n        /* \"#utility.yul\":7453:7475   */\n      add\n        /* \"#utility.yul\":7422:7485   */\n      tag_139\n      jump\t// in\n    tag_254:\n        /* \"#utility.yul\":7412:7485   */\n      swap4\n      pop\n        /* \"#utility.yul\":7208:7495   */\n      pop\n        /* \"#utility.yul\":7534:7536   */\n      0x20\n        /* \"#utility.yul\":7560:7621   */\n      tag_255\n        /* \"#utility.yul\":7613:7620   */\n      dup7\n        /* \"#utility.yul\":7604:7610   */\n      dup3\n        /* \"#utility.yul\":7593:7602   */\n      dup8\n        /* \"#utility.yul\":7589:7611   */\n      add\n        /* \"#utility.yul\":7560:7621   */\n      tag_141\n      jump\t// in\n    tag_255:\n        /* \"#utility.yul\":7550:7621   */\n      swap3\n      pop\n        /* \"#utility.yul\":7505:7631   */\n      pop\n        /* \"#utility.yul\":7670:7672   */\n      0x40\n        /* \"#utility.yul\":7696:7749   */\n      tag_256\n        /* \"#utility.yul\":7741:7748   */\n      dup7\n        /* \"#utility.yul\":7732:7738   */\n      dup3\n        /* \"#utility.yul\":7721:7730   */\n      dup8\n        /* \"#utility.yul\":7717:7739   */\n      add\n        /* \"#utility.yul\":7696:7749   */\n      tag_121\n      jump\t// in\n    tag_256:\n        /* \"#utility.yul\":7686:7749   */\n      swap2\n      pop\n        /* \"#utility.yul\":7641:7759   */\n      pop\n        /* \"#utility.yul\":6951:7766   */\n      swap3\n      pop\n      swap3\n      pop\n      swap3\n      jump\t// out\n        /* \"#utility.yul\":7772:7952   */\n    tag_142:\n        /* \"#utility.yul\":7820:7897   */\n      0x4e487b7100000000000000000000000000000000000000000000000000000000\n        /* \"#utility.yul\":7817:7818   */\n      0x00\n        /* \"#utility.yul\":7810:7898   */\n      mstore\n        /* \"#utility.yul\":7917:7921   */\n      0x11\n        /* \"#utility.yul\":7914:7915   */\n      0x04\n        /* \"#utility.yul\":7907:7922   */\n      mstore\n        /* \"#utility.yul\":7941:7945   */\n      0x24\n        /* \"#utility.yul\":7938:7939   */\n      0x00\n        /* \"#utility.yul\":7931:7946   */\n      revert\n        /* \"#utility.yul\":7958:8191   */\n    tag_78:\n        /* \"#utility.yul\":7997:8000   */\n      0x00\n        /* \"#utility.yul\":8020:8044   */\n      tag_259\n        /* \"#utility.yul\":8038:8043   */\n      dup3\n        /* \"#utility.yul\":8020:8044   */\n      tag_118\n      jump\t// in\n    tag_259:\n        /* \"#utility.yul\":8011:8044   */\n      swap2\n      pop\n        /* \"#utility.yul\":8066:8132   */\n      0xffffffffffffffffffffffffffffffffffffffffffffffffffffffffffffffff\n        /* \"#utility.yul\":8059:8064   */\n      dup3\n        /* \"#utility.yul\":8056:8133   */\n      sub\n        /* \"#utility.yul\":8053:8156   */\n      tag_260\n      jumpi\n        /* \"#utility.yul\":8136:8154   */\n      tag_261\n      tag_142\n      jump\t// in\n    tag_261:\n        /* \"#utility.yul\":8053:8156   */\n    tag_260:\n        /* \"#utility.yul\":8183:8184   */\n      0x01\n        /* \"#utility.yul\":8176:8181   */\n      dup3\n        /* \"#utility.yul\":8172:8185   */\n      add\n        /* \"#utility.yul\":8165:8185   */\n      swap1\n      pop\n        /* \"#utility.yul\":7958:8191   */\n      swap2\n      swap1\n      pop\n      jump\t// out\n        /* \"#utility.yul\":8197:8502   */\n    tag_80:\n        /* \"#utility.yul\":8237:8240   */\n      0x00\n        /* \"#utility.yul\":8256:8276   */\n      tag_263\n        /* \"#utility.yul\":8274:8275   */\n      dup3\n        /* \"#utility.yul\":8256:8276   */\n      tag_118\n      jump\t// in\n    tag_263:\n        /* \"#utility.yul\":8251:8276   */\n      swap2\n      pop\n        /* \"#utility.yul\":8290:8310   */\n      tag_264\n        /* \"#utility.yul\":8308:8309   */\n      dup4\n        /* \"#utility.yul\":8290:8310   */\n      tag_118\n      jump\t// in\n    tag_264:\n        /* \"#utility.yul\":8285:8310   */\n      swap3\n      pop\n        /* \"#utility.yul\":8444:8445   */\n      dup3\n        /* \"#utility.yul\":8376:8442   */\n      0xffffffffffffffffffffffffffffffffffffffffffffffffffffffffffffffff\n        /* \"#utility.yul\":8372:8446   */\n      sub\n        /* \"#utility.yul\":8369:8370   */\n      dup3\n        /* \"#utility.yul\":8366:8447   */\n      gt\n        /* \"#utility.yul\":8363:8470   */\n      iszero\n      tag_265\n      jumpi\n        /* \"#utility.yul\":8450:8468   */\n      tag_266\n      tag_142\n      jump\t// in\n    tag_266:\n        /* \"#utility.yul\":8363:8470   */\n    tag_265:\n        /* \"#utility.yul\":8494:8495   */\n      dup3\n        /* \"#utility.yul\":8491:8492   */\n      dup3\n        /* \"#utility.yul\":8487:8496   */\n      add\n        /* \"#utility.yul\":8480:8496   */\n      swap1\n      pop\n        /* \"#utility.yul\":8197:8502   */\n      swap3\n      swap2\n      pop\n      pop\n      jump\t// out\n        /* \"#utility.yul\":8508:8680   */\n    tag_143:\n        /* \"#utility.yul\":8648:8672   */\n      0x796f75206861766520616c726561647920766f74656400000000000000000000\n        /* \"#utility.yul\":8644:8645   */\n      0x00\n        /* \"#utility.yul\":8636:8642   */\n      dup3\n        /* \"#utility.yul\":8632:8646   */\n      add\n        /* \"#utility.yul\":8625:8673   */\n      mstore\n        /* \"#utility.yul\":8508:8680   */\n      pop\n      jump\t// out\n        /* \"#utility.yul\":8686:9052   */\n    tag_144:\n        /* \"#utility.yul\":8828:8831   */\n      0x00\n        /* \"#utility.yul\":8849:8916   */\n      tag_269\n        /* \"#utility.yul\":8913:8915   */\n      0x16\n        /* \"#utility.yul\":8908:8911   */\n      dup4\n        /* \"#utility.yul\":8849:8916   */\n      tag_123\n      jump\t// in\n    tag_269:\n        /* \"#utility.yul\":8842:8916   */\n      swap2\n      pop\n        /* \"#utility.yul\":8925:9018   */\n      tag_270\n        /* \"#utility.yul\":9014:9017   */\n      dup3\n        /* \"#utility.yul\":8925:9018   */\n      tag_143\n      jump\t// in\n    tag_270:\n        /* \"#utility.yul\":9043:9045   */\n      0x20\n        /* \"#utility.yul\":9038:9041   */\n      dup3\n        /* \"#utility.yul\":9034:9046   */\n      add\n        /* \"#utility.yul\":9027:9046   */\n      swap1\n      pop\n        /* \"#utility.yul\":8686:9052   */\n      swap2\n      swap1\n      pop\n      jump\t// out\n        /* \"#utility.yul\":9058:9477   */\n    tag_87:\n        /* \"#utility.yul\":9224:9228   */\n      0x00\n        /* \"#utility.yul\":9262:9264   */\n      0x20\n        /* \"#utility.yul\":9251:9260   */\n      dup3\n        /* \"#utility.yul\":9247:9265   */\n      add\n        /* \"#utility.yul\":9239:9265   */\n      swap1\n      pop\n        /* \"#utility.yul\":9311:9320   */\n      dup2\n        /* \"#utility.yul\":9305:9309   */\n      dup2\n        /* \"#utility.yul\":9301:9321   */\n      sub\n        /* \"#utility.yul\":9297:9298   */\n      0x00\n        /* \"#utility.yul\":9286:9295   */\n      dup4\n        /* \"#utility.yul\":9282:9299   */\n      add\n        /* \"#utility.yul\":9275:9322   */\n      mstore\n        /* \"#utility.yul\":9339:9470   */\n      tag_272\n        /* \"#utility.yul\":9465:9469   */\n      dup2\n        /* \"#utility.yul\":9339:9470   */\n      tag_144\n      jump\t// in\n    tag_272:\n        /* \"#utility.yul\":9331:9470   */\n      swap1\n      pop\n        /* \"#utility.yul\":9058:9477   */\n      swap2\n      swap1\n      pop\n      jump\t// out\n        /* \"#utility.yul\":9483:9663   */\n    tag_145:\n        /* \"#utility.yul\":9531:9608   */\n      0x4e487b7100000000000000000000000000000000000000000000000000000000\n        /* \"#utility.yul\":9528:9529   */\n      0x00\n        /* \"#utility.yul\":9521:9609   */\n      mstore\n        /* \"#utility.yul\":9628:9632   */\n      0x22\n        /* \"#utility.yul\":9625:9626   */\n      0x04\n        /* \"#utility.yul\":9618:9633   */\n      mstore\n        /* \"#utility.yul\":9652:9656   */\n      0x24\n        /* \"#utility.yul\":9649:9650   */\n      0x00\n        /* \"#utility.yul\":9642:9657   */\n      revert\n        /* \"#utility.yul\":9669:9989   */\n    tag_98:\n        /* \"#utility.yul\":9713:9719   */\n      0x00\n        /* \"#utility.yul\":9750:9751   */\n      0x02\n        /* \"#utility.yul\":9744:9748   */\n      dup3\n        /* \"#utility.yul\":9740:9752   */\n      div\n        /* \"#utility.yul\":9730:9752   */\n      swap1\n      pop\n        /* \"#utility.yul\":9797:9798   */\n      0x01\n        /* \"#utility.yul\":9791:9795   */\n      dup3\n        /* \"#utility.yul\":9787:9799   */\n      and\n        /* \"#utility.yul\":9818:9836   */\n      dup1\n        /* \"#utility.yul\":9808:9889   */\n      tag_275\n      jumpi\n        /* \"#utility.yul\":9874:9878   */\n      0x7f\n        /* \"#utility.yul\":9866:9872   */\n      dup3\n        /* \"#utility.yul\":9862:9879   */\n      and\n        /* \"#utility.yul\":9852:9879   */\n      swap2\n      pop\n        /* \"#utility.yul\":9808:9889   */\n    tag_275:\n        /* \"#utility.yul\":9936:9938   */\n      0x20\n        /* \"#utility.yul\":9928:9934   */\n      dup3\n        /* \"#utility.yul\":9925:9939   */\n      lt\n        /* \"#utility.yul\":9905:9923   */\n      dup2\n        /* \"#utility.yul\":9902:9940   */\n      sub\n        /* \"#utility.yul\":9899:9983   */\n      tag_276\n      jumpi\n        /* \"#utility.yul\":9955:9973   */\n      tag_277\n      tag_145\n      jump\t// in\n    tag_277:\n        /* \"#utility.yul\":9899:9983   */\n    tag_276:\n        /* \"#utility.yul\":9720:9989   */\n      pop\n        /* \"#utility.yul\":9669:9989   */\n      swap2\n      swap1\n      pop\n      jump\t// out\n        /* \"#utility.yul\":9995:10160   */\n    tag_146:\n        /* \"#utility.yul\":10135:10152   */\n      0x6e6f7420746865206d616e656765720000000000000000000000000000000000\n        /* \"#utility.yul\":10131:10132   */\n      0x00\n        /* \"#utility.yul\":10123:10129   */\n      dup3\n        /* \"#utility.yul\":10119:10133   */\n      add\n        /* \"#utility.yul\":10112:10153   */\n      mstore\n        /* \"#utility.yul\":9995:10160   */\n      pop\n      jump\t// out\n        /* \"#utility.yul\":10166:10532   */\n    tag_147:\n        /* \"#utility.yul\":10308:10311   */\n      0x00\n        /* \"#utility.yul\":10329:10396   */\n      tag_280\n        /* \"#utility.yul\":10393:10395   */\n      0x0f\n        /* \"#utility.yul\":10388:10391   */\n      dup4\n        /* \"#utility.yul\":10329:10396   */\n      tag_123\n      jump\t// in\n    tag_280:\n        /* \"#utility.yul\":10322:10396   */\n      swap2\n      pop\n        /* \"#utility.yul\":10405:10498   */\n      tag_281\n        /* \"#utility.yul\":10494:10497   */\n      dup3\n        /* \"#utility.yul\":10405:10498   */\n      tag_146\n      jump\t// in\n    tag_281:\n        /* \"#utility.yul\":10523:10525   */\n      0x20\n        /* \"#utility.yul\":10518:10521   */\n      dup3\n        /* \"#utility.yul\":10514:10526   */\n      add\n        /* \"#utility.yul\":10507:10526   */\n      swap1\n      pop\n        /* \"#utility.yul\":10166:10532   */\n      swap2\n      swap1\n      pop\n      jump\t// out\n        /* \"#utility.yul\":10538:10957   */\n    tag_106:\n        /* \"#utility.yul\":10704:10708   */\n      0x00\n        /* \"#utility.yul\":10742:10744   */\n      0x20\n        /* \"#utility.yul\":10731:10740   */\n      dup3\n        /* \"#utility.yul\":10727:10745   */\n      add\n        /* \"#utility.yul\":10719:10745   */\n      swap1\n      pop\n        /* \"#utility.yul\":10791:10800   */\n      dup2\n        /* \"#utility.yul\":10785:10789   */\n      dup2\n        /* \"#utility.yul\":10781:10801   */\n      sub\n        /* \"#utility.yul\":10777:10778   */\n      0x00\n        /* \"#utility.yul\":10766:10775   */\n      dup4\n        /* \"#utility.yul\":10762:10779   */\n      add\n        /* \"#utility.yul\":10755:10802   */\n      mstore\n        /* \"#utility.yul\":10819:10950   */\n      tag_283\n        /* \"#utility.yul\":10945:10949   */\n      dup2\n        /* \"#utility.yul\":10819:10950   */\n      tag_147\n      jump\t// in\n    tag_283:\n        /* \"#utility.yul\":10811:10950   */\n      swap1\n      pop\n        /* \"#utility.yul\":10538:10957   */\n      swap2\n      swap1\n      pop\n      jump\t// out\n        /* \"#utility.yul\":10963:11104   */\n    tag_148:\n        /* \"#utility.yul\":11012:11016   */\n      0x00\n        /* \"#utility.yul\":11035:11038   */\n      dup2\n        /* \"#utility.yul\":11027:11038   */\n      swap1\n      pop\n        /* \"#utility.yul\":11058:11061   */\n      dup2\n        /* \"#utility.yul\":11055:11056   */\n      0x00\n        /* \"#utility.yul\":11048:11062   */\n      mstore\n        /* \"#utility.yul\":11092:11096   */\n      0x20\n        /* \"#utility.yul\":11089:11090   */\n      0x00\n        /* \"#utility.yul\":11079:11097   */\n      keccak256\n        /* \"#utility.yul\":11071:11097   */\n      swap1\n      pop\n        /* \"#utility.yul\":10963:11104   */\n      swap2\n      swap1\n      pop\n      jump\t// out\n        /* \"#utility.yul\":11110:11203   */\n    tag_149:\n        /* \"#utility.yul\":11147:11153   */\n      0x00\n        /* \"#utility.yul\":11194:11196   */\n      0x20\n        /* \"#utility.yul\":11189:11191   */\n      0x1f\n        /* \"#utility.yul\":11182:11187   */\n      dup4\n        /* \"#utility.yul\":11178:11192   */\n      add\n        /* \"#utility.yul\":11174:11197   */\n      div\n        /* \"#utility.yul\":11164:11197   */\n      swap1\n      pop\n        /* \"#utility.yul\":11110:11203   */\n      swap2\n      swap1\n      pop\n      jump\t// out\n        /* \"#utility.yul\":11209:11316   */\n    tag_150:\n        /* \"#utility.yul\":11253:11261   */\n      0x00\n        /* \"#utility.yul\":11303:11308   */\n      dup3\n        /* \"#utility.yul\":11297:11301   */\n      dup3\n        /* \"#utility.yul\":11293:11309   */\n      shl\n        /* \"#utility.yul\":11272:11309   */\n      swap1\n      pop\n        /* \"#utility.yul\":11209:11316   */\n      swap3\n      swap2\n      pop\n      pop\n      jump\t// out\n        /* \"#utility.yul\":11322:11715   */\n    tag_151:\n        /* \"#utility.yul\":11391:11397   */\n      0x00\n        /* \"#utility.yul\":11441:11442   */\n      0x08\n        /* \"#utility.yul\":11429:11439   */\n      dup4\n        /* \"#utility.yul\":11425:11443   */\n      mul\n        /* \"#utility.yul\":11464:11561   */\n      tag_288\n        /* \"#utility.yul\":11494:11560   */\n      0xffffffffffffffffffffffffffffffffffffffffffffffffffffffffffffffff\n        /* \"#utility.yul\":11483:11492   */\n      dup3\n        /* \"#utility.yul\":11464:11561   */\n      tag_150\n      jump\t// in\n    tag_288:\n        /* \"#utility.yul\":11582:11621   */\n      tag_289\n        /* \"#utility.yul\":11612:11620   */\n      dup7\n        /* \"#utility.yul\":11601:11610   */\n      dup4\n        /* \"#utility.yul\":11582:11621   */\n      tag_150\n      jump\t// in\n    tag_289:\n        /* \"#utility.yul\":11570:11621   */\n      swap6\n      pop\n        /* \"#utility.yul\":11654:11658   */\n      dup1\n        /* \"#utility.yul\":11650:11659   */\n      not\n        /* \"#utility.yul\":11643:11648   */\n      dup5\n        /* \"#utility.yul\":11639:11660   */\n      and\n        /* \"#utility.yul\":11630:11660   */\n      swap4\n      pop\n        /* \"#utility.yul\":11703:11707   */\n      dup1\n        /* \"#utility.yul\":11693:11701   */\n      dup7\n        /* \"#utility.yul\":11689:11708   */\n      and\n        /* \"#utility.yul\":11682:11687   */\n      dup5\n        /* \"#utility.yul\":11679:11709   */\n      or\n        /* \"#utility.yul\":11669:11709   */\n      swap3\n      pop\n        /* \"#utility.yul\":11398:11715   */\n      pop\n      pop\n        /* \"#utility.yul\":11322:11715   */\n      swap4\n      swap3\n      pop\n      pop\n      pop\n      jump\t// out\n        /* \"#utility.yul\":11721:11781   */\n    tag_152:\n        /* \"#utility.yul\":11749:11752   */\n      0x00\n        /* \"#utility.yul\":11770:11775   */\n      dup2\n        /* \"#utility.yul\":11763:11775   */\n      swap1\n      pop\n        /* \"#utility.yul\":11721:11781   */\n      swap2\n      swap1\n      pop\n      jump\t// out\n        /* \"#utility.yul\":11787:11929   */\n    tag_153:\n        /* \"#utility.yul\":11837:11846   */\n      0x00\n        /* \"#utility.yul\":11870:11923   */\n      tag_292\n        /* \"#utility.yul\":11888:11922   */\n      tag_293\n        /* \"#utility.yul\":11897:11921   */\n      tag_294\n        /* \"#utility.yul\":11915:11920   */\n      dup5\n        /* \"#utility.yul\":11897:11921   */\n      tag_118\n      jump\t// in\n    tag_294:\n        /* \"#utility.yul\":11888:11922   */\n      tag_152\n      jump\t// in\n    tag_293:\n        /* \"#utility.yul\":11870:11923   */\n      tag_118\n      jump\t// in\n    tag_292:\n        /* \"#utility.yul\":11857:11923   */\n      swap1\n      pop\n        /* \"#utility.yul\":11787:11929   */\n      swap2\n      swap1\n      pop\n      jump\t// out\n        /* \"#utility.yul\":11935:12010   */\n    tag_154:\n        /* \"#utility.yul\":11978:11981   */\n      0x00\n        /* \"#utility.yul\":11999:12004   */\n      dup2\n        /* \"#utility.yul\":11992:12004   */\n      swap1\n      pop\n        /* \"#utility.yul\":11935:12010   */\n      swap2\n      swap1\n      pop\n      jump\t// out\n        /* \"#utility.yul\":12016:12285   */\n    tag_155:\n        /* \"#utility.yul\":12126:12165   */\n      tag_297\n        /* \"#utility.yul\":12157:12164   */\n      dup4\n        /* \"#utility.yul\":12126:12165   */\n      tag_153\n      jump\t// in\n    tag_297:\n        /* \"#utility.yul\":12187:12278   */\n      tag_298\n        /* \"#utility.yul\":12236:12277   */\n      tag_299\n        /* \"#utility.yul\":12260:12276   */\n      dup3\n        /* \"#utility.yul\":12236:12277   */\n      tag_154\n      jump\t// in\n    tag_299:\n        /* \"#utility.yul\":12228:12234   */\n      dup5\n        /* \"#utility.yul\":12221:12225   */\n      dup5\n        /* \"#utility.yul\":12215:12226   */\n      sload\n        /* \"#utility.yul\":12187:12278   */\n      tag_151\n      jump\t// in\n    tag_298:\n        /* \"#utility.yul\":12181:12185   */\n      dup3\n        /* \"#utility.yul\":12174:12279   */\n      sstore\n        /* \"#utility.yul\":12092:12285   */\n      pop\n        /* \"#utility.yul\":12016:12285   */\n      pop\n      pop\n      pop\n      jump\t// out\n        /* \"#utility.yul\":12291:12364   */\n    tag_156:\n        /* \"#utility.yul\":12336:12339   */\n      0x00\n        /* \"#utility.yul\":12291:12364   */\n      swap1\n      jump\t// out\n        /* \"#utility.yul\":12370:12559   */\n    tag_157:\n        /* \"#utility.yul\":12447:12479   */\n      tag_302\n      tag_156\n      jump\t// in\n    tag_302:\n        /* \"#utility.yul\":12488:12553   */\n      tag_303\n        /* \"#utility.yul\":12546:12552   */\n      dup2\n        /* \"#utility.yul\":12538:12544   */\n      dup5\n        /* \"#utility.yul\":12532:12536   */\n      dup5\n        /* \"#utility.yul\":12488:12553   */\n      tag_155\n      jump\t// in\n    tag_303:\n        /* \"#utility.yul\":12423:12559   */\n      pop\n        /* \"#utility.yul\":12370:12559   */\n      pop\n      pop\n      jump\t// out\n        /* \"#utility.yul\":12565:12751   */\n    tag_158:\n        /* \"#utility.yul\":12625:12745   */\n    tag_305:\n        /* \"#utility.yul\":12642:12645   */\n      dup2\n        /* \"#utility.yul\":12635:12640   */\n      dup2\n        /* \"#utility.yul\":12632:12646   */\n      lt\n        /* \"#utility.yul\":12625:12745   */\n      iszero\n      tag_307\n      jumpi\n        /* \"#utility.yul\":12696:12735   */\n      tag_308\n        /* \"#utility.yul\":12733:12734   */\n      0x00\n        /* \"#utility.yul\":12726:12731   */\n      dup3\n        /* \"#utility.yul\":12696:12735   */\n      tag_157\n      jump\t// in\n    tag_308:\n        /* \"#utility.yul\":12669:12670   */\n      0x01\n        /* \"#utility.yul\":12662:12667   */\n      dup2\n        /* \"#utility.yul\":12658:12671   */\n      add\n        /* \"#utility.yul\":12649:12671   */\n      swap1\n      pop\n        /* \"#utility.yul\":12625:12745   */\n      jump(tag_305)\n    tag_307:\n        /* \"#utility.yul\":12565:12751   */\n      pop\n      pop\n      jump\t// out\n        /* \"#utility.yul\":12757:13300   */\n    tag_159:\n        /* \"#utility.yul\":12858:12860   */\n      0x1f\n        /* \"#utility.yul\":12853:12856   */\n      dup3\n        /* \"#utility.yul\":12850:12861   */\n      gt\n        /* \"#utility.yul\":12847:13293   */\n      iszero\n      tag_310\n      jumpi\n        /* \"#utility.yul\":12892:12930   */\n      tag_311\n        /* \"#utility.yul\":12924:12929   */\n      dup2\n        /* \"#utility.yul\":12892:12930   */\n      tag_148\n      jump\t// in\n    tag_311:\n        /* \"#utility.yul\":12976:13005   */\n      tag_312\n        /* \"#utility.yul\":12994:13004   */\n      dup5\n        /* \"#utility.yul\":12976:13005   */\n      tag_149\n      jump\t// in\n    tag_312:\n        /* \"#utility.yul\":12966:12974   */\n      dup2\n        /* \"#utility.yul\":12962:13006   */\n      add\n        /* \"#utility.yul\":13159:13161   */\n      0x20\n        /* \"#utility.yul\":13147:13157   */\n      dup6\n        /* \"#utility.yul\":13144:13162   */\n      lt\n        /* \"#utility.yul\":13141:13190   */\n      iszero\n      tag_313\n      jumpi\n        /* \"#utility.yul\":13180:13188   */\n      dup2\n        /* \"#utility.yul\":13165:13188   */\n      swap1\n      pop\n        /* \"#utility.yul\":13141:13190   */\n    tag_313:\n        /* \"#utility.yul\":13203:13283   */\n      tag_314\n        /* \"#utility.yul\":13259:13281   */\n      tag_315\n        /* \"#utility.yul\":13277:13280   */\n      dup6\n        /* \"#utility.yul\":13259:13281   */\n      tag_149\n      jump\t// in\n    tag_315:\n        /* \"#utility.yul\":13249:13257   */\n      dup4\n        /* \"#utility.yul\":13245:13282   */\n      add\n        /* \"#utility.yul\":13232:13243   */\n      dup3\n        /* \"#utility.yul\":13203:13283   */\n      tag_158\n      jump\t// in\n    tag_314:\n        /* \"#utility.yul\":12862:13293   */\n      pop\n      pop\n        /* \"#utility.yul\":12847:13293   */\n    tag_310:\n        /* \"#utility.yul\":12757:13300   */\n      pop\n      pop\n      pop\n      jump\t// out\n        /* \"#utility.yul\":13306:13423   */\n    tag_160:\n        /* \"#utility.yul\":13360:13368   */\n      0x00\n        /* \"#utility.yul\":13410:13415   */\n      dup3\n        /* \"#utility.yul\":13404:13408   */\n      dup3\n        /* \"#utility.yul\":13400:13416   */\n      shr\n        /* \"#utility.yul\":13379:13416   */\n      swap1\n      pop\n        /* \"#utility.yul\":13306:13423   */\n      swap3\n      swap2\n      pop\n      pop\n      jump\t// out\n        /* \"#utility.yul\":13429:13598   */\n    tag_161:\n        /* \"#utility.yul\":13473:13479   */\n      0x00\n        /* \"#utility.yul\":13506:13557   */\n      tag_318\n        /* \"#utility.yul\":13554:13555   */\n      0x00\n        /* \"#utility.yul\":13550:13556   */\n      not\n        /* \"#utility.yul\":13542:13547   */\n      dup5\n        /* \"#utility.yul\":13539:13540   */\n      0x08\n        /* \"#utility.yul\":13535:13548   */\n      mul\n        /* \"#utility.yul\":13506:13557   */\n      tag_160\n      jump\t// in\n    tag_318:\n        /* \"#utility.yul\":13502:13558   */\n      not\n        /* \"#utility.yul\":13587:13591   */\n      dup1\n        /* \"#utility.yul\":13581:13585   */\n      dup4\n        /* \"#utility.yul\":13577:13592   */\n      and\n        /* \"#utility.yul\":13567:13592   */\n      swap2\n      pop\n        /* \"#utility.yul\":13480:13598   */\n      pop\n        /* \"#utility.yul\":13429:13598   */\n      swap3\n      swap2\n      pop\n      pop\n      jump\t// out\n        /* \"#utility.yul\":13603:13898   */\n    tag_162:\n        /* \"#utility.yul\":13679:13683   */\n      0x00\n        /* \"#utility.yul\":13825:13854   */\n      tag_320\n        /* \"#utility.yul\":13850:13853   */\n      dup4\n        /* \"#utility.yul\":13844:13848   */\n      dup4\n        /* \"#utility.yul\":13825:13854   */\n      tag_161\n      jump\t// in\n    tag_320:\n        /* \"#utility.yul\":13817:13854   */\n      swap2\n      pop\n        /* \"#utility.yul\":13887:13890   */\n      dup3\n        /* \"#utility.yul\":13884:13885   */\n      0x02\n        /* \"#utility.yul\":13880:13891   */\n      mul\n        /* \"#utility.yul\":13874:13878   */\n      dup3\n        /* \"#utility.yul\":13871:13892   */\n      or\n        /* \"#utility.yul\":13863:13892   */\n      swap1\n      pop\n        /* \"#utility.yul\":13603:13898   */\n      swap3\n      swap2\n      pop\n      pop\n      jump\t// out\n        /* \"#utility.yul\":13903:15298   */\n    tag_110:\n        /* \"#utility.yul\":14020:14057   */\n      tag_322\n        /* \"#utility.yul\":14053:14056   */\n      dup3\n        /* \"#utility.yul\":14020:14057   */\n      tag_122\n      jump\t// in\n    tag_322:\n        /* \"#utility.yul\":14122:14140   */\n      0xffffffffffffffff\n        /* \"#utility.yul\":14114:14120   */\n      dup2\n        /* \"#utility.yul\":14111:14141   */\n      gt\n        /* \"#utility.yul\":14108:14164   */\n      iszero\n      tag_323\n      jumpi\n        /* \"#utility.yul\":14144:14162   */\n      tag_324\n      tag_133\n      jump\t// in\n    tag_324:\n        /* \"#utility.yul\":14108:14164   */\n    tag_323:\n        /* \"#utility.yul\":14188:14226   */\n      tag_325\n        /* \"#utility.yul\":14220:14224   */\n      dup3\n        /* \"#utility.yul\":14214:14225   */\n      sload\n        /* \"#utility.yul\":14188:14226   */\n      tag_98\n      jump\t// in\n    tag_325:\n        /* \"#utility.yul\":14273:14340   */\n      tag_326\n        /* \"#utility.yul\":14333:14339   */\n      dup3\n        /* \"#utility.yul\":14325:14331   */\n      dup3\n        /* \"#utility.yul\":14319:14323   */\n      dup6\n        /* \"#utility.yul\":14273:14340   */\n      tag_159\n      jump\t// in\n    tag_326:\n        /* \"#utility.yul\":14367:14368   */\n      0x00\n        /* \"#utility.yul\":14391:14395   */\n      0x20\n        /* \"#utility.yul\":14378:14395   */\n      swap1\n      pop\n        /* \"#utility.yul\":14423:14425   */\n      0x1f\n        /* \"#utility.yul\":14415:14421   */\n      dup4\n        /* \"#utility.yul\":14412:14426   */\n      gt\n        /* \"#utility.yul\":14440:14441   */\n      0x01\n        /* \"#utility.yul\":14435:15053   */\n      dup2\n      eq\n      tag_328\n      jumpi\n        /* \"#utility.yul\":15097:15098   */\n      0x00\n        /* \"#utility.yul\":15114:15120   */\n      dup5\n        /* \"#utility.yul\":15111:15188   */\n      iszero\n      tag_329\n      jumpi\n        /* \"#utility.yul\":15163:15172   */\n      dup3\n        /* \"#utility.yul\":15158:15161   */\n      dup8\n        /* \"#utility.yul\":15154:15173   */\n      add\n        /* \"#utility.yul\":15148:15174   */\n      mload\n        /* \"#utility.yul\":15139:15174   */\n      swap1\n      pop\n        /* \"#utility.yul\":15111:15188   */\n    tag_329:\n        /* \"#utility.yul\":15214:15281   */\n      tag_330\n        /* \"#utility.yul\":15274:15280   */\n      dup6\n        /* \"#utility.yul\":15267:15272   */\n      dup3\n        /* \"#utility.yul\":15214:15281   */\n      tag_162\n      jump\t// in\n    tag_330:\n        /* \"#utility.yul\":15208:15212   */\n      dup7\n        /* \"#utility.yul\":15201:15282   */\n      sstore\n        /* \"#utility.yul\":15070:15292   */\n      pop\n        /* \"#utility.yul\":14405:15292   */\n      jump(tag_327)\n        /* \"#utility.yul\":14435:15053   */\n    tag_328:\n        /* \"#utility.yul\":14487:14491   */\n      0x1f\n        /* \"#utility.yul\":14483:14492   */\n      not\n        /* \"#utility.yul\":14475:14481   */\n      dup5\n        /* \"#utility.yul\":14471:14493   */\n      and\n        /* \"#utility.yul\":14521:14558   */\n      tag_331\n        /* \"#utility.yul\":14553:14557   */\n      dup7\n        /* \"#utility.yul\":14521:14558   */\n      tag_148\n      jump\t// in\n    tag_331:\n        /* \"#utility.yul\":14580:14581   */\n      0x00\n        /* \"#utility.yul\":14594:14802   */\n    tag_332:\n        /* \"#utility.yul\":14608:14615   */\n      dup3\n        /* \"#utility.yul\":14605:14606   */\n      dup2\n        /* \"#utility.yul\":14602:14616   */\n      lt\n        /* \"#utility.yul\":14594:14802   */\n      iszero\n      tag_334\n      jumpi\n        /* \"#utility.yul\":14687:14696   */\n      dup5\n        /* \"#utility.yul\":14682:14685   */\n      dup10\n        /* \"#utility.yul\":14678:14697   */\n      add\n        /* \"#utility.yul\":14672:14698   */\n      mload\n        /* \"#utility.yul\":14664:14670   */\n      dup3\n        /* \"#utility.yul\":14657:14699   */\n      sstore\n        /* \"#utility.yul\":14738:14739   */\n      0x01\n        /* \"#utility.yul\":14730:14736   */\n      dup3\n        /* \"#utility.yul\":14726:14740   */\n      add\n        /* \"#utility.yul\":14716:14740   */\n      swap2\n      pop\n        /* \"#utility.yul\":14785:14787   */\n      0x20\n        /* \"#utility.yul\":14774:14783   */\n      dup6\n        /* \"#utility.yul\":14770:14788   */\n      add\n        /* \"#utility.yul\":14757:14788   */\n      swap5\n      pop\n        /* \"#utility.yul\":14631:14635   */\n      0x20\n        /* \"#utility.yul\":14628:14629   */\n      dup2\n        /* \"#utility.yul\":14624:14636   */\n      add\n        /* \"#utility.yul\":14619:14636   */\n      swap1\n      pop\n        /* \"#utility.yul\":14594:14802   */\n      jump(tag_332)\n    tag_334:\n        /* \"#utility.yul\":14830:14836   */\n      dup7\n        /* \"#utility.yul\":14821:14828   */\n      dup4\n        /* \"#utility.yul\":14818:14837   */\n      lt\n        /* \"#utility.yul\":14815:14994   */\n      iszero\n      tag_335\n      jumpi\n        /* \"#utility.yul\":14888:14897   */\n      dup5\n        /* \"#utility.yul\":14883:14886   */\n      dup10\n        /* \"#utility.yul\":14879:14898   */\n      add\n        /* \"#utility.yul\":14873:14899   */\n      mload\n        /* \"#utility.yul\":14931:14979   */\n      tag_336\n        /* \"#utility.yul\":14973:14977   */\n      0x1f\n        /* \"#utility.yul\":14965:14971   */\n      dup10\n        /* \"#utility.yul\":14961:14978   */\n      and\n        /* \"#utility.yul\":14950:14959   */\n      dup3\n        /* \"#utility.yul\":14931:14979   */\n      tag_161\n      jump\t// in\n    tag_336:\n        /* \"#utility.yul\":14923:14929   */\n      dup4\n        /* \"#utility.yul\":14916:14980   */\n      sstore\n        /* \"#utility.yul\":14838:14994   */\n      pop\n        /* \"#utility.yul\":14815:14994   */\n    tag_335:\n        /* \"#utility.yul\":15040:15041   */\n      0x01\n        /* \"#utility.yul\":15036:15037   */\n      0x02\n        /* \"#utility.yul\":15028:15034   */\n      dup9\n        /* \"#utility.yul\":15024:15038   */\n      mul\n        /* \"#utility.yul\":15020:15042   */\n      add\n        /* \"#utility.yul\":15014:15018   */\n      dup9\n        /* \"#utility.yul\":15007:15043   */\n      sstore\n        /* \"#utility.yul\":14442:15053   */\n      pop\n      pop\n      pop\n        /* \"#utility.yul\":14405:15292   */\n    tag_327:\n      pop\n        /* \"#utility.yul\":13995:15298   */\n      pop\n      pop\n      pop\n        /* \"#utility.yul\":13903:15298   */\n      pop\n      pop\n      jump\t// out\n\n    auxdata: 0xa264697066735822122092f6c0aafbe87cb07f3dc4bbc7d8cdd53b0875b4c50bcfa1fe59da438527b15264736f6c634300080f0033\n}\n",
				"bytecode": {
					"linkReferences": {},
					"object": "60806040523480156200001157600080fd5b506040516200140b3803806200140b8339818101604052810190620000379190620000e3565b8160038190555080426200004c919062000159565b600481905550600a60028190555033600160006101000a81548173ffffffffffffffffffffffffffffffffffffffff021916908373ffffffffffffffffffffffffffffffffffffffff1602179055505050620001b6565b600080fd5b6000819050919050565b620000bd81620000a8565b8114620000c957600080fd5b50565b600081519050620000dd81620000b2565b92915050565b60008060408385031215620000fd57620000fc620000a3565b5b60006200010d85828601620000cc565b92505060206200012085828601620000cc565b9150509250929050565b7f4e487b7100000000000000000000000000000000000000000000000000000000600052601160045260246000fd5b60006200016682620000a8565b91506200017383620000a8565b9250827fffffffffffffffffffffffffffffffffffffffffffffffffffffffffffffffff03821115620001ab57620001aa6200012a565b5b828201905092915050565b61124580620001c66000396000f3fe6080604052600436106100c25760003560e01c8063590e1ae31161007f578063b5fdcfa311610059578063b5fdcfa314610239578063b6290e7614610262578063c59ee1dc1461028d578063d4b83992146102b8576100c2565b8063590e1ae3146101b6578063728d545f146101cd5780639bf4ec2f146101f8576100c2565b806306e99fef146100c75780631f6d4942146100d157806325caa2621461010e57806329dcb0cf146101395780634cb6f4a5146101645780635114cb521461018d575b600080fd5b6100cf6102e3565b005b3480156100dd57600080fd5b506100f860048036038101906100f391906109d3565b6103cf565b6040516101059190610a19565b60405180910390f35b34801561011a57600080fd5b506101236103e7565b6040516101309190610a19565b60405180910390f35b34801561014557600080fd5b5061014e6103ef565b60405161015b9190610a19565b60405180910390f35b34801561017057600080fd5b5061018b60048036038101906101869190610a60565b6103f5565b005b34801561019957600080fd5b506101b460048036038101906101af9190610a60565b610564565b005b3480156101c257600080fd5b506101cb6105d9565b005b3480156101d957600080fd5b506101e2610712565b6040516101ef9190610a19565b60405180910390f35b34801561020457600080fd5b5061021f600480360381019061021a9190610a60565b610718565b604051610230959493929190610b62565b60405180910390f35b34801561024557600080fd5b50610260600480360381019061025b9190610d1d565b610803565b005b34801561026e57600080fd5b5061027761094f565b6040516102849190610a19565b60405180910390f35b34801561029957600080fd5b506102a2610955565b6040516102af9190610a19565b60405180910390f35b3480156102c457600080fd5b506102cd61095b565b6040516102da9190610a19565b60405180910390f35b60045442106102f157600080fd5b60025434101561030057600080fd5b60008060003373ffffffffffffffffffffffffffffffffffffffff1673ffffffffffffffffffffffffffffffffffffffff168152602001908152602001600020540361035f576005600081548092919061035990610dbb565b91905055505b346000803373ffffffffffffffffffffffffffffffffffffffff1673ffffffffffffffffffffffffffffffffffffffff16815260200190815260200160002060008282546103ad9190610e03565b9250508190555034600660008282546103c69190610e03565b92505081905550565b60006020528060005260406000206000915090505481565b600047905090565b60045481565b60008060003373ffffffffffffffffffffffffffffffffffffffff1673ffffffffffffffffffffffffffffffffffffffff168152602001908152602001600020541161044057600080fd5b6000600760008381526020019081526020016000209050600015158160050160003373ffffffffffffffffffffffffffffffffffffffff1673ffffffffffffffffffffffffffffffffffffffff16815260200190815260200160002060009054906101000a900460ff161515146104ec576040517f08c379a00000000000000000000000000000000000000000000000000000000081526004016104e390610ea5565b60405180910390fd5b80600401600081548092919061050190610dbb565b919050555060018160050160003373ffffffffffffffffffffffffffffffffffffffff1673ffffffffffffffffffffffffffffffffffffffff16815260200190815260200160002060006101000a81548160ff0219169083151502179055505050565b600160009054906101000a900473ffffffffffffffffffffffffffffffffffffffff1673ffffffffffffffffffffffffffffffffffffffff163373ffffffffffffffffffffffffffffffffffffffff16146105be57600080fd5b60006007600083815260200190815260200160002090505050565b600454421080156105ed5750600354600654105b6105f657600080fd5b60008060003373ffffffffffffffffffffffffffffffffffffffff1673ffffffffffffffffffffffffffffffffffffffff168152602001908152602001600020541161064157600080fd5b60003390508073ffffffffffffffffffffffffffffffffffffffff166108fc6000803373ffffffffffffffffffffffffffffffffffffffff1673ffffffffffffffffffffffffffffffffffffffff168152602001908152602001600020549081150290604051600060405180830381858888f193505050501580156106ca573d6000803e3d6000fd5b5060008060003373ffffffffffffffffffffffffffffffffffffffff1673ffffffffffffffffffffffffffffffffffffffff1681526020019081526020016000208190555050565b60025481565b600760205280600052604060002060009150905080600001805461073b90610ef4565b80601f016020809104026020016040519081016040528092919081815260200182805461076790610ef4565b80156107b45780601f10610789576101008083540402835291602001916107b4565b820191906000526020600020905b81548152906001019060200180831161079757829003601f168201915b5050505050908060010160009054906101000a900473ffffffffffffffffffffffffffffffffffffffff16908060020154908060030160009054906101000a900460ff16908060040154905085565b600160009054906101000a900473ffffffffffffffffffffffffffffffffffffffff1673ffffffffffffffffffffffffffffffffffffffff163373ffffffffffffffffffffffffffffffffffffffff1614610893576040517f08c379a000000000000000000000000000000000000000000000000000000000815260040161088a90610f71565b60405180910390fd5b60006007600060085481526020019081526020016000209050600860008154809291906108bf90610dbb565b9190505550838160000190816108d5919061113d565b50828160010160006101000a81548173ffffffffffffffffffffffffffffffffffffffff021916908373ffffffffffffffffffffffffffffffffffffffff16021790555081816002018190555060008160030160006101000a81548160ff0219169083151502179055506000816004018190555050505050565b60085481565b60065481565b60035481565b6000604051905090565b600080fd5b600080fd5b600073ffffffffffffffffffffffffffffffffffffffff82169050919050565b60006109a082610975565b9050919050565b6109b081610995565b81146109bb57600080fd5b50565b6000813590506109cd816109a7565b92915050565b6000602082840312156109e9576109e861096b565b5b60006109f7848285016109be565b91505092915050565b6000819050919050565b610a1381610a00565b82525050565b6000602082019050610a2e6000830184610a0a565b92915050565b610a3d81610a00565b8114610a4857600080fd5b50565b600081359050610a5a81610a34565b92915050565b600060208284031215610a7657610a7561096b565b5b6000610a8484828501610a4b565b91505092915050565b600081519050919050565b600082825260208201905092915050565b60005b83811015610ac7578082015181840152602081019050610aac565b83811115610ad6576000848401525b50505050565b6000601f19601f8301169050919050565b6000610af882610a8d565b610b028185610a98565b9350610b12818560208601610aa9565b610b1b81610adc565b840191505092915050565b6000610b3182610975565b9050919050565b610b4181610b26565b82525050565b60008115159050919050565b610b5c81610b47565b82525050565b600060a0820190508181036000830152610b7c8188610aed565b9050610b8b6020830187610b38565b610b986040830186610a0a565b610ba56060830185610b53565b610bb26080830184610a0a565b9695505050505050565b600080fd5b600080fd5b7f4e487b7100000000000000000000000000000000000000000000000000000000600052604160045260246000fd5b610bfe82610adc565b810181811067ffffffffffffffff82111715610c1d57610c1c610bc6565b5b80604052505050565b6000610c30610961565b9050610c3c8282610bf5565b919050565b600067ffffffffffffffff821115610c5c57610c5b610bc6565b5b610c6582610adc565b9050602081019050919050565b82818337600083830152505050565b6000610c94610c8f84610c41565b610c26565b905082815260208101848484011115610cb057610caf610bc1565b5b610cbb848285610c72565b509392505050565b600082601f830112610cd857610cd7610bbc565b5b8135610ce8848260208601610c81565b91505092915050565b610cfa81610b26565b8114610d0557600080fd5b50565b600081359050610d1781610cf1565b92915050565b600080600060608486031215610d3657610d3561096b565b5b600084013567ffffffffffffffff811115610d5457610d53610970565b5b610d6086828701610cc3565b9350506020610d7186828701610d08565b9250506040610d8286828701610a4b565b9150509250925092565b7f4e487b7100000000000000000000000000000000000000000000000000000000600052601160045260246000fd5b6000610dc682610a00565b91507fffffffffffffffffffffffffffffffffffffffffffffffffffffffffffffffff8203610df857610df7610d8c565b5b600182019050919050565b6000610e0e82610a00565b9150610e1983610a00565b9250827fffffffffffffffffffffffffffffffffffffffffffffffffffffffffffffffff03821115610e4e57610e4d610d8c565b5b828201905092915050565b7f796f75206861766520616c726561647920766f74656400000000000000000000600082015250565b6000610e8f601683610a98565b9150610e9a82610e59565b602082019050919050565b60006020820190508181036000830152610ebe81610e82565b9050919050565b7f4e487b7100000000000000000000000000000000000000000000000000000000600052602260045260246000fd5b60006002820490506001821680610f0c57607f821691505b602082108103610f1f57610f1e610ec5565b5b50919050565b7f6e6f7420746865206d616e656765720000000000000000000000000000000000600082015250565b6000610f5b600f83610a98565b9150610f6682610f25565b602082019050919050565b60006020820190508181036000830152610f8a81610f4e565b9050919050565b60008190508160005260206000209050919050565b60006020601f8301049050919050565b600082821b905092915050565b600060088302610ff37fffffffffffffffffffffffffffffffffffffffffffffffffffffffffffffffff82610fb6565b610ffd8683610fb6565b95508019841693508086168417925050509392505050565b6000819050919050565b600061103a61103561103084610a00565b611015565b610a00565b9050919050565b6000819050919050565b6110548361101f565b61106861106082611041565b848454610fc3565b825550505050565b600090565b61107d611070565b61108881848461104b565b505050565b5b818110156110ac576110a1600082611075565b60018101905061108e565b5050565b601f8211156110f1576110c281610f91565b6110cb84610fa6565b810160208510156110da578190505b6110ee6110e685610fa6565b83018261108d565b50505b505050565b600082821c905092915050565b6000611114600019846008026110f6565b1980831691505092915050565b600061112d8383611103565b9150826002028217905092915050565b61114682610a8d565b67ffffffffffffffff81111561115f5761115e610bc6565b5b6111698254610ef4565b6111748282856110b0565b600060209050601f8311600181146111a75760008415611195578287015190505b61119f8582611121565b865550611207565b601f1984166111b586610f91565b60005b828110156111dd578489015182556001820191506020850194506020810190506111b8565b868310156111fa57848901516111f6601f891682611103565b8355505b6001600288020188555050505b50505050505056fea264697066735822122092f6c0aafbe87cb07f3dc4bbc7d8cdd53b0875b4c50bcfa1fe59da438527b15264736f6c634300080f0033",
					"opcodes": "PUSH1 0x80 PUSH1 0x40 MSTORE CALLVALUE DUP1 ISZERO PUSH3 0x11 JUMPI PUSH1 0x0 DUP1 REVERT JUMPDEST POP PUSH1 0x40 MLOAD PUSH3 0x140B CODESIZE SUB DUP1 PUSH3 0x140B DUP4 CODECOPY DUP2 DUP2 ADD PUSH1 0x40 MSTORE DUP2 ADD SWAP1 PUSH3 0x37 SWAP2 SWAP1 PUSH3 0xE3 JUMP JUMPDEST DUP2 PUSH1 0x3 DUP2 SWAP1 SSTORE POP DUP1 TIMESTAMP PUSH3 0x4C SWAP2 SWAP1 PUSH3 0x159 JUMP JUMPDEST PUSH1 0x4 DUP2 SWAP1 SSTORE POP PUSH1 0xA PUSH1 0x2 DUP2 SWAP1 SSTORE POP CALLER PUSH1 0x1 PUSH1 0x0 PUSH2 0x100 EXP DUP2 SLOAD DUP2 PUSH20 0xFFFFFFFFFFFFFFFFFFFFFFFFFFFFFFFFFFFFFFFF MUL NOT AND SWAP1 DUP4 PUSH20 0xFFFFFFFFFFFFFFFFFFFFFFFFFFFFFFFFFFFFFFFF AND MUL OR SWAP1 SSTORE POP POP POP PUSH3 0x1B6 JUMP JUMPDEST PUSH1 0x0 DUP1 REVERT JUMPDEST PUSH1 0x0 DUP2 SWAP1 POP SWAP2 SWAP1 POP JUMP JUMPDEST PUSH3 0xBD DUP2 PUSH3 0xA8 JUMP JUMPDEST DUP2 EQ PUSH3 0xC9 JUMPI PUSH1 0x0 DUP1 REVERT JUMPDEST POP JUMP JUMPDEST PUSH1 0x0 DUP2 MLOAD SWAP1 POP PUSH3 0xDD DUP2 PUSH3 0xB2 JUMP JUMPDEST SWAP3 SWAP2 POP POP JUMP JUMPDEST PUSH1 0x0 DUP1 PUSH1 0x40 DUP4 DUP6 SUB SLT ISZERO PUSH3 0xFD JUMPI PUSH3 0xFC PUSH3 0xA3 JUMP JUMPDEST JUMPDEST PUSH1 0x0 PUSH3 0x10D DUP6 DUP3 DUP7 ADD PUSH3 0xCC JUMP JUMPDEST SWAP3 POP POP PUSH1 0x20 PUSH3 0x120 DUP6 DUP3 DUP7 ADD PUSH3 0xCC JUMP JUMPDEST SWAP2 POP POP SWAP3 POP SWAP3 SWAP1 POP JUMP JUMPDEST PUSH32 0x4E487B7100000000000000000000000000000000000000000000000000000000 PUSH1 0x0 MSTORE PUSH1 0x11 PUSH1 0x4 MSTORE PUSH1 0x24 PUSH1 0x0 REVERT JUMPDEST PUSH1 0x0 PUSH3 0x166 DUP3 PUSH3 0xA8 JUMP JUMPDEST SWAP2 POP PUSH3 0x173 DUP4 PUSH3 0xA8 JUMP JUMPDEST SWAP3 POP DUP3 PUSH32 0xFFFFFFFFFFFFFFFFFFFFFFFFFFFFFFFFFFFFFFFFFFFFFFFFFFFFFFFFFFFFFFFF SUB DUP3 GT ISZERO PUSH3 0x1AB JUMPI PUSH3 0x1AA PUSH3 0x12A JUMP JUMPDEST JUMPDEST DUP3 DUP3 ADD SWAP1 POP SWAP3 SWAP2 POP POP JUMP JUMPDEST PUSH2 0x1245 DUP1 PUSH3 0x1C6 PUSH1 0x0 CODECOPY PUSH1 0x0 RETURN INVALID PUSH1 0x80 PUSH1 0x40 MSTORE PUSH1 0x4 CALLDATASIZE LT PUSH2 0xC2 JUMPI PUSH1 0x0 CALLDATALOAD PUSH1 0xE0 SHR DUP1 PUSH4 0x590E1AE3 GT PUSH2 0x7F JUMPI DUP1 PUSH4 0xB5FDCFA3 GT PUSH2 0x59 JUMPI DUP1 PUSH4 0xB5FDCFA3 EQ PUSH2 0x239 JUMPI DUP1 PUSH4 0xB6290E76 EQ PUSH2 0x262 JUMPI DUP1 PUSH4 0xC59EE1DC EQ PUSH2 0x28D JUMPI DUP1 PUSH4 0xD4B83992 EQ PUSH2 0x2B8 JUMPI PUSH2 0xC2 JUMP JUMPDEST DUP1 PUSH4 0x590E1AE3 EQ PUSH2 0x1B6 JUMPI DUP1 PUSH4 0x728D545F EQ PUSH2 0x1CD JUMPI DUP1 PUSH4 0x9BF4EC2F EQ PUSH2 0x1F8 JUMPI PUSH2 0xC2 JUMP JUMPDEST DUP1 PUSH4 0x6E99FEF EQ PUSH2 0xC7 JUMPI DUP1 PUSH4 0x1F6D4942 EQ PUSH2 0xD1 JUMPI DUP1 PUSH4 0x25CAA262 EQ PUSH2 0x10E JUMPI DUP1 PUSH4 0x29DCB0CF EQ PUSH2 0x139 JUMPI DUP1 PUSH4 0x4CB6F4A5 EQ PUSH2 0x164 JUMPI DUP1 PUSH4 0x5114CB52 EQ PUSH2 0x18D JUMPI JUMPDEST PUSH1 0x0 DUP1 REVERT JUMPDEST PUSH2 0xCF PUSH2 0x2E3 JUMP JUMPDEST STOP JUMPDEST CALLVALUE DUP1 ISZERO PUSH2 0xDD JUMPI PUSH1 0x0 DUP1 REVERT JUMPDEST POP PUSH2 0xF8 PUSH1 0x4 DUP1 CALLDATASIZE SUB DUP2 ADD SWAP1 PUSH2 0xF3 SWAP2 SWAP1 PUSH2 0x9D3 JUMP JUMPDEST PUSH2 0x3CF JUMP JUMPDEST PUSH1 0x40 MLOAD PUSH2 0x105 SWAP2 SWAP1 PUSH2 0xA19 JUMP JUMPDEST PUSH1 0x40 MLOAD DUP1 SWAP2 SUB SWAP1 RETURN JUMPDEST CALLVALUE DUP1 ISZERO PUSH2 0x11A JUMPI PUSH1 0x0 DUP1 REVERT JUMPDEST POP PUSH2 0x123 PUSH2 0x3E7 JUMP JUMPDEST PUSH1 0x40 MLOAD PUSH2 0x130 SWAP2 SWAP1 PUSH2 0xA19 JUMP JUMPDEST PUSH1 0x40 MLOAD DUP1 SWAP2 SUB SWAP1 RETURN JUMPDEST CALLVALUE DUP1 ISZERO PUSH2 0x145 JUMPI PUSH1 0x0 DUP1 REVERT JUMPDEST POP PUSH2 0x14E PUSH2 0x3EF JUMP JUMPDEST PUSH1 0x40 MLOAD PUSH2 0x15B SWAP2 SWAP1 PUSH2 0xA19 JUMP JUMPDEST PUSH1 0x40 MLOAD DUP1 SWAP2 SUB SWAP1 RETURN JUMPDEST CALLVALUE DUP1 ISZERO PUSH2 0x170 JUMPI PUSH1 0x0 DUP1 REVERT JUMPDEST POP PUSH2 0x18B PUSH1 0x4 DUP1 CALLDATASIZE SUB DUP2 ADD SWAP1 PUSH2 0x186 SWAP2 SWAP1 PUSH2 0xA60 JUMP JUMPDEST PUSH2 0x3F5 JUMP JUMPDEST STOP JUMPDEST CALLVALUE DUP1 ISZERO PUSH2 0x199 JUMPI PUSH1 0x0 DUP1 REVERT JUMPDEST POP PUSH2 0x1B4 PUSH1 0x4 DUP1 CALLDATASIZE SUB DUP2 ADD SWAP1 PUSH2 0x1AF SWAP2 SWAP1 PUSH2 0xA60 JUMP JUMPDEST PUSH2 0x564 JUMP JUMPDEST STOP JUMPDEST CALLVALUE DUP1 ISZERO PUSH2 0x1C2 JUMPI PUSH1 0x0 DUP1 REVERT JUMPDEST POP PUSH2 0x1CB PUSH2 0x5D9 JUMP JUMPDEST STOP JUMPDEST CALLVALUE DUP1 ISZERO PUSH2 0x1D9 JUMPI PUSH1 0x0 DUP1 REVERT JUMPDEST POP PUSH2 0x1E2 PUSH2 0x712 JUMP JUMPDEST PUSH1 0x40 MLOAD PUSH2 0x1EF SWAP2 SWAP1 PUSH2 0xA19 JUMP JUMPDEST PUSH1 0x40 MLOAD DUP1 SWAP2 SUB SWAP1 RETURN JUMPDEST CALLVALUE DUP1 ISZERO PUSH2 0x204 JUMPI PUSH1 0x0 DUP1 REVERT JUMPDEST POP PUSH2 0x21F PUSH1 0x4 DUP1 CALLDATASIZE SUB DUP2 ADD SWAP1 PUSH2 0x21A SWAP2 SWAP1 PUSH2 0xA60 JUMP JUMPDEST PUSH2 0x718 JUMP JUMPDEST PUSH1 0x40 MLOAD PUSH2 0x230 SWAP6 SWAP5 SWAP4 SWAP3 SWAP2 SWAP1 PUSH2 0xB62 JUMP JUMPDEST PUSH1 0x40 MLOAD DUP1 SWAP2 SUB SWAP1 RETURN JUMPDEST CALLVALUE DUP1 ISZERO PUSH2 0x245 JUMPI PUSH1 0x0 DUP1 REVERT JUMPDEST POP PUSH2 0x260 PUSH1 0x4 DUP1 CALLDATASIZE SUB DUP2 ADD SWAP1 PUSH2 0x25B SWAP2 SWAP1 PUSH2 0xD1D JUMP JUMPDEST PUSH2 0x803 JUMP JUMPDEST STOP JUMPDEST CALLVALUE DUP1 ISZERO PUSH2 0x26E JUMPI PUSH1 0x0 DUP1 REVERT JUMPDEST POP PUSH2 0x277 PUSH2 0x94F JUMP JUMPDEST PUSH1 0x40 MLOAD PUSH2 0x284 SWAP2 SWAP1 PUSH2 0xA19 JUMP JUMPDEST PUSH1 0x40 MLOAD DUP1 SWAP2 SUB SWAP1 RETURN JUMPDEST CALLVALUE DUP1 ISZERO PUSH2 0x299 JUMPI PUSH1 0x0 DUP1 REVERT JUMPDEST POP PUSH2 0x2A2 PUSH2 0x955 JUMP JUMPDEST PUSH1 0x40 MLOAD PUSH2 0x2AF SWAP2 SWAP1 PUSH2 0xA19 JUMP JUMPDEST PUSH1 0x40 MLOAD DUP1 SWAP2 SUB SWAP1 RETURN JUMPDEST CALLVALUE DUP1 ISZERO PUSH2 0x2C4 JUMPI PUSH1 0x0 DUP1 REVERT JUMPDEST POP PUSH2 0x2CD PUSH2 0x95B JUMP JUMPDEST PUSH1 0x40 MLOAD PUSH2 0x2DA SWAP2 SWAP1 PUSH2 0xA19 JUMP JUMPDEST PUSH1 0x40 MLOAD DUP1 SWAP2 SUB SWAP1 RETURN JUMPDEST PUSH1 0x4 SLOAD TIMESTAMP LT PUSH2 0x2F1 JUMPI PUSH1 0x0 DUP1 REVERT JUMPDEST PUSH1 0x2 SLOAD CALLVALUE LT ISZERO PUSH2 0x300 JUMPI PUSH1 0x0 DUP1 REVERT JUMPDEST PUSH1 0x0 DUP1 PUSH1 0x0 CALLER PUSH20 0xFFFFFFFFFFFFFFFFFFFFFFFFFFFFFFFFFFFFFFFF AND PUSH20 0xFFFFFFFFFFFFFFFFFFFFFFFFFFFFFFFFFFFFFFFF AND DUP2 MSTORE PUSH1 0x20 ADD SWAP1 DUP2 MSTORE PUSH1 0x20 ADD PUSH1 0x0 KECCAK256 SLOAD SUB PUSH2 0x35F JUMPI PUSH1 0x5 PUSH1 0x0 DUP2 SLOAD DUP1 SWAP3 SWAP2 SWAP1 PUSH2 0x359 SWAP1 PUSH2 0xDBB JUMP JUMPDEST SWAP2 SWAP1 POP SSTORE POP JUMPDEST CALLVALUE PUSH1 0x0 DUP1 CALLER PUSH20 0xFFFFFFFFFFFFFFFFFFFFFFFFFFFFFFFFFFFFFFFF AND PUSH20 0xFFFFFFFFFFFFFFFFFFFFFFFFFFFFFFFFFFFFFFFF AND DUP2 MSTORE PUSH1 0x20 ADD SWAP1 DUP2 MSTORE PUSH1 0x20 ADD PUSH1 0x0 KECCAK256 PUSH1 0x0 DUP3 DUP3 SLOAD PUSH2 0x3AD SWAP2 SWAP1 PUSH2 0xE03 JUMP JUMPDEST SWAP3 POP POP DUP2 SWAP1 SSTORE POP CALLVALUE PUSH1 0x6 PUSH1 0x0 DUP3 DUP3 SLOAD PUSH2 0x3C6 SWAP2 SWAP1 PUSH2 0xE03 JUMP JUMPDEST SWAP3 POP POP DUP2 SWAP1 SSTORE POP JUMP JUMPDEST PUSH1 0x0 PUSH1 0x20 MSTORE DUP1 PUSH1 0x0 MSTORE PUSH1 0x40 PUSH1 0x0 KECCAK256 PUSH1 0x0 SWAP2 POP SWAP1 POP SLOAD DUP2 JUMP JUMPDEST PUSH1 0x0 SELFBALANCE SWAP1 POP SWAP1 JUMP JUMPDEST PUSH1 0x4 SLOAD DUP2 JUMP JUMPDEST PUSH1 0x0 DUP1 PUSH1 0x0 CALLER PUSH20 0xFFFFFFFFFFFFFFFFFFFFFFFFFFFFFFFFFFFFFFFF AND PUSH20 0xFFFFFFFFFFFFFFFFFFFFFFFFFFFFFFFFFFFFFFFF AND DUP2 MSTORE PUSH1 0x20 ADD SWAP1 DUP2 MSTORE PUSH1 0x20 ADD PUSH1 0x0 KECCAK256 SLOAD GT PUSH2 0x440 JUMPI PUSH1 0x0 DUP1 REVERT JUMPDEST PUSH1 0x0 PUSH1 0x7 PUSH1 0x0 DUP4 DUP2 MSTORE PUSH1 0x20 ADD SWAP1 DUP2 MSTORE PUSH1 0x20 ADD PUSH1 0x0 KECCAK256 SWAP1 POP PUSH1 0x0 ISZERO ISZERO DUP2 PUSH1 0x5 ADD PUSH1 0x0 CALLER PUSH20 0xFFFFFFFFFFFFFFFFFFFFFFFFFFFFFFFFFFFFFFFF AND PUSH20 0xFFFFFFFFFFFFFFFFFFFFFFFFFFFFFFFFFFFFFFFF AND DUP2 MSTORE PUSH1 0x20 ADD SWAP1 DUP2 MSTORE PUSH1 0x20 ADD PUSH1 0x0 KECCAK256 PUSH1 0x0 SWAP1 SLOAD SWAP1 PUSH2 0x100 EXP SWAP1 DIV PUSH1 0xFF AND ISZERO ISZERO EQ PUSH2 0x4EC JUMPI PUSH1 0x40 MLOAD PUSH32 0x8C379A000000000000000000000000000000000000000000000000000000000 DUP2 MSTORE PUSH1 0x4 ADD PUSH2 0x4E3 SWAP1 PUSH2 0xEA5 JUMP JUMPDEST PUSH1 0x40 MLOAD DUP1 SWAP2 SUB SWAP1 REVERT JUMPDEST DUP1 PUSH1 0x4 ADD PUSH1 0x0 DUP2 SLOAD DUP1 SWAP3 SWAP2 SWAP1 PUSH2 0x501 SWAP1 PUSH2 0xDBB JUMP JUMPDEST SWAP2 SWAP1 POP SSTORE POP PUSH1 0x1 DUP2 PUSH1 0x5 ADD PUSH1 0x0 CALLER PUSH20 0xFFFFFFFFFFFFFFFFFFFFFFFFFFFFFFFFFFFFFFFF AND PUSH20 0xFFFFFFFFFFFFFFFFFFFFFFFFFFFFFFFFFFFFFFFF AND DUP2 MSTORE PUSH1 0x20 ADD SWAP1 DUP2 MSTORE PUSH1 0x20 ADD PUSH1 0x0 KECCAK256 PUSH1 0x0 PUSH2 0x100 EXP DUP2 SLOAD DUP2 PUSH1 0xFF MUL NOT AND SWAP1 DUP4 ISZERO ISZERO MUL OR SWAP1 SSTORE POP POP POP JUMP JUMPDEST PUSH1 0x1 PUSH1 0x0 SWAP1 SLOAD SWAP1 PUSH2 0x100 EXP SWAP1 DIV PUSH20 0xFFFFFFFFFFFFFFFFFFFFFFFFFFFFFFFFFFFFFFFF AND PUSH20 0xFFFFFFFFFFFFFFFFFFFFFFFFFFFFFFFFFFFFFFFF AND CALLER PUSH20 0xFFFFFFFFFFFFFFFFFFFFFFFFFFFFFFFFFFFFFFFF AND EQ PUSH2 0x5BE JUMPI PUSH1 0x0 DUP1 REVERT JUMPDEST PUSH1 0x0 PUSH1 0x7 PUSH1 0x0 DUP4 DUP2 MSTORE PUSH1 0x20 ADD SWAP1 DUP2 MSTORE PUSH1 0x20 ADD PUSH1 0x0 KECCAK256 SWAP1 POP POP POP JUMP JUMPDEST PUSH1 0x4 SLOAD TIMESTAMP LT DUP1 ISZERO PUSH2 0x5ED JUMPI POP PUSH1 0x3 SLOAD PUSH1 0x6 SLOAD LT JUMPDEST PUSH2 0x5F6 JUMPI PUSH1 0x0 DUP1 REVERT JUMPDEST PUSH1 0x0 DUP1 PUSH1 0x0 CALLER PUSH20 0xFFFFFFFFFFFFFFFFFFFFFFFFFFFFFFFFFFFFFFFF AND PUSH20 0xFFFFFFFFFFFFFFFFFFFFFFFFFFFFFFFFFFFFFFFF AND DUP2 MSTORE PUSH1 0x20 ADD SWAP1 DUP2 MSTORE PUSH1 0x20 ADD PUSH1 0x0 KECCAK256 SLOAD GT PUSH2 0x641 JUMPI PUSH1 0x0 DUP1 REVERT JUMPDEST PUSH1 0x0 CALLER SWAP1 POP DUP1 PUSH20 0xFFFFFFFFFFFFFFFFFFFFFFFFFFFFFFFFFFFFFFFF AND PUSH2 0x8FC PUSH1 0x0 DUP1 CALLER PUSH20 0xFFFFFFFFFFFFFFFFFFFFFFFFFFFFFFFFFFFFFFFF AND PUSH20 0xFFFFFFFFFFFFFFFFFFFFFFFFFFFFFFFFFFFFFFFF AND DUP2 MSTORE PUSH1 0x20 ADD SWAP1 DUP2 MSTORE PUSH1 0x20 ADD PUSH1 0x0 KECCAK256 SLOAD SWAP1 DUP2 ISZERO MUL SWAP1 PUSH1 0x40 MLOAD PUSH1 0x0 PUSH1 0x40 MLOAD DUP1 DUP4 SUB DUP2 DUP6 DUP9 DUP9 CALL SWAP4 POP POP POP POP ISZERO DUP1 ISZERO PUSH2 0x6CA JUMPI RETURNDATASIZE PUSH1 0x0 DUP1 RETURNDATACOPY RETURNDATASIZE PUSH1 0x0 REVERT JUMPDEST POP PUSH1 0x0 DUP1 PUSH1 0x0 CALLER PUSH20 0xFFFFFFFFFFFFFFFFFFFFFFFFFFFFFFFFFFFFFFFF AND PUSH20 0xFFFFFFFFFFFFFFFFFFFFFFFFFFFFFFFFFFFFFFFF AND DUP2 MSTORE PUSH1 0x20 ADD SWAP1 DUP2 MSTORE PUSH1 0x20 ADD PUSH1 0x0 KECCAK256 DUP2 SWAP1 SSTORE POP POP JUMP JUMPDEST PUSH1 0x2 SLOAD DUP2 JUMP JUMPDEST PUSH1 0x7 PUSH1 0x20 MSTORE DUP1 PUSH1 0x0 MSTORE PUSH1 0x40 PUSH1 0x0 KECCAK256 PUSH1 0x0 SWAP2 POP SWAP1 POP DUP1 PUSH1 0x0 ADD DUP1 SLOAD PUSH2 0x73B SWAP1 PUSH2 0xEF4 JUMP JUMPDEST DUP1 PUSH1 0x1F ADD PUSH1 0x20 DUP1 SWAP2 DIV MUL PUSH1 0x20 ADD PUSH1 0x40 MLOAD SWAP1 DUP2 ADD PUSH1 0x40 MSTORE DUP1 SWAP3 SWAP2 SWAP1 DUP2 DUP2 MSTORE PUSH1 0x20 ADD DUP3 DUP1 SLOAD PUSH2 0x767 SWAP1 PUSH2 0xEF4 JUMP JUMPDEST DUP1 ISZERO PUSH2 0x7B4 JUMPI DUP1 PUSH1 0x1F LT PUSH2 0x789 JUMPI PUSH2 0x100 DUP1 DUP4 SLOAD DIV MUL DUP4 MSTORE SWAP2 PUSH1 0x20 ADD SWAP2 PUSH2 0x7B4 JUMP JUMPDEST DUP3 ADD SWAP2 SWAP1 PUSH1 0x0 MSTORE PUSH1 0x20 PUSH1 0x0 KECCAK256 SWAP1 JUMPDEST DUP2 SLOAD DUP2 MSTORE SWAP1 PUSH1 0x1 ADD SWAP1 PUSH1 0x20 ADD DUP1 DUP4 GT PUSH2 0x797 JUMPI DUP3 SWAP1 SUB PUSH1 0x1F AND DUP3 ADD SWAP2 JUMPDEST POP POP POP POP POP SWAP1 DUP1 PUSH1 0x1 ADD PUSH1 0x0 SWAP1 SLOAD SWAP1 PUSH2 0x100 EXP SWAP1 DIV PUSH20 0xFFFFFFFFFFFFFFFFFFFFFFFFFFFFFFFFFFFFFFFF AND SWAP1 DUP1 PUSH1 0x2 ADD SLOAD SWAP1 DUP1 PUSH1 0x3 ADD PUSH1 0x0 SWAP1 SLOAD SWAP1 PUSH2 0x100 EXP SWAP1 DIV PUSH1 0xFF AND SWAP1 DUP1 PUSH1 0x4 ADD SLOAD SWAP1 POP DUP6 JUMP JUMPDEST PUSH1 0x1 PUSH1 0x0 SWAP1 SLOAD SWAP1 PUSH2 0x100 EXP SWAP1 DIV PUSH20 0xFFFFFFFFFFFFFFFFFFFFFFFFFFFFFFFFFFFFFFFF AND PUSH20 0xFFFFFFFFFFFFFFFFFFFFFFFFFFFFFFFFFFFFFFFF AND CALLER PUSH20 0xFFFFFFFFFFFFFFFFFFFFFFFFFFFFFFFFFFFFFFFF AND EQ PUSH2 0x893 JUMPI PUSH1 0x40 MLOAD PUSH32 0x8C379A000000000000000000000000000000000000000000000000000000000 DUP2 MSTORE PUSH1 0x4 ADD PUSH2 0x88A SWAP1 PUSH2 0xF71 JUMP JUMPDEST PUSH1 0x40 MLOAD DUP1 SWAP2 SUB SWAP1 REVERT JUMPDEST PUSH1 0x0 PUSH1 0x7 PUSH1 0x0 PUSH1 0x8 SLOAD DUP2 MSTORE PUSH1 0x20 ADD SWAP1 DUP2 MSTORE PUSH1 0x20 ADD PUSH1 0x0 KECCAK256 SWAP1 POP PUSH1 0x8 PUSH1 0x0 DUP2 SLOAD DUP1 SWAP3 SWAP2 SWAP1 PUSH2 0x8BF SWAP1 PUSH2 0xDBB JUMP JUMPDEST SWAP2 SWAP1 POP SSTORE POP DUP4 DUP2 PUSH1 0x0 ADD SWAP1 DUP2 PUSH2 0x8D5 SWAP2 SWAP1 PUSH2 0x113D JUMP JUMPDEST POP DUP3 DUP2 PUSH1 0x1 ADD PUSH1 0x0 PUSH2 0x100 EXP DUP2 SLOAD DUP2 PUSH20 0xFFFFFFFFFFFFFFFFFFFFFFFFFFFFFFFFFFFFFFFF MUL NOT AND SWAP1 DUP4 PUSH20 0xFFFFFFFFFFFFFFFFFFFFFFFFFFFFFFFFFFFFFFFF AND MUL OR SWAP1 SSTORE POP DUP2 DUP2 PUSH1 0x2 ADD DUP2 SWAP1 SSTORE POP PUSH1 0x0 DUP2 PUSH1 0x3 ADD PUSH1 0x0 PUSH2 0x100 EXP DUP2 SLOAD DUP2 PUSH1 0xFF MUL NOT AND SWAP1 DUP4 ISZERO ISZERO MUL OR SWAP1 SSTORE POP PUSH1 0x0 DUP2 PUSH1 0x4 ADD DUP2 SWAP1 SSTORE POP POP POP POP POP JUMP JUMPDEST PUSH1 0x8 SLOAD DUP2 JUMP JUMPDEST PUSH1 0x6 SLOAD DUP2 JUMP JUMPDEST PUSH1 0x3 SLOAD DUP2 JUMP JUMPDEST PUSH1 0x0 PUSH1 0x40 MLOAD SWAP1 POP SWAP1 JUMP JUMPDEST PUSH1 0x0 DUP1 REVERT JUMPDEST PUSH1 0x0 DUP1 REVERT JUMPDEST PUSH1 0x0 PUSH20 0xFFFFFFFFFFFFFFFFFFFFFFFFFFFFFFFFFFFFFFFF DUP3 AND SWAP1 POP SWAP2 SWAP1 POP JUMP JUMPDEST PUSH1 0x0 PUSH2 0x9A0 DUP3 PUSH2 0x975 JUMP JUMPDEST SWAP1 POP SWAP2 SWAP1 POP JUMP JUMPDEST PUSH2 0x9B0 DUP2 PUSH2 0x995 JUMP JUMPDEST DUP2 EQ PUSH2 0x9BB JUMPI PUSH1 0x0 DUP1 REVERT JUMPDEST POP JUMP JUMPDEST PUSH1 0x0 DUP2 CALLDATALOAD SWAP1 POP PUSH2 0x9CD DUP2 PUSH2 0x9A7 JUMP JUMPDEST SWAP3 SWAP2 POP POP JUMP JUMPDEST PUSH1 0x0 PUSH1 0x20 DUP3 DUP5 SUB SLT ISZERO PUSH2 0x9E9 JUMPI PUSH2 0x9E8 PUSH2 0x96B JUMP JUMPDEST JUMPDEST PUSH1 0x0 PUSH2 0x9F7 DUP5 DUP3 DUP6 ADD PUSH2 0x9BE JUMP JUMPDEST SWAP2 POP POP SWAP3 SWAP2 POP POP JUMP JUMPDEST PUSH1 0x0 DUP2 SWAP1 POP SWAP2 SWAP1 POP JUMP JUMPDEST PUSH2 0xA13 DUP2 PUSH2 0xA00 JUMP JUMPDEST DUP3 MSTORE POP POP JUMP JUMPDEST PUSH1 0x0 PUSH1 0x20 DUP3 ADD SWAP1 POP PUSH2 0xA2E PUSH1 0x0 DUP4 ADD DUP5 PUSH2 0xA0A JUMP JUMPDEST SWAP3 SWAP2 POP POP JUMP JUMPDEST PUSH2 0xA3D DUP2 PUSH2 0xA00 JUMP JUMPDEST DUP2 EQ PUSH2 0xA48 JUMPI PUSH1 0x0 DUP1 REVERT JUMPDEST POP JUMP JUMPDEST PUSH1 0x0 DUP2 CALLDATALOAD SWAP1 POP PUSH2 0xA5A DUP2 PUSH2 0xA34 JUMP JUMPDEST SWAP3 SWAP2 POP POP JUMP JUMPDEST PUSH1 0x0 PUSH1 0x20 DUP3 DUP5 SUB SLT ISZERO PUSH2 0xA76 JUMPI PUSH2 0xA75 PUSH2 0x96B JUMP JUMPDEST JUMPDEST PUSH1 0x0 PUSH2 0xA84 DUP5 DUP3 DUP6 ADD PUSH2 0xA4B JUMP JUMPDEST SWAP2 POP POP SWAP3 SWAP2 POP POP JUMP JUMPDEST PUSH1 0x0 DUP2 MLOAD SWAP1 POP SWAP2 SWAP1 POP JUMP JUMPDEST PUSH1 0x0 DUP3 DUP3 MSTORE PUSH1 0x20 DUP3 ADD SWAP1 POP SWAP3 SWAP2 POP POP JUMP JUMPDEST PUSH1 0x0 JUMPDEST DUP4 DUP2 LT ISZERO PUSH2 0xAC7 JUMPI DUP1 DUP3 ADD MLOAD DUP2 DUP5 ADD MSTORE PUSH1 0x20 DUP2 ADD SWAP1 POP PUSH2 0xAAC JUMP JUMPDEST DUP4 DUP2 GT ISZERO PUSH2 0xAD6 JUMPI PUSH1 0x0 DUP5 DUP5 ADD MSTORE JUMPDEST POP POP POP POP JUMP JUMPDEST PUSH1 0x0 PUSH1 0x1F NOT PUSH1 0x1F DUP4 ADD AND SWAP1 POP SWAP2 SWAP1 POP JUMP JUMPDEST PUSH1 0x0 PUSH2 0xAF8 DUP3 PUSH2 0xA8D JUMP JUMPDEST PUSH2 0xB02 DUP2 DUP6 PUSH2 0xA98 JUMP JUMPDEST SWAP4 POP PUSH2 0xB12 DUP2 DUP6 PUSH1 0x20 DUP7 ADD PUSH2 0xAA9 JUMP JUMPDEST PUSH2 0xB1B DUP2 PUSH2 0xADC JUMP JUMPDEST DUP5 ADD SWAP2 POP POP SWAP3 SWAP2 POP POP JUMP JUMPDEST PUSH1 0x0 PUSH2 0xB31 DUP3 PUSH2 0x975 JUMP JUMPDEST SWAP1 POP SWAP2 SWAP1 POP JUMP JUMPDEST PUSH2 0xB41 DUP2 PUSH2 0xB26 JUMP JUMPDEST DUP3 MSTORE POP POP JUMP JUMPDEST PUSH1 0x0 DUP2 ISZERO ISZERO SWAP1 POP SWAP2 SWAP1 POP JUMP JUMPDEST PUSH2 0xB5C DUP2 PUSH2 0xB47 JUMP JUMPDEST DUP3 MSTORE POP POP JUMP JUMPDEST PUSH1 0x0 PUSH1 0xA0 DUP3 ADD SWAP1 POP DUP2 DUP2 SUB PUSH1 0x0 DUP4 ADD MSTORE PUSH2 0xB7C DUP2 DUP9 PUSH2 0xAED JUMP JUMPDEST SWAP1 POP PUSH2 0xB8B PUSH1 0x20 DUP4 ADD DUP8 PUSH2 0xB38 JUMP JUMPDEST PUSH2 0xB98 PUSH1 0x40 DUP4 ADD DUP7 PUSH2 0xA0A JUMP JUMPDEST PUSH2 0xBA5 PUSH1 0x60 DUP4 ADD DUP6 PUSH2 0xB53 JUMP JUMPDEST PUSH2 0xBB2 PUSH1 0x80 DUP4 ADD DUP5 PUSH2 0xA0A JUMP JUMPDEST SWAP7 SWAP6 POP POP POP POP POP POP JUMP JUMPDEST PUSH1 0x0 DUP1 REVERT JUMPDEST PUSH1 0x0 DUP1 REVERT JUMPDEST PUSH32 0x4E487B7100000000000000000000000000000000000000000000000000000000 PUSH1 0x0 MSTORE PUSH1 0x41 PUSH1 0x4 MSTORE PUSH1 0x24 PUSH1 0x0 REVERT JUMPDEST PUSH2 0xBFE DUP3 PUSH2 0xADC JUMP JUMPDEST DUP2 ADD DUP2 DUP2 LT PUSH8 0xFFFFFFFFFFFFFFFF DUP3 GT OR ISZERO PUSH2 0xC1D JUMPI PUSH2 0xC1C PUSH2 0xBC6 JUMP JUMPDEST JUMPDEST DUP1 PUSH1 0x40 MSTORE POP POP POP JUMP JUMPDEST PUSH1 0x0 PUSH2 0xC30 PUSH2 0x961 JUMP JUMPDEST SWAP1 POP PUSH2 0xC3C DUP3 DUP3 PUSH2 0xBF5 JUMP JUMPDEST SWAP2 SWAP1 POP JUMP JUMPDEST PUSH1 0x0 PUSH8 0xFFFFFFFFFFFFFFFF DUP3 GT ISZERO PUSH2 0xC5C JUMPI PUSH2 0xC5B PUSH2 0xBC6 JUMP JUMPDEST JUMPDEST PUSH2 0xC65 DUP3 PUSH2 0xADC JUMP JUMPDEST SWAP1 POP PUSH1 0x20 DUP2 ADD SWAP1 POP SWAP2 SWAP1 POP JUMP JUMPDEST DUP3 DUP2 DUP4 CALLDATACOPY PUSH1 0x0 DUP4 DUP4 ADD MSTORE POP POP POP JUMP JUMPDEST PUSH1 0x0 PUSH2 0xC94 PUSH2 0xC8F DUP5 PUSH2 0xC41 JUMP JUMPDEST PUSH2 0xC26 JUMP JUMPDEST SWAP1 POP DUP3 DUP2 MSTORE PUSH1 0x20 DUP2 ADD DUP5 DUP5 DUP5 ADD GT ISZERO PUSH2 0xCB0 JUMPI PUSH2 0xCAF PUSH2 0xBC1 JUMP JUMPDEST JUMPDEST PUSH2 0xCBB DUP5 DUP3 DUP6 PUSH2 0xC72 JUMP JUMPDEST POP SWAP4 SWAP3 POP POP POP JUMP JUMPDEST PUSH1 0x0 DUP3 PUSH1 0x1F DUP4 ADD SLT PUSH2 0xCD8 JUMPI PUSH2 0xCD7 PUSH2 0xBBC JUMP JUMPDEST JUMPDEST DUP2 CALLDATALOAD PUSH2 0xCE8 DUP5 DUP3 PUSH1 0x20 DUP7 ADD PUSH2 0xC81 JUMP JUMPDEST SWAP2 POP POP SWAP3 SWAP2 POP POP JUMP JUMPDEST PUSH2 0xCFA DUP2 PUSH2 0xB26 JUMP JUMPDEST DUP2 EQ PUSH2 0xD05 JUMPI PUSH1 0x0 DUP1 REVERT JUMPDEST POP JUMP JUMPDEST PUSH1 0x0 DUP2 CALLDATALOAD SWAP1 POP PUSH2 0xD17 DUP2 PUSH2 0xCF1 JUMP JUMPDEST SWAP3 SWAP2 POP POP JUMP JUMPDEST PUSH1 0x0 DUP1 PUSH1 0x0 PUSH1 0x60 DUP5 DUP7 SUB SLT ISZERO PUSH2 0xD36 JUMPI PUSH2 0xD35 PUSH2 0x96B JUMP JUMPDEST JUMPDEST PUSH1 0x0 DUP5 ADD CALLDATALOAD PUSH8 0xFFFFFFFFFFFFFFFF DUP2 GT ISZERO PUSH2 0xD54 JUMPI PUSH2 0xD53 PUSH2 0x970 JUMP JUMPDEST JUMPDEST PUSH2 0xD60 DUP7 DUP3 DUP8 ADD PUSH2 0xCC3 JUMP JUMPDEST SWAP4 POP POP PUSH1 0x20 PUSH2 0xD71 DUP7 DUP3 DUP8 ADD PUSH2 0xD08 JUMP JUMPDEST SWAP3 POP POP PUSH1 0x40 PUSH2 0xD82 DUP7 DUP3 DUP8 ADD PUSH2 0xA4B JUMP JUMPDEST SWAP2 POP POP SWAP3 POP SWAP3 POP SWAP3 JUMP JUMPDEST PUSH32 0x4E487B7100000000000000000000000000000000000000000000000000000000 PUSH1 0x0 MSTORE PUSH1 0x11 PUSH1 0x4 MSTORE PUSH1 0x24 PUSH1 0x0 REVERT JUMPDEST PUSH1 0x0 PUSH2 0xDC6 DUP3 PUSH2 0xA00 JUMP JUMPDEST SWAP2 POP PUSH32 0xFFFFFFFFFFFFFFFFFFFFFFFFFFFFFFFFFFFFFFFFFFFFFFFFFFFFFFFFFFFFFFFF DUP3 SUB PUSH2 0xDF8 JUMPI PUSH2 0xDF7 PUSH2 0xD8C JUMP JUMPDEST JUMPDEST PUSH1 0x1 DUP3 ADD SWAP1 POP SWAP2 SWAP1 POP JUMP JUMPDEST PUSH1 0x0 PUSH2 0xE0E DUP3 PUSH2 0xA00 JUMP JUMPDEST SWAP2 POP PUSH2 0xE19 DUP4 PUSH2 0xA00 JUMP JUMPDEST SWAP3 POP DUP3 PUSH32 0xFFFFFFFFFFFFFFFFFFFFFFFFFFFFFFFFFFFFFFFFFFFFFFFFFFFFFFFFFFFFFFFF SUB DUP3 GT ISZERO PUSH2 0xE4E JUMPI PUSH2 0xE4D PUSH2 0xD8C JUMP JUMPDEST JUMPDEST DUP3 DUP3 ADD SWAP1 POP SWAP3 SWAP2 POP POP JUMP JUMPDEST PUSH32 0x796F75206861766520616C726561647920766F74656400000000000000000000 PUSH1 0x0 DUP3 ADD MSTORE POP JUMP JUMPDEST PUSH1 0x0 PUSH2 0xE8F PUSH1 0x16 DUP4 PUSH2 0xA98 JUMP JUMPDEST SWAP2 POP PUSH2 0xE9A DUP3 PUSH2 0xE59 JUMP JUMPDEST PUSH1 0x20 DUP3 ADD SWAP1 POP SWAP2 SWAP1 POP JUMP JUMPDEST PUSH1 0x0 PUSH1 0x20 DUP3 ADD SWAP1 POP DUP2 DUP2 SUB PUSH1 0x0 DUP4 ADD MSTORE PUSH2 0xEBE DUP2 PUSH2 0xE82 JUMP JUMPDEST SWAP1 POP SWAP2 SWAP1 POP JUMP JUMPDEST PUSH32 0x4E487B7100000000000000000000000000000000000000000000000000000000 PUSH1 0x0 MSTORE PUSH1 0x22 PUSH1 0x4 MSTORE PUSH1 0x24 PUSH1 0x0 REVERT JUMPDEST PUSH1 0x0 PUSH1 0x2 DUP3 DIV SWAP1 POP PUSH1 0x1 DUP3 AND DUP1 PUSH2 0xF0C JUMPI PUSH1 0x7F DUP3 AND SWAP2 POP JUMPDEST PUSH1 0x20 DUP3 LT DUP2 SUB PUSH2 0xF1F JUMPI PUSH2 0xF1E PUSH2 0xEC5 JUMP JUMPDEST JUMPDEST POP SWAP2 SWAP1 POP JUMP JUMPDEST PUSH32 0x6E6F7420746865206D616E656765720000000000000000000000000000000000 PUSH1 0x0 DUP3 ADD MSTORE POP JUMP JUMPDEST PUSH1 0x0 PUSH2 0xF5B PUSH1 0xF DUP4 PUSH2 0xA98 JUMP JUMPDEST SWAP2 POP PUSH2 0xF66 DUP3 PUSH2 0xF25 JUMP JUMPDEST PUSH1 0x20 DUP3 ADD SWAP1 POP SWAP2 SWAP1 POP JUMP JUMPDEST PUSH1 0x0 PUSH1 0x20 DUP3 ADD SWAP1 POP DUP2 DUP2 SUB PUSH1 0x0 DUP4 ADD MSTORE PUSH2 0xF8A DUP2 PUSH2 0xF4E JUMP JUMPDEST SWAP1 POP SWAP2 SWAP1 POP JUMP JUMPDEST PUSH1 0x0 DUP2 SWAP1 POP DUP2 PUSH1 0x0 MSTORE PUSH1 0x20 PUSH1 0x0 KECCAK256 SWAP1 POP SWAP2 SWAP1 POP JUMP JUMPDEST PUSH1 0x0 PUSH1 0x20 PUSH1 0x1F DUP4 ADD DIV SWAP1 POP SWAP2 SWAP1 POP JUMP JUMPDEST PUSH1 0x0 DUP3 DUP3 SHL SWAP1 POP SWAP3 SWAP2 POP POP JUMP JUMPDEST PUSH1 0x0 PUSH1 0x8 DUP4 MUL PUSH2 0xFF3 PUSH32 0xFFFFFFFFFFFFFFFFFFFFFFFFFFFFFFFFFFFFFFFFFFFFFFFFFFFFFFFFFFFFFFFF DUP3 PUSH2 0xFB6 JUMP JUMPDEST PUSH2 0xFFD DUP7 DUP4 PUSH2 0xFB6 JUMP JUMPDEST SWAP6 POP DUP1 NOT DUP5 AND SWAP4 POP DUP1 DUP7 AND DUP5 OR SWAP3 POP POP POP SWAP4 SWAP3 POP POP POP JUMP JUMPDEST PUSH1 0x0 DUP2 SWAP1 POP SWAP2 SWAP1 POP JUMP JUMPDEST PUSH1 0x0 PUSH2 0x103A PUSH2 0x1035 PUSH2 0x1030 DUP5 PUSH2 0xA00 JUMP JUMPDEST PUSH2 0x1015 JUMP JUMPDEST PUSH2 0xA00 JUMP JUMPDEST SWAP1 POP SWAP2 SWAP1 POP JUMP JUMPDEST PUSH1 0x0 DUP2 SWAP1 POP SWAP2 SWAP1 POP JUMP JUMPDEST PUSH2 0x1054 DUP4 PUSH2 0x101F JUMP JUMPDEST PUSH2 0x1068 PUSH2 0x1060 DUP3 PUSH2 0x1041 JUMP JUMPDEST DUP5 DUP5 SLOAD PUSH2 0xFC3 JUMP JUMPDEST DUP3 SSTORE POP POP POP POP JUMP JUMPDEST PUSH1 0x0 SWAP1 JUMP JUMPDEST PUSH2 0x107D PUSH2 0x1070 JUMP JUMPDEST PUSH2 0x1088 DUP2 DUP5 DUP5 PUSH2 0x104B JUMP JUMPDEST POP POP POP JUMP JUMPDEST JUMPDEST DUP2 DUP2 LT ISZERO PUSH2 0x10AC JUMPI PUSH2 0x10A1 PUSH1 0x0 DUP3 PUSH2 0x1075 JUMP JUMPDEST PUSH1 0x1 DUP2 ADD SWAP1 POP PUSH2 0x108E JUMP JUMPDEST POP POP JUMP JUMPDEST PUSH1 0x1F DUP3 GT ISZERO PUSH2 0x10F1 JUMPI PUSH2 0x10C2 DUP2 PUSH2 0xF91 JUMP JUMPDEST PUSH2 0x10CB DUP5 PUSH2 0xFA6 JUMP JUMPDEST DUP2 ADD PUSH1 0x20 DUP6 LT ISZERO PUSH2 0x10DA JUMPI DUP2 SWAP1 POP JUMPDEST PUSH2 0x10EE PUSH2 0x10E6 DUP6 PUSH2 0xFA6 JUMP JUMPDEST DUP4 ADD DUP3 PUSH2 0x108D JUMP JUMPDEST POP POP JUMPDEST POP POP POP JUMP JUMPDEST PUSH1 0x0 DUP3 DUP3 SHR SWAP1 POP SWAP3 SWAP2 POP POP JUMP JUMPDEST PUSH1 0x0 PUSH2 0x1114 PUSH1 0x0 NOT DUP5 PUSH1 0x8 MUL PUSH2 0x10F6 JUMP JUMPDEST NOT DUP1 DUP4 AND SWAP2 POP POP SWAP3 SWAP2 POP POP JUMP JUMPDEST PUSH1 0x0 PUSH2 0x112D DUP4 DUP4 PUSH2 0x1103 JUMP JUMPDEST SWAP2 POP DUP3 PUSH1 0x2 MUL DUP3 OR SWAP1 POP SWAP3 SWAP2 POP POP JUMP JUMPDEST PUSH2 0x1146 DUP3 PUSH2 0xA8D JUMP JUMPDEST PUSH8 0xFFFFFFFFFFFFFFFF DUP2 GT ISZERO PUSH2 0x115F JUMPI PUSH2 0x115E PUSH2 0xBC6 JUMP JUMPDEST JUMPDEST PUSH2 0x1169 DUP3 SLOAD PUSH2 0xEF4 JUMP JUMPDEST PUSH2 0x1174 DUP3 DUP3 DUP6 PUSH2 0x10B0 JUMP JUMPDEST PUSH1 0x0 PUSH1 0x20 SWAP1 POP PUSH1 0x1F DUP4 GT PUSH1 0x1 DUP2 EQ PUSH2 0x11A7 JUMPI PUSH1 0x0 DUP5 ISZERO PUSH2 0x1195 JUMPI DUP3 DUP8 ADD MLOAD SWAP1 POP JUMPDEST PUSH2 0x119F DUP6 DUP3 PUSH2 0x1121 JUMP JUMPDEST DUP7 SSTORE POP PUSH2 0x1207 JUMP JUMPDEST PUSH1 0x1F NOT DUP5 AND PUSH2 0x11B5 DUP7 PUSH2 0xF91 JUMP JUMPDEST PUSH1 0x0 JUMPDEST DUP3 DUP2 LT ISZERO PUSH2 0x11DD JUMPI DUP5 DUP10 ADD MLOAD DUP3 SSTORE PUSH1 0x1 DUP3 ADD SWAP2 POP PUSH1 0x20 DUP6 ADD SWAP5 POP PUSH1 0x20 DUP2 ADD SWAP1 POP PUSH2 0x11B8 JUMP JUMPDEST DUP7 DUP4 LT ISZERO PUSH2 0x11FA JUMPI DUP5 DUP10 ADD MLOAD PUSH2 0x11F6 PUSH1 0x1F DUP10 AND DUP3 PUSH2 0x1103 JUMP JUMPDEST DUP4 SSTORE POP JUMPDEST PUSH1 0x1 PUSH1 0x2 DUP9 MUL ADD DUP9 SSTORE POP POP POP JUMPDEST POP POP POP POP POP POP JUMP INVALID LOG2 PUSH5 0x6970667358 0x22 SLT KECCAK256 SWAP3 0xF6 0xC0 0xAA 0xFB 0xE8 PUSH29 0xB07F3DC4BBC7D8CDD53B0875B4C50BCFA1FE59DA438527B15264736F6C PUSH4 0x4300080F STOP CALLER "
				},
				"gasEstimates": {
					"creation": {
						"codeDepositCost": "935400",
						"executionCost": "infinite",
						"totalCost": "infinite"
					},
					"external": {
						"allRequests(uint256)": "infinite",
						"contributors(address)": "2837",
						"deadline()": "2496",
						"getBal()": "384",
						"makePayment(uint256)": "2778",
						"makeRequest(string,address,uint256)": "infinite",
						"minCont()": "2474",
						"numOfRequests()": "2473",
						"raisedAmount()": "2495",
						"refund()": "infinite",
						"sendEth()": "infinite",
						"target()": "2517",
						"voteRequest(uint256)": "infinite"
					}
				},
				"methodIdentifiers": {
					"allRequests(uint256)": "9bf4ec2f",
					"contributors(address)": "1f6d4942",
					"deadline()": "29dcb0cf",
					"getBal()": "25caa262",
					"makePayment(uint256)": "5114cb52",
					"makeRequest(string,address,uint256)": "b5fdcfa3",
					"minCont()": "728d545f",
					"numOfRequests()": "b6290e76",
					"raisedAmount()": "c59ee1dc",
					"refund()": "590e1ae3",
					"sendEth()": "06e99fef",
					"target()": "d4b83992",
					"voteRequest(uint256)": "4cb6f4a5"
				}
			},
			"storageLayout": {
				"storage": [
					{
						"astId": 5,
						"contract": "contracts/crowdFunding.sol:CrowdFunding",
						"label": "contributors",
						"offset": 0,
						"slot": "0",
						"type": "t_mapping(t_address,t_uint256)"
					},
					{
						"astId": 7,
						"contract": "contracts/crowdFunding.sol:CrowdFunding",
						"label": "maneger",
						"offset": 0,
						"slot": "1",
						"type": "t_address"
					},
					{
						"astId": 9,
						"contract": "contracts/crowdFunding.sol:CrowdFunding",
						"label": "minCont",
						"offset": 0,
						"slot": "2",
						"type": "t_uint256"
					},
					{
						"astId": 11,
						"contract": "contracts/crowdFunding.sol:CrowdFunding",
						"label": "target",
						"offset": 0,
						"slot": "3",
						"type": "t_uint256"
					},
					{
						"astId": 13,
						"contract": "contracts/crowdFunding.sol:CrowdFunding",
						"label": "deadline",
						"offset": 0,
						"slot": "4",
						"type": "t_uint256"
					},
					{
						"astId": 15,
						"contract": "contracts/crowdFunding.sol:CrowdFunding",
						"label": "noOfCont",
						"offset": 0,
						"slot": "5",
						"type": "t_uint256"
					},
					{
						"astId": 17,
						"contract": "contracts/crowdFunding.sol:CrowdFunding",
						"label": "raisedAmount",
						"offset": 0,
						"slot": "6",
						"type": "t_uint256"
					},
					{
						"astId": 37,
						"contract": "contracts/crowdFunding.sol:CrowdFunding",
						"label": "allRequests",
						"offset": 0,
						"slot": "7",
						"type": "t_mapping(t_uint256,t_struct(Request)32_storage)"
					},
					{
						"astId": 39,
						"contract": "contracts/crowdFunding.sol:CrowdFunding",
						"label": "numOfRequests",
						"offset": 0,
						"slot": "8",
						"type": "t_uint256"
					}
				],
				"types": {
					"t_address": {
						"encoding": "inplace",
						"label": "address",
						"numberOfBytes": "20"
					},
					"t_address_payable": {
						"encoding": "inplace",
						"label": "address payable",
						"numberOfBytes": "20"
					},
					"t_bool": {
						"encoding": "inplace",
						"label": "bool",
						"numberOfBytes": "1"
					},
					"t_mapping(t_address,t_bool)": {
						"encoding": "mapping",
						"key": "t_address",
						"label": "mapping(address => bool)",
						"numberOfBytes": "32",
						"value": "t_bool"
					},
					"t_mapping(t_address,t_uint256)": {
						"encoding": "mapping",
						"key": "t_address",
						"label": "mapping(address => uint256)",
						"numberOfBytes": "32",
						"value": "t_uint256"
					},
					"t_mapping(t_uint256,t_struct(Request)32_storage)": {
						"encoding": "mapping",
						"key": "t_uint256",
						"label": "mapping(uint256 => struct CrowdFunding.Request)",
						"numberOfBytes": "32",
						"value": "t_struct(Request)32_storage"
					},
					"t_string_storage": {
						"encoding": "bytes",
						"label": "string",
						"numberOfBytes": "32"
					},
					"t_struct(Request)32_storage": {
						"encoding": "inplace",
						"label": "struct CrowdFunding.Request",
						"members": [
							{
								"astId": 19,
								"contract": "contracts/crowdFunding.sol:CrowdFunding",
								"label": "description",
								"offset": 0,
								"slot": "0",
								"type": "t_string_storage"
							},
							{
								"astId": 21,
								"contract": "contracts/crowdFunding.sol:CrowdFunding",
								"label": "recipient",
								"offset": 0,
								"slot": "1",
								"type": "t_address_payable"
							},
							{
								"astId": 23,
								"contract": "contracts/crowdFunding.sol:CrowdFunding",
								"label": "value",
								"offset": 0,
								"slot": "2",
								"type": "t_uint256"
							},
							{
								"astId": 25,
								"contract": "contracts/crowdFunding.sol:CrowdFunding",
								"label": "completed",
								"offset": 0,
								"slot": "3",
								"type": "t_bool"
							},
							{
								"astId": 27,
								"contract": "contracts/crowdFunding.sol:CrowdFunding",
								"label": "noOfVoters",
								"offset": 0,
								"slot": "4",
								"type": "t_uint256"
							},
							{
								"astId": 31,
								"contract": "contracts/crowdFunding.sol:CrowdFunding",
								"label": "voters",
								"offset": 0,
								"slot": "5",
								"type": "t_mapping(t_address,t_bool)"
							}
						],
						"numberOfBytes": "192"
					},
					"t_uint256": {
						"encoding": "inplace",
						"label": "uint256",
						"numberOfBytes": "32"
					}
				}
			},
			"userdoc": {
				"kind": "user",
				"methods": {},
				"version": 1
			}
		}
	}
}