{
	"contracts/crowdFunding.sol": {
		"CrowdFunding": {
			"abi": [
				{
					"inputs": [
						{
							"internalType": "uint256",
							"name": "_target",
							"type": "uint256"
						},
						{
							"internalType": "uint256",
							"name": "_deadline",
							"type": "uint256"
						}
					],
					"stateMutability": "nonpayable",
					"type": "constructor"
				},
				{
					"inputs": [
						{
							"internalType": "uint256",
							"name": "",
							"type": "uint256"
						}
					],
					"name": "RequestsList",
					"outputs": [
						{
							"internalType": "string",
							"name": "description",
							"type": "string"
						},
						{
							"internalType": "address payable",
							"name": "recipient",
							"type": "address"
						},
						{
							"internalType": "uint256",
							"name": "value",
							"type": "uint256"
						},
						{
							"internalType": "bool",
							"name": "completed",
							"type": "bool"
						},
						{
							"internalType": "uint256",
							"name": "noOfVoters",
							"type": "uint256"
						}
					],
					"stateMutability": "view",
					"type": "function"
				},
				{
					"inputs": [
						{
							"internalType": "address",
							"name": "",
							"type": "address"
						}
					],
					"name": "contributors",
					"outputs": [
						{
							"internalType": "uint256",
							"name": "",
							"type": "uint256"
						}
					],
					"stateMutability": "view",
					"type": "function"
				},
				{
					"inputs": [],
					"name": "deadline",
					"outputs": [
						{
							"internalType": "uint256",
							"name": "",
							"type": "uint256"
						}
					],
					"stateMutability": "view",
					"type": "function"
				},
				{
					"inputs": [],
					"name": "getBal",
					"outputs": [
						{
							"internalType": "uint256",
							"name": "",
							"type": "uint256"
						}
					],
					"stateMutability": "view",
					"type": "function"
				},
				{
					"inputs": [
						{
							"internalType": "uint256",
							"name": "_ReqNo",
							"type": "uint256"
						}
					],
					"name": "makePayment",
					"outputs": [],
					"stateMutability": "nonpayable",
					"type": "function"
				},
				{
					"inputs": [
						{
							"internalType": "string",
							"name": "_description",
							"type": "string"
						},
						{
							"internalType": "address payable",
							"name": "_recipient",
							"type": "address"
						},
						{
							"internalType": "uint256",
							"name": "_value",
							"type": "uint256"
						}
					],
					"name": "makeRequest",
					"outputs": [],
					"stateMutability": "nonpayable",
					"type": "function"
				},
				{
					"inputs": [],
					"name": "minCont",
					"outputs": [
						{
							"internalType": "uint256",
							"name": "",
							"type": "uint256"
						}
					],
					"stateMutability": "view",
					"type": "function"
				},
				{
					"inputs": [],
					"name": "numOfRequests",
					"outputs": [
						{
							"internalType": "uint256",
							"name": "",
							"type": "uint256"
						}
					],
					"stateMutability": "view",
					"type": "function"
				},
				{
					"inputs": [],
					"name": "raisedAmount",
					"outputs": [
						{
							"internalType": "uint256",
							"name": "",
							"type": "uint256"
						}
					],
					"stateMutability": "view",
					"type": "function"
				},
				{
					"inputs": [],
					"name": "refund",
					"outputs": [],
					"stateMutability": "nonpayable",
					"type": "function"
				},
				{
					"inputs": [],
					"name": "sendEth",
					"outputs": [],
					"stateMutability": "payable",
					"type": "function"
				},
				{
					"inputs": [],
					"name": "target",
					"outputs": [
						{
							"internalType": "uint256",
							"name": "",
							"type": "uint256"
						}
					],
					"stateMutability": "view",
					"type": "function"
				},
				{
					"inputs": [
						{
							"internalType": "uint256",
							"name": "_ReqNo",
							"type": "uint256"
						}
					],
					"name": "voteRequest",
					"outputs": [],
					"stateMutability": "nonpayable",
					"type": "function"
				}
			],
			"devdoc": {
				"kind": "dev",
				"methods": {},
				"version": 1
			},
			"evm": {
				"assembly": "    /* \"contracts/crowdFunding.sol\":74:2634  contract CrowdFunding{... */\n  mstore(0x40, 0x80)\n    /* \"contracts/crowdFunding.sol\":608:791  constructor(uint _target, uint _deadline){... */\n  callvalue\n  dup1\n  iszero\n  tag_1\n  jumpi\n  0x00\n  dup1\n  revert\ntag_1:\n  pop\n  mload(0x40)\n  sub(codesize, bytecodeSize)\n  dup1\n  bytecodeSize\n  dup4\n  codecopy\n  dup2\n  dup2\n  add\n  0x40\n  mstore\n  dup2\n  add\n  swap1\n  tag_2\n  swap2\n  swap1\n  tag_3\n  jump\t// in\ntag_2:\n    /* \"contracts/crowdFunding.sol\":669:676  _target */\n  dup2\n    /* \"contracts/crowdFunding.sol\":660:666  target */\n  0x03\n    /* \"contracts/crowdFunding.sol\":660:676  target = _target */\n  dup2\n  swap1\n  sstore\n  pop\n    /* \"contracts/crowdFunding.sol\":716:725  _deadline */\n  dup1\n    /* \"contracts/crowdFunding.sol\":698:713  block.timestamp */\n  timestamp\n    /* \"contracts/crowdFunding.sol\":698:725  block.timestamp + _deadline */\n  tag_6\n  swap2\n  swap1\n  tag_7\n  jump\t// in\ntag_6:\n    /* \"contracts/crowdFunding.sol\":687:695  deadline */\n  0x04\n    /* \"contracts/crowdFunding.sol\":687:725  deadline = block.timestamp + _deadline */\n  dup2\n  swap1\n  sstore\n  pop\n    /* \"contracts/crowdFunding.sol\":746:752  10 wei */\n  0x0a\n    /* \"contracts/crowdFunding.sol\":736:743  minCont */\n  0x02\n    /* \"contracts/crowdFunding.sol\":736:752  minCont = 10 wei */\n  dup2\n  swap1\n  sstore\n  pop\n    /* \"contracts/crowdFunding.sol\":773:783  msg.sender */\n  caller\n    /* \"contracts/crowdFunding.sol\":763:770  maneger */\n  0x01\n  0x00\n    /* \"contracts/crowdFunding.sol\":763:783  maneger = msg.sender */\n  0x0100\n  exp\n  dup2\n  sload\n  dup2\n  0xffffffffffffffffffffffffffffffffffffffff\n  mul\n  not\n  and\n  swap1\n  dup4\n  0xffffffffffffffffffffffffffffffffffffffff\n  and\n  mul\n  or\n  swap1\n  sstore\n  pop\n    /* \"contracts/crowdFunding.sol\":608:791  constructor(uint _target, uint _deadline){... */\n  pop\n  pop\n    /* \"contracts/crowdFunding.sol\":74:2634  contract CrowdFunding{... */\n  jump(tag_8)\n    /* \"#utility.yul\":88:205   */\ntag_10:\n    /* \"#utility.yul\":197:198   */\n  0x00\n    /* \"#utility.yul\":194:195   */\n  dup1\n    /* \"#utility.yul\":187:199   */\n  revert\n    /* \"#utility.yul\":334:411   */\ntag_12:\n    /* \"#utility.yul\":371:378   */\n  0x00\n    /* \"#utility.yul\":400:405   */\n  dup2\n    /* \"#utility.yul\":389:405   */\n  swap1\n  pop\n    /* \"#utility.yul\":334:411   */\n  swap2\n  swap1\n  pop\n  jump\t// out\n    /* \"#utility.yul\":417:539   */\ntag_13:\n    /* \"#utility.yul\":490:514   */\n  tag_22\n    /* \"#utility.yul\":508:513   */\n  dup2\n    /* \"#utility.yul\":490:514   */\n  tag_12\n  jump\t// in\ntag_22:\n    /* \"#utility.yul\":483:488   */\n  dup2\n    /* \"#utility.yul\":480:515   */\n  eq\n    /* \"#utility.yul\":470:533   */\n  tag_23\n  jumpi\n    /* \"#utility.yul\":529:530   */\n  0x00\n    /* \"#utility.yul\":526:527   */\n  dup1\n    /* \"#utility.yul\":519:531   */\n  revert\n    /* \"#utility.yul\":470:533   */\ntag_23:\n    /* \"#utility.yul\":417:539   */\n  pop\n  jump\t// out\n    /* \"#utility.yul\":545:688   */\ntag_14:\n    /* \"#utility.yul\":602:607   */\n  0x00\n    /* \"#utility.yul\":633:639   */\n  dup2\n    /* \"#utility.yul\":627:640   */\n  mload\n    /* \"#utility.yul\":618:640   */\n  swap1\n  pop\n    /* \"#utility.yul\":649:682   */\n  tag_25\n    /* \"#utility.yul\":676:681   */\n  dup2\n    /* \"#utility.yul\":649:682   */\n  tag_13\n  jump\t// in\ntag_25:\n    /* \"#utility.yul\":545:688   */\n  swap3\n  swap2\n  pop\n  pop\n  jump\t// out\n    /* \"#utility.yul\":694:1201   */\ntag_3:\n    /* \"#utility.yul\":773:779   */\n  0x00\n    /* \"#utility.yul\":781:787   */\n  dup1\n    /* \"#utility.yul\":830:832   */\n  0x40\n    /* \"#utility.yul\":818:827   */\n  dup4\n    /* \"#utility.yul\":809:816   */\n  dup6\n    /* \"#utility.yul\":805:828   */\n  sub\n    /* \"#utility.yul\":801:833   */\n  slt\n    /* \"#utility.yul\":798:917   */\n  iszero\n  tag_27\n  jumpi\n    /* \"#utility.yul\":836:915   */\n  tag_28\n  tag_10\n  jump\t// in\ntag_28:\n    /* \"#utility.yul\":798:917   */\ntag_27:\n    /* \"#utility.yul\":956:957   */\n  0x00\n    /* \"#utility.yul\":981:1045   */\n  tag_29\n    /* \"#utility.yul\":1037:1044   */\n  dup6\n    /* \"#utility.yul\":1028:1034   */\n  dup3\n    /* \"#utility.yul\":1017:1026   */\n  dup7\n    /* \"#utility.yul\":1013:1035   */\n  add\n    /* \"#utility.yul\":981:1045   */\n  tag_14\n  jump\t// in\ntag_29:\n    /* \"#utility.yul\":971:1045   */\n  swap3\n  pop\n    /* \"#utility.yul\":927:1055   */\n  pop\n    /* \"#utility.yul\":1094:1096   */\n  0x20\n    /* \"#utility.yul\":1120:1184   */\n  tag_30\n    /* \"#utility.yul\":1176:1183   */\n  dup6\n    /* \"#utility.yul\":1167:1173   */\n  dup3\n    /* \"#utility.yul\":1156:1165   */\n  dup7\n    /* \"#utility.yul\":1152:1174   */\n  add\n    /* \"#utility.yul\":1120:1184   */\n  tag_14\n  jump\t// in\ntag_30:\n    /* \"#utility.yul\":1110:1184   */\n  swap2\n  pop\n    /* \"#utility.yul\":1065:1194   */\n  pop\n    /* \"#utility.yul\":694:1201   */\n  swap3\n  pop\n  swap3\n  swap1\n  pop\n  jump\t// out\n    /* \"#utility.yul\":1207:1387   */\ntag_15:\n    /* \"#utility.yul\":1255:1332   */\n  0x4e487b7100000000000000000000000000000000000000000000000000000000\n    /* \"#utility.yul\":1252:1253   */\n  0x00\n    /* \"#utility.yul\":1245:1333   */\n  mstore\n    /* \"#utility.yul\":1352:1356   */\n  0x11\n    /* \"#utility.yul\":1349:1350   */\n  0x04\n    /* \"#utility.yul\":1342:1357   */\n  mstore\n    /* \"#utility.yul\":1376:1380   */\n  0x24\n    /* \"#utility.yul\":1373:1374   */\n  0x00\n    /* \"#utility.yul\":1366:1381   */\n  revert\n    /* \"#utility.yul\":1393:1698   */\ntag_7:\n    /* \"#utility.yul\":1433:1436   */\n  0x00\n    /* \"#utility.yul\":1452:1472   */\n  tag_33\n    /* \"#utility.yul\":1470:1471   */\n  dup3\n    /* \"#utility.yul\":1452:1472   */\n  tag_12\n  jump\t// in\ntag_33:\n    /* \"#utility.yul\":1447:1472   */\n  swap2\n  pop\n    /* \"#utility.yul\":1486:1506   */\n  tag_34\n    /* \"#utility.yul\":1504:1505   */\n  dup4\n    /* \"#utility.yul\":1486:1506   */\n  tag_12\n  jump\t// in\ntag_34:\n    /* \"#utility.yul\":1481:1506   */\n  swap3\n  pop\n    /* \"#utility.yul\":1640:1641   */\n  dup3\n    /* \"#utility.yul\":1572:1638   */\n  0xffffffffffffffffffffffffffffffffffffffffffffffffffffffffffffffff\n    /* \"#utility.yul\":1568:1642   */\n  sub\n    /* \"#utility.yul\":1565:1566   */\n  dup3\n    /* \"#utility.yul\":1562:1643   */\n  gt\n    /* \"#utility.yul\":1559:1666   */\n  iszero\n  tag_35\n  jumpi\n    /* \"#utility.yul\":1646:1664   */\n  tag_36\n  tag_15\n  jump\t// in\ntag_36:\n    /* \"#utility.yul\":1559:1666   */\ntag_35:\n    /* \"#utility.yul\":1690:1691   */\n  dup3\n    /* \"#utility.yul\":1687:1688   */\n  dup3\n    /* \"#utility.yul\":1683:1692   */\n  add\n    /* \"#utility.yul\":1676:1692   */\n  swap1\n  pop\n    /* \"#utility.yul\":1393:1698   */\n  swap3\n  swap2\n  pop\n  pop\n  jump\t// out\n    /* \"contracts/crowdFunding.sol\":74:2634  contract CrowdFunding{... */\ntag_8:\n  dataSize(sub_0)\n  dup1\n  dataOffset(sub_0)\n  0x00\n  codecopy\n  0x00\n  return\nstop\n\nsub_0: assembly {\n        /* \"contracts/crowdFunding.sol\":74:2634  contract CrowdFunding{... */\n      mstore(0x40, 0x80)\n      jumpi(tag_1, lt(calldatasize, 0x04))\n      shr(0xe0, calldataload(0x00))\n      dup1\n      0x590e1ae3\n      gt\n      tag_15\n      jumpi\n      dup1\n      0xb5fdcfa3\n      gt\n      tag_16\n      jumpi\n      dup1\n      0xb5fdcfa3\n      eq\n      tag_11\n      jumpi\n      dup1\n      0xb6290e76\n      eq\n      tag_12\n      jumpi\n      dup1\n      0xc59ee1dc\n      eq\n      tag_13\n      jumpi\n      dup1\n      0xd4b83992\n      eq\n      tag_14\n      jumpi\n      jump(tag_1)\n    tag_16:\n      dup1\n      0x590e1ae3\n      eq\n      tag_8\n      jumpi\n      dup1\n      0x728d545f\n      eq\n      tag_9\n      jumpi\n      dup1\n      0x8c78444a\n      eq\n      tag_10\n      jumpi\n      jump(tag_1)\n    tag_15:\n      dup1\n      0x06e99fef\n      eq\n      tag_2\n      jumpi\n      dup1\n      0x1f6d4942\n      eq\n      tag_3\n      jumpi\n      dup1\n      0x25caa262\n      eq\n      tag_4\n      jumpi\n      dup1\n      0x29dcb0cf\n      eq\n      tag_5\n      jumpi\n      dup1\n      0x4cb6f4a5\n      eq\n      tag_6\n      jumpi\n      dup1\n      0x5114cb52\n      eq\n      tag_7\n      jumpi\n    tag_1:\n      0x00\n      dup1\n      revert\n        /* \"contracts/crowdFunding.sol\":799:1098  function sendEth() public payable{... */\n    tag_2:\n      tag_17\n      tag_18\n      jump\t// in\n    tag_17:\n      stop\n        /* \"contracts/crowdFunding.sol\":102:146  mapping(address => uint) public contributors */\n    tag_3:\n      callvalue\n      dup1\n      iszero\n      tag_19\n      jumpi\n      0x00\n      dup1\n      revert\n    tag_19:\n      pop\n      tag_20\n      0x04\n      dup1\n      calldatasize\n      sub\n      dup2\n      add\n      swap1\n      tag_21\n      swap2\n      swap1\n      tag_22\n      jump\t// in\n    tag_21:\n      tag_23\n      jump\t// in\n    tag_20:\n      mload(0x40)\n      tag_24\n      swap2\n      swap1\n      tag_25\n      jump\t// in\n    tag_24:\n      mload(0x40)\n      dup1\n      swap2\n      sub\n      swap1\n      return\n        /* \"contracts/crowdFunding.sol\":1104:1194  function getBal() public view returns(uint){... */\n    tag_4:\n      callvalue\n      dup1\n      iszero\n      tag_26\n      jumpi\n      0x00\n      dup1\n      revert\n    tag_26:\n      pop\n      tag_27\n      tag_28\n      jump\t// in\n    tag_27:\n      mload(0x40)\n      tag_29\n      swap2\n      swap1\n      tag_25\n      jump\t// in\n    tag_29:\n      mload(0x40)\n      dup1\n      swap2\n      sub\n      swap1\n      return\n        /* \"contracts/crowdFunding.sol\":227:247  uint public deadline */\n    tag_5:\n      callvalue\n      dup1\n      iszero\n      tag_30\n      jumpi\n      0x00\n      dup1\n      revert\n    tag_30:\n      pop\n      tag_31\n      tag_32\n      jump\t// in\n    tag_31:\n      mload(0x40)\n      tag_33\n      swap2\n      swap1\n      tag_25\n      jump\t// in\n    tag_33:\n      mload(0x40)\n      dup1\n      swap2\n      sub\n      swap1\n      return\n        /* \"contracts/crowdFunding.sol\":2001:2311  function voteRequest(uint _ReqNo) public {... */\n    tag_6:\n      callvalue\n      dup1\n      iszero\n      tag_34\n      jumpi\n      0x00\n      dup1\n      revert\n    tag_34:\n      pop\n      tag_35\n      0x04\n      dup1\n      calldatasize\n      sub\n      dup2\n      add\n      swap1\n      tag_36\n      swap2\n      swap1\n      tag_37\n      jump\t// in\n    tag_36:\n      tag_38\n      jump\t// in\n    tag_35:\n      stop\n        /* \"contracts/crowdFunding.sol\":2317:2631  function makePayment(uint _ReqNo) public {... */\n    tag_7:\n      callvalue\n      dup1\n      iszero\n      tag_39\n      jumpi\n      0x00\n      dup1\n      revert\n    tag_39:\n      pop\n      tag_40\n      0x04\n      dup1\n      calldatasize\n      sub\n      dup2\n      add\n      swap1\n      tag_41\n      swap2\n      swap1\n      tag_37\n      jump\t// in\n    tag_41:\n      tag_42\n      jump\t// in\n    tag_40:\n      stop\n        /* \"contracts/crowdFunding.sol\":1200:1495  function refund() public{... */\n    tag_8:\n      callvalue\n      dup1\n      iszero\n      tag_43\n      jumpi\n      0x00\n      dup1\n      revert\n    tag_43:\n      pop\n      tag_44\n      tag_45\n      jump\t// in\n    tag_44:\n      stop\n        /* \"contracts/crowdFunding.sol\":176:195  uint public minCont */\n    tag_9:\n      callvalue\n      dup1\n      iszero\n      tag_46\n      jumpi\n      0x00\n      dup1\n      revert\n    tag_46:\n      pop\n      tag_47\n      tag_48\n      jump\t// in\n    tag_47:\n      mload(0x40)\n      tag_49\n      swap2\n      swap1\n      tag_25\n      jump\t// in\n    tag_49:\n      mload(0x40)\n      dup1\n      swap2\n      sub\n      swap1\n      return\n        /* \"contracts/crowdFunding.sol\":525:567  mapping(uint=>Request) public RequestsList */\n    tag_10:\n      callvalue\n      dup1\n      iszero\n      tag_50\n      jumpi\n      0x00\n      dup1\n      revert\n    tag_50:\n      pop\n      tag_51\n      0x04\n      dup1\n      calldatasize\n      sub\n      dup2\n      add\n      swap1\n      tag_52\n      swap2\n      swap1\n      tag_37\n      jump\t// in\n    tag_52:\n      tag_53\n      jump\t// in\n    tag_51:\n      mload(0x40)\n      tag_54\n      swap6\n      swap5\n      swap4\n      swap3\n      swap2\n      swap1\n      tag_55\n      jump\t// in\n    tag_54:\n      mload(0x40)\n      dup1\n      swap2\n      sub\n      swap1\n      return\n        /* \"contracts/crowdFunding.sol\":1607:1995  function makeRequest(string memory _description, address payable _recipient, uint _value) public onlyManeger{... */\n    tag_11:\n      callvalue\n      dup1\n      iszero\n      tag_56\n      jumpi\n      0x00\n      dup1\n      revert\n    tag_56:\n      pop\n      tag_57\n      0x04\n      dup1\n      calldatasize\n      sub\n      dup2\n      add\n      swap1\n      tag_58\n      swap2\n      swap1\n      tag_59\n      jump\t// in\n    tag_58:\n      tag_60\n      jump\t// in\n    tag_57:\n      stop\n        /* \"contracts/crowdFunding.sol\":574:599  uint public numOfRequests */\n    tag_12:\n      callvalue\n      dup1\n      iszero\n      tag_61\n      jumpi\n      0x00\n      dup1\n      revert\n    tag_61:\n      pop\n      tag_62\n      tag_63\n      jump\t// in\n    tag_62:\n      mload(0x40)\n      tag_64\n      swap2\n      swap1\n      tag_25\n      jump\t// in\n    tag_64:\n      mload(0x40)\n      dup1\n      swap2\n      sub\n      swap1\n      return\n        /* \"contracts/crowdFunding.sol\":283:307  uint public raisedAmount */\n    tag_13:\n      callvalue\n      dup1\n      iszero\n      tag_65\n      jumpi\n      0x00\n      dup1\n      revert\n    tag_65:\n      pop\n      tag_66\n      tag_67\n      jump\t// in\n    tag_66:\n      mload(0x40)\n      tag_68\n      swap2\n      swap1\n      tag_25\n      jump\t// in\n    tag_68:\n      mload(0x40)\n      dup1\n      swap2\n      sub\n      swap1\n      return\n        /* \"contracts/crowdFunding.sol\":202:220  uint public target */\n    tag_14:\n      callvalue\n      dup1\n      iszero\n      tag_69\n      jumpi\n      0x00\n      dup1\n      revert\n    tag_69:\n      pop\n      tag_70\n      tag_71\n      jump\t// in\n    tag_70:\n      mload(0x40)\n      tag_72\n      swap2\n      swap1\n      tag_25\n      jump\t// in\n    tag_72:\n      mload(0x40)\n      dup1\n      swap2\n      sub\n      swap1\n      return\n        /* \"contracts/crowdFunding.sol\":799:1098  function sendEth() public payable{... */\n    tag_18:\n        /* \"contracts/crowdFunding.sol\":869:877  deadline */\n      sload(0x04)\n        /* \"contracts/crowdFunding.sol\":851:866  block.timestamp */\n      timestamp\n        /* \"contracts/crowdFunding.sol\":851:877  block.timestamp < deadline */\n      lt\n        /* \"contracts/crowdFunding.sol\":843:878  require(block.timestamp < deadline) */\n      tag_74\n      jumpi\n      0x00\n      dup1\n      revert\n    tag_74:\n        /* \"contracts/crowdFunding.sol\":910:917  minCont */\n      sload(0x02)\n        /* \"contracts/crowdFunding.sol\":897:906  msg.value */\n      callvalue\n        /* \"contracts/crowdFunding.sol\":897:917  msg.value >= minCont */\n      lt\n      iszero\n        /* \"contracts/crowdFunding.sol\":889:918  require(msg.value >= minCont) */\n      tag_75\n      jumpi\n      0x00\n      dup1\n      revert\n    tag_75:\n        /* \"contracts/crowdFunding.sol\":960:961  0 */\n      0x00\n        /* \"contracts/crowdFunding.sol\":932:944  contributors */\n      dup1\n        /* \"contracts/crowdFunding.sol\":932:956  contributors[msg.sender] */\n      0x00\n        /* \"contracts/crowdFunding.sol\":945:955  msg.sender */\n      caller\n        /* \"contracts/crowdFunding.sol\":932:956  contributors[msg.sender] */\n      0xffffffffffffffffffffffffffffffffffffffff\n      and\n      0xffffffffffffffffffffffffffffffffffffffff\n      and\n      dup2\n      mstore\n      0x20\n      add\n      swap1\n      dup2\n      mstore\n      0x20\n      add\n      0x00\n      keccak256\n      sload\n        /* \"contracts/crowdFunding.sol\":932:961  contributors[msg.sender] == 0 */\n      sub\n        /* \"contracts/crowdFunding.sol\":929:1007  if(contributors[msg.sender] == 0){... */\n      tag_76\n      jumpi\n        /* \"contracts/crowdFunding.sol\":977:993  noOfContributors */\n      0x05\n      0x00\n        /* \"contracts/crowdFunding.sol\":977:995  noOfContributors++ */\n      dup2\n      sload\n      dup1\n      swap3\n      swap2\n      swap1\n      tag_77\n      swap1\n      tag_78\n      jump\t// in\n    tag_77:\n      swap2\n      swap1\n      pop\n      sstore\n      pop\n        /* \"contracts/crowdFunding.sol\":929:1007  if(contributors[msg.sender] == 0){... */\n    tag_76:\n        /* \"contracts/crowdFunding.sol\":1045:1054  msg.value */\n      callvalue\n        /* \"contracts/crowdFunding.sol\":1017:1029  contributors */\n      0x00\n        /* \"contracts/crowdFunding.sol\":1017:1041  contributors[msg.sender] */\n      dup1\n        /* \"contracts/crowdFunding.sol\":1030:1040  msg.sender */\n      caller\n        /* \"contracts/crowdFunding.sol\":1017:1041  contributors[msg.sender] */\n      0xffffffffffffffffffffffffffffffffffffffff\n      and\n      0xffffffffffffffffffffffffffffffffffffffff\n      and\n      dup2\n      mstore\n      0x20\n      add\n      swap1\n      dup2\n      mstore\n      0x20\n      add\n      0x00\n      keccak256\n      0x00\n        /* \"contracts/crowdFunding.sol\":1017:1054  contributors[msg.sender] += msg.value */\n      dup3\n      dup3\n      sload\n      tag_79\n      swap2\n      swap1\n      tag_80\n      jump\t// in\n    tag_79:\n      swap3\n      pop\n      pop\n      dup2\n      swap1\n      sstore\n      pop\n        /* \"contracts/crowdFunding.sol\":1081:1090  msg.value */\n      callvalue\n        /* \"contracts/crowdFunding.sol\":1065:1077  raisedAmount */\n      0x06\n      0x00\n        /* \"contracts/crowdFunding.sol\":1065:1090  raisedAmount += msg.value */\n      dup3\n      dup3\n      sload\n      tag_81\n      swap2\n      swap1\n      tag_80\n      jump\t// in\n    tag_81:\n      swap3\n      pop\n      pop\n      dup2\n      swap1\n      sstore\n      pop\n        /* \"contracts/crowdFunding.sol\":799:1098  function sendEth() public payable{... */\n      jump\t// out\n        /* \"contracts/crowdFunding.sol\":102:146  mapping(address => uint) public contributors */\n    tag_23:\n      mstore(0x20, 0x00)\n      dup1\n      0x00\n      mstore\n      keccak256(0x00, 0x40)\n      0x00\n      swap2\n      pop\n      swap1\n      pop\n      sload\n      dup2\n      jump\t// out\n        /* \"contracts/crowdFunding.sol\":1104:1194  function getBal() public view returns(uint){... */\n    tag_28:\n        /* \"contracts/crowdFunding.sol\":1142:1146  uint */\n      0x00\n        /* \"contracts/crowdFunding.sol\":1165:1186  address(this).balance */\n      selfbalance\n        /* \"contracts/crowdFunding.sol\":1158:1186  return address(this).balance */\n      swap1\n      pop\n        /* \"contracts/crowdFunding.sol\":1104:1194  function getBal() public view returns(uint){... */\n      swap1\n      jump\t// out\n        /* \"contracts/crowdFunding.sol\":227:247  uint public deadline */\n    tag_32:\n      sload(0x04)\n      dup2\n      jump\t// out\n        /* \"contracts/crowdFunding.sol\":2001:2311  function voteRequest(uint _ReqNo) public {... */\n    tag_38:\n        /* \"contracts/crowdFunding.sol\":2088:2089  0 */\n      0x00\n        /* \"contracts/crowdFunding.sol\":2061:2073  contributors */\n      dup1\n        /* \"contracts/crowdFunding.sol\":2061:2085  contributors[msg.sender] */\n      0x00\n        /* \"contracts/crowdFunding.sol\":2074:2084  msg.sender */\n      caller\n        /* \"contracts/crowdFunding.sol\":2061:2085  contributors[msg.sender] */\n      0xffffffffffffffffffffffffffffffffffffffff\n      and\n      0xffffffffffffffffffffffffffffffffffffffff\n      and\n      dup2\n      mstore\n      0x20\n      add\n      swap1\n      dup2\n      mstore\n      0x20\n      add\n      0x00\n      keccak256\n      sload\n        /* \"contracts/crowdFunding.sol\":2061:2089  contributors[msg.sender] > 0 */\n      gt\n        /* \"contracts/crowdFunding.sol\":2053:2090  require(contributors[msg.sender] > 0) */\n      tag_84\n      jumpi\n      0x00\n      dup1\n      revert\n    tag_84:\n        /* \"contracts/crowdFunding.sol\":2101:2124  Request storage newVote */\n      0x00\n        /* \"contracts/crowdFunding.sol\":2127:2139  RequestsList */\n      0x07\n        /* \"contracts/crowdFunding.sol\":2127:2147  RequestsList[_ReqNo] */\n      0x00\n        /* \"contracts/crowdFunding.sol\":2140:2146  _ReqNo */\n      dup4\n        /* \"contracts/crowdFunding.sol\":2127:2147  RequestsList[_ReqNo] */\n      dup2\n      mstore\n      0x20\n      add\n      swap1\n      dup2\n      mstore\n      0x20\n      add\n      0x00\n      keccak256\n        /* \"contracts/crowdFunding.sol\":2101:2147  Request storage newVote = RequestsList[_ReqNo] */\n      swap1\n      pop\n        /* \"contracts/crowdFunding.sol\":2196:2201  false */\n      0x00\n        /* \"contracts/crowdFunding.sol\":2166:2201  newVote.voters[msg.sender] == false */\n      iszero\n      iszero\n        /* \"contracts/crowdFunding.sol\":2166:2173  newVote */\n      dup2\n        /* \"contracts/crowdFunding.sol\":2166:2180  newVote.voters */\n      0x05\n      add\n        /* \"contracts/crowdFunding.sol\":2166:2192  newVote.voters[msg.sender] */\n      0x00\n        /* \"contracts/crowdFunding.sol\":2181:2191  msg.sender */\n      caller\n        /* \"contracts/crowdFunding.sol\":2166:2192  newVote.voters[msg.sender] */\n      0xffffffffffffffffffffffffffffffffffffffff\n      and\n      0xffffffffffffffffffffffffffffffffffffffff\n      and\n      dup2\n      mstore\n      0x20\n      add\n      swap1\n      dup2\n      mstore\n      0x20\n      add\n      0x00\n      keccak256\n      0x00\n      swap1\n      sload\n      swap1\n      0x0100\n      exp\n      swap1\n      div\n      0xff\n      and\n        /* \"contracts/crowdFunding.sol\":2166:2201  newVote.voters[msg.sender] == false */\n      iszero\n      iszero\n      eq\n        /* \"contracts/crowdFunding.sol\":2158:2228  require(newVote.voters[msg.sender] == false, \"you have already voted\") */\n      tag_85\n      jumpi\n      mload(0x40)\n      0x08c379a000000000000000000000000000000000000000000000000000000000\n      dup2\n      mstore\n      0x04\n      add\n      tag_86\n      swap1\n      tag_87\n      jump\t// in\n    tag_86:\n      mload(0x40)\n      dup1\n      swap2\n      sub\n      swap1\n      revert\n    tag_85:\n        /* \"contracts/crowdFunding.sol\":2239:2246  newVote */\n      dup1\n        /* \"contracts/crowdFunding.sol\":2239:2257  newVote.noOfVoters */\n      0x04\n      add\n      0x00\n        /* \"contracts/crowdFunding.sol\":2239:2259  newVote.noOfVoters++ */\n      dup2\n      sload\n      dup1\n      swap3\n      swap2\n      swap1\n      tag_88\n      swap1\n      tag_78\n      jump\t// in\n    tag_88:\n      swap2\n      swap1\n      pop\n      sstore\n      pop\n        /* \"contracts/crowdFunding.sol\":2299:2303  true */\n      0x01\n        /* \"contracts/crowdFunding.sol\":2270:2277  newVote */\n      dup2\n        /* \"contracts/crowdFunding.sol\":2270:2284  newVote.voters */\n      0x05\n      add\n        /* \"contracts/crowdFunding.sol\":2270:2296  newVote.voters[msg.sender] */\n      0x00\n        /* \"contracts/crowdFunding.sol\":2285:2295  msg.sender */\n      caller\n        /* \"contracts/crowdFunding.sol\":2270:2296  newVote.voters[msg.sender] */\n      0xffffffffffffffffffffffffffffffffffffffff\n      and\n      0xffffffffffffffffffffffffffffffffffffffff\n      and\n      dup2\n      mstore\n      0x20\n      add\n      swap1\n      dup2\n      mstore\n      0x20\n      add\n      0x00\n      keccak256\n      0x00\n        /* \"contracts/crowdFunding.sol\":2270:2303  newVote.voters[msg.sender] = true */\n      0x0100\n      exp\n      dup2\n      sload\n      dup2\n      0xff\n      mul\n      not\n      and\n      swap1\n      dup4\n      iszero\n      iszero\n      mul\n      or\n      swap1\n      sstore\n      pop\n        /* \"contracts/crowdFunding.sol\":2042:2311  {... */\n      pop\n        /* \"contracts/crowdFunding.sol\":2001:2311  function voteRequest(uint _ReqNo) public {... */\n      pop\n      jump\t// out\n        /* \"contracts/crowdFunding.sol\":2317:2631  function makePayment(uint _ReqNo) public {... */\n    tag_42:\n        /* \"contracts/crowdFunding.sol\":2391:2398  maneger */\n      0x01\n      0x00\n      swap1\n      sload\n      swap1\n      0x0100\n      exp\n      swap1\n      div\n      0xffffffffffffffffffffffffffffffffffffffff\n      and\n        /* \"contracts/crowdFunding.sol\":2377:2398  msg.sender == maneger */\n      0xffffffffffffffffffffffffffffffffffffffff\n      and\n        /* \"contracts/crowdFunding.sol\":2377:2387  msg.sender */\n      caller\n        /* \"contracts/crowdFunding.sol\":2377:2398  msg.sender == maneger */\n      0xffffffffffffffffffffffffffffffffffffffff\n      and\n      eq\n        /* \"contracts/crowdFunding.sol\":2369:2399  require(msg.sender == maneger) */\n      tag_90\n      jumpi\n      0x00\n      dup1\n      revert\n    tag_90:\n        /* \"contracts/crowdFunding.sol\":2410:2430  Request storage temp */\n      0x00\n        /* \"contracts/crowdFunding.sol\":2433:2445  RequestsList */\n      0x07\n        /* \"contracts/crowdFunding.sol\":2433:2453  RequestsList[_ReqNo] */\n      0x00\n        /* \"contracts/crowdFunding.sol\":2446:2452  _ReqNo */\n      dup4\n        /* \"contracts/crowdFunding.sol\":2433:2453  RequestsList[_ReqNo] */\n      dup2\n      mstore\n      0x20\n      add\n      swap1\n      dup2\n      mstore\n      0x20\n      add\n      0x00\n      keccak256\n        /* \"contracts/crowdFunding.sol\":2410:2453  Request storage temp = RequestsList[_ReqNo] */\n      swap1\n      pop\n        /* \"contracts/crowdFunding.sol\":2490:2495  false */\n      0x00\n        /* \"contracts/crowdFunding.sol\":2472:2495  temp.completed == false */\n      iszero\n      iszero\n        /* \"contracts/crowdFunding.sol\":2472:2476  temp */\n      dup2\n        /* \"contracts/crowdFunding.sol\":2472:2486  temp.completed */\n      0x03\n      add\n      0x00\n      swap1\n      sload\n      swap1\n      0x0100\n      exp\n      swap1\n      div\n      0xff\n      and\n        /* \"contracts/crowdFunding.sol\":2472:2495  temp.completed == false */\n      iszero\n      iszero\n      eq\n        /* \"contracts/crowdFunding.sol\":2464:2496  require(temp.completed == false) */\n      tag_91\n      jumpi\n      0x00\n      dup1\n      revert\n    tag_91:\n        /* \"contracts/crowdFunding.sol\":2550:2551  2 */\n      0x02\n        /* \"contracts/crowdFunding.sol\":2533:2549  noOfContributors */\n      sload(0x05)\n        /* \"contracts/crowdFunding.sol\":2533:2551  noOfContributors/2 */\n      tag_92\n      swap2\n      swap1\n      tag_93\n      jump\t// in\n    tag_92:\n        /* \"contracts/crowdFunding.sol\":2515:2519  temp */\n      dup2\n        /* \"contracts/crowdFunding.sol\":2515:2530  temp.noOfVoters */\n      0x04\n      add\n      sload\n        /* \"contracts/crowdFunding.sol\":2515:2551  temp.noOfVoters > noOfContributors/2 */\n      gt\n        /* \"contracts/crowdFunding.sol\":2507:2552  require(temp.noOfVoters > noOfContributors/2) */\n      tag_94\n      jumpi\n      0x00\n      dup1\n      revert\n    tag_94:\n        /* \"contracts/crowdFunding.sol\":2563:2567  temp */\n      dup1\n        /* \"contracts/crowdFunding.sol\":2563:2577  temp.recipient */\n      0x01\n      add\n      0x00\n      swap1\n      sload\n      swap1\n      0x0100\n      exp\n      swap1\n      div\n      0xffffffffffffffffffffffffffffffffffffffff\n      and\n        /* \"contracts/crowdFunding.sol\":2563:2586  temp.recipient.transfer */\n      0xffffffffffffffffffffffffffffffffffffffff\n      and\n        /* \"contracts/crowdFunding.sol\":2563:2591  temp.recipient.transfer(100) */\n      0x08fc\n        /* \"contracts/crowdFunding.sol\":2587:2590  100 */\n      0x64\n        /* \"contracts/crowdFunding.sol\":2563:2591  temp.recipient.transfer(100) */\n      swap1\n      dup2\n      iszero\n      mul\n      swap1\n      mload(0x40)\n      0x00\n      mload(0x40)\n      dup1\n      dup4\n      sub\n      dup2\n      dup6\n      dup9\n      dup9\n      call\n      swap4\n      pop\n      pop\n      pop\n      pop\n      iszero\n      dup1\n      iszero\n      tag_96\n      jumpi\n      returndatasize\n      0x00\n      dup1\n      returndatacopy\n      revert(0x00, returndatasize)\n    tag_96:\n      pop\n        /* \"contracts/crowdFunding.sol\":2619:2623  true */\n      0x01\n        /* \"contracts/crowdFunding.sol\":2602:2606  temp */\n      dup2\n        /* \"contracts/crowdFunding.sol\":2602:2616  temp.completed */\n      0x03\n      add\n      0x00\n        /* \"contracts/crowdFunding.sol\":2602:2623  temp.completed = true */\n      0x0100\n      exp\n      dup2\n      sload\n      dup2\n      0xff\n      mul\n      not\n      and\n      swap1\n      dup4\n      iszero\n      iszero\n      mul\n      or\n      swap1\n      sstore\n      pop\n        /* \"contracts/crowdFunding.sol\":2358:2631  {... */\n      pop\n        /* \"contracts/crowdFunding.sol\":2317:2631  function makePayment(uint _ReqNo) public {... */\n      pop\n      jump\t// out\n        /* \"contracts/crowdFunding.sol\":1200:1495  function refund() public{... */\n    tag_45:\n        /* \"contracts/crowdFunding.sol\":1261:1269  deadline */\n      sload(0x04)\n        /* \"contracts/crowdFunding.sol\":1243:1258  block.timestamp */\n      timestamp\n        /* \"contracts/crowdFunding.sol\":1243:1269  block.timestamp < deadline */\n      lt\n        /* \"contracts/crowdFunding.sol\":1243:1294  block.timestamp < deadline && raisedAmount < target */\n      dup1\n      iszero\n      tag_98\n      jumpi\n      pop\n        /* \"contracts/crowdFunding.sol\":1288:1294  target */\n      sload(0x03)\n        /* \"contracts/crowdFunding.sol\":1273:1285  raisedAmount */\n      sload(0x06)\n        /* \"contracts/crowdFunding.sol\":1273:1294  raisedAmount < target */\n      lt\n        /* \"contracts/crowdFunding.sol\":1243:1294  block.timestamp < deadline && raisedAmount < target */\n    tag_98:\n        /* \"contracts/crowdFunding.sol\":1235:1295  require(block.timestamp < deadline && raisedAmount < target) */\n      tag_99\n      jumpi\n      0x00\n      dup1\n      revert\n    tag_99:\n        /* \"contracts/crowdFunding.sol\":1341:1342  0 */\n      0x00\n        /* \"contracts/crowdFunding.sol\":1314:1326  contributors */\n      dup1\n        /* \"contracts/crowdFunding.sol\":1314:1338  contributors[msg.sender] */\n      0x00\n        /* \"contracts/crowdFunding.sol\":1327:1337  msg.sender */\n      caller\n        /* \"contracts/crowdFunding.sol\":1314:1338  contributors[msg.sender] */\n      0xffffffffffffffffffffffffffffffffffffffff\n      and\n      0xffffffffffffffffffffffffffffffffffffffff\n      and\n      dup2\n      mstore\n      0x20\n      add\n      swap1\n      dup2\n      mstore\n      0x20\n      add\n      0x00\n      keccak256\n      sload\n        /* \"contracts/crowdFunding.sol\":1314:1342  contributors[msg.sender] > 0 */\n      gt\n        /* \"contracts/crowdFunding.sol\":1306:1343  require(contributors[msg.sender] > 0) */\n      tag_100\n      jumpi\n      0x00\n      dup1\n      revert\n    tag_100:\n        /* \"contracts/crowdFunding.sol\":1356:1376  address payable user */\n      0x00\n        /* \"contracts/crowdFunding.sol\":1387:1397  msg.sender */\n      caller\n        /* \"contracts/crowdFunding.sol\":1356:1398  address payable user = payable(msg.sender) */\n      swap1\n      pop\n        /* \"contracts/crowdFunding.sol\":1409:1413  user */\n      dup1\n        /* \"contracts/crowdFunding.sol\":1409:1422  user.transfer */\n      0xffffffffffffffffffffffffffffffffffffffff\n      and\n        /* \"contracts/crowdFunding.sol\":1409:1448  user.transfer(contributors[msg.sender]) */\n      0x08fc\n        /* \"contracts/crowdFunding.sol\":1423:1435  contributors */\n      0x00\n        /* \"contracts/crowdFunding.sol\":1423:1447  contributors[msg.sender] */\n      dup1\n        /* \"contracts/crowdFunding.sol\":1436:1446  msg.sender */\n      caller\n        /* \"contracts/crowdFunding.sol\":1423:1447  contributors[msg.sender] */\n      0xffffffffffffffffffffffffffffffffffffffff\n      and\n      0xffffffffffffffffffffffffffffffffffffffff\n      and\n      dup2\n      mstore\n      0x20\n      add\n      swap1\n      dup2\n      mstore\n      0x20\n      add\n      0x00\n      keccak256\n      sload\n        /* \"contracts/crowdFunding.sol\":1409:1448  user.transfer(contributors[msg.sender]) */\n      swap1\n      dup2\n      iszero\n      mul\n      swap1\n      mload(0x40)\n      0x00\n      mload(0x40)\n      dup1\n      dup4\n      sub\n      dup2\n      dup6\n      dup9\n      dup9\n      call\n      swap4\n      pop\n      pop\n      pop\n      pop\n      iszero\n      dup1\n      iszero\n      tag_102\n      jumpi\n      returndatasize\n      0x00\n      dup1\n      returndatacopy\n      revert(0x00, returndatasize)\n    tag_102:\n      pop\n        /* \"contracts/crowdFunding.sol\":1486:1487  0 */\n      0x00\n        /* \"contracts/crowdFunding.sol\":1459:1471  contributors */\n      dup1\n        /* \"contracts/crowdFunding.sol\":1459:1483  contributors[msg.sender] */\n      0x00\n        /* \"contracts/crowdFunding.sol\":1472:1482  msg.sender */\n      caller\n        /* \"contracts/crowdFunding.sol\":1459:1483  contributors[msg.sender] */\n      0xffffffffffffffffffffffffffffffffffffffff\n      and\n      0xffffffffffffffffffffffffffffffffffffffff\n      and\n      dup2\n      mstore\n      0x20\n      add\n      swap1\n      dup2\n      mstore\n      0x20\n      add\n      0x00\n      keccak256\n        /* \"contracts/crowdFunding.sol\":1459:1487  contributors[msg.sender] = 0 */\n      dup2\n      swap1\n      sstore\n      pop\n        /* \"contracts/crowdFunding.sol\":1224:1495  {... */\n      pop\n        /* \"contracts/crowdFunding.sol\":1200:1495  function refund() public{... */\n      jump\t// out\n        /* \"contracts/crowdFunding.sol\":176:195  uint public minCont */\n    tag_48:\n      sload(0x02)\n      dup2\n      jump\t// out\n        /* \"contracts/crowdFunding.sol\":525:567  mapping(uint=>Request) public RequestsList */\n    tag_53:\n      mstore(0x20, 0x07)\n      dup1\n      0x00\n      mstore\n      keccak256(0x00, 0x40)\n      0x00\n      swap2\n      pop\n      swap1\n      pop\n      dup1\n      0x00\n      add\n      dup1\n      sload\n      tag_103\n      swap1\n      tag_104\n      jump\t// in\n    tag_103:\n      dup1\n      0x1f\n      add\n      0x20\n      dup1\n      swap2\n      div\n      mul\n      0x20\n      add\n      mload(0x40)\n      swap1\n      dup2\n      add\n      0x40\n      mstore\n      dup1\n      swap3\n      swap2\n      swap1\n      dup2\n      dup2\n      mstore\n      0x20\n      add\n      dup3\n      dup1\n      sload\n      tag_105\n      swap1\n      tag_104\n      jump\t// in\n    tag_105:\n      dup1\n      iszero\n      tag_106\n      jumpi\n      dup1\n      0x1f\n      lt\n      tag_107\n      jumpi\n      0x0100\n      dup1\n      dup4\n      sload\n      div\n      mul\n      dup4\n      mstore\n      swap2\n      0x20\n      add\n      swap2\n      jump(tag_106)\n    tag_107:\n      dup3\n      add\n      swap2\n      swap1\n      0x00\n      mstore\n      keccak256(0x00, 0x20)\n      swap1\n    tag_108:\n      dup2\n      sload\n      dup2\n      mstore\n      swap1\n      0x01\n      add\n      swap1\n      0x20\n      add\n      dup1\n      dup4\n      gt\n      tag_108\n      jumpi\n      dup3\n      swap1\n      sub\n      0x1f\n      and\n      dup3\n      add\n      swap2\n    tag_106:\n      pop\n      pop\n      pop\n      pop\n      pop\n      swap1\n      dup1\n      0x01\n      add\n      0x00\n      swap1\n      sload\n      swap1\n      0x0100\n      exp\n      swap1\n      div\n      0xffffffffffffffffffffffffffffffffffffffff\n      and\n      swap1\n      dup1\n      0x02\n      add\n      sload\n      swap1\n      dup1\n      0x03\n      add\n      0x00\n      swap1\n      sload\n      swap1\n      0x0100\n      exp\n      swap1\n      div\n      0xff\n      and\n      swap1\n      dup1\n      0x04\n      add\n      sload\n      swap1\n      pop\n      dup6\n      jump\t// out\n        /* \"contracts/crowdFunding.sol\":1607:1995  function makeRequest(string memory _description, address payable _recipient, uint _value) public onlyManeger{... */\n    tag_60:\n        /* \"contracts/crowdFunding.sol\":1554:1561  maneger */\n      0x01\n      0x00\n      swap1\n      sload\n      swap1\n      0x0100\n      exp\n      swap1\n      div\n      0xffffffffffffffffffffffffffffffffffffffff\n      and\n        /* \"contracts/crowdFunding.sol\":1542:1561  msg.sender==maneger */\n      0xffffffffffffffffffffffffffffffffffffffff\n      and\n        /* \"contracts/crowdFunding.sol\":1542:1552  msg.sender */\n      caller\n        /* \"contracts/crowdFunding.sol\":1542:1561  msg.sender==maneger */\n      0xffffffffffffffffffffffffffffffffffffffff\n      and\n      eq\n        /* \"contracts/crowdFunding.sol\":1534:1581  require(msg.sender==maneger, \"not the maneger\") */\n      tag_110\n      jumpi\n      mload(0x40)\n      0x08c379a000000000000000000000000000000000000000000000000000000000\n      dup2\n      mstore\n      0x04\n      add\n      tag_111\n      swap1\n      tag_112\n      jump\t// in\n    tag_111:\n      mload(0x40)\n      dup1\n      swap2\n      sub\n      swap1\n      revert\n    tag_110:\n        /* \"contracts/crowdFunding.sol\":1726:1748  Request storage newReq */\n      0x00\n        /* \"contracts/crowdFunding.sol\":1751:1763  RequestsList */\n      0x07\n        /* \"contracts/crowdFunding.sol\":1751:1778  RequestsList[numOfRequests] */\n      0x00\n        /* \"contracts/crowdFunding.sol\":1764:1777  numOfRequests */\n      sload(0x08)\n        /* \"contracts/crowdFunding.sol\":1751:1778  RequestsList[numOfRequests] */\n      dup2\n      mstore\n      0x20\n      add\n      swap1\n      dup2\n      mstore\n      0x20\n      add\n      0x00\n      keccak256\n        /* \"contracts/crowdFunding.sol\":1726:1778  Request storage newReq = RequestsList[numOfRequests] */\n      swap1\n      pop\n        /* \"contracts/crowdFunding.sol\":1789:1802  numOfRequests */\n      0x08\n      0x00\n        /* \"contracts/crowdFunding.sol\":1789:1804  numOfRequests++ */\n      dup2\n      sload\n      dup1\n      swap3\n      swap2\n      swap1\n      tag_114\n      swap1\n      tag_78\n      jump\t// in\n    tag_114:\n      swap2\n      swap1\n      pop\n      sstore\n      pop\n        /* \"contracts/crowdFunding.sol\":1836:1848  _description */\n      dup4\n        /* \"contracts/crowdFunding.sol\":1815:1821  newReq */\n      dup2\n        /* \"contracts/crowdFunding.sol\":1815:1833  newReq.description */\n      0x00\n      add\n        /* \"contracts/crowdFunding.sol\":1815:1848  newReq.description = _description */\n      swap1\n      dup2\n      tag_115\n      swap2\n      swap1\n      tag_116\n      jump\t// in\n    tag_115:\n      pop\n        /* \"contracts/crowdFunding.sol\":1878:1888  _recipient */\n      dup3\n        /* \"contracts/crowdFunding.sol\":1859:1865  newReq */\n      dup2\n        /* \"contracts/crowdFunding.sol\":1859:1875  newReq.recipient */\n      0x01\n      add\n      0x00\n        /* \"contracts/crowdFunding.sol\":1859:1888  newReq.recipient = _recipient */\n      0x0100\n      exp\n      dup2\n      sload\n      dup2\n      0xffffffffffffffffffffffffffffffffffffffff\n      mul\n      not\n      and\n      swap1\n      dup4\n      0xffffffffffffffffffffffffffffffffffffffff\n      and\n      mul\n      or\n      swap1\n      sstore\n      pop\n        /* \"contracts/crowdFunding.sol\":1914:1920  _value */\n      dup2\n        /* \"contracts/crowdFunding.sol\":1899:1905  newReq */\n      dup2\n        /* \"contracts/crowdFunding.sol\":1899:1911  newReq.value */\n      0x02\n      add\n        /* \"contracts/crowdFunding.sol\":1899:1920  newReq.value = _value */\n      dup2\n      swap1\n      sstore\n      pop\n        /* \"contracts/crowdFunding.sol\":1950:1955  false */\n      0x00\n        /* \"contracts/crowdFunding.sol\":1931:1937  newReq */\n      dup2\n        /* \"contracts/crowdFunding.sol\":1931:1947  newReq.completed */\n      0x03\n      add\n      0x00\n        /* \"contracts/crowdFunding.sol\":1931:1955  newReq.completed = false */\n      0x0100\n      exp\n      dup2\n      sload\n      dup2\n      0xff\n      mul\n      not\n      and\n      swap1\n      dup4\n      iszero\n      iszero\n      mul\n      or\n      swap1\n      sstore\n      pop\n        /* \"contracts/crowdFunding.sol\":1986:1987  0 */\n      0x00\n        /* \"contracts/crowdFunding.sol\":1966:1972  newReq */\n      dup2\n        /* \"contracts/crowdFunding.sol\":1966:1983  newReq.noOfVoters */\n      0x04\n      add\n        /* \"contracts/crowdFunding.sol\":1966:1987  newReq.noOfVoters = 0 */\n      dup2\n      swap1\n      sstore\n      pop\n        /* \"contracts/crowdFunding.sol\":1715:1995  {... */\n      pop\n        /* \"contracts/crowdFunding.sol\":1607:1995  function makeRequest(string memory _description, address payable _recipient, uint _value) public onlyManeger{... */\n      pop\n      pop\n      pop\n      jump\t// out\n        /* \"contracts/crowdFunding.sol\":574:599  uint public numOfRequests */\n    tag_63:\n      sload(0x08)\n      dup2\n      jump\t// out\n        /* \"contracts/crowdFunding.sol\":283:307  uint public raisedAmount */\n    tag_67:\n      sload(0x06)\n      dup2\n      jump\t// out\n        /* \"contracts/crowdFunding.sol\":202:220  uint public target */\n    tag_71:\n      sload(0x03)\n      dup2\n      jump\t// out\n        /* \"#utility.yul\":7:82   */\n    tag_117:\n        /* \"#utility.yul\":40:46   */\n      0x00\n        /* \"#utility.yul\":73:75   */\n      0x40\n        /* \"#utility.yul\":67:76   */\n      mload\n        /* \"#utility.yul\":57:76   */\n      swap1\n      pop\n        /* \"#utility.yul\":7:82   */\n      swap1\n      jump\t// out\n        /* \"#utility.yul\":88:205   */\n    tag_118:\n        /* \"#utility.yul\":197:198   */\n      0x00\n        /* \"#utility.yul\":194:195   */\n      dup1\n        /* \"#utility.yul\":187:199   */\n      revert\n        /* \"#utility.yul\":211:328   */\n    tag_119:\n        /* \"#utility.yul\":320:321   */\n      0x00\n        /* \"#utility.yul\":317:318   */\n      dup1\n        /* \"#utility.yul\":310:322   */\n      revert\n        /* \"#utility.yul\":334:460   */\n    tag_120:\n        /* \"#utility.yul\":371:378   */\n      0x00\n        /* \"#utility.yul\":411:453   */\n      0xffffffffffffffffffffffffffffffffffffffff\n        /* \"#utility.yul\":404:409   */\n      dup3\n        /* \"#utility.yul\":400:454   */\n      and\n        /* \"#utility.yul\":389:454   */\n      swap1\n      pop\n        /* \"#utility.yul\":334:460   */\n      swap2\n      swap1\n      pop\n      jump\t// out\n        /* \"#utility.yul\":466:562   */\n    tag_121:\n        /* \"#utility.yul\":503:510   */\n      0x00\n        /* \"#utility.yul\":532:556   */\n      tag_176\n        /* \"#utility.yul\":550:555   */\n      dup3\n        /* \"#utility.yul\":532:556   */\n      tag_120\n      jump\t// in\n    tag_176:\n        /* \"#utility.yul\":521:556   */\n      swap1\n      pop\n        /* \"#utility.yul\":466:562   */\n      swap2\n      swap1\n      pop\n      jump\t// out\n        /* \"#utility.yul\":568:690   */\n    tag_122:\n        /* \"#utility.yul\":641:665   */\n      tag_178\n        /* \"#utility.yul\":659:664   */\n      dup2\n        /* \"#utility.yul\":641:665   */\n      tag_121\n      jump\t// in\n    tag_178:\n        /* \"#utility.yul\":634:639   */\n      dup2\n        /* \"#utility.yul\":631:666   */\n      eq\n        /* \"#utility.yul\":621:684   */\n      tag_179\n      jumpi\n        /* \"#utility.yul\":680:681   */\n      0x00\n        /* \"#utility.yul\":677:678   */\n      dup1\n        /* \"#utility.yul\":670:682   */\n      revert\n        /* \"#utility.yul\":621:684   */\n    tag_179:\n        /* \"#utility.yul\":568:690   */\n      pop\n      jump\t// out\n        /* \"#utility.yul\":696:835   */\n    tag_123:\n        /* \"#utility.yul\":742:747   */\n      0x00\n        /* \"#utility.yul\":780:786   */\n      dup2\n        /* \"#utility.yul\":767:787   */\n      calldataload\n        /* \"#utility.yul\":758:787   */\n      swap1\n      pop\n        /* \"#utility.yul\":796:829   */\n      tag_181\n        /* \"#utility.yul\":823:828   */\n      dup2\n        /* \"#utility.yul\":796:829   */\n      tag_122\n      jump\t// in\n    tag_181:\n        /* \"#utility.yul\":696:835   */\n      swap3\n      swap2\n      pop\n      pop\n      jump\t// out\n        /* \"#utility.yul\":841:1170   */\n    tag_22:\n        /* \"#utility.yul\":900:906   */\n      0x00\n        /* \"#utility.yul\":949:951   */\n      0x20\n        /* \"#utility.yul\":937:946   */\n      dup3\n        /* \"#utility.yul\":928:935   */\n      dup5\n        /* \"#utility.yul\":924:947   */\n      sub\n        /* \"#utility.yul\":920:952   */\n      slt\n        /* \"#utility.yul\":917:1036   */\n      iszero\n      tag_183\n      jumpi\n        /* \"#utility.yul\":955:1034   */\n      tag_184\n      tag_118\n      jump\t// in\n    tag_184:\n        /* \"#utility.yul\":917:1036   */\n    tag_183:\n        /* \"#utility.yul\":1075:1076   */\n      0x00\n        /* \"#utility.yul\":1100:1153   */\n      tag_185\n        /* \"#utility.yul\":1145:1152   */\n      dup5\n        /* \"#utility.yul\":1136:1142   */\n      dup3\n        /* \"#utility.yul\":1125:1134   */\n      dup6\n        /* \"#utility.yul\":1121:1143   */\n      add\n        /* \"#utility.yul\":1100:1153   */\n      tag_123\n      jump\t// in\n    tag_185:\n        /* \"#utility.yul\":1090:1153   */\n      swap2\n      pop\n        /* \"#utility.yul\":1046:1163   */\n      pop\n        /* \"#utility.yul\":841:1170   */\n      swap3\n      swap2\n      pop\n      pop\n      jump\t// out\n        /* \"#utility.yul\":1176:1253   */\n    tag_124:\n        /* \"#utility.yul\":1213:1220   */\n      0x00\n        /* \"#utility.yul\":1242:1247   */\n      dup2\n        /* \"#utility.yul\":1231:1247   */\n      swap1\n      pop\n        /* \"#utility.yul\":1176:1253   */\n      swap2\n      swap1\n      pop\n      jump\t// out\n        /* \"#utility.yul\":1259:1377   */\n    tag_125:\n        /* \"#utility.yul\":1346:1370   */\n      tag_188\n        /* \"#utility.yul\":1364:1369   */\n      dup2\n        /* \"#utility.yul\":1346:1370   */\n      tag_124\n      jump\t// in\n    tag_188:\n        /* \"#utility.yul\":1341:1344   */\n      dup3\n        /* \"#utility.yul\":1334:1371   */\n      mstore\n        /* \"#utility.yul\":1259:1377   */\n      pop\n      pop\n      jump\t// out\n        /* \"#utility.yul\":1383:1605   */\n    tag_25:\n        /* \"#utility.yul\":1476:1480   */\n      0x00\n        /* \"#utility.yul\":1514:1516   */\n      0x20\n        /* \"#utility.yul\":1503:1512   */\n      dup3\n        /* \"#utility.yul\":1499:1517   */\n      add\n        /* \"#utility.yul\":1491:1517   */\n      swap1\n      pop\n        /* \"#utility.yul\":1527:1598   */\n      tag_190\n        /* \"#utility.yul\":1595:1596   */\n      0x00\n        /* \"#utility.yul\":1584:1593   */\n      dup4\n        /* \"#utility.yul\":1580:1597   */\n      add\n        /* \"#utility.yul\":1571:1577   */\n      dup5\n        /* \"#utility.yul\":1527:1598   */\n      tag_125\n      jump\t// in\n    tag_190:\n        /* \"#utility.yul\":1383:1605   */\n      swap3\n      swap2\n      pop\n      pop\n      jump\t// out\n        /* \"#utility.yul\":1611:1733   */\n    tag_126:\n        /* \"#utility.yul\":1684:1708   */\n      tag_192\n        /* \"#utility.yul\":1702:1707   */\n      dup2\n        /* \"#utility.yul\":1684:1708   */\n      tag_124\n      jump\t// in\n    tag_192:\n        /* \"#utility.yul\":1677:1682   */\n      dup2\n        /* \"#utility.yul\":1674:1709   */\n      eq\n        /* \"#utility.yul\":1664:1727   */\n      tag_193\n      jumpi\n        /* \"#utility.yul\":1723:1724   */\n      0x00\n        /* \"#utility.yul\":1720:1721   */\n      dup1\n        /* \"#utility.yul\":1713:1725   */\n      revert\n        /* \"#utility.yul\":1664:1727   */\n    tag_193:\n        /* \"#utility.yul\":1611:1733   */\n      pop\n      jump\t// out\n        /* \"#utility.yul\":1739:1878   */\n    tag_127:\n        /* \"#utility.yul\":1785:1790   */\n      0x00\n        /* \"#utility.yul\":1823:1829   */\n      dup2\n        /* \"#utility.yul\":1810:1830   */\n      calldataload\n        /* \"#utility.yul\":1801:1830   */\n      swap1\n      pop\n        /* \"#utility.yul\":1839:1872   */\n      tag_195\n        /* \"#utility.yul\":1866:1871   */\n      dup2\n        /* \"#utility.yul\":1839:1872   */\n      tag_126\n      jump\t// in\n    tag_195:\n        /* \"#utility.yul\":1739:1878   */\n      swap3\n      swap2\n      pop\n      pop\n      jump\t// out\n        /* \"#utility.yul\":1884:2213   */\n    tag_37:\n        /* \"#utility.yul\":1943:1949   */\n      0x00\n        /* \"#utility.yul\":1992:1994   */\n      0x20\n        /* \"#utility.yul\":1980:1989   */\n      dup3\n        /* \"#utility.yul\":1971:1978   */\n      dup5\n        /* \"#utility.yul\":1967:1990   */\n      sub\n        /* \"#utility.yul\":1963:1995   */\n      slt\n        /* \"#utility.yul\":1960:2079   */\n      iszero\n      tag_197\n      jumpi\n        /* \"#utility.yul\":1998:2077   */\n      tag_198\n      tag_118\n      jump\t// in\n    tag_198:\n        /* \"#utility.yul\":1960:2079   */\n    tag_197:\n        /* \"#utility.yul\":2118:2119   */\n      0x00\n        /* \"#utility.yul\":2143:2196   */\n      tag_199\n        /* \"#utility.yul\":2188:2195   */\n      dup5\n        /* \"#utility.yul\":2179:2185   */\n      dup3\n        /* \"#utility.yul\":2168:2177   */\n      dup6\n        /* \"#utility.yul\":2164:2186   */\n      add\n        /* \"#utility.yul\":2143:2196   */\n      tag_127\n      jump\t// in\n    tag_199:\n        /* \"#utility.yul\":2133:2196   */\n      swap2\n      pop\n        /* \"#utility.yul\":2089:2206   */\n      pop\n        /* \"#utility.yul\":1884:2213   */\n      swap3\n      swap2\n      pop\n      pop\n      jump\t// out\n        /* \"#utility.yul\":2219:2318   */\n    tag_128:\n        /* \"#utility.yul\":2271:2277   */\n      0x00\n        /* \"#utility.yul\":2305:2310   */\n      dup2\n        /* \"#utility.yul\":2299:2311   */\n      mload\n        /* \"#utility.yul\":2289:2311   */\n      swap1\n      pop\n        /* \"#utility.yul\":2219:2318   */\n      swap2\n      swap1\n      pop\n      jump\t// out\n        /* \"#utility.yul\":2324:2493   */\n    tag_129:\n        /* \"#utility.yul\":2408:2419   */\n      0x00\n        /* \"#utility.yul\":2442:2448   */\n      dup3\n        /* \"#utility.yul\":2437:2440   */\n      dup3\n        /* \"#utility.yul\":2430:2449   */\n      mstore\n        /* \"#utility.yul\":2482:2486   */\n      0x20\n        /* \"#utility.yul\":2477:2480   */\n      dup3\n        /* \"#utility.yul\":2473:2487   */\n      add\n        /* \"#utility.yul\":2458:2487   */\n      swap1\n      pop\n        /* \"#utility.yul\":2324:2493   */\n      swap3\n      swap2\n      pop\n      pop\n      jump\t// out\n        /* \"#utility.yul\":2499:2806   */\n    tag_130:\n        /* \"#utility.yul\":2567:2568   */\n      0x00\n        /* \"#utility.yul\":2577:2690   */\n    tag_203:\n        /* \"#utility.yul\":2591:2597   */\n      dup4\n        /* \"#utility.yul\":2588:2589   */\n      dup2\n        /* \"#utility.yul\":2585:2598   */\n      lt\n        /* \"#utility.yul\":2577:2690   */\n      iszero\n      tag_205\n      jumpi\n        /* \"#utility.yul\":2676:2677   */\n      dup1\n        /* \"#utility.yul\":2671:2674   */\n      dup3\n        /* \"#utility.yul\":2667:2678   */\n      add\n        /* \"#utility.yul\":2661:2679   */\n      mload\n        /* \"#utility.yul\":2657:2658   */\n      dup2\n        /* \"#utility.yul\":2652:2655   */\n      dup5\n        /* \"#utility.yul\":2648:2659   */\n      add\n        /* \"#utility.yul\":2641:2680   */\n      mstore\n        /* \"#utility.yul\":2613:2615   */\n      0x20\n        /* \"#utility.yul\":2610:2611   */\n      dup2\n        /* \"#utility.yul\":2606:2616   */\n      add\n        /* \"#utility.yul\":2601:2616   */\n      swap1\n      pop\n        /* \"#utility.yul\":2577:2690   */\n      jump(tag_203)\n    tag_205:\n        /* \"#utility.yul\":2708:2714   */\n      dup4\n        /* \"#utility.yul\":2705:2706   */\n      dup2\n        /* \"#utility.yul\":2702:2715   */\n      gt\n        /* \"#utility.yul\":2699:2800   */\n      iszero\n      tag_206\n      jumpi\n        /* \"#utility.yul\":2788:2789   */\n      0x00\n        /* \"#utility.yul\":2779:2785   */\n      dup5\n        /* \"#utility.yul\":2774:2777   */\n      dup5\n        /* \"#utility.yul\":2770:2786   */\n      add\n        /* \"#utility.yul\":2763:2790   */\n      mstore\n        /* \"#utility.yul\":2699:2800   */\n    tag_206:\n        /* \"#utility.yul\":2548:2806   */\n      pop\n        /* \"#utility.yul\":2499:2806   */\n      pop\n      pop\n      pop\n      jump\t// out\n        /* \"#utility.yul\":2812:2914   */\n    tag_131:\n        /* \"#utility.yul\":2853:2859   */\n      0x00\n        /* \"#utility.yul\":2904:2906   */\n      0x1f\n        /* \"#utility.yul\":2900:2907   */\n      not\n        /* \"#utility.yul\":2895:2897   */\n      0x1f\n        /* \"#utility.yul\":2888:2893   */\n      dup4\n        /* \"#utility.yul\":2884:2898   */\n      add\n        /* \"#utility.yul\":2880:2908   */\n      and\n        /* \"#utility.yul\":2870:2908   */\n      swap1\n      pop\n        /* \"#utility.yul\":2812:2914   */\n      swap2\n      swap1\n      pop\n      jump\t// out\n        /* \"#utility.yul\":2920:3284   */\n    tag_132:\n        /* \"#utility.yul\":3008:3011   */\n      0x00\n        /* \"#utility.yul\":3036:3075   */\n      tag_209\n        /* \"#utility.yul\":3069:3074   */\n      dup3\n        /* \"#utility.yul\":3036:3075   */\n      tag_128\n      jump\t// in\n    tag_209:\n        /* \"#utility.yul\":3091:3162   */\n      tag_210\n        /* \"#utility.yul\":3155:3161   */\n      dup2\n        /* \"#utility.yul\":3150:3153   */\n      dup6\n        /* \"#utility.yul\":3091:3162   */\n      tag_129\n      jump\t// in\n    tag_210:\n        /* \"#utility.yul\":3084:3162   */\n      swap4\n      pop\n        /* \"#utility.yul\":3171:3223   */\n      tag_211\n        /* \"#utility.yul\":3216:3222   */\n      dup2\n        /* \"#utility.yul\":3211:3214   */\n      dup6\n        /* \"#utility.yul\":3204:3208   */\n      0x20\n        /* \"#utility.yul\":3197:3202   */\n      dup7\n        /* \"#utility.yul\":3193:3209   */\n      add\n        /* \"#utility.yul\":3171:3223   */\n      tag_130\n      jump\t// in\n    tag_211:\n        /* \"#utility.yul\":3248:3277   */\n      tag_212\n        /* \"#utility.yul\":3270:3276   */\n      dup2\n        /* \"#utility.yul\":3248:3277   */\n      tag_131\n      jump\t// in\n    tag_212:\n        /* \"#utility.yul\":3243:3246   */\n      dup5\n        /* \"#utility.yul\":3239:3278   */\n      add\n        /* \"#utility.yul\":3232:3278   */\n      swap2\n      pop\n        /* \"#utility.yul\":3012:3284   */\n      pop\n        /* \"#utility.yul\":2920:3284   */\n      swap3\n      swap2\n      pop\n      pop\n      jump\t// out\n        /* \"#utility.yul\":3290:3394   */\n    tag_133:\n        /* \"#utility.yul\":3335:3342   */\n      0x00\n        /* \"#utility.yul\":3364:3388   */\n      tag_214\n        /* \"#utility.yul\":3382:3387   */\n      dup3\n        /* \"#utility.yul\":3364:3388   */\n      tag_120\n      jump\t// in\n    tag_214:\n        /* \"#utility.yul\":3353:3388   */\n      swap1\n      pop\n        /* \"#utility.yul\":3290:3394   */\n      swap2\n      swap1\n      pop\n      jump\t// out\n        /* \"#utility.yul\":3400:3542   */\n    tag_134:\n        /* \"#utility.yul\":3503:3535   */\n      tag_216\n        /* \"#utility.yul\":3529:3534   */\n      dup2\n        /* \"#utility.yul\":3503:3535   */\n      tag_133\n      jump\t// in\n    tag_216:\n        /* \"#utility.yul\":3498:3501   */\n      dup3\n        /* \"#utility.yul\":3491:3536   */\n      mstore\n        /* \"#utility.yul\":3400:3542   */\n      pop\n      pop\n      jump\t// out\n        /* \"#utility.yul\":3548:3638   */\n    tag_135:\n        /* \"#utility.yul\":3582:3589   */\n      0x00\n        /* \"#utility.yul\":3625:3630   */\n      dup2\n        /* \"#utility.yul\":3618:3631   */\n      iszero\n        /* \"#utility.yul\":3611:3632   */\n      iszero\n        /* \"#utility.yul\":3600:3632   */\n      swap1\n      pop\n        /* \"#utility.yul\":3548:3638   */\n      swap2\n      swap1\n      pop\n      jump\t// out\n        /* \"#utility.yul\":3644:3753   */\n    tag_136:\n        /* \"#utility.yul\":3725:3746   */\n      tag_219\n        /* \"#utility.yul\":3740:3745   */\n      dup2\n        /* \"#utility.yul\":3725:3746   */\n      tag_135\n      jump\t// in\n    tag_219:\n        /* \"#utility.yul\":3720:3723   */\n      dup3\n        /* \"#utility.yul\":3713:3747   */\n      mstore\n        /* \"#utility.yul\":3644:3753   */\n      pop\n      pop\n      jump\t// out\n        /* \"#utility.yul\":3759:4534   */\n    tag_55:\n        /* \"#utility.yul\":3994:3998   */\n      0x00\n        /* \"#utility.yul\":4032:4035   */\n      0xa0\n        /* \"#utility.yul\":4021:4030   */\n      dup3\n        /* \"#utility.yul\":4017:4036   */\n      add\n        /* \"#utility.yul\":4009:4036   */\n      swap1\n      pop\n        /* \"#utility.yul\":4082:4091   */\n      dup2\n        /* \"#utility.yul\":4076:4080   */\n      dup2\n        /* \"#utility.yul\":4072:4092   */\n      sub\n        /* \"#utility.yul\":4068:4069   */\n      0x00\n        /* \"#utility.yul\":4057:4066   */\n      dup4\n        /* \"#utility.yul\":4053:4070   */\n      add\n        /* \"#utility.yul\":4046:4093   */\n      mstore\n        /* \"#utility.yul\":4110:4188   */\n      tag_221\n        /* \"#utility.yul\":4183:4187   */\n      dup2\n        /* \"#utility.yul\":4174:4180   */\n      dup9\n        /* \"#utility.yul\":4110:4188   */\n      tag_132\n      jump\t// in\n    tag_221:\n        /* \"#utility.yul\":4102:4188   */\n      swap1\n      pop\n        /* \"#utility.yul\":4198:4286   */\n      tag_222\n        /* \"#utility.yul\":4282:4284   */\n      0x20\n        /* \"#utility.yul\":4271:4280   */\n      dup4\n        /* \"#utility.yul\":4267:4285   */\n      add\n        /* \"#utility.yul\":4258:4264   */\n      dup8\n        /* \"#utility.yul\":4198:4286   */\n      tag_134\n      jump\t// in\n    tag_222:\n        /* \"#utility.yul\":4296:4368   */\n      tag_223\n        /* \"#utility.yul\":4364:4366   */\n      0x40\n        /* \"#utility.yul\":4353:4362   */\n      dup4\n        /* \"#utility.yul\":4349:4367   */\n      add\n        /* \"#utility.yul\":4340:4346   */\n      dup7\n        /* \"#utility.yul\":4296:4368   */\n      tag_125\n      jump\t// in\n    tag_223:\n        /* \"#utility.yul\":4378:4444   */\n      tag_224\n        /* \"#utility.yul\":4440:4442   */\n      0x60\n        /* \"#utility.yul\":4429:4438   */\n      dup4\n        /* \"#utility.yul\":4425:4443   */\n      add\n        /* \"#utility.yul\":4416:4422   */\n      dup6\n        /* \"#utility.yul\":4378:4444   */\n      tag_136\n      jump\t// in\n    tag_224:\n        /* \"#utility.yul\":4454:4527   */\n      tag_225\n        /* \"#utility.yul\":4522:4525   */\n      0x80\n        /* \"#utility.yul\":4511:4520   */\n      dup4\n        /* \"#utility.yul\":4507:4526   */\n      add\n        /* \"#utility.yul\":4498:4504   */\n      dup5\n        /* \"#utility.yul\":4454:4527   */\n      tag_125\n      jump\t// in\n    tag_225:\n        /* \"#utility.yul\":3759:4534   */\n      swap7\n      swap6\n      pop\n      pop\n      pop\n      pop\n      pop\n      pop\n      jump\t// out\n        /* \"#utility.yul\":4540:4657   */\n    tag_137:\n        /* \"#utility.yul\":4649:4650   */\n      0x00\n        /* \"#utility.yul\":4646:4647   */\n      dup1\n        /* \"#utility.yul\":4639:4651   */\n      revert\n        /* \"#utility.yul\":4663:4780   */\n    tag_138:\n        /* \"#utility.yul\":4772:4773   */\n      0x00\n        /* \"#utility.yul\":4769:4770   */\n      dup1\n        /* \"#utility.yul\":4762:4774   */\n      revert\n        /* \"#utility.yul\":4786:4966   */\n    tag_139:\n        /* \"#utility.yul\":4834:4911   */\n      0x4e487b7100000000000000000000000000000000000000000000000000000000\n        /* \"#utility.yul\":4831:4832   */\n      0x00\n        /* \"#utility.yul\":4824:4912   */\n      mstore\n        /* \"#utility.yul\":4931:4935   */\n      0x41\n        /* \"#utility.yul\":4928:4929   */\n      0x04\n        /* \"#utility.yul\":4921:4936   */\n      mstore\n        /* \"#utility.yul\":4955:4959   */\n      0x24\n        /* \"#utility.yul\":4952:4953   */\n      0x00\n        /* \"#utility.yul\":4945:4960   */\n      revert\n        /* \"#utility.yul\":4972:5253   */\n    tag_140:\n        /* \"#utility.yul\":5055:5082   */\n      tag_230\n        /* \"#utility.yul\":5077:5081   */\n      dup3\n        /* \"#utility.yul\":5055:5082   */\n      tag_131\n      jump\t// in\n    tag_230:\n        /* \"#utility.yul\":5047:5053   */\n      dup2\n        /* \"#utility.yul\":5043:5083   */\n      add\n        /* \"#utility.yul\":5185:5191   */\n      dup2\n        /* \"#utility.yul\":5173:5183   */\n      dup2\n        /* \"#utility.yul\":5170:5192   */\n      lt\n        /* \"#utility.yul\":5149:5167   */\n      0xffffffffffffffff\n        /* \"#utility.yul\":5137:5147   */\n      dup3\n        /* \"#utility.yul\":5134:5168   */\n      gt\n        /* \"#utility.yul\":5131:5193   */\n      or\n        /* \"#utility.yul\":5128:5216   */\n      iszero\n      tag_231\n      jumpi\n        /* \"#utility.yul\":5196:5214   */\n      tag_232\n      tag_139\n      jump\t// in\n    tag_232:\n        /* \"#utility.yul\":5128:5216   */\n    tag_231:\n        /* \"#utility.yul\":5236:5246   */\n      dup1\n        /* \"#utility.yul\":5232:5234   */\n      0x40\n        /* \"#utility.yul\":5225:5247   */\n      mstore\n        /* \"#utility.yul\":5015:5253   */\n      pop\n        /* \"#utility.yul\":4972:5253   */\n      pop\n      pop\n      jump\t// out\n        /* \"#utility.yul\":5259:5388   */\n    tag_141:\n        /* \"#utility.yul\":5293:5299   */\n      0x00\n        /* \"#utility.yul\":5320:5340   */\n      tag_234\n      tag_117\n      jump\t// in\n    tag_234:\n        /* \"#utility.yul\":5310:5340   */\n      swap1\n      pop\n        /* \"#utility.yul\":5349:5382   */\n      tag_235\n        /* \"#utility.yul\":5377:5381   */\n      dup3\n        /* \"#utility.yul\":5369:5375   */\n      dup3\n        /* \"#utility.yul\":5349:5382   */\n      tag_140\n      jump\t// in\n    tag_235:\n        /* \"#utility.yul\":5259:5388   */\n      swap2\n      swap1\n      pop\n      jump\t// out\n        /* \"#utility.yul\":5394:5702   */\n    tag_142:\n        /* \"#utility.yul\":5456:5460   */\n      0x00\n        /* \"#utility.yul\":5546:5564   */\n      0xffffffffffffffff\n        /* \"#utility.yul\":5538:5544   */\n      dup3\n        /* \"#utility.yul\":5535:5565   */\n      gt\n        /* \"#utility.yul\":5532:5588   */\n      iszero\n      tag_237\n      jumpi\n        /* \"#utility.yul\":5568:5586   */\n      tag_238\n      tag_139\n      jump\t// in\n    tag_238:\n        /* \"#utility.yul\":5532:5588   */\n    tag_237:\n        /* \"#utility.yul\":5606:5635   */\n      tag_239\n        /* \"#utility.yul\":5628:5634   */\n      dup3\n        /* \"#utility.yul\":5606:5635   */\n      tag_131\n      jump\t// in\n    tag_239:\n        /* \"#utility.yul\":5598:5635   */\n      swap1\n      pop\n        /* \"#utility.yul\":5690:5694   */\n      0x20\n        /* \"#utility.yul\":5684:5688   */\n      dup2\n        /* \"#utility.yul\":5680:5695   */\n      add\n        /* \"#utility.yul\":5672:5695   */\n      swap1\n      pop\n        /* \"#utility.yul\":5394:5702   */\n      swap2\n      swap1\n      pop\n      jump\t// out\n        /* \"#utility.yul\":5708:5862   */\n    tag_143:\n        /* \"#utility.yul\":5792:5798   */\n      dup3\n        /* \"#utility.yul\":5787:5790   */\n      dup2\n        /* \"#utility.yul\":5782:5785   */\n      dup4\n        /* \"#utility.yul\":5769:5799   */\n      calldatacopy\n        /* \"#utility.yul\":5854:5855   */\n      0x00\n        /* \"#utility.yul\":5845:5851   */\n      dup4\n        /* \"#utility.yul\":5840:5843   */\n      dup4\n        /* \"#utility.yul\":5836:5852   */\n      add\n        /* \"#utility.yul\":5829:5856   */\n      mstore\n        /* \"#utility.yul\":5708:5862   */\n      pop\n      pop\n      pop\n      jump\t// out\n        /* \"#utility.yul\":5868:6280   */\n    tag_144:\n        /* \"#utility.yul\":5946:5951   */\n      0x00\n        /* \"#utility.yul\":5971:6037   */\n      tag_242\n        /* \"#utility.yul\":5987:6036   */\n      tag_243\n        /* \"#utility.yul\":6029:6035   */\n      dup5\n        /* \"#utility.yul\":5987:6036   */\n      tag_142\n      jump\t// in\n    tag_243:\n        /* \"#utility.yul\":5971:6037   */\n      tag_141\n      jump\t// in\n    tag_242:\n        /* \"#utility.yul\":5962:6037   */\n      swap1\n      pop\n        /* \"#utility.yul\":6060:6066   */\n      dup3\n        /* \"#utility.yul\":6053:6058   */\n      dup2\n        /* \"#utility.yul\":6046:6067   */\n      mstore\n        /* \"#utility.yul\":6098:6102   */\n      0x20\n        /* \"#utility.yul\":6091:6096   */\n      dup2\n        /* \"#utility.yul\":6087:6103   */\n      add\n        /* \"#utility.yul\":6136:6139   */\n      dup5\n        /* \"#utility.yul\":6127:6133   */\n      dup5\n        /* \"#utility.yul\":6122:6125   */\n      dup5\n        /* \"#utility.yul\":6118:6134   */\n      add\n        /* \"#utility.yul\":6115:6140   */\n      gt\n        /* \"#utility.yul\":6112:6224   */\n      iszero\n      tag_244\n      jumpi\n        /* \"#utility.yul\":6143:6222   */\n      tag_245\n      tag_138\n      jump\t// in\n    tag_245:\n        /* \"#utility.yul\":6112:6224   */\n    tag_244:\n        /* \"#utility.yul\":6233:6274   */\n      tag_246\n        /* \"#utility.yul\":6267:6273   */\n      dup5\n        /* \"#utility.yul\":6262:6265   */\n      dup3\n        /* \"#utility.yul\":6257:6260   */\n      dup6\n        /* \"#utility.yul\":6233:6274   */\n      tag_143\n      jump\t// in\n    tag_246:\n        /* \"#utility.yul\":5952:6280   */\n      pop\n        /* \"#utility.yul\":5868:6280   */\n      swap4\n      swap3\n      pop\n      pop\n      pop\n      jump\t// out\n        /* \"#utility.yul\":6300:6640   */\n    tag_145:\n        /* \"#utility.yul\":6356:6361   */\n      0x00\n        /* \"#utility.yul\":6405:6408   */\n      dup3\n        /* \"#utility.yul\":6398:6402   */\n      0x1f\n        /* \"#utility.yul\":6390:6396   */\n      dup4\n        /* \"#utility.yul\":6386:6403   */\n      add\n        /* \"#utility.yul\":6382:6409   */\n      slt\n        /* \"#utility.yul\":6372:6494   */\n      tag_248\n      jumpi\n        /* \"#utility.yul\":6413:6492   */\n      tag_249\n      tag_137\n      jump\t// in\n    tag_249:\n        /* \"#utility.yul\":6372:6494   */\n    tag_248:\n        /* \"#utility.yul\":6530:6536   */\n      dup2\n        /* \"#utility.yul\":6517:6537   */\n      calldataload\n        /* \"#utility.yul\":6555:6634   */\n      tag_250\n        /* \"#utility.yul\":6630:6633   */\n      dup5\n        /* \"#utility.yul\":6622:6628   */\n      dup3\n        /* \"#utility.yul\":6615:6619   */\n      0x20\n        /* \"#utility.yul\":6607:6613   */\n      dup7\n        /* \"#utility.yul\":6603:6620   */\n      add\n        /* \"#utility.yul\":6555:6634   */\n      tag_144\n      jump\t// in\n    tag_250:\n        /* \"#utility.yul\":6546:6634   */\n      swap2\n      pop\n        /* \"#utility.yul\":6362:6640   */\n      pop\n        /* \"#utility.yul\":6300:6640   */\n      swap3\n      swap2\n      pop\n      pop\n      jump\t// out\n        /* \"#utility.yul\":6646:6784   */\n    tag_146:\n        /* \"#utility.yul\":6727:6759   */\n      tag_252\n        /* \"#utility.yul\":6753:6758   */\n      dup2\n        /* \"#utility.yul\":6727:6759   */\n      tag_133\n      jump\t// in\n    tag_252:\n        /* \"#utility.yul\":6720:6725   */\n      dup2\n        /* \"#utility.yul\":6717:6760   */\n      eq\n        /* \"#utility.yul\":6707:6778   */\n      tag_253\n      jumpi\n        /* \"#utility.yul\":6774:6775   */\n      0x00\n        /* \"#utility.yul\":6771:6772   */\n      dup1\n        /* \"#utility.yul\":6764:6776   */\n      revert\n        /* \"#utility.yul\":6707:6778   */\n    tag_253:\n        /* \"#utility.yul\":6646:6784   */\n      pop\n      jump\t// out\n        /* \"#utility.yul\":6790:6945   */\n    tag_147:\n        /* \"#utility.yul\":6844:6849   */\n      0x00\n        /* \"#utility.yul\":6882:6888   */\n      dup2\n        /* \"#utility.yul\":6869:6889   */\n      calldataload\n        /* \"#utility.yul\":6860:6889   */\n      swap1\n      pop\n        /* \"#utility.yul\":6898:6939   */\n      tag_255\n        /* \"#utility.yul\":6933:6938   */\n      dup2\n        /* \"#utility.yul\":6898:6939   */\n      tag_146\n      jump\t// in\n    tag_255:\n        /* \"#utility.yul\":6790:6945   */\n      swap3\n      swap2\n      pop\n      pop\n      jump\t// out\n        /* \"#utility.yul\":6951:7766   */\n    tag_59:\n        /* \"#utility.yul\":7046:7052   */\n      0x00\n        /* \"#utility.yul\":7054:7060   */\n      dup1\n        /* \"#utility.yul\":7062:7068   */\n      0x00\n        /* \"#utility.yul\":7111:7113   */\n      0x60\n        /* \"#utility.yul\":7099:7108   */\n      dup5\n        /* \"#utility.yul\":7090:7097   */\n      dup7\n        /* \"#utility.yul\":7086:7109   */\n      sub\n        /* \"#utility.yul\":7082:7114   */\n      slt\n        /* \"#utility.yul\":7079:7198   */\n      iszero\n      tag_257\n      jumpi\n        /* \"#utility.yul\":7117:7196   */\n      tag_258\n      tag_118\n      jump\t// in\n    tag_258:\n        /* \"#utility.yul\":7079:7198   */\n    tag_257:\n        /* \"#utility.yul\":7265:7266   */\n      0x00\n        /* \"#utility.yul\":7254:7263   */\n      dup5\n        /* \"#utility.yul\":7250:7267   */\n      add\n        /* \"#utility.yul\":7237:7268   */\n      calldataload\n        /* \"#utility.yul\":7295:7313   */\n      0xffffffffffffffff\n        /* \"#utility.yul\":7287:7293   */\n      dup2\n        /* \"#utility.yul\":7284:7314   */\n      gt\n        /* \"#utility.yul\":7281:7398   */\n      iszero\n      tag_259\n      jumpi\n        /* \"#utility.yul\":7317:7396   */\n      tag_260\n      tag_119\n      jump\t// in\n    tag_260:\n        /* \"#utility.yul\":7281:7398   */\n    tag_259:\n        /* \"#utility.yul\":7422:7485   */\n      tag_261\n        /* \"#utility.yul\":7477:7484   */\n      dup7\n        /* \"#utility.yul\":7468:7474   */\n      dup3\n        /* \"#utility.yul\":7457:7466   */\n      dup8\n        /* \"#utility.yul\":7453:7475   */\n      add\n        /* \"#utility.yul\":7422:7485   */\n      tag_145\n      jump\t// in\n    tag_261:\n        /* \"#utility.yul\":7412:7485   */\n      swap4\n      pop\n        /* \"#utility.yul\":7208:7495   */\n      pop\n        /* \"#utility.yul\":7534:7536   */\n      0x20\n        /* \"#utility.yul\":7560:7621   */\n      tag_262\n        /* \"#utility.yul\":7613:7620   */\n      dup7\n        /* \"#utility.yul\":7604:7610   */\n      dup3\n        /* \"#utility.yul\":7593:7602   */\n      dup8\n        /* \"#utility.yul\":7589:7611   */\n      add\n        /* \"#utility.yul\":7560:7621   */\n      tag_147\n      jump\t// in\n    tag_262:\n        /* \"#utility.yul\":7550:7621   */\n      swap3\n      pop\n        /* \"#utility.yul\":7505:7631   */\n      pop\n        /* \"#utility.yul\":7670:7672   */\n      0x40\n        /* \"#utility.yul\":7696:7749   */\n      tag_263\n        /* \"#utility.yul\":7741:7748   */\n      dup7\n        /* \"#utility.yul\":7732:7738   */\n      dup3\n        /* \"#utility.yul\":7721:7730   */\n      dup8\n        /* \"#utility.yul\":7717:7739   */\n      add\n        /* \"#utility.yul\":7696:7749   */\n      tag_127\n      jump\t// in\n    tag_263:\n        /* \"#utility.yul\":7686:7749   */\n      swap2\n      pop\n        /* \"#utility.yul\":7641:7759   */\n      pop\n        /* \"#utility.yul\":6951:7766   */\n      swap3\n      pop\n      swap3\n      pop\n      swap3\n      jump\t// out\n        /* \"#utility.yul\":7772:7952   */\n    tag_148:\n        /* \"#utility.yul\":7820:7897   */\n      0x4e487b7100000000000000000000000000000000000000000000000000000000\n        /* \"#utility.yul\":7817:7818   */\n      0x00\n        /* \"#utility.yul\":7810:7898   */\n      mstore\n        /* \"#utility.yul\":7917:7921   */\n      0x11\n        /* \"#utility.yul\":7914:7915   */\n      0x04\n        /* \"#utility.yul\":7907:7922   */\n      mstore\n        /* \"#utility.yul\":7941:7945   */\n      0x24\n        /* \"#utility.yul\":7938:7939   */\n      0x00\n        /* \"#utility.yul\":7931:7946   */\n      revert\n        /* \"#utility.yul\":7958:8191   */\n    tag_78:\n        /* \"#utility.yul\":7997:8000   */\n      0x00\n        /* \"#utility.yul\":8020:8044   */\n      tag_266\n        /* \"#utility.yul\":8038:8043   */\n      dup3\n        /* \"#utility.yul\":8020:8044   */\n      tag_124\n      jump\t// in\n    tag_266:\n        /* \"#utility.yul\":8011:8044   */\n      swap2\n      pop\n        /* \"#utility.yul\":8066:8132   */\n      0xffffffffffffffffffffffffffffffffffffffffffffffffffffffffffffffff\n        /* \"#utility.yul\":8059:8064   */\n      dup3\n        /* \"#utility.yul\":8056:8133   */\n      sub\n        /* \"#utility.yul\":8053:8156   */\n      tag_267\n      jumpi\n        /* \"#utility.yul\":8136:8154   */\n      tag_268\n      tag_148\n      jump\t// in\n    tag_268:\n        /* \"#utility.yul\":8053:8156   */\n    tag_267:\n        /* \"#utility.yul\":8183:8184   */\n      0x01\n        /* \"#utility.yul\":8176:8181   */\n      dup3\n        /* \"#utility.yul\":8172:8185   */\n      add\n        /* \"#utility.yul\":8165:8185   */\n      swap1\n      pop\n        /* \"#utility.yul\":7958:8191   */\n      swap2\n      swap1\n      pop\n      jump\t// out\n        /* \"#utility.yul\":8197:8502   */\n    tag_80:\n        /* \"#utility.yul\":8237:8240   */\n      0x00\n        /* \"#utility.yul\":8256:8276   */\n      tag_270\n        /* \"#utility.yul\":8274:8275   */\n      dup3\n        /* \"#utility.yul\":8256:8276   */\n      tag_124\n      jump\t// in\n    tag_270:\n        /* \"#utility.yul\":8251:8276   */\n      swap2\n      pop\n        /* \"#utility.yul\":8290:8310   */\n      tag_271\n        /* \"#utility.yul\":8308:8309   */\n      dup4\n        /* \"#utility.yul\":8290:8310   */\n      tag_124\n      jump\t// in\n    tag_271:\n        /* \"#utility.yul\":8285:8310   */\n      swap3\n      pop\n        /* \"#utility.yul\":8444:8445   */\n      dup3\n        /* \"#utility.yul\":8376:8442   */\n      0xffffffffffffffffffffffffffffffffffffffffffffffffffffffffffffffff\n        /* \"#utility.yul\":8372:8446   */\n      sub\n        /* \"#utility.yul\":8369:8370   */\n      dup3\n        /* \"#utility.yul\":8366:8447   */\n      gt\n        /* \"#utility.yul\":8363:8470   */\n      iszero\n      tag_272\n      jumpi\n        /* \"#utility.yul\":8450:8468   */\n      tag_273\n      tag_148\n      jump\t// in\n    tag_273:\n        /* \"#utility.yul\":8363:8470   */\n    tag_272:\n        /* \"#utility.yul\":8494:8495   */\n      dup3\n        /* \"#utility.yul\":8491:8492   */\n      dup3\n        /* \"#utility.yul\":8487:8496   */\n      add\n        /* \"#utility.yul\":8480:8496   */\n      swap1\n      pop\n        /* \"#utility.yul\":8197:8502   */\n      swap3\n      swap2\n      pop\n      pop\n      jump\t// out\n        /* \"#utility.yul\":8508:8680   */\n    tag_149:\n        /* \"#utility.yul\":8648:8672   */\n      0x796f75206861766520616c726561647920766f74656400000000000000000000\n        /* \"#utility.yul\":8644:8645   */\n      0x00\n        /* \"#utility.yul\":8636:8642   */\n      dup3\n        /* \"#utility.yul\":8632:8646   */\n      add\n        /* \"#utility.yul\":8625:8673   */\n      mstore\n        /* \"#utility.yul\":8508:8680   */\n      pop\n      jump\t// out\n        /* \"#utility.yul\":8686:9052   */\n    tag_150:\n        /* \"#utility.yul\":8828:8831   */\n      0x00\n        /* \"#utility.yul\":8849:8916   */\n      tag_276\n        /* \"#utility.yul\":8913:8915   */\n      0x16\n        /* \"#utility.yul\":8908:8911   */\n      dup4\n        /* \"#utility.yul\":8849:8916   */\n      tag_129\n      jump\t// in\n    tag_276:\n        /* \"#utility.yul\":8842:8916   */\n      swap2\n      pop\n        /* \"#utility.yul\":8925:9018   */\n      tag_277\n        /* \"#utility.yul\":9014:9017   */\n      dup3\n        /* \"#utility.yul\":8925:9018   */\n      tag_149\n      jump\t// in\n    tag_277:\n        /* \"#utility.yul\":9043:9045   */\n      0x20\n        /* \"#utility.yul\":9038:9041   */\n      dup3\n        /* \"#utility.yul\":9034:9046   */\n      add\n        /* \"#utility.yul\":9027:9046   */\n      swap1\n      pop\n        /* \"#utility.yul\":8686:9052   */\n      swap2\n      swap1\n      pop\n      jump\t// out\n        /* \"#utility.yul\":9058:9477   */\n    tag_87:\n        /* \"#utility.yul\":9224:9228   */\n      0x00\n        /* \"#utility.yul\":9262:9264   */\n      0x20\n        /* \"#utility.yul\":9251:9260   */\n      dup3\n        /* \"#utility.yul\":9247:9265   */\n      add\n        /* \"#utility.yul\":9239:9265   */\n      swap1\n      pop\n        /* \"#utility.yul\":9311:9320   */\n      dup2\n        /* \"#utility.yul\":9305:9309   */\n      dup2\n        /* \"#utility.yul\":9301:9321   */\n      sub\n        /* \"#utility.yul\":9297:9298   */\n      0x00\n        /* \"#utility.yul\":9286:9295   */\n      dup4\n        /* \"#utility.yul\":9282:9299   */\n      add\n        /* \"#utility.yul\":9275:9322   */\n      mstore\n        /* \"#utility.yul\":9339:9470   */\n      tag_279\n        /* \"#utility.yul\":9465:9469   */\n      dup2\n        /* \"#utility.yul\":9339:9470   */\n      tag_150\n      jump\t// in\n    tag_279:\n        /* \"#utility.yul\":9331:9470   */\n      swap1\n      pop\n        /* \"#utility.yul\":9058:9477   */\n      swap2\n      swap1\n      pop\n      jump\t// out\n        /* \"#utility.yul\":9483:9663   */\n    tag_151:\n        /* \"#utility.yul\":9531:9608   */\n      0x4e487b7100000000000000000000000000000000000000000000000000000000\n        /* \"#utility.yul\":9528:9529   */\n      0x00\n        /* \"#utility.yul\":9521:9609   */\n      mstore\n        /* \"#utility.yul\":9628:9632   */\n      0x12\n        /* \"#utility.yul\":9625:9626   */\n      0x04\n        /* \"#utility.yul\":9618:9633   */\n      mstore\n        /* \"#utility.yul\":9652:9656   */\n      0x24\n        /* \"#utility.yul\":9649:9650   */\n      0x00\n        /* \"#utility.yul\":9642:9657   */\n      revert\n        /* \"#utility.yul\":9669:9854   */\n    tag_93:\n        /* \"#utility.yul\":9709:9710   */\n      0x00\n        /* \"#utility.yul\":9726:9746   */\n      tag_282\n        /* \"#utility.yul\":9744:9745   */\n      dup3\n        /* \"#utility.yul\":9726:9746   */\n      tag_124\n      jump\t// in\n    tag_282:\n        /* \"#utility.yul\":9721:9746   */\n      swap2\n      pop\n        /* \"#utility.yul\":9760:9780   */\n      tag_283\n        /* \"#utility.yul\":9778:9779   */\n      dup4\n        /* \"#utility.yul\":9760:9780   */\n      tag_124\n      jump\t// in\n    tag_283:\n        /* \"#utility.yul\":9755:9780   */\n      swap3\n      pop\n        /* \"#utility.yul\":9799:9800   */\n      dup3\n        /* \"#utility.yul\":9789:9824   */\n      tag_284\n      jumpi\n        /* \"#utility.yul\":9804:9822   */\n      tag_285\n      tag_151\n      jump\t// in\n    tag_285:\n        /* \"#utility.yul\":9789:9824   */\n    tag_284:\n        /* \"#utility.yul\":9846:9847   */\n      dup3\n        /* \"#utility.yul\":9843:9844   */\n      dup3\n        /* \"#utility.yul\":9839:9848   */\n      div\n        /* \"#utility.yul\":9834:9848   */\n      swap1\n      pop\n        /* \"#utility.yul\":9669:9854   */\n      swap3\n      swap2\n      pop\n      pop\n      jump\t// out\n        /* \"#utility.yul\":9860:10040   */\n    tag_152:\n        /* \"#utility.yul\":9908:9985   */\n      0x4e487b7100000000000000000000000000000000000000000000000000000000\n        /* \"#utility.yul\":9905:9906   */\n      0x00\n        /* \"#utility.yul\":9898:9986   */\n      mstore\n        /* \"#utility.yul\":10005:10009   */\n      0x22\n        /* \"#utility.yul\":10002:10003   */\n      0x04\n        /* \"#utility.yul\":9995:10010   */\n      mstore\n        /* \"#utility.yul\":10029:10033   */\n      0x24\n        /* \"#utility.yul\":10026:10027   */\n      0x00\n        /* \"#utility.yul\":10019:10034   */\n      revert\n        /* \"#utility.yul\":10046:10366   */\n    tag_104:\n        /* \"#utility.yul\":10090:10096   */\n      0x00\n        /* \"#utility.yul\":10127:10128   */\n      0x02\n        /* \"#utility.yul\":10121:10125   */\n      dup3\n        /* \"#utility.yul\":10117:10129   */\n      div\n        /* \"#utility.yul\":10107:10129   */\n      swap1\n      pop\n        /* \"#utility.yul\":10174:10175   */\n      0x01\n        /* \"#utility.yul\":10168:10172   */\n      dup3\n        /* \"#utility.yul\":10164:10176   */\n      and\n        /* \"#utility.yul\":10195:10213   */\n      dup1\n        /* \"#utility.yul\":10185:10266   */\n      tag_288\n      jumpi\n        /* \"#utility.yul\":10251:10255   */\n      0x7f\n        /* \"#utility.yul\":10243:10249   */\n      dup3\n        /* \"#utility.yul\":10239:10256   */\n      and\n        /* \"#utility.yul\":10229:10256   */\n      swap2\n      pop\n        /* \"#utility.yul\":10185:10266   */\n    tag_288:\n        /* \"#utility.yul\":10313:10315   */\n      0x20\n        /* \"#utility.yul\":10305:10311   */\n      dup3\n        /* \"#utility.yul\":10302:10316   */\n      lt\n        /* \"#utility.yul\":10282:10300   */\n      dup2\n        /* \"#utility.yul\":10279:10317   */\n      sub\n        /* \"#utility.yul\":10276:10360   */\n      tag_289\n      jumpi\n        /* \"#utility.yul\":10332:10350   */\n      tag_290\n      tag_152\n      jump\t// in\n    tag_290:\n        /* \"#utility.yul\":10276:10360   */\n    tag_289:\n        /* \"#utility.yul\":10097:10366   */\n      pop\n        /* \"#utility.yul\":10046:10366   */\n      swap2\n      swap1\n      pop\n      jump\t// out\n        /* \"#utility.yul\":10372:10537   */\n    tag_153:\n        /* \"#utility.yul\":10512:10529   */\n      0x6e6f7420746865206d616e656765720000000000000000000000000000000000\n        /* \"#utility.yul\":10508:10509   */\n      0x00\n        /* \"#utility.yul\":10500:10506   */\n      dup3\n        /* \"#utility.yul\":10496:10510   */\n      add\n        /* \"#utility.yul\":10489:10530   */\n      mstore\n        /* \"#utility.yul\":10372:10537   */\n      pop\n      jump\t// out\n        /* \"#utility.yul\":10543:10909   */\n    tag_154:\n        /* \"#utility.yul\":10685:10688   */\n      0x00\n        /* \"#utility.yul\":10706:10773   */\n      tag_293\n        /* \"#utility.yul\":10770:10772   */\n      0x0f\n        /* \"#utility.yul\":10765:10768   */\n      dup4\n        /* \"#utility.yul\":10706:10773   */\n      tag_129\n      jump\t// in\n    tag_293:\n        /* \"#utility.yul\":10699:10773   */\n      swap2\n      pop\n        /* \"#utility.yul\":10782:10875   */\n      tag_294\n        /* \"#utility.yul\":10871:10874   */\n      dup3\n        /* \"#utility.yul\":10782:10875   */\n      tag_153\n      jump\t// in\n    tag_294:\n        /* \"#utility.yul\":10900:10902   */\n      0x20\n        /* \"#utility.yul\":10895:10898   */\n      dup3\n        /* \"#utility.yul\":10891:10903   */\n      add\n        /* \"#utility.yul\":10884:10903   */\n      swap1\n      pop\n        /* \"#utility.yul\":10543:10909   */\n      swap2\n      swap1\n      pop\n      jump\t// out\n        /* \"#utility.yul\":10915:11334   */\n    tag_112:\n        /* \"#utility.yul\":11081:11085   */\n      0x00\n        /* \"#utility.yul\":11119:11121   */\n      0x20\n        /* \"#utility.yul\":11108:11117   */\n      dup3\n        /* \"#utility.yul\":11104:11122   */\n      add\n        /* \"#utility.yul\":11096:11122   */\n      swap1\n      pop\n        /* \"#utility.yul\":11168:11177   */\n      dup2\n        /* \"#utility.yul\":11162:11166   */\n      dup2\n        /* \"#utility.yul\":11158:11178   */\n      sub\n        /* \"#utility.yul\":11154:11155   */\n      0x00\n        /* \"#utility.yul\":11143:11152   */\n      dup4\n        /* \"#utility.yul\":11139:11156   */\n      add\n        /* \"#utility.yul\":11132:11179   */\n      mstore\n        /* \"#utility.yul\":11196:11327   */\n      tag_296\n        /* \"#utility.yul\":11322:11326   */\n      dup2\n        /* \"#utility.yul\":11196:11327   */\n      tag_154\n      jump\t// in\n    tag_296:\n        /* \"#utility.yul\":11188:11327   */\n      swap1\n      pop\n        /* \"#utility.yul\":10915:11334   */\n      swap2\n      swap1\n      pop\n      jump\t// out\n        /* \"#utility.yul\":11340:11481   */\n    tag_155:\n        /* \"#utility.yul\":11389:11393   */\n      0x00\n        /* \"#utility.yul\":11412:11415   */\n      dup2\n        /* \"#utility.yul\":11404:11415   */\n      swap1\n      pop\n        /* \"#utility.yul\":11435:11438   */\n      dup2\n        /* \"#utility.yul\":11432:11433   */\n      0x00\n        /* \"#utility.yul\":11425:11439   */\n      mstore\n        /* \"#utility.yul\":11469:11473   */\n      0x20\n        /* \"#utility.yul\":11466:11467   */\n      0x00\n        /* \"#utility.yul\":11456:11474   */\n      keccak256\n        /* \"#utility.yul\":11448:11474   */\n      swap1\n      pop\n        /* \"#utility.yul\":11340:11481   */\n      swap2\n      swap1\n      pop\n      jump\t// out\n        /* \"#utility.yul\":11487:11580   */\n    tag_156:\n        /* \"#utility.yul\":11524:11530   */\n      0x00\n        /* \"#utility.yul\":11571:11573   */\n      0x20\n        /* \"#utility.yul\":11566:11568   */\n      0x1f\n        /* \"#utility.yul\":11559:11564   */\n      dup4\n        /* \"#utility.yul\":11555:11569   */\n      add\n        /* \"#utility.yul\":11551:11574   */\n      div\n        /* \"#utility.yul\":11541:11574   */\n      swap1\n      pop\n        /* \"#utility.yul\":11487:11580   */\n      swap2\n      swap1\n      pop\n      jump\t// out\n        /* \"#utility.yul\":11586:11693   */\n    tag_157:\n        /* \"#utility.yul\":11630:11638   */\n      0x00\n        /* \"#utility.yul\":11680:11685   */\n      dup3\n        /* \"#utility.yul\":11674:11678   */\n      dup3\n        /* \"#utility.yul\":11670:11686   */\n      shl\n        /* \"#utility.yul\":11649:11686   */\n      swap1\n      pop\n        /* \"#utility.yul\":11586:11693   */\n      swap3\n      swap2\n      pop\n      pop\n      jump\t// out\n        /* \"#utility.yul\":11699:12092   */\n    tag_158:\n        /* \"#utility.yul\":11768:11774   */\n      0x00\n        /* \"#utility.yul\":11818:11819   */\n      0x08\n        /* \"#utility.yul\":11806:11816   */\n      dup4\n        /* \"#utility.yul\":11802:11820   */\n      mul\n        /* \"#utility.yul\":11841:11938   */\n      tag_301\n        /* \"#utility.yul\":11871:11937   */\n      0xffffffffffffffffffffffffffffffffffffffffffffffffffffffffffffffff\n        /* \"#utility.yul\":11860:11869   */\n      dup3\n        /* \"#utility.yul\":11841:11938   */\n      tag_157\n      jump\t// in\n    tag_301:\n        /* \"#utility.yul\":11959:11998   */\n      tag_302\n        /* \"#utility.yul\":11989:11997   */\n      dup7\n        /* \"#utility.yul\":11978:11987   */\n      dup4\n        /* \"#utility.yul\":11959:11998   */\n      tag_157\n      jump\t// in\n    tag_302:\n        /* \"#utility.yul\":11947:11998   */\n      swap6\n      pop\n        /* \"#utility.yul\":12031:12035   */\n      dup1\n        /* \"#utility.yul\":12027:12036   */\n      not\n        /* \"#utility.yul\":12020:12025   */\n      dup5\n        /* \"#utility.yul\":12016:12037   */\n      and\n        /* \"#utility.yul\":12007:12037   */\n      swap4\n      pop\n        /* \"#utility.yul\":12080:12084   */\n      dup1\n        /* \"#utility.yul\":12070:12078   */\n      dup7\n        /* \"#utility.yul\":12066:12085   */\n      and\n        /* \"#utility.yul\":12059:12064   */\n      dup5\n        /* \"#utility.yul\":12056:12086   */\n      or\n        /* \"#utility.yul\":12046:12086   */\n      swap3\n      pop\n        /* \"#utility.yul\":11775:12092   */\n      pop\n      pop\n        /* \"#utility.yul\":11699:12092   */\n      swap4\n      swap3\n      pop\n      pop\n      pop\n      jump\t// out\n        /* \"#utility.yul\":12098:12158   */\n    tag_159:\n        /* \"#utility.yul\":12126:12129   */\n      0x00\n        /* \"#utility.yul\":12147:12152   */\n      dup2\n        /* \"#utility.yul\":12140:12152   */\n      swap1\n      pop\n        /* \"#utility.yul\":12098:12158   */\n      swap2\n      swap1\n      pop\n      jump\t// out\n        /* \"#utility.yul\":12164:12306   */\n    tag_160:\n        /* \"#utility.yul\":12214:12223   */\n      0x00\n        /* \"#utility.yul\":12247:12300   */\n      tag_305\n        /* \"#utility.yul\":12265:12299   */\n      tag_306\n        /* \"#utility.yul\":12274:12298   */\n      tag_307\n        /* \"#utility.yul\":12292:12297   */\n      dup5\n        /* \"#utility.yul\":12274:12298   */\n      tag_124\n      jump\t// in\n    tag_307:\n        /* \"#utility.yul\":12265:12299   */\n      tag_159\n      jump\t// in\n    tag_306:\n        /* \"#utility.yul\":12247:12300   */\n      tag_124\n      jump\t// in\n    tag_305:\n        /* \"#utility.yul\":12234:12300   */\n      swap1\n      pop\n        /* \"#utility.yul\":12164:12306   */\n      swap2\n      swap1\n      pop\n      jump\t// out\n        /* \"#utility.yul\":12312:12387   */\n    tag_161:\n        /* \"#utility.yul\":12355:12358   */\n      0x00\n        /* \"#utility.yul\":12376:12381   */\n      dup2\n        /* \"#utility.yul\":12369:12381   */\n      swap1\n      pop\n        /* \"#utility.yul\":12312:12387   */\n      swap2\n      swap1\n      pop\n      jump\t// out\n        /* \"#utility.yul\":12393:12662   */\n    tag_162:\n        /* \"#utility.yul\":12503:12542   */\n      tag_310\n        /* \"#utility.yul\":12534:12541   */\n      dup4\n        /* \"#utility.yul\":12503:12542   */\n      tag_160\n      jump\t// in\n    tag_310:\n        /* \"#utility.yul\":12564:12655   */\n      tag_311\n        /* \"#utility.yul\":12613:12654   */\n      tag_312\n        /* \"#utility.yul\":12637:12653   */\n      dup3\n        /* \"#utility.yul\":12613:12654   */\n      tag_161\n      jump\t// in\n    tag_312:\n        /* \"#utility.yul\":12605:12611   */\n      dup5\n        /* \"#utility.yul\":12598:12602   */\n      dup5\n        /* \"#utility.yul\":12592:12603   */\n      sload\n        /* \"#utility.yul\":12564:12655   */\n      tag_158\n      jump\t// in\n    tag_311:\n        /* \"#utility.yul\":12558:12562   */\n      dup3\n        /* \"#utility.yul\":12551:12656   */\n      sstore\n        /* \"#utility.yul\":12469:12662   */\n      pop\n        /* \"#utility.yul\":12393:12662   */\n      pop\n      pop\n      pop\n      jump\t// out\n        /* \"#utility.yul\":12668:12741   */\n    tag_163:\n        /* \"#utility.yul\":12713:12716   */\n      0x00\n        /* \"#utility.yul\":12668:12741   */\n      swap1\n      jump\t// out\n        /* \"#utility.yul\":12747:12936   */\n    tag_164:\n        /* \"#utility.yul\":12824:12856   */\n      tag_315\n      tag_163\n      jump\t// in\n    tag_315:\n        /* \"#utility.yul\":12865:12930   */\n      tag_316\n        /* \"#utility.yul\":12923:12929   */\n      dup2\n        /* \"#utility.yul\":12915:12921   */\n      dup5\n        /* \"#utility.yul\":12909:12913   */\n      dup5\n        /* \"#utility.yul\":12865:12930   */\n      tag_162\n      jump\t// in\n    tag_316:\n        /* \"#utility.yul\":12800:12936   */\n      pop\n        /* \"#utility.yul\":12747:12936   */\n      pop\n      pop\n      jump\t// out\n        /* \"#utility.yul\":12942:13128   */\n    tag_165:\n        /* \"#utility.yul\":13002:13122   */\n    tag_318:\n        /* \"#utility.yul\":13019:13022   */\n      dup2\n        /* \"#utility.yul\":13012:13017   */\n      dup2\n        /* \"#utility.yul\":13009:13023   */\n      lt\n        /* \"#utility.yul\":13002:13122   */\n      iszero\n      tag_320\n      jumpi\n        /* \"#utility.yul\":13073:13112   */\n      tag_321\n        /* \"#utility.yul\":13110:13111   */\n      0x00\n        /* \"#utility.yul\":13103:13108   */\n      dup3\n        /* \"#utility.yul\":13073:13112   */\n      tag_164\n      jump\t// in\n    tag_321:\n        /* \"#utility.yul\":13046:13047   */\n      0x01\n        /* \"#utility.yul\":13039:13044   */\n      dup2\n        /* \"#utility.yul\":13035:13048   */\n      add\n        /* \"#utility.yul\":13026:13048   */\n      swap1\n      pop\n        /* \"#utility.yul\":13002:13122   */\n      jump(tag_318)\n    tag_320:\n        /* \"#utility.yul\":12942:13128   */\n      pop\n      pop\n      jump\t// out\n        /* \"#utility.yul\":13134:13677   */\n    tag_166:\n        /* \"#utility.yul\":13235:13237   */\n      0x1f\n        /* \"#utility.yul\":13230:13233   */\n      dup3\n        /* \"#utility.yul\":13227:13238   */\n      gt\n        /* \"#utility.yul\":13224:13670   */\n      iszero\n      tag_323\n      jumpi\n        /* \"#utility.yul\":13269:13307   */\n      tag_324\n        /* \"#utility.yul\":13301:13306   */\n      dup2\n        /* \"#utility.yul\":13269:13307   */\n      tag_155\n      jump\t// in\n    tag_324:\n        /* \"#utility.yul\":13353:13382   */\n      tag_325\n        /* \"#utility.yul\":13371:13381   */\n      dup5\n        /* \"#utility.yul\":13353:13382   */\n      tag_156\n      jump\t// in\n    tag_325:\n        /* \"#utility.yul\":13343:13351   */\n      dup2\n        /* \"#utility.yul\":13339:13383   */\n      add\n        /* \"#utility.yul\":13536:13538   */\n      0x20\n        /* \"#utility.yul\":13524:13534   */\n      dup6\n        /* \"#utility.yul\":13521:13539   */\n      lt\n        /* \"#utility.yul\":13518:13567   */\n      iszero\n      tag_326\n      jumpi\n        /* \"#utility.yul\":13557:13565   */\n      dup2\n        /* \"#utility.yul\":13542:13565   */\n      swap1\n      pop\n        /* \"#utility.yul\":13518:13567   */\n    tag_326:\n        /* \"#utility.yul\":13580:13660   */\n      tag_327\n        /* \"#utility.yul\":13636:13658   */\n      tag_328\n        /* \"#utility.yul\":13654:13657   */\n      dup6\n        /* \"#utility.yul\":13636:13658   */\n      tag_156\n      jump\t// in\n    tag_328:\n        /* \"#utility.yul\":13626:13634   */\n      dup4\n        /* \"#utility.yul\":13622:13659   */\n      add\n        /* \"#utility.yul\":13609:13620   */\n      dup3\n        /* \"#utility.yul\":13580:13660   */\n      tag_165\n      jump\t// in\n    tag_327:\n        /* \"#utility.yul\":13239:13670   */\n      pop\n      pop\n        /* \"#utility.yul\":13224:13670   */\n    tag_323:\n        /* \"#utility.yul\":13134:13677   */\n      pop\n      pop\n      pop\n      jump\t// out\n        /* \"#utility.yul\":13683:13800   */\n    tag_167:\n        /* \"#utility.yul\":13737:13745   */\n      0x00\n        /* \"#utility.yul\":13787:13792   */\n      dup3\n        /* \"#utility.yul\":13781:13785   */\n      dup3\n        /* \"#utility.yul\":13777:13793   */\n      shr\n        /* \"#utility.yul\":13756:13793   */\n      swap1\n      pop\n        /* \"#utility.yul\":13683:13800   */\n      swap3\n      swap2\n      pop\n      pop\n      jump\t// out\n        /* \"#utility.yul\":13806:13975   */\n    tag_168:\n        /* \"#utility.yul\":13850:13856   */\n      0x00\n        /* \"#utility.yul\":13883:13934   */\n      tag_331\n        /* \"#utility.yul\":13931:13932   */\n      0x00\n        /* \"#utility.yul\":13927:13933   */\n      not\n        /* \"#utility.yul\":13919:13924   */\n      dup5\n        /* \"#utility.yul\":13916:13917   */\n      0x08\n        /* \"#utility.yul\":13912:13925   */\n      mul\n        /* \"#utility.yul\":13883:13934   */\n      tag_167\n      jump\t// in\n    tag_331:\n        /* \"#utility.yul\":13879:13935   */\n      not\n        /* \"#utility.yul\":13964:13968   */\n      dup1\n        /* \"#utility.yul\":13958:13962   */\n      dup4\n        /* \"#utility.yul\":13954:13969   */\n      and\n        /* \"#utility.yul\":13944:13969   */\n      swap2\n      pop\n        /* \"#utility.yul\":13857:13975   */\n      pop\n        /* \"#utility.yul\":13806:13975   */\n      swap3\n      swap2\n      pop\n      pop\n      jump\t// out\n        /* \"#utility.yul\":13980:14275   */\n    tag_169:\n        /* \"#utility.yul\":14056:14060   */\n      0x00\n        /* \"#utility.yul\":14202:14231   */\n      tag_333\n        /* \"#utility.yul\":14227:14230   */\n      dup4\n        /* \"#utility.yul\":14221:14225   */\n      dup4\n        /* \"#utility.yul\":14202:14231   */\n      tag_168\n      jump\t// in\n    tag_333:\n        /* \"#utility.yul\":14194:14231   */\n      swap2\n      pop\n        /* \"#utility.yul\":14264:14267   */\n      dup3\n        /* \"#utility.yul\":14261:14262   */\n      0x02\n        /* \"#utility.yul\":14257:14268   */\n      mul\n        /* \"#utility.yul\":14251:14255   */\n      dup3\n        /* \"#utility.yul\":14248:14269   */\n      or\n        /* \"#utility.yul\":14240:14269   */\n      swap1\n      pop\n        /* \"#utility.yul\":13980:14275   */\n      swap3\n      swap2\n      pop\n      pop\n      jump\t// out\n        /* \"#utility.yul\":14280:15675   */\n    tag_116:\n        /* \"#utility.yul\":14397:14434   */\n      tag_335\n        /* \"#utility.yul\":14430:14433   */\n      dup3\n        /* \"#utility.yul\":14397:14434   */\n      tag_128\n      jump\t// in\n    tag_335:\n        /* \"#utility.yul\":14499:14517   */\n      0xffffffffffffffff\n        /* \"#utility.yul\":14491:14497   */\n      dup2\n        /* \"#utility.yul\":14488:14518   */\n      gt\n        /* \"#utility.yul\":14485:14541   */\n      iszero\n      tag_336\n      jumpi\n        /* \"#utility.yul\":14521:14539   */\n      tag_337\n      tag_139\n      jump\t// in\n    tag_337:\n        /* \"#utility.yul\":14485:14541   */\n    tag_336:\n        /* \"#utility.yul\":14565:14603   */\n      tag_338\n        /* \"#utility.yul\":14597:14601   */\n      dup3\n        /* \"#utility.yul\":14591:14602   */\n      sload\n        /* \"#utility.yul\":14565:14603   */\n      tag_104\n      jump\t// in\n    tag_338:\n        /* \"#utility.yul\":14650:14717   */\n      tag_339\n        /* \"#utility.yul\":14710:14716   */\n      dup3\n        /* \"#utility.yul\":14702:14708   */\n      dup3\n        /* \"#utility.yul\":14696:14700   */\n      dup6\n        /* \"#utility.yul\":14650:14717   */\n      tag_166\n      jump\t// in\n    tag_339:\n        /* \"#utility.yul\":14744:14745   */\n      0x00\n        /* \"#utility.yul\":14768:14772   */\n      0x20\n        /* \"#utility.yul\":14755:14772   */\n      swap1\n      pop\n        /* \"#utility.yul\":14800:14802   */\n      0x1f\n        /* \"#utility.yul\":14792:14798   */\n      dup4\n        /* \"#utility.yul\":14789:14803   */\n      gt\n        /* \"#utility.yul\":14817:14818   */\n      0x01\n        /* \"#utility.yul\":14812:15430   */\n      dup2\n      eq\n      tag_341\n      jumpi\n        /* \"#utility.yul\":15474:15475   */\n      0x00\n        /* \"#utility.yul\":15491:15497   */\n      dup5\n        /* \"#utility.yul\":15488:15565   */\n      iszero\n      tag_342\n      jumpi\n        /* \"#utility.yul\":15540:15549   */\n      dup3\n        /* \"#utility.yul\":15535:15538   */\n      dup8\n        /* \"#utility.yul\":15531:15550   */\n      add\n        /* \"#utility.yul\":15525:15551   */\n      mload\n        /* \"#utility.yul\":15516:15551   */\n      swap1\n      pop\n        /* \"#utility.yul\":15488:15565   */\n    tag_342:\n        /* \"#utility.yul\":15591:15658   */\n      tag_343\n        /* \"#utility.yul\":15651:15657   */\n      dup6\n        /* \"#utility.yul\":15644:15649   */\n      dup3\n        /* \"#utility.yul\":15591:15658   */\n      tag_169\n      jump\t// in\n    tag_343:\n        /* \"#utility.yul\":15585:15589   */\n      dup7\n        /* \"#utility.yul\":15578:15659   */\n      sstore\n        /* \"#utility.yul\":15447:15669   */\n      pop\n        /* \"#utility.yul\":14782:15669   */\n      jump(tag_340)\n        /* \"#utility.yul\":14812:15430   */\n    tag_341:\n        /* \"#utility.yul\":14864:14868   */\n      0x1f\n        /* \"#utility.yul\":14860:14869   */\n      not\n        /* \"#utility.yul\":14852:14858   */\n      dup5\n        /* \"#utility.yul\":14848:14870   */\n      and\n        /* \"#utility.yul\":14898:14935   */\n      tag_344\n        /* \"#utility.yul\":14930:14934   */\n      dup7\n        /* \"#utility.yul\":14898:14935   */\n      tag_155\n      jump\t// in\n    tag_344:\n        /* \"#utility.yul\":14957:14958   */\n      0x00\n        /* \"#utility.yul\":14971:15179   */\n    tag_345:\n        /* \"#utility.yul\":14985:14992   */\n      dup3\n        /* \"#utility.yul\":14982:14983   */\n      dup2\n        /* \"#utility.yul\":14979:14993   */\n      lt\n        /* \"#utility.yul\":14971:15179   */\n      iszero\n      tag_347\n      jumpi\n        /* \"#utility.yul\":15064:15073   */\n      dup5\n        /* \"#utility.yul\":15059:15062   */\n      dup10\n        /* \"#utility.yul\":15055:15074   */\n      add\n        /* \"#utility.yul\":15049:15075   */\n      mload\n        /* \"#utility.yul\":15041:15047   */\n      dup3\n        /* \"#utility.yul\":15034:15076   */\n      sstore\n        /* \"#utility.yul\":15115:15116   */\n      0x01\n        /* \"#utility.yul\":15107:15113   */\n      dup3\n        /* \"#utility.yul\":15103:15117   */\n      add\n        /* \"#utility.yul\":15093:15117   */\n      swap2\n      pop\n        /* \"#utility.yul\":15162:15164   */\n      0x20\n        /* \"#utility.yul\":15151:15160   */\n      dup6\n        /* \"#utility.yul\":15147:15165   */\n      add\n        /* \"#utility.yul\":15134:15165   */\n      swap5\n      pop\n        /* \"#utility.yul\":15008:15012   */\n      0x20\n        /* \"#utility.yul\":15005:15006   */\n      dup2\n        /* \"#utility.yul\":15001:15013   */\n      add\n        /* \"#utility.yul\":14996:15013   */\n      swap1\n      pop\n        /* \"#utility.yul\":14971:15179   */\n      jump(tag_345)\n    tag_347:\n        /* \"#utility.yul\":15207:15213   */\n      dup7\n        /* \"#utility.yul\":15198:15205   */\n      dup4\n        /* \"#utility.yul\":15195:15214   */\n      lt\n        /* \"#utility.yul\":15192:15371   */\n      iszero\n      tag_348\n      jumpi\n        /* \"#utility.yul\":15265:15274   */\n      dup5\n        /* \"#utility.yul\":15260:15263   */\n      dup10\n        /* \"#utility.yul\":15256:15275   */\n      add\n        /* \"#utility.yul\":15250:15276   */\n      mload\n        /* \"#utility.yul\":15308:15356   */\n      tag_349\n        /* \"#utility.yul\":15350:15354   */\n      0x1f\n        /* \"#utility.yul\":15342:15348   */\n      dup10\n        /* \"#utility.yul\":15338:15355   */\n      and\n        /* \"#utility.yul\":15327:15336   */\n      dup3\n        /* \"#utility.yul\":15308:15356   */\n      tag_168\n      jump\t// in\n    tag_349:\n        /* \"#utility.yul\":15300:15306   */\n      dup4\n        /* \"#utility.yul\":15293:15357   */\n      sstore\n        /* \"#utility.yul\":15215:15371   */\n      pop\n        /* \"#utility.yul\":15192:15371   */\n    tag_348:\n        /* \"#utility.yul\":15417:15418   */\n      0x01\n        /* \"#utility.yul\":15413:15414   */\n      0x02\n        /* \"#utility.yul\":15405:15411   */\n      dup9\n        /* \"#utility.yul\":15401:15415   */\n      mul\n        /* \"#utility.yul\":15397:15419   */\n      add\n        /* \"#utility.yul\":15391:15395   */\n      dup9\n        /* \"#utility.yul\":15384:15420   */\n      sstore\n        /* \"#utility.yul\":14819:15430   */\n      pop\n      pop\n      pop\n        /* \"#utility.yul\":14782:15669   */\n    tag_340:\n      pop\n        /* \"#utility.yul\":14372:15675   */\n      pop\n      pop\n      pop\n        /* \"#utility.yul\":14280:15675   */\n      pop\n      pop\n      jump\t// out\n\n    auxdata: 0xa2646970667358221220a0545c57826acfc3e4f02cdec3be266ee6cdb19796d60f511dd226805ee27a3564736f6c634300080f0033\n}\n",
				"bytecode": {
					"linkReferences": {},
					"object": "60806040523480156200001157600080fd5b5060405162001534380380620015348339818101604052810190620000379190620000e3565b8160038190555080426200004c919062000159565b600481905550600a60028190555033600160006101000a81548173ffffffffffffffffffffffffffffffffffffffff021916908373ffffffffffffffffffffffffffffffffffffffff1602179055505050620001b6565b600080fd5b6000819050919050565b620000bd81620000a8565b8114620000c957600080fd5b50565b600081519050620000dd81620000b2565b92915050565b60008060408385031215620000fd57620000fc620000a3565b5b60006200010d85828601620000cc565b92505060206200012085828601620000cc565b9150509250929050565b7f4e487b7100000000000000000000000000000000000000000000000000000000600052601160045260246000fd5b60006200016682620000a8565b91506200017383620000a8565b9250827fffffffffffffffffffffffffffffffffffffffffffffffffffffffffffffffff03821115620001ab57620001aa6200012a565b5b828201905092915050565b61136e80620001c66000396000f3fe6080604052600436106100c25760003560e01c8063590e1ae31161007f578063b5fdcfa311610059578063b5fdcfa314610239578063b6290e7614610262578063c59ee1dc1461028d578063d4b83992146102b8576100c2565b8063590e1ae3146101b6578063728d545f146101cd5780638c78444a146101f8576100c2565b806306e99fef146100c75780631f6d4942146100d157806325caa2621461010e57806329dcb0cf146101395780634cb6f4a5146101645780635114cb521461018d575b600080fd5b6100cf6102e3565b005b3480156100dd57600080fd5b506100f860048036038101906100f39190610a9c565b6103cf565b6040516101059190610ae2565b60405180910390f35b34801561011a57600080fd5b506101236103e7565b6040516101309190610ae2565b60405180910390f35b34801561014557600080fd5b5061014e6103ef565b60405161015b9190610ae2565b60405180910390f35b34801561017057600080fd5b5061018b60048036038101906101869190610b29565b6103f5565b005b34801561019957600080fd5b506101b460048036038101906101af9190610b29565b610564565b005b3480156101c257600080fd5b506101cb6106a2565b005b3480156101d957600080fd5b506101e26107db565b6040516101ef9190610ae2565b60405180910390f35b34801561020457600080fd5b5061021f600480360381019061021a9190610b29565b6107e1565b604051610230959493929190610c2b565b60405180910390f35b34801561024557600080fd5b50610260600480360381019061025b9190610de6565b6108cc565b005b34801561026e57600080fd5b50610277610a18565b6040516102849190610ae2565b60405180910390f35b34801561029957600080fd5b506102a2610a1e565b6040516102af9190610ae2565b60405180910390f35b3480156102c457600080fd5b506102cd610a24565b6040516102da9190610ae2565b60405180910390f35b60045442106102f157600080fd5b60025434101561030057600080fd5b60008060003373ffffffffffffffffffffffffffffffffffffffff1673ffffffffffffffffffffffffffffffffffffffff168152602001908152602001600020540361035f576005600081548092919061035990610e84565b91905055505b346000803373ffffffffffffffffffffffffffffffffffffffff1673ffffffffffffffffffffffffffffffffffffffff16815260200190815260200160002060008282546103ad9190610ecc565b9250508190555034600660008282546103c69190610ecc565b92505081905550565b60006020528060005260406000206000915090505481565b600047905090565b60045481565b60008060003373ffffffffffffffffffffffffffffffffffffffff1673ffffffffffffffffffffffffffffffffffffffff168152602001908152602001600020541161044057600080fd5b6000600760008381526020019081526020016000209050600015158160050160003373ffffffffffffffffffffffffffffffffffffffff1673ffffffffffffffffffffffffffffffffffffffff16815260200190815260200160002060009054906101000a900460ff161515146104ec576040517f08c379a00000000000000000000000000000000000000000000000000000000081526004016104e390610f6e565b60405180910390fd5b80600401600081548092919061050190610e84565b919050555060018160050160003373ffffffffffffffffffffffffffffffffffffffff1673ffffffffffffffffffffffffffffffffffffffff16815260200190815260200160002060006101000a81548160ff0219169083151502179055505050565b600160009054906101000a900473ffffffffffffffffffffffffffffffffffffffff1673ffffffffffffffffffffffffffffffffffffffff163373ffffffffffffffffffffffffffffffffffffffff16146105be57600080fd5b6000600760008381526020019081526020016000209050600015158160030160009054906101000a900460ff161515146105f757600080fd5b60026005546106069190610fbd565b81600401541161061557600080fd5b8060010160009054906101000a900473ffffffffffffffffffffffffffffffffffffffff1673ffffffffffffffffffffffffffffffffffffffff166108fc60649081150290604051600060405180830381858888f19350505050158015610680573d6000803e3d6000fd5b5060018160030160006101000a81548160ff0219169083151502179055505050565b600454421080156106b65750600354600654105b6106bf57600080fd5b60008060003373ffffffffffffffffffffffffffffffffffffffff1673ffffffffffffffffffffffffffffffffffffffff168152602001908152602001600020541161070a57600080fd5b60003390508073ffffffffffffffffffffffffffffffffffffffff166108fc6000803373ffffffffffffffffffffffffffffffffffffffff1673ffffffffffffffffffffffffffffffffffffffff168152602001908152602001600020549081150290604051600060405180830381858888f19350505050158015610793573d6000803e3d6000fd5b5060008060003373ffffffffffffffffffffffffffffffffffffffff1673ffffffffffffffffffffffffffffffffffffffff1681526020019081526020016000208190555050565b60025481565b60076020528060005260406000206000915090508060000180546108049061101d565b80601f01602080910402602001604051908101604052809291908181526020018280546108309061101d565b801561087d5780601f106108525761010080835404028352916020019161087d565b820191906000526020600020905b81548152906001019060200180831161086057829003601f168201915b5050505050908060010160009054906101000a900473ffffffffffffffffffffffffffffffffffffffff16908060020154908060030160009054906101000a900460ff16908060040154905085565b600160009054906101000a900473ffffffffffffffffffffffffffffffffffffffff1673ffffffffffffffffffffffffffffffffffffffff163373ffffffffffffffffffffffffffffffffffffffff161461095c576040517f08c379a00000000000000000000000000000000000000000000000000000000081526004016109539061109a565b60405180910390fd5b600060076000600854815260200190815260200160002090506008600081548092919061098890610e84565b91905055508381600001908161099e9190611266565b50828160010160006101000a81548173ffffffffffffffffffffffffffffffffffffffff021916908373ffffffffffffffffffffffffffffffffffffffff16021790555081816002018190555060008160030160006101000a81548160ff0219169083151502179055506000816004018190555050505050565b60085481565b60065481565b60035481565b6000604051905090565b600080fd5b600080fd5b600073ffffffffffffffffffffffffffffffffffffffff82169050919050565b6000610a6982610a3e565b9050919050565b610a7981610a5e565b8114610a8457600080fd5b50565b600081359050610a9681610a70565b92915050565b600060208284031215610ab257610ab1610a34565b5b6000610ac084828501610a87565b91505092915050565b6000819050919050565b610adc81610ac9565b82525050565b6000602082019050610af76000830184610ad3565b92915050565b610b0681610ac9565b8114610b1157600080fd5b50565b600081359050610b2381610afd565b92915050565b600060208284031215610b3f57610b3e610a34565b5b6000610b4d84828501610b14565b91505092915050565b600081519050919050565b600082825260208201905092915050565b60005b83811015610b90578082015181840152602081019050610b75565b83811115610b9f576000848401525b50505050565b6000601f19601f8301169050919050565b6000610bc182610b56565b610bcb8185610b61565b9350610bdb818560208601610b72565b610be481610ba5565b840191505092915050565b6000610bfa82610a3e565b9050919050565b610c0a81610bef565b82525050565b60008115159050919050565b610c2581610c10565b82525050565b600060a0820190508181036000830152610c458188610bb6565b9050610c546020830187610c01565b610c616040830186610ad3565b610c6e6060830185610c1c565b610c7b6080830184610ad3565b9695505050505050565b600080fd5b600080fd5b7f4e487b7100000000000000000000000000000000000000000000000000000000600052604160045260246000fd5b610cc782610ba5565b810181811067ffffffffffffffff82111715610ce657610ce5610c8f565b5b80604052505050565b6000610cf9610a2a565b9050610d058282610cbe565b919050565b600067ffffffffffffffff821115610d2557610d24610c8f565b5b610d2e82610ba5565b9050602081019050919050565b82818337600083830152505050565b6000610d5d610d5884610d0a565b610cef565b905082815260208101848484011115610d7957610d78610c8a565b5b610d84848285610d3b565b509392505050565b600082601f830112610da157610da0610c85565b5b8135610db1848260208601610d4a565b91505092915050565b610dc381610bef565b8114610dce57600080fd5b50565b600081359050610de081610dba565b92915050565b600080600060608486031215610dff57610dfe610a34565b5b600084013567ffffffffffffffff811115610e1d57610e1c610a39565b5b610e2986828701610d8c565b9350506020610e3a86828701610dd1565b9250506040610e4b86828701610b14565b9150509250925092565b7f4e487b7100000000000000000000000000000000000000000000000000000000600052601160045260246000fd5b6000610e8f82610ac9565b91507fffffffffffffffffffffffffffffffffffffffffffffffffffffffffffffffff8203610ec157610ec0610e55565b5b600182019050919050565b6000610ed782610ac9565b9150610ee283610ac9565b9250827fffffffffffffffffffffffffffffffffffffffffffffffffffffffffffffffff03821115610f1757610f16610e55565b5b828201905092915050565b7f796f75206861766520616c726561647920766f74656400000000000000000000600082015250565b6000610f58601683610b61565b9150610f6382610f22565b602082019050919050565b60006020820190508181036000830152610f8781610f4b565b9050919050565b7f4e487b7100000000000000000000000000000000000000000000000000000000600052601260045260246000fd5b6000610fc882610ac9565b9150610fd383610ac9565b925082610fe357610fe2610f8e565b5b828204905092915050565b7f4e487b7100000000000000000000000000000000000000000000000000000000600052602260045260246000fd5b6000600282049050600182168061103557607f821691505b60208210810361104857611047610fee565b5b50919050565b7f6e6f7420746865206d616e656765720000000000000000000000000000000000600082015250565b6000611084600f83610b61565b915061108f8261104e565b602082019050919050565b600060208201905081810360008301526110b381611077565b9050919050565b60008190508160005260206000209050919050565b60006020601f8301049050919050565b600082821b905092915050565b60006008830261111c7fffffffffffffffffffffffffffffffffffffffffffffffffffffffffffffffff826110df565b61112686836110df565b95508019841693508086168417925050509392505050565b6000819050919050565b600061116361115e61115984610ac9565b61113e565b610ac9565b9050919050565b6000819050919050565b61117d83611148565b6111916111898261116a565b8484546110ec565b825550505050565b600090565b6111a6611199565b6111b1818484611174565b505050565b5b818110156111d5576111ca60008261119e565b6001810190506111b7565b5050565b601f82111561121a576111eb816110ba565b6111f4846110cf565b81016020851015611203578190505b61121761120f856110cf565b8301826111b6565b50505b505050565b600082821c905092915050565b600061123d6000198460080261121f565b1980831691505092915050565b6000611256838361122c565b9150826002028217905092915050565b61126f82610b56565b67ffffffffffffffff81111561128857611287610c8f565b5b611292825461101d565b61129d8282856111d9565b600060209050601f8311600181146112d057600084156112be578287015190505b6112c8858261124a565b865550611330565b601f1984166112de866110ba565b60005b82811015611306578489015182556001820191506020850194506020810190506112e1565b86831015611323578489015161131f601f89168261122c565b8355505b6001600288020188555050505b50505050505056fea2646970667358221220a0545c57826acfc3e4f02cdec3be266ee6cdb19796d60f511dd226805ee27a3564736f6c634300080f0033",
					"opcodes": "PUSH1 0x80 PUSH1 0x40 MSTORE CALLVALUE DUP1 ISZERO PUSH3 0x11 JUMPI PUSH1 0x0 DUP1 REVERT JUMPDEST POP PUSH1 0x40 MLOAD PUSH3 0x1534 CODESIZE SUB DUP1 PUSH3 0x1534 DUP4 CODECOPY DUP2 DUP2 ADD PUSH1 0x40 MSTORE DUP2 ADD SWAP1 PUSH3 0x37 SWAP2 SWAP1 PUSH3 0xE3 JUMP JUMPDEST DUP2 PUSH1 0x3 DUP2 SWAP1 SSTORE POP DUP1 TIMESTAMP PUSH3 0x4C SWAP2 SWAP1 PUSH3 0x159 JUMP JUMPDEST PUSH1 0x4 DUP2 SWAP1 SSTORE POP PUSH1 0xA PUSH1 0x2 DUP2 SWAP1 SSTORE POP CALLER PUSH1 0x1 PUSH1 0x0 PUSH2 0x100 EXP DUP2 SLOAD DUP2 PUSH20 0xFFFFFFFFFFFFFFFFFFFFFFFFFFFFFFFFFFFFFFFF MUL NOT AND SWAP1 DUP4 PUSH20 0xFFFFFFFFFFFFFFFFFFFFFFFFFFFFFFFFFFFFFFFF AND MUL OR SWAP1 SSTORE POP POP POP PUSH3 0x1B6 JUMP JUMPDEST PUSH1 0x0 DUP1 REVERT JUMPDEST PUSH1 0x0 DUP2 SWAP1 POP SWAP2 SWAP1 POP JUMP JUMPDEST PUSH3 0xBD DUP2 PUSH3 0xA8 JUMP JUMPDEST DUP2 EQ PUSH3 0xC9 JUMPI PUSH1 0x0 DUP1 REVERT JUMPDEST POP JUMP JUMPDEST PUSH1 0x0 DUP2 MLOAD SWAP1 POP PUSH3 0xDD DUP2 PUSH3 0xB2 JUMP JUMPDEST SWAP3 SWAP2 POP POP JUMP JUMPDEST PUSH1 0x0 DUP1 PUSH1 0x40 DUP4 DUP6 SUB SLT ISZERO PUSH3 0xFD JUMPI PUSH3 0xFC PUSH3 0xA3 JUMP JUMPDEST JUMPDEST PUSH1 0x0 PUSH3 0x10D DUP6 DUP3 DUP7 ADD PUSH3 0xCC JUMP JUMPDEST SWAP3 POP POP PUSH1 0x20 PUSH3 0x120 DUP6 DUP3 DUP7 ADD PUSH3 0xCC JUMP JUMPDEST SWAP2 POP POP SWAP3 POP SWAP3 SWAP1 POP JUMP JUMPDEST PUSH32 0x4E487B7100000000000000000000000000000000000000000000000000000000 PUSH1 0x0 MSTORE PUSH1 0x11 PUSH1 0x4 MSTORE PUSH1 0x24 PUSH1 0x0 REVERT JUMPDEST PUSH1 0x0 PUSH3 0x166 DUP3 PUSH3 0xA8 JUMP JUMPDEST SWAP2 POP PUSH3 0x173 DUP4 PUSH3 0xA8 JUMP JUMPDEST SWAP3 POP DUP3 PUSH32 0xFFFFFFFFFFFFFFFFFFFFFFFFFFFFFFFFFFFFFFFFFFFFFFFFFFFFFFFFFFFFFFFF SUB DUP3 GT ISZERO PUSH3 0x1AB JUMPI PUSH3 0x1AA PUSH3 0x12A JUMP JUMPDEST JUMPDEST DUP3 DUP3 ADD SWAP1 POP SWAP3 SWAP2 POP POP JUMP JUMPDEST PUSH2 0x136E DUP1 PUSH3 0x1C6 PUSH1 0x0 CODECOPY PUSH1 0x0 RETURN INVALID PUSH1 0x80 PUSH1 0x40 MSTORE PUSH1 0x4 CALLDATASIZE LT PUSH2 0xC2 JUMPI PUSH1 0x0 CALLDATALOAD PUSH1 0xE0 SHR DUP1 PUSH4 0x590E1AE3 GT PUSH2 0x7F JUMPI DUP1 PUSH4 0xB5FDCFA3 GT PUSH2 0x59 JUMPI DUP1 PUSH4 0xB5FDCFA3 EQ PUSH2 0x239 JUMPI DUP1 PUSH4 0xB6290E76 EQ PUSH2 0x262 JUMPI DUP1 PUSH4 0xC59EE1DC EQ PUSH2 0x28D JUMPI DUP1 PUSH4 0xD4B83992 EQ PUSH2 0x2B8 JUMPI PUSH2 0xC2 JUMP JUMPDEST DUP1 PUSH4 0x590E1AE3 EQ PUSH2 0x1B6 JUMPI DUP1 PUSH4 0x728D545F EQ PUSH2 0x1CD JUMPI DUP1 PUSH4 0x8C78444A EQ PUSH2 0x1F8 JUMPI PUSH2 0xC2 JUMP JUMPDEST DUP1 PUSH4 0x6E99FEF EQ PUSH2 0xC7 JUMPI DUP1 PUSH4 0x1F6D4942 EQ PUSH2 0xD1 JUMPI DUP1 PUSH4 0x25CAA262 EQ PUSH2 0x10E JUMPI DUP1 PUSH4 0x29DCB0CF EQ PUSH2 0x139 JUMPI DUP1 PUSH4 0x4CB6F4A5 EQ PUSH2 0x164 JUMPI DUP1 PUSH4 0x5114CB52 EQ PUSH2 0x18D JUMPI JUMPDEST PUSH1 0x0 DUP1 REVERT JUMPDEST PUSH2 0xCF PUSH2 0x2E3 JUMP JUMPDEST STOP JUMPDEST CALLVALUE DUP1 ISZERO PUSH2 0xDD JUMPI PUSH1 0x0 DUP1 REVERT JUMPDEST POP PUSH2 0xF8 PUSH1 0x4 DUP1 CALLDATASIZE SUB DUP2 ADD SWAP1 PUSH2 0xF3 SWAP2 SWAP1 PUSH2 0xA9C JUMP JUMPDEST PUSH2 0x3CF JUMP JUMPDEST PUSH1 0x40 MLOAD PUSH2 0x105 SWAP2 SWAP1 PUSH2 0xAE2 JUMP JUMPDEST PUSH1 0x40 MLOAD DUP1 SWAP2 SUB SWAP1 RETURN JUMPDEST CALLVALUE DUP1 ISZERO PUSH2 0x11A JUMPI PUSH1 0x0 DUP1 REVERT JUMPDEST POP PUSH2 0x123 PUSH2 0x3E7 JUMP JUMPDEST PUSH1 0x40 MLOAD PUSH2 0x130 SWAP2 SWAP1 PUSH2 0xAE2 JUMP JUMPDEST PUSH1 0x40 MLOAD DUP1 SWAP2 SUB SWAP1 RETURN JUMPDEST CALLVALUE DUP1 ISZERO PUSH2 0x145 JUMPI PUSH1 0x0 DUP1 REVERT JUMPDEST POP PUSH2 0x14E PUSH2 0x3EF JUMP JUMPDEST PUSH1 0x40 MLOAD PUSH2 0x15B SWAP2 SWAP1 PUSH2 0xAE2 JUMP JUMPDEST PUSH1 0x40 MLOAD DUP1 SWAP2 SUB SWAP1 RETURN JUMPDEST CALLVALUE DUP1 ISZERO PUSH2 0x170 JUMPI PUSH1 0x0 DUP1 REVERT JUMPDEST POP PUSH2 0x18B PUSH1 0x4 DUP1 CALLDATASIZE SUB DUP2 ADD SWAP1 PUSH2 0x186 SWAP2 SWAP1 PUSH2 0xB29 JUMP JUMPDEST PUSH2 0x3F5 JUMP JUMPDEST STOP JUMPDEST CALLVALUE DUP1 ISZERO PUSH2 0x199 JUMPI PUSH1 0x0 DUP1 REVERT JUMPDEST POP PUSH2 0x1B4 PUSH1 0x4 DUP1 CALLDATASIZE SUB DUP2 ADD SWAP1 PUSH2 0x1AF SWAP2 SWAP1 PUSH2 0xB29 JUMP JUMPDEST PUSH2 0x564 JUMP JUMPDEST STOP JUMPDEST CALLVALUE DUP1 ISZERO PUSH2 0x1C2 JUMPI PUSH1 0x0 DUP1 REVERT JUMPDEST POP PUSH2 0x1CB PUSH2 0x6A2 JUMP JUMPDEST STOP JUMPDEST CALLVALUE DUP1 ISZERO PUSH2 0x1D9 JUMPI PUSH1 0x0 DUP1 REVERT JUMPDEST POP PUSH2 0x1E2 PUSH2 0x7DB JUMP JUMPDEST PUSH1 0x40 MLOAD PUSH2 0x1EF SWAP2 SWAP1 PUSH2 0xAE2 JUMP JUMPDEST PUSH1 0x40 MLOAD DUP1 SWAP2 SUB SWAP1 RETURN JUMPDEST CALLVALUE DUP1 ISZERO PUSH2 0x204 JUMPI PUSH1 0x0 DUP1 REVERT JUMPDEST POP PUSH2 0x21F PUSH1 0x4 DUP1 CALLDATASIZE SUB DUP2 ADD SWAP1 PUSH2 0x21A SWAP2 SWAP1 PUSH2 0xB29 JUMP JUMPDEST PUSH2 0x7E1 JUMP JUMPDEST PUSH1 0x40 MLOAD PUSH2 0x230 SWAP6 SWAP5 SWAP4 SWAP3 SWAP2 SWAP1 PUSH2 0xC2B JUMP JUMPDEST PUSH1 0x40 MLOAD DUP1 SWAP2 SUB SWAP1 RETURN JUMPDEST CALLVALUE DUP1 ISZERO PUSH2 0x245 JUMPI PUSH1 0x0 DUP1 REVERT JUMPDEST POP PUSH2 0x260 PUSH1 0x4 DUP1 CALLDATASIZE SUB DUP2 ADD SWAP1 PUSH2 0x25B SWAP2 SWAP1 PUSH2 0xDE6 JUMP JUMPDEST PUSH2 0x8CC JUMP JUMPDEST STOP JUMPDEST CALLVALUE DUP1 ISZERO PUSH2 0x26E JUMPI PUSH1 0x0 DUP1 REVERT JUMPDEST POP PUSH2 0x277 PUSH2 0xA18 JUMP JUMPDEST PUSH1 0x40 MLOAD PUSH2 0x284 SWAP2 SWAP1 PUSH2 0xAE2 JUMP JUMPDEST PUSH1 0x40 MLOAD DUP1 SWAP2 SUB SWAP1 RETURN JUMPDEST CALLVALUE DUP1 ISZERO PUSH2 0x299 JUMPI PUSH1 0x0 DUP1 REVERT JUMPDEST POP PUSH2 0x2A2 PUSH2 0xA1E JUMP JUMPDEST PUSH1 0x40 MLOAD PUSH2 0x2AF SWAP2 SWAP1 PUSH2 0xAE2 JUMP JUMPDEST PUSH1 0x40 MLOAD DUP1 SWAP2 SUB SWAP1 RETURN JUMPDEST CALLVALUE DUP1 ISZERO PUSH2 0x2C4 JUMPI PUSH1 0x0 DUP1 REVERT JUMPDEST POP PUSH2 0x2CD PUSH2 0xA24 JUMP JUMPDEST PUSH1 0x40 MLOAD PUSH2 0x2DA SWAP2 SWAP1 PUSH2 0xAE2 JUMP JUMPDEST PUSH1 0x40 MLOAD DUP1 SWAP2 SUB SWAP1 RETURN JUMPDEST PUSH1 0x4 SLOAD TIMESTAMP LT PUSH2 0x2F1 JUMPI PUSH1 0x0 DUP1 REVERT JUMPDEST PUSH1 0x2 SLOAD CALLVALUE LT ISZERO PUSH2 0x300 JUMPI PUSH1 0x0 DUP1 REVERT JUMPDEST PUSH1 0x0 DUP1 PUSH1 0x0 CALLER PUSH20 0xFFFFFFFFFFFFFFFFFFFFFFFFFFFFFFFFFFFFFFFF AND PUSH20 0xFFFFFFFFFFFFFFFFFFFFFFFFFFFFFFFFFFFFFFFF AND DUP2 MSTORE PUSH1 0x20 ADD SWAP1 DUP2 MSTORE PUSH1 0x20 ADD PUSH1 0x0 KECCAK256 SLOAD SUB PUSH2 0x35F JUMPI PUSH1 0x5 PUSH1 0x0 DUP2 SLOAD DUP1 SWAP3 SWAP2 SWAP1 PUSH2 0x359 SWAP1 PUSH2 0xE84 JUMP JUMPDEST SWAP2 SWAP1 POP SSTORE POP JUMPDEST CALLVALUE PUSH1 0x0 DUP1 CALLER PUSH20 0xFFFFFFFFFFFFFFFFFFFFFFFFFFFFFFFFFFFFFFFF AND PUSH20 0xFFFFFFFFFFFFFFFFFFFFFFFFFFFFFFFFFFFFFFFF AND DUP2 MSTORE PUSH1 0x20 ADD SWAP1 DUP2 MSTORE PUSH1 0x20 ADD PUSH1 0x0 KECCAK256 PUSH1 0x0 DUP3 DUP3 SLOAD PUSH2 0x3AD SWAP2 SWAP1 PUSH2 0xECC JUMP JUMPDEST SWAP3 POP POP DUP2 SWAP1 SSTORE POP CALLVALUE PUSH1 0x6 PUSH1 0x0 DUP3 DUP3 SLOAD PUSH2 0x3C6 SWAP2 SWAP1 PUSH2 0xECC JUMP JUMPDEST SWAP3 POP POP DUP2 SWAP1 SSTORE POP JUMP JUMPDEST PUSH1 0x0 PUSH1 0x20 MSTORE DUP1 PUSH1 0x0 MSTORE PUSH1 0x40 PUSH1 0x0 KECCAK256 PUSH1 0x0 SWAP2 POP SWAP1 POP SLOAD DUP2 JUMP JUMPDEST PUSH1 0x0 SELFBALANCE SWAP1 POP SWAP1 JUMP JUMPDEST PUSH1 0x4 SLOAD DUP2 JUMP JUMPDEST PUSH1 0x0 DUP1 PUSH1 0x0 CALLER PUSH20 0xFFFFFFFFFFFFFFFFFFFFFFFFFFFFFFFFFFFFFFFF AND PUSH20 0xFFFFFFFFFFFFFFFFFFFFFFFFFFFFFFFFFFFFFFFF AND DUP2 MSTORE PUSH1 0x20 ADD SWAP1 DUP2 MSTORE PUSH1 0x20 ADD PUSH1 0x0 KECCAK256 SLOAD GT PUSH2 0x440 JUMPI PUSH1 0x0 DUP1 REVERT JUMPDEST PUSH1 0x0 PUSH1 0x7 PUSH1 0x0 DUP4 DUP2 MSTORE PUSH1 0x20 ADD SWAP1 DUP2 MSTORE PUSH1 0x20 ADD PUSH1 0x0 KECCAK256 SWAP1 POP PUSH1 0x0 ISZERO ISZERO DUP2 PUSH1 0x5 ADD PUSH1 0x0 CALLER PUSH20 0xFFFFFFFFFFFFFFFFFFFFFFFFFFFFFFFFFFFFFFFF AND PUSH20 0xFFFFFFFFFFFFFFFFFFFFFFFFFFFFFFFFFFFFFFFF AND DUP2 MSTORE PUSH1 0x20 ADD SWAP1 DUP2 MSTORE PUSH1 0x20 ADD PUSH1 0x0 KECCAK256 PUSH1 0x0 SWAP1 SLOAD SWAP1 PUSH2 0x100 EXP SWAP1 DIV PUSH1 0xFF AND ISZERO ISZERO EQ PUSH2 0x4EC JUMPI PUSH1 0x40 MLOAD PUSH32 0x8C379A000000000000000000000000000000000000000000000000000000000 DUP2 MSTORE PUSH1 0x4 ADD PUSH2 0x4E3 SWAP1 PUSH2 0xF6E JUMP JUMPDEST PUSH1 0x40 MLOAD DUP1 SWAP2 SUB SWAP1 REVERT JUMPDEST DUP1 PUSH1 0x4 ADD PUSH1 0x0 DUP2 SLOAD DUP1 SWAP3 SWAP2 SWAP1 PUSH2 0x501 SWAP1 PUSH2 0xE84 JUMP JUMPDEST SWAP2 SWAP1 POP SSTORE POP PUSH1 0x1 DUP2 PUSH1 0x5 ADD PUSH1 0x0 CALLER PUSH20 0xFFFFFFFFFFFFFFFFFFFFFFFFFFFFFFFFFFFFFFFF AND PUSH20 0xFFFFFFFFFFFFFFFFFFFFFFFFFFFFFFFFFFFFFFFF AND DUP2 MSTORE PUSH1 0x20 ADD SWAP1 DUP2 MSTORE PUSH1 0x20 ADD PUSH1 0x0 KECCAK256 PUSH1 0x0 PUSH2 0x100 EXP DUP2 SLOAD DUP2 PUSH1 0xFF MUL NOT AND SWAP1 DUP4 ISZERO ISZERO MUL OR SWAP1 SSTORE POP POP POP JUMP JUMPDEST PUSH1 0x1 PUSH1 0x0 SWAP1 SLOAD SWAP1 PUSH2 0x100 EXP SWAP1 DIV PUSH20 0xFFFFFFFFFFFFFFFFFFFFFFFFFFFFFFFFFFFFFFFF AND PUSH20 0xFFFFFFFFFFFFFFFFFFFFFFFFFFFFFFFFFFFFFFFF AND CALLER PUSH20 0xFFFFFFFFFFFFFFFFFFFFFFFFFFFFFFFFFFFFFFFF AND EQ PUSH2 0x5BE JUMPI PUSH1 0x0 DUP1 REVERT JUMPDEST PUSH1 0x0 PUSH1 0x7 PUSH1 0x0 DUP4 DUP2 MSTORE PUSH1 0x20 ADD SWAP1 DUP2 MSTORE PUSH1 0x20 ADD PUSH1 0x0 KECCAK256 SWAP1 POP PUSH1 0x0 ISZERO ISZERO DUP2 PUSH1 0x3 ADD PUSH1 0x0 SWAP1 SLOAD SWAP1 PUSH2 0x100 EXP SWAP1 DIV PUSH1 0xFF AND ISZERO ISZERO EQ PUSH2 0x5F7 JUMPI PUSH1 0x0 DUP1 REVERT JUMPDEST PUSH1 0x2 PUSH1 0x5 SLOAD PUSH2 0x606 SWAP2 SWAP1 PUSH2 0xFBD JUMP JUMPDEST DUP2 PUSH1 0x4 ADD SLOAD GT PUSH2 0x615 JUMPI PUSH1 0x0 DUP1 REVERT JUMPDEST DUP1 PUSH1 0x1 ADD PUSH1 0x0 SWAP1 SLOAD SWAP1 PUSH2 0x100 EXP SWAP1 DIV PUSH20 0xFFFFFFFFFFFFFFFFFFFFFFFFFFFFFFFFFFFFFFFF AND PUSH20 0xFFFFFFFFFFFFFFFFFFFFFFFFFFFFFFFFFFFFFFFF AND PUSH2 0x8FC PUSH1 0x64 SWAP1 DUP2 ISZERO MUL SWAP1 PUSH1 0x40 MLOAD PUSH1 0x0 PUSH1 0x40 MLOAD DUP1 DUP4 SUB DUP2 DUP6 DUP9 DUP9 CALL SWAP4 POP POP POP POP ISZERO DUP1 ISZERO PUSH2 0x680 JUMPI RETURNDATASIZE PUSH1 0x0 DUP1 RETURNDATACOPY RETURNDATASIZE PUSH1 0x0 REVERT JUMPDEST POP PUSH1 0x1 DUP2 PUSH1 0x3 ADD PUSH1 0x0 PUSH2 0x100 EXP DUP2 SLOAD DUP2 PUSH1 0xFF MUL NOT AND SWAP1 DUP4 ISZERO ISZERO MUL OR SWAP1 SSTORE POP POP POP JUMP JUMPDEST PUSH1 0x4 SLOAD TIMESTAMP LT DUP1 ISZERO PUSH2 0x6B6 JUMPI POP PUSH1 0x3 SLOAD PUSH1 0x6 SLOAD LT JUMPDEST PUSH2 0x6BF JUMPI PUSH1 0x0 DUP1 REVERT JUMPDEST PUSH1 0x0 DUP1 PUSH1 0x0 CALLER PUSH20 0xFFFFFFFFFFFFFFFFFFFFFFFFFFFFFFFFFFFFFFFF AND PUSH20 0xFFFFFFFFFFFFFFFFFFFFFFFFFFFFFFFFFFFFFFFF AND DUP2 MSTORE PUSH1 0x20 ADD SWAP1 DUP2 MSTORE PUSH1 0x20 ADD PUSH1 0x0 KECCAK256 SLOAD GT PUSH2 0x70A JUMPI PUSH1 0x0 DUP1 REVERT JUMPDEST PUSH1 0x0 CALLER SWAP1 POP DUP1 PUSH20 0xFFFFFFFFFFFFFFFFFFFFFFFFFFFFFFFFFFFFFFFF AND PUSH2 0x8FC PUSH1 0x0 DUP1 CALLER PUSH20 0xFFFFFFFFFFFFFFFFFFFFFFFFFFFFFFFFFFFFFFFF AND PUSH20 0xFFFFFFFFFFFFFFFFFFFFFFFFFFFFFFFFFFFFFFFF AND DUP2 MSTORE PUSH1 0x20 ADD SWAP1 DUP2 MSTORE PUSH1 0x20 ADD PUSH1 0x0 KECCAK256 SLOAD SWAP1 DUP2 ISZERO MUL SWAP1 PUSH1 0x40 MLOAD PUSH1 0x0 PUSH1 0x40 MLOAD DUP1 DUP4 SUB DUP2 DUP6 DUP9 DUP9 CALL SWAP4 POP POP POP POP ISZERO DUP1 ISZERO PUSH2 0x793 JUMPI RETURNDATASIZE PUSH1 0x0 DUP1 RETURNDATACOPY RETURNDATASIZE PUSH1 0x0 REVERT JUMPDEST POP PUSH1 0x0 DUP1 PUSH1 0x0 CALLER PUSH20 0xFFFFFFFFFFFFFFFFFFFFFFFFFFFFFFFFFFFFFFFF AND PUSH20 0xFFFFFFFFFFFFFFFFFFFFFFFFFFFFFFFFFFFFFFFF AND DUP2 MSTORE PUSH1 0x20 ADD SWAP1 DUP2 MSTORE PUSH1 0x20 ADD PUSH1 0x0 KECCAK256 DUP2 SWAP1 SSTORE POP POP JUMP JUMPDEST PUSH1 0x2 SLOAD DUP2 JUMP JUMPDEST PUSH1 0x7 PUSH1 0x20 MSTORE DUP1 PUSH1 0x0 MSTORE PUSH1 0x40 PUSH1 0x0 KECCAK256 PUSH1 0x0 SWAP2 POP SWAP1 POP DUP1 PUSH1 0x0 ADD DUP1 SLOAD PUSH2 0x804 SWAP1 PUSH2 0x101D JUMP JUMPDEST DUP1 PUSH1 0x1F ADD PUSH1 0x20 DUP1 SWAP2 DIV MUL PUSH1 0x20 ADD PUSH1 0x40 MLOAD SWAP1 DUP2 ADD PUSH1 0x40 MSTORE DUP1 SWAP3 SWAP2 SWAP1 DUP2 DUP2 MSTORE PUSH1 0x20 ADD DUP3 DUP1 SLOAD PUSH2 0x830 SWAP1 PUSH2 0x101D JUMP JUMPDEST DUP1 ISZERO PUSH2 0x87D JUMPI DUP1 PUSH1 0x1F LT PUSH2 0x852 JUMPI PUSH2 0x100 DUP1 DUP4 SLOAD DIV MUL DUP4 MSTORE SWAP2 PUSH1 0x20 ADD SWAP2 PUSH2 0x87D JUMP JUMPDEST DUP3 ADD SWAP2 SWAP1 PUSH1 0x0 MSTORE PUSH1 0x20 PUSH1 0x0 KECCAK256 SWAP1 JUMPDEST DUP2 SLOAD DUP2 MSTORE SWAP1 PUSH1 0x1 ADD SWAP1 PUSH1 0x20 ADD DUP1 DUP4 GT PUSH2 0x860 JUMPI DUP3 SWAP1 SUB PUSH1 0x1F AND DUP3 ADD SWAP2 JUMPDEST POP POP POP POP POP SWAP1 DUP1 PUSH1 0x1 ADD PUSH1 0x0 SWAP1 SLOAD SWAP1 PUSH2 0x100 EXP SWAP1 DIV PUSH20 0xFFFFFFFFFFFFFFFFFFFFFFFFFFFFFFFFFFFFFFFF AND SWAP1 DUP1 PUSH1 0x2 ADD SLOAD SWAP1 DUP1 PUSH1 0x3 ADD PUSH1 0x0 SWAP1 SLOAD SWAP1 PUSH2 0x100 EXP SWAP1 DIV PUSH1 0xFF AND SWAP1 DUP1 PUSH1 0x4 ADD SLOAD SWAP1 POP DUP6 JUMP JUMPDEST PUSH1 0x1 PUSH1 0x0 SWAP1 SLOAD SWAP1 PUSH2 0x100 EXP SWAP1 DIV PUSH20 0xFFFFFFFFFFFFFFFFFFFFFFFFFFFFFFFFFFFFFFFF AND PUSH20 0xFFFFFFFFFFFFFFFFFFFFFFFFFFFFFFFFFFFFFFFF AND CALLER PUSH20 0xFFFFFFFFFFFFFFFFFFFFFFFFFFFFFFFFFFFFFFFF AND EQ PUSH2 0x95C JUMPI PUSH1 0x40 MLOAD PUSH32 0x8C379A000000000000000000000000000000000000000000000000000000000 DUP2 MSTORE PUSH1 0x4 ADD PUSH2 0x953 SWAP1 PUSH2 0x109A JUMP JUMPDEST PUSH1 0x40 MLOAD DUP1 SWAP2 SUB SWAP1 REVERT JUMPDEST PUSH1 0x0 PUSH1 0x7 PUSH1 0x0 PUSH1 0x8 SLOAD DUP2 MSTORE PUSH1 0x20 ADD SWAP1 DUP2 MSTORE PUSH1 0x20 ADD PUSH1 0x0 KECCAK256 SWAP1 POP PUSH1 0x8 PUSH1 0x0 DUP2 SLOAD DUP1 SWAP3 SWAP2 SWAP1 PUSH2 0x988 SWAP1 PUSH2 0xE84 JUMP JUMPDEST SWAP2 SWAP1 POP SSTORE POP DUP4 DUP2 PUSH1 0x0 ADD SWAP1 DUP2 PUSH2 0x99E SWAP2 SWAP1 PUSH2 0x1266 JUMP JUMPDEST POP DUP3 DUP2 PUSH1 0x1 ADD PUSH1 0x0 PUSH2 0x100 EXP DUP2 SLOAD DUP2 PUSH20 0xFFFFFFFFFFFFFFFFFFFFFFFFFFFFFFFFFFFFFFFF MUL NOT AND SWAP1 DUP4 PUSH20 0xFFFFFFFFFFFFFFFFFFFFFFFFFFFFFFFFFFFFFFFF AND MUL OR SWAP1 SSTORE POP DUP2 DUP2 PUSH1 0x2 ADD DUP2 SWAP1 SSTORE POP PUSH1 0x0 DUP2 PUSH1 0x3 ADD PUSH1 0x0 PUSH2 0x100 EXP DUP2 SLOAD DUP2 PUSH1 0xFF MUL NOT AND SWAP1 DUP4 ISZERO ISZERO MUL OR SWAP1 SSTORE POP PUSH1 0x0 DUP2 PUSH1 0x4 ADD DUP2 SWAP1 SSTORE POP POP POP POP POP JUMP JUMPDEST PUSH1 0x8 SLOAD DUP2 JUMP JUMPDEST PUSH1 0x6 SLOAD DUP2 JUMP JUMPDEST PUSH1 0x3 SLOAD DUP2 JUMP JUMPDEST PUSH1 0x0 PUSH1 0x40 MLOAD SWAP1 POP SWAP1 JUMP JUMPDEST PUSH1 0x0 DUP1 REVERT JUMPDEST PUSH1 0x0 DUP1 REVERT JUMPDEST PUSH1 0x0 PUSH20 0xFFFFFFFFFFFFFFFFFFFFFFFFFFFFFFFFFFFFFFFF DUP3 AND SWAP1 POP SWAP2 SWAP1 POP JUMP JUMPDEST PUSH1 0x0 PUSH2 0xA69 DUP3 PUSH2 0xA3E JUMP JUMPDEST SWAP1 POP SWAP2 SWAP1 POP JUMP JUMPDEST PUSH2 0xA79 DUP2 PUSH2 0xA5E JUMP JUMPDEST DUP2 EQ PUSH2 0xA84 JUMPI PUSH1 0x0 DUP1 REVERT JUMPDEST POP JUMP JUMPDEST PUSH1 0x0 DUP2 CALLDATALOAD SWAP1 POP PUSH2 0xA96 DUP2 PUSH2 0xA70 JUMP JUMPDEST SWAP3 SWAP2 POP POP JUMP JUMPDEST PUSH1 0x0 PUSH1 0x20 DUP3 DUP5 SUB SLT ISZERO PUSH2 0xAB2 JUMPI PUSH2 0xAB1 PUSH2 0xA34 JUMP JUMPDEST JUMPDEST PUSH1 0x0 PUSH2 0xAC0 DUP5 DUP3 DUP6 ADD PUSH2 0xA87 JUMP JUMPDEST SWAP2 POP POP SWAP3 SWAP2 POP POP JUMP JUMPDEST PUSH1 0x0 DUP2 SWAP1 POP SWAP2 SWAP1 POP JUMP JUMPDEST PUSH2 0xADC DUP2 PUSH2 0xAC9 JUMP JUMPDEST DUP3 MSTORE POP POP JUMP JUMPDEST PUSH1 0x0 PUSH1 0x20 DUP3 ADD SWAP1 POP PUSH2 0xAF7 PUSH1 0x0 DUP4 ADD DUP5 PUSH2 0xAD3 JUMP JUMPDEST SWAP3 SWAP2 POP POP JUMP JUMPDEST PUSH2 0xB06 DUP2 PUSH2 0xAC9 JUMP JUMPDEST DUP2 EQ PUSH2 0xB11 JUMPI PUSH1 0x0 DUP1 REVERT JUMPDEST POP JUMP JUMPDEST PUSH1 0x0 DUP2 CALLDATALOAD SWAP1 POP PUSH2 0xB23 DUP2 PUSH2 0xAFD JUMP JUMPDEST SWAP3 SWAP2 POP POP JUMP JUMPDEST PUSH1 0x0 PUSH1 0x20 DUP3 DUP5 SUB SLT ISZERO PUSH2 0xB3F JUMPI PUSH2 0xB3E PUSH2 0xA34 JUMP JUMPDEST JUMPDEST PUSH1 0x0 PUSH2 0xB4D DUP5 DUP3 DUP6 ADD PUSH2 0xB14 JUMP JUMPDEST SWAP2 POP POP SWAP3 SWAP2 POP POP JUMP JUMPDEST PUSH1 0x0 DUP2 MLOAD SWAP1 POP SWAP2 SWAP1 POP JUMP JUMPDEST PUSH1 0x0 DUP3 DUP3 MSTORE PUSH1 0x20 DUP3 ADD SWAP1 POP SWAP3 SWAP2 POP POP JUMP JUMPDEST PUSH1 0x0 JUMPDEST DUP4 DUP2 LT ISZERO PUSH2 0xB90 JUMPI DUP1 DUP3 ADD MLOAD DUP2 DUP5 ADD MSTORE PUSH1 0x20 DUP2 ADD SWAP1 POP PUSH2 0xB75 JUMP JUMPDEST DUP4 DUP2 GT ISZERO PUSH2 0xB9F JUMPI PUSH1 0x0 DUP5 DUP5 ADD MSTORE JUMPDEST POP POP POP POP JUMP JUMPDEST PUSH1 0x0 PUSH1 0x1F NOT PUSH1 0x1F DUP4 ADD AND SWAP1 POP SWAP2 SWAP1 POP JUMP JUMPDEST PUSH1 0x0 PUSH2 0xBC1 DUP3 PUSH2 0xB56 JUMP JUMPDEST PUSH2 0xBCB DUP2 DUP6 PUSH2 0xB61 JUMP JUMPDEST SWAP4 POP PUSH2 0xBDB DUP2 DUP6 PUSH1 0x20 DUP7 ADD PUSH2 0xB72 JUMP JUMPDEST PUSH2 0xBE4 DUP2 PUSH2 0xBA5 JUMP JUMPDEST DUP5 ADD SWAP2 POP POP SWAP3 SWAP2 POP POP JUMP JUMPDEST PUSH1 0x0 PUSH2 0xBFA DUP3 PUSH2 0xA3E JUMP JUMPDEST SWAP1 POP SWAP2 SWAP1 POP JUMP JUMPDEST PUSH2 0xC0A DUP2 PUSH2 0xBEF JUMP JUMPDEST DUP3 MSTORE POP POP JUMP JUMPDEST PUSH1 0x0 DUP2 ISZERO ISZERO SWAP1 POP SWAP2 SWAP1 POP JUMP JUMPDEST PUSH2 0xC25 DUP2 PUSH2 0xC10 JUMP JUMPDEST DUP3 MSTORE POP POP JUMP JUMPDEST PUSH1 0x0 PUSH1 0xA0 DUP3 ADD SWAP1 POP DUP2 DUP2 SUB PUSH1 0x0 DUP4 ADD MSTORE PUSH2 0xC45 DUP2 DUP9 PUSH2 0xBB6 JUMP JUMPDEST SWAP1 POP PUSH2 0xC54 PUSH1 0x20 DUP4 ADD DUP8 PUSH2 0xC01 JUMP JUMPDEST PUSH2 0xC61 PUSH1 0x40 DUP4 ADD DUP7 PUSH2 0xAD3 JUMP JUMPDEST PUSH2 0xC6E PUSH1 0x60 DUP4 ADD DUP6 PUSH2 0xC1C JUMP JUMPDEST PUSH2 0xC7B PUSH1 0x80 DUP4 ADD DUP5 PUSH2 0xAD3 JUMP JUMPDEST SWAP7 SWAP6 POP POP POP POP POP POP JUMP JUMPDEST PUSH1 0x0 DUP1 REVERT JUMPDEST PUSH1 0x0 DUP1 REVERT JUMPDEST PUSH32 0x4E487B7100000000000000000000000000000000000000000000000000000000 PUSH1 0x0 MSTORE PUSH1 0x41 PUSH1 0x4 MSTORE PUSH1 0x24 PUSH1 0x0 REVERT JUMPDEST PUSH2 0xCC7 DUP3 PUSH2 0xBA5 JUMP JUMPDEST DUP2 ADD DUP2 DUP2 LT PUSH8 0xFFFFFFFFFFFFFFFF DUP3 GT OR ISZERO PUSH2 0xCE6 JUMPI PUSH2 0xCE5 PUSH2 0xC8F JUMP JUMPDEST JUMPDEST DUP1 PUSH1 0x40 MSTORE POP POP POP JUMP JUMPDEST PUSH1 0x0 PUSH2 0xCF9 PUSH2 0xA2A JUMP JUMPDEST SWAP1 POP PUSH2 0xD05 DUP3 DUP3 PUSH2 0xCBE JUMP JUMPDEST SWAP2 SWAP1 POP JUMP JUMPDEST PUSH1 0x0 PUSH8 0xFFFFFFFFFFFFFFFF DUP3 GT ISZERO PUSH2 0xD25 JUMPI PUSH2 0xD24 PUSH2 0xC8F JUMP JUMPDEST JUMPDEST PUSH2 0xD2E DUP3 PUSH2 0xBA5 JUMP JUMPDEST SWAP1 POP PUSH1 0x20 DUP2 ADD SWAP1 POP SWAP2 SWAP1 POP JUMP JUMPDEST DUP3 DUP2 DUP4 CALLDATACOPY PUSH1 0x0 DUP4 DUP4 ADD MSTORE POP POP POP JUMP JUMPDEST PUSH1 0x0 PUSH2 0xD5D PUSH2 0xD58 DUP5 PUSH2 0xD0A JUMP JUMPDEST PUSH2 0xCEF JUMP JUMPDEST SWAP1 POP DUP3 DUP2 MSTORE PUSH1 0x20 DUP2 ADD DUP5 DUP5 DUP5 ADD GT ISZERO PUSH2 0xD79 JUMPI PUSH2 0xD78 PUSH2 0xC8A JUMP JUMPDEST JUMPDEST PUSH2 0xD84 DUP5 DUP3 DUP6 PUSH2 0xD3B JUMP JUMPDEST POP SWAP4 SWAP3 POP POP POP JUMP JUMPDEST PUSH1 0x0 DUP3 PUSH1 0x1F DUP4 ADD SLT PUSH2 0xDA1 JUMPI PUSH2 0xDA0 PUSH2 0xC85 JUMP JUMPDEST JUMPDEST DUP2 CALLDATALOAD PUSH2 0xDB1 DUP5 DUP3 PUSH1 0x20 DUP7 ADD PUSH2 0xD4A JUMP JUMPDEST SWAP2 POP POP SWAP3 SWAP2 POP POP JUMP JUMPDEST PUSH2 0xDC3 DUP2 PUSH2 0xBEF JUMP JUMPDEST DUP2 EQ PUSH2 0xDCE JUMPI PUSH1 0x0 DUP1 REVERT JUMPDEST POP JUMP JUMPDEST PUSH1 0x0 DUP2 CALLDATALOAD SWAP1 POP PUSH2 0xDE0 DUP2 PUSH2 0xDBA JUMP JUMPDEST SWAP3 SWAP2 POP POP JUMP JUMPDEST PUSH1 0x0 DUP1 PUSH1 0x0 PUSH1 0x60 DUP5 DUP7 SUB SLT ISZERO PUSH2 0xDFF JUMPI PUSH2 0xDFE PUSH2 0xA34 JUMP JUMPDEST JUMPDEST PUSH1 0x0 DUP5 ADD CALLDATALOAD PUSH8 0xFFFFFFFFFFFFFFFF DUP2 GT ISZERO PUSH2 0xE1D JUMPI PUSH2 0xE1C PUSH2 0xA39 JUMP JUMPDEST JUMPDEST PUSH2 0xE29 DUP7 DUP3 DUP8 ADD PUSH2 0xD8C JUMP JUMPDEST SWAP4 POP POP PUSH1 0x20 PUSH2 0xE3A DUP7 DUP3 DUP8 ADD PUSH2 0xDD1 JUMP JUMPDEST SWAP3 POP POP PUSH1 0x40 PUSH2 0xE4B DUP7 DUP3 DUP8 ADD PUSH2 0xB14 JUMP JUMPDEST SWAP2 POP POP SWAP3 POP SWAP3 POP SWAP3 JUMP JUMPDEST PUSH32 0x4E487B7100000000000000000000000000000000000000000000000000000000 PUSH1 0x0 MSTORE PUSH1 0x11 PUSH1 0x4 MSTORE PUSH1 0x24 PUSH1 0x0 REVERT JUMPDEST PUSH1 0x0 PUSH2 0xE8F DUP3 PUSH2 0xAC9 JUMP JUMPDEST SWAP2 POP PUSH32 0xFFFFFFFFFFFFFFFFFFFFFFFFFFFFFFFFFFFFFFFFFFFFFFFFFFFFFFFFFFFFFFFF DUP3 SUB PUSH2 0xEC1 JUMPI PUSH2 0xEC0 PUSH2 0xE55 JUMP JUMPDEST JUMPDEST PUSH1 0x1 DUP3 ADD SWAP1 POP SWAP2 SWAP1 POP JUMP JUMPDEST PUSH1 0x0 PUSH2 0xED7 DUP3 PUSH2 0xAC9 JUMP JUMPDEST SWAP2 POP PUSH2 0xEE2 DUP4 PUSH2 0xAC9 JUMP JUMPDEST SWAP3 POP DUP3 PUSH32 0xFFFFFFFFFFFFFFFFFFFFFFFFFFFFFFFFFFFFFFFFFFFFFFFFFFFFFFFFFFFFFFFF SUB DUP3 GT ISZERO PUSH2 0xF17 JUMPI PUSH2 0xF16 PUSH2 0xE55 JUMP JUMPDEST JUMPDEST DUP3 DUP3 ADD SWAP1 POP SWAP3 SWAP2 POP POP JUMP JUMPDEST PUSH32 0x796F75206861766520616C726561647920766F74656400000000000000000000 PUSH1 0x0 DUP3 ADD MSTORE POP JUMP JUMPDEST PUSH1 0x0 PUSH2 0xF58 PUSH1 0x16 DUP4 PUSH2 0xB61 JUMP JUMPDEST SWAP2 POP PUSH2 0xF63 DUP3 PUSH2 0xF22 JUMP JUMPDEST PUSH1 0x20 DUP3 ADD SWAP1 POP SWAP2 SWAP1 POP JUMP JUMPDEST PUSH1 0x0 PUSH1 0x20 DUP3 ADD SWAP1 POP DUP2 DUP2 SUB PUSH1 0x0 DUP4 ADD MSTORE PUSH2 0xF87 DUP2 PUSH2 0xF4B JUMP JUMPDEST SWAP1 POP SWAP2 SWAP1 POP JUMP JUMPDEST PUSH32 0x4E487B7100000000000000000000000000000000000000000000000000000000 PUSH1 0x0 MSTORE PUSH1 0x12 PUSH1 0x4 MSTORE PUSH1 0x24 PUSH1 0x0 REVERT JUMPDEST PUSH1 0x0 PUSH2 0xFC8 DUP3 PUSH2 0xAC9 JUMP JUMPDEST SWAP2 POP PUSH2 0xFD3 DUP4 PUSH2 0xAC9 JUMP JUMPDEST SWAP3 POP DUP3 PUSH2 0xFE3 JUMPI PUSH2 0xFE2 PUSH2 0xF8E JUMP JUMPDEST JUMPDEST DUP3 DUP3 DIV SWAP1 POP SWAP3 SWAP2 POP POP JUMP JUMPDEST PUSH32 0x4E487B7100000000000000000000000000000000000000000000000000000000 PUSH1 0x0 MSTORE PUSH1 0x22 PUSH1 0x4 MSTORE PUSH1 0x24 PUSH1 0x0 REVERT JUMPDEST PUSH1 0x0 PUSH1 0x2 DUP3 DIV SWAP1 POP PUSH1 0x1 DUP3 AND DUP1 PUSH2 0x1035 JUMPI PUSH1 0x7F DUP3 AND SWAP2 POP JUMPDEST PUSH1 0x20 DUP3 LT DUP2 SUB PUSH2 0x1048 JUMPI PUSH2 0x1047 PUSH2 0xFEE JUMP JUMPDEST JUMPDEST POP SWAP2 SWAP1 POP JUMP JUMPDEST PUSH32 0x6E6F7420746865206D616E656765720000000000000000000000000000000000 PUSH1 0x0 DUP3 ADD MSTORE POP JUMP JUMPDEST PUSH1 0x0 PUSH2 0x1084 PUSH1 0xF DUP4 PUSH2 0xB61 JUMP JUMPDEST SWAP2 POP PUSH2 0x108F DUP3 PUSH2 0x104E JUMP JUMPDEST PUSH1 0x20 DUP3 ADD SWAP1 POP SWAP2 SWAP1 POP JUMP JUMPDEST PUSH1 0x0 PUSH1 0x20 DUP3 ADD SWAP1 POP DUP2 DUP2 SUB PUSH1 0x0 DUP4 ADD MSTORE PUSH2 0x10B3 DUP2 PUSH2 0x1077 JUMP JUMPDEST SWAP1 POP SWAP2 SWAP1 POP JUMP JUMPDEST PUSH1 0x0 DUP2 SWAP1 POP DUP2 PUSH1 0x0 MSTORE PUSH1 0x20 PUSH1 0x0 KECCAK256 SWAP1 POP SWAP2 SWAP1 POP JUMP JUMPDEST PUSH1 0x0 PUSH1 0x20 PUSH1 0x1F DUP4 ADD DIV SWAP1 POP SWAP2 SWAP1 POP JUMP JUMPDEST PUSH1 0x0 DUP3 DUP3 SHL SWAP1 POP SWAP3 SWAP2 POP POP JUMP JUMPDEST PUSH1 0x0 PUSH1 0x8 DUP4 MUL PUSH2 0x111C PUSH32 0xFFFFFFFFFFFFFFFFFFFFFFFFFFFFFFFFFFFFFFFFFFFFFFFFFFFFFFFFFFFFFFFF DUP3 PUSH2 0x10DF JUMP JUMPDEST PUSH2 0x1126 DUP7 DUP4 PUSH2 0x10DF JUMP JUMPDEST SWAP6 POP DUP1 NOT DUP5 AND SWAP4 POP DUP1 DUP7 AND DUP5 OR SWAP3 POP POP POP SWAP4 SWAP3 POP POP POP JUMP JUMPDEST PUSH1 0x0 DUP2 SWAP1 POP SWAP2 SWAP1 POP JUMP JUMPDEST PUSH1 0x0 PUSH2 0x1163 PUSH2 0x115E PUSH2 0x1159 DUP5 PUSH2 0xAC9 JUMP JUMPDEST PUSH2 0x113E JUMP JUMPDEST PUSH2 0xAC9 JUMP JUMPDEST SWAP1 POP SWAP2 SWAP1 POP JUMP JUMPDEST PUSH1 0x0 DUP2 SWAP1 POP SWAP2 SWAP1 POP JUMP JUMPDEST PUSH2 0x117D DUP4 PUSH2 0x1148 JUMP JUMPDEST PUSH2 0x1191 PUSH2 0x1189 DUP3 PUSH2 0x116A JUMP JUMPDEST DUP5 DUP5 SLOAD PUSH2 0x10EC JUMP JUMPDEST DUP3 SSTORE POP POP POP POP JUMP JUMPDEST PUSH1 0x0 SWAP1 JUMP JUMPDEST PUSH2 0x11A6 PUSH2 0x1199 JUMP JUMPDEST PUSH2 0x11B1 DUP2 DUP5 DUP5 PUSH2 0x1174 JUMP JUMPDEST POP POP POP JUMP JUMPDEST JUMPDEST DUP2 DUP2 LT ISZERO PUSH2 0x11D5 JUMPI PUSH2 0x11CA PUSH1 0x0 DUP3 PUSH2 0x119E JUMP JUMPDEST PUSH1 0x1 DUP2 ADD SWAP1 POP PUSH2 0x11B7 JUMP JUMPDEST POP POP JUMP JUMPDEST PUSH1 0x1F DUP3 GT ISZERO PUSH2 0x121A JUMPI PUSH2 0x11EB DUP2 PUSH2 0x10BA JUMP JUMPDEST PUSH2 0x11F4 DUP5 PUSH2 0x10CF JUMP JUMPDEST DUP2 ADD PUSH1 0x20 DUP6 LT ISZERO PUSH2 0x1203 JUMPI DUP2 SWAP1 POP JUMPDEST PUSH2 0x1217 PUSH2 0x120F DUP6 PUSH2 0x10CF JUMP JUMPDEST DUP4 ADD DUP3 PUSH2 0x11B6 JUMP JUMPDEST POP POP JUMPDEST POP POP POP JUMP JUMPDEST PUSH1 0x0 DUP3 DUP3 SHR SWAP1 POP SWAP3 SWAP2 POP POP JUMP JUMPDEST PUSH1 0x0 PUSH2 0x123D PUSH1 0x0 NOT DUP5 PUSH1 0x8 MUL PUSH2 0x121F JUMP JUMPDEST NOT DUP1 DUP4 AND SWAP2 POP POP SWAP3 SWAP2 POP POP JUMP JUMPDEST PUSH1 0x0 PUSH2 0x1256 DUP4 DUP4 PUSH2 0x122C JUMP JUMPDEST SWAP2 POP DUP3 PUSH1 0x2 MUL DUP3 OR SWAP1 POP SWAP3 SWAP2 POP POP JUMP JUMPDEST PUSH2 0x126F DUP3 PUSH2 0xB56 JUMP JUMPDEST PUSH8 0xFFFFFFFFFFFFFFFF DUP2 GT ISZERO PUSH2 0x1288 JUMPI PUSH2 0x1287 PUSH2 0xC8F JUMP JUMPDEST JUMPDEST PUSH2 0x1292 DUP3 SLOAD PUSH2 0x101D JUMP JUMPDEST PUSH2 0x129D DUP3 DUP3 DUP6 PUSH2 0x11D9 JUMP JUMPDEST PUSH1 0x0 PUSH1 0x20 SWAP1 POP PUSH1 0x1F DUP4 GT PUSH1 0x1 DUP2 EQ PUSH2 0x12D0 JUMPI PUSH1 0x0 DUP5 ISZERO PUSH2 0x12BE JUMPI DUP3 DUP8 ADD MLOAD SWAP1 POP JUMPDEST PUSH2 0x12C8 DUP6 DUP3 PUSH2 0x124A JUMP JUMPDEST DUP7 SSTORE POP PUSH2 0x1330 JUMP JUMPDEST PUSH1 0x1F NOT DUP5 AND PUSH2 0x12DE DUP7 PUSH2 0x10BA JUMP JUMPDEST PUSH1 0x0 JUMPDEST DUP3 DUP2 LT ISZERO PUSH2 0x1306 JUMPI DUP5 DUP10 ADD MLOAD DUP3 SSTORE PUSH1 0x1 DUP3 ADD SWAP2 POP PUSH1 0x20 DUP6 ADD SWAP5 POP PUSH1 0x20 DUP2 ADD SWAP1 POP PUSH2 0x12E1 JUMP JUMPDEST DUP7 DUP4 LT ISZERO PUSH2 0x1323 JUMPI DUP5 DUP10 ADD MLOAD PUSH2 0x131F PUSH1 0x1F DUP10 AND DUP3 PUSH2 0x122C JUMP JUMPDEST DUP4 SSTORE POP JUMPDEST PUSH1 0x1 PUSH1 0x2 DUP9 MUL ADD DUP9 SSTORE POP POP POP JUMPDEST POP POP POP POP POP POP JUMP INVALID LOG2 PUSH5 0x6970667358 0x22 SLT KECCAK256 LOG0 SLOAD 0x5C JUMPI DUP3 PUSH11 0xCFC3E4F02CDEC3BE266EE6 0xCD 0xB1 SWAP8 SWAP7 0xD6 0xF MLOAD SAR 0xD2 0x26 DUP1 0x5E 0xE2 PUSH27 0x3564736F6C634300080F0033000000000000000000000000000000 "
				},
				"gasEstimates": {
					"creation": {
						"codeDepositCost": "994800",
						"executionCost": "infinite",
						"totalCost": "infinite"
					},
					"external": {
						"RequestsList(uint256)": "infinite",
						"contributors(address)": "2837",
						"deadline()": "2496",
						"getBal()": "384",
						"makePayment(uint256)": "infinite",
						"makeRequest(string,address,uint256)": "infinite",
						"minCont()": "2474",
						"numOfRequests()": "2473",
						"raisedAmount()": "2495",
						"refund()": "infinite",
						"sendEth()": "infinite",
						"target()": "2517",
						"voteRequest(uint256)": "infinite"
					}
				},
				"methodIdentifiers": {
					"RequestsList(uint256)": "8c78444a",
					"contributors(address)": "1f6d4942",
					"deadline()": "29dcb0cf",
					"getBal()": "25caa262",
					"makePayment(uint256)": "5114cb52",
					"makeRequest(string,address,uint256)": "b5fdcfa3",
					"minCont()": "728d545f",
					"numOfRequests()": "b6290e76",
					"raisedAmount()": "c59ee1dc",
					"refund()": "590e1ae3",
					"sendEth()": "06e99fef",
					"target()": "d4b83992",
					"voteRequest(uint256)": "4cb6f4a5"
				}
			},
			"storageLayout": {
				"storage": [
					{
						"astId": 5,
						"contract": "contracts/crowdFunding.sol:CrowdFunding",
						"label": "contributors",
						"offset": 0,
						"slot": "0",
						"type": "t_mapping(t_address,t_uint256)"
					},
					{
						"astId": 7,
						"contract": "contracts/crowdFunding.sol:CrowdFunding",
						"label": "maneger",
						"offset": 0,
						"slot": "1",
						"type": "t_address"
					},
					{
						"astId": 9,
						"contract": "contracts/crowdFunding.sol:CrowdFunding",
						"label": "minCont",
						"offset": 0,
						"slot": "2",
						"type": "t_uint256"
					},
					{
						"astId": 11,
						"contract": "contracts/crowdFunding.sol:CrowdFunding",
						"label": "target",
						"offset": 0,
						"slot": "3",
						"type": "t_uint256"
					},
					{
						"astId": 13,
						"contract": "contracts/crowdFunding.sol:CrowdFunding",
						"label": "deadline",
						"offset": 0,
						"slot": "4",
						"type": "t_uint256"
					},
					{
						"astId": 15,
						"contract": "contracts/crowdFunding.sol:CrowdFunding",
						"label": "noOfContributors",
						"offset": 0,
						"slot": "5",
						"type": "t_uint256"
					},
					{
						"astId": 17,
						"contract": "contracts/crowdFunding.sol:CrowdFunding",
						"label": "raisedAmount",
						"offset": 0,
						"slot": "6",
						"type": "t_uint256"
					},
					{
						"astId": 37,
						"contract": "contracts/crowdFunding.sol:CrowdFunding",
						"label": "RequestsList",
						"offset": 0,
						"slot": "7",
						"type": "t_mapping(t_uint256,t_struct(Request)32_storage)"
					},
					{
						"astId": 39,
						"contract": "contracts/crowdFunding.sol:CrowdFunding",
						"label": "numOfRequests",
						"offset": 0,
						"slot": "8",
						"type": "t_uint256"
					}
				],
				"types": {
					"t_address": {
						"encoding": "inplace",
						"label": "address",
						"numberOfBytes": "20"
					},
					"t_address_payable": {
						"encoding": "inplace",
						"label": "address payable",
						"numberOfBytes": "20"
					},
					"t_bool": {
						"encoding": "inplace",
						"label": "bool",
						"numberOfBytes": "1"
					},
					"t_mapping(t_address,t_bool)": {
						"encoding": "mapping",
						"key": "t_address",
						"label": "mapping(address => bool)",
						"numberOfBytes": "32",
						"value": "t_bool"
					},
					"t_mapping(t_address,t_uint256)": {
						"encoding": "mapping",
						"key": "t_address",
						"label": "mapping(address => uint256)",
						"numberOfBytes": "32",
						"value": "t_uint256"
					},
					"t_mapping(t_uint256,t_struct(Request)32_storage)": {
						"encoding": "mapping",
						"key": "t_uint256",
						"label": "mapping(uint256 => struct CrowdFunding.Request)",
						"numberOfBytes": "32",
						"value": "t_struct(Request)32_storage"
					},
					"t_string_storage": {
						"encoding": "bytes",
						"label": "string",
						"numberOfBytes": "32"
					},
					"t_struct(Request)32_storage": {
						"encoding": "inplace",
						"label": "struct CrowdFunding.Request",
						"members": [
							{
								"astId": 19,
								"contract": "contracts/crowdFunding.sol:CrowdFunding",
								"label": "description",
								"offset": 0,
								"slot": "0",
								"type": "t_string_storage"
							},
							{
								"astId": 21,
								"contract": "contracts/crowdFunding.sol:CrowdFunding",
								"label": "recipient",
								"offset": 0,
								"slot": "1",
								"type": "t_address_payable"
							},
							{
								"astId": 23,
								"contract": "contracts/crowdFunding.sol:CrowdFunding",
								"label": "value",
								"offset": 0,
								"slot": "2",
								"type": "t_uint256"
							},
							{
								"astId": 25,
								"contract": "contracts/crowdFunding.sol:CrowdFunding",
								"label": "completed",
								"offset": 0,
								"slot": "3",
								"type": "t_bool"
							},
							{
								"astId": 27,
								"contract": "contracts/crowdFunding.sol:CrowdFunding",
								"label": "noOfVoters",
								"offset": 0,
								"slot": "4",
								"type": "t_uint256"
							},
							{
								"astId": 31,
								"contract": "contracts/crowdFunding.sol:CrowdFunding",
								"label": "voters",
								"offset": 0,
								"slot": "5",
								"type": "t_mapping(t_address,t_bool)"
							}
						],
						"numberOfBytes": "192"
					},
					"t_uint256": {
						"encoding": "inplace",
						"label": "uint256",
						"numberOfBytes": "32"
					}
				}
			},
			"userdoc": {
				"kind": "user",
				"methods": {},
				"version": 1
			}
		}
	}
}